{
  "contractName": "Deed",
  "abi": [
    {
      "inputs": [
        {
          "internalType": "address",
          "name": "_lawyer",
          "type": "address"
        },
        {
          "internalType": "address payable",
          "name": "_beneficiary",
          "type": "address"
        },
        {
          "internalType": "uint256",
          "name": "_fromNow",
          "type": "uint256"
        }
      ],
      "stateMutability": "payable",
      "type": "constructor",
      "payable": true
    },
    {
      "anonymous": false,
      "inputs": [
        {
          "indexed": true,
          "internalType": "address",
          "name": "previousOwner",
          "type": "address"
        },
        {
          "indexed": true,
          "internalType": "address",
          "name": "newOwner",
          "type": "address"
        }
      ],
      "name": "OwnershipTransferred",
      "type": "event"
    },
    {
      "inputs": [],
      "name": "amount",
      "outputs": [
        {
          "internalType": "uint256",
          "name": "",
          "type": "uint256"
        }
      ],
      "stateMutability": "view",
      "type": "function",
      "constant": true
    },
    {
      "inputs": [],
      "name": "beneficiary",
      "outputs": [
        {
          "internalType": "address payable",
          "name": "",
          "type": "address"
        }
      ],
      "stateMutability": "view",
      "type": "function",
      "constant": true
    },
    {
      "inputs": [],
      "name": "earliestDateOfDonation",
      "outputs": [
        {
          "internalType": "uint256",
          "name": "",
          "type": "uint256"
        }
      ],
      "stateMutability": "view",
      "type": "function",
      "constant": true
    },
    {
      "inputs": [],
      "name": "lawyer",
      "outputs": [
        {
          "internalType": "address",
          "name": "",
          "type": "address"
        }
      ],
      "stateMutability": "view",
      "type": "function",
      "constant": true
    },
    {
      "inputs": [],
      "name": "owner",
      "outputs": [
        {
          "internalType": "address",
          "name": "",
          "type": "address"
        }
      ],
      "stateMutability": "view",
      "type": "function",
      "constant": true
    },
    {
      "inputs": [],
      "name": "renounceOwnership",
      "outputs": [],
      "stateMutability": "nonpayable",
      "type": "function"
    },
    {
      "inputs": [
        {
          "internalType": "address",
          "name": "newOwner",
          "type": "address"
        }
      ],
      "name": "transferOwnership",
      "outputs": [],
      "stateMutability": "nonpayable",
      "type": "function"
    },
    {
      "inputs": [],
      "name": "withdraw",
      "outputs": [],
      "stateMutability": "nonpayable",
      "type": "function"
    }
  ],
  "bytecode": "0x608060405260405162000dca38038062000dca83398181016040528101906200002991906200029e565b620000496200003d620000e860201b60201c565b620000f060201b60201c565b82600160006101000a81548173ffffffffffffffffffffffffffffffffffffffff021916908373ffffffffffffffffffffffffffffffffffffffff16021790555081600260006101000a81548173ffffffffffffffffffffffffffffffffffffffff021916908373ffffffffffffffffffffffffffffffffffffffff1602179055508042620000d9919062000329565b60048190555050505062000364565b600033905090565b60008060009054906101000a900473ffffffffffffffffffffffffffffffffffffffff169050816000806101000a81548173ffffffffffffffffffffffffffffffffffffffff021916908373ffffffffffffffffffffffffffffffffffffffff1602179055508173ffffffffffffffffffffffffffffffffffffffff168173ffffffffffffffffffffffffffffffffffffffff167f8be0079c531659141344cd1fd0a4f28419497f9722a3daafe3b4186f6b6457e060405160405180910390a35050565b600080fd5b600073ffffffffffffffffffffffffffffffffffffffff82169050919050565b6000620001e682620001b9565b9050919050565b620001f881620001d9565b81146200020457600080fd5b50565b6000815190506200021881620001ed565b92915050565b60006200022b82620001b9565b9050919050565b6200023d816200021e565b81146200024957600080fd5b50565b6000815190506200025d8162000232565b92915050565b6000819050919050565b620002788162000263565b81146200028457600080fd5b50565b60008151905062000298816200026d565b92915050565b600080600060608486031215620002ba57620002b9620001b4565b5b6000620002ca8682870162000207565b9350506020620002dd868287016200024c565b9250506040620002f08682870162000287565b9150509250925092565b7f4e487b7100000000000000000000000000000000000000000000000000000000600052601160045260246000fd5b6000620003368262000263565b9150620003438362000263565b92508282019050808211156200035e576200035d620002fa565b5b92915050565b610a5680620003746000396000f3fe608060405234801561001057600080fd5b50600436106100885760003560e01c80638da5cb5b1161005b5780638da5cb5b146100dd578063aa8c217c146100fb578063f2fde38b14610119578063f8df76b51461013557610088565b806338af3eed1461008d5780633bfb6e31146100ab5780633ccfd60b146100c9578063715018a6146100d3575b600080fd5b610095610153565b6040516100a2919061060c565b60405180910390f35b6100b3610179565b6040516100c09190610648565b60405180910390f35b6100d161019f565b005b6100db6102c1565b005b6100e56102d5565b6040516100f29190610648565b60405180910390f35b6101036102fe565b604051610110919061067c565b60405180910390f35b610133600480360381019061012e91906106c8565b610304565b005b61013d610387565b60405161014a919061067c565b60405180910390f35b600260009054906101000a900473ffffffffffffffffffffffffffffffffffffffff1681565b600160009054906101000a900473ffffffffffffffffffffffffffffffffffffffff1681565b600160009054906101000a900473ffffffffffffffffffffffffffffffffffffffff1673ffffffffffffffffffffffffffffffffffffffff163373ffffffffffffffffffffffffffffffffffffffff161461022f576040517f08c379a000000000000000000000000000000000000000000000000000000000815260040161022690610752565b60405180910390fd5b600454421015610274576040517f08c379a000000000000000000000000000000000000000000000000000000000815260040161026b906107be565b60405180910390fd5b6102bf47600260009054906101000a900473ffffffffffffffffffffffffffffffffffffffff1673ffffffffffffffffffffffffffffffffffffffff1661038d90919063ffffffff16565b565b6102c9610481565b6102d360006104ff565b565b60008060009054906101000a900473ffffffffffffffffffffffffffffffffffffffff16905090565b60035481565b61030c610481565b600073ffffffffffffffffffffffffffffffffffffffff168173ffffffffffffffffffffffffffffffffffffffff160361037b576040517f08c379a000000000000000000000000000000000000000000000000000000000815260040161037290610850565b60405180910390fd5b610384816104ff565b50565b60045481565b804710156103d0576040517f08c379a00000000000000000000000000000000000000000000000000000000081526004016103c7906108bc565b60405180910390fd5b60008273ffffffffffffffffffffffffffffffffffffffff16826040516103f69061090d565b60006040518083038185875af1925050503d8060008114610433576040519150601f19603f3d011682016040523d82523d6000602084013e610438565b606091505b505090508061047c576040517f08c379a000000000000000000000000000000000000000000000000000000000815260040161047390610994565b60405180910390fd5b505050565b6104896105c3565b73ffffffffffffffffffffffffffffffffffffffff166104a76102d5565b73ffffffffffffffffffffffffffffffffffffffff16146104fd576040517f08c379a00000000000000000000000000000000000000000000000000000000081526004016104f490610a00565b60405180910390fd5b565b60008060009054906101000a900473ffffffffffffffffffffffffffffffffffffffff169050816000806101000a81548173ffffffffffffffffffffffffffffffffffffffff021916908373ffffffffffffffffffffffffffffffffffffffff1602179055508173ffffffffffffffffffffffffffffffffffffffff168173ffffffffffffffffffffffffffffffffffffffff167f8be0079c531659141344cd1fd0a4f28419497f9722a3daafe3b4186f6b6457e060405160405180910390a35050565b600033905090565b600073ffffffffffffffffffffffffffffffffffffffff82169050919050565b60006105f6826105cb565b9050919050565b610606816105eb565b82525050565b600060208201905061062160008301846105fd565b92915050565b6000610632826105cb565b9050919050565b61064281610627565b82525050565b600060208201905061065d6000830184610639565b92915050565b6000819050919050565b61067681610663565b82525050565b6000602082019050610691600083018461066d565b92915050565b600080fd5b6106a581610627565b81146106b057600080fd5b50565b6000813590506106c28161069c565b92915050565b6000602082840312156106de576106dd610697565b5b60006106ec848285016106b3565b91505092915050565b600082825260208201905092915050565b7f6f6e6c79206c6177796572000000000000000000000000000000000000000000600082015250565b600061073c600b836106f5565b915061074782610706565b602082019050919050565b6000602082019050818103600083015261076b8161072f565b9050919050565b7f746f6f206561726c790000000000000000000000000000000000000000000000600082015250565b60006107a86009836106f5565b91506107b382610772565b602082019050919050565b600060208201905081810360008301526107d78161079b565b9050919050565b7f4f776e61626c653a206e6577206f776e657220697320746865207a65726f206160008201527f6464726573730000000000000000000000000000000000000000000000000000602082015250565b600061083a6026836106f5565b9150610845826107de565b604082019050919050565b600060208201905081810360008301526108698161082d565b9050919050565b7f416464726573733a20696e73756666696369656e742062616c616e6365000000600082015250565b60006108a6601d836106f5565b91506108b182610870565b602082019050919050565b600060208201905081810360008301526108d581610899565b9050919050565b600081905092915050565b50565b60006108f76000836108dc565b9150610902826108e7565b600082019050919050565b6000610918826108ea565b9150819050919050565b7f416464726573733a20756e61626c6520746f2073656e642076616c75652c207260008201527f6563697069656e74206d61792068617665207265766572746564000000000000602082015250565b600061097e603a836106f5565b915061098982610922565b604082019050919050565b600060208201905081810360008301526109ad81610971565b9050919050565b7f4f776e61626c653a2063616c6c6572206973206e6f7420746865206f776e6572600082015250565b60006109ea6020836106f5565b91506109f5826109b4565b602082019050919050565b60006020820190508181036000830152610a19816109dd565b905091905056fea2646970667358221220d90342961c2fb1e06c37c528f1f76dabc11883c5c53e920fa825ce1ca50d11cd64736f6c63430008110033",
  "immutableReferences": {},
  "source": "// SPDX-License-Identifier: MIT\r\npragma solidity 0.8.17;\r\n\r\nimport \"@openzeppelin/contracts/access/Ownable.sol\";\r\nimport \"@openzeppelin/contracts/utils/Address.sol\";\r\n\r\ncontract Deed is Ownable {\r\n\r\n  using Address for address payable;\r\n\r\n  address public lawyer;\r\n  address payable public beneficiary;\r\n  uint public amount;\r\n  uint public earliestDateOfDonation;\r\n\r\n  constructor(\r\n    address _lawyer,\r\n    address payable _beneficiary,\r\n    uint _fromNow) payable {\r\n      lawyer = _lawyer;\r\n      beneficiary = _beneficiary;\r\n      earliestDateOfDonation = block.timestamp + _fromNow;\r\n    }\r\n\r\n  function withdraw() public {\r\n    require(msg.sender == lawyer, 'only lawyer');\r\n    require(block.timestamp >= earliestDateOfDonation, 'too early');\r\n    //beneficiary.transfer(address(this).balance);\r\n    payable(beneficiary).sendValue(address(this).balance);\r\n  }\r\n}",
  "sourcePath": "C:\\Development\\Products\\Blockchain\\Dapp30\\Dapp30\\8Deed\\contracts\\Deed.sol",
  "compiler": {
    "name": "solc",
    "version": "0.8.17+commit.8df45f5f.Emscripten.clang"
  },
  "schemaVersion": "3.4.10",
  "updatedAt": "2022-11-05T15:40:11.658Z",
  "networkType": "ethereum",
  "devdoc": {
    "kind": "dev",
    "methods": {
      "owner()": {
        "details": "Returns the address of the current owner."
      },
      "renounceOwnership()": {
        "details": "Leaves the contract without owner. It will not be possible to call `onlyOwner` functions anymore. Can only be called by the current owner. NOTE: Renouncing ownership will leave the contract without an owner, thereby removing any functionality that is only available to the owner."
      },
      "transferOwnership(address)": {
        "details": "Transfers ownership of the contract to a new account (`newOwner`). Can only be called by the current owner."
      }
    },
    "version": 1
  },
  "userdoc": {
    "kind": "user",
    "methods": {},
    "version": 1
  }
}