{
  "contractName": "Crud",
  "abi": [
    {
      "inputs": [],
      "name": "nextId",
      "outputs": [
        {
          "internalType": "uint256",
          "name": "",
          "type": "uint256"
        }
      ],
      "stateMutability": "view",
      "type": "function",
      "constant": true
    },
    {
      "inputs": [
        {
          "internalType": "uint256",
          "name": "",
          "type": "uint256"
        }
      ],
      "name": "users",
      "outputs": [
        {
          "internalType": "uint256",
          "name": "id",
          "type": "uint256"
        },
        {
          "internalType": "string",
          "name": "name",
          "type": "string"
        }
      ],
      "stateMutability": "view",
      "type": "function",
      "constant": true
    },
    {
      "inputs": [
        {
          "internalType": "string",
          "name": "_name",
          "type": "string"
        }
      ],
      "name": "create",
      "outputs": [],
      "stateMutability": "nonpayable",
      "type": "function"
    },
    {
      "inputs": [
        {
          "internalType": "uint256",
          "name": "_id",
          "type": "uint256"
        }
      ],
      "name": "read",
      "outputs": [
        {
          "internalType": "uint256",
          "name": "",
          "type": "uint256"
        },
        {
          "internalType": "string",
          "name": "",
          "type": "string"
        }
      ],
      "stateMutability": "view",
      "type": "function",
      "constant": true
    },
    {
      "inputs": [
        {
          "internalType": "uint256",
          "name": "_id",
          "type": "uint256"
        },
        {
          "internalType": "string",
          "name": "_name",
          "type": "string"
        }
      ],
      "name": "update",
      "outputs": [],
      "stateMutability": "nonpayable",
      "type": "function"
    },
    {
      "inputs": [
        {
          "internalType": "uint256",
          "name": "_id",
          "type": "uint256"
        }
      ],
      "name": "remove",
      "outputs": [],
      "stateMutability": "nonpayable",
      "type": "function"
    }
  ],
  "bytecode": "0x60806040526001805534801561001457600080fd5b50610c59806100246000396000f3fe608060405234801561001057600080fd5b50600436106100625760003560e01c8063365b98b2146100675780634cc822151461009857806361b8ce8c146100b4578063b6a46b3b146100d2578063ed2e5a97146100ee578063f745630f1461011f575b600080fd5b610081600480360381019061007c9190610542565b61013b565b60405161008f92919061060e565b60405180910390f35b6100b260048036038101906100ad9190610542565b6101f7565b005b6100bc610245565b6040516100c9919061063e565b60405180910390f35b6100ec60048036038101906100e7919061078e565b61024b565b005b61010860048036038101906101039190610542565b6102ca565b60405161011692919061060e565b60405180910390f35b610139600480360381019061013491906107d7565b6103bc565b005b6000818154811061014b57600080fd5b906000526020600020906002020160009150905080600001549080600101805461017490610862565b80601f01602080910402602001604051908101604052809291908181526020018280546101a090610862565b80156101ed5780601f106101c2576101008083540402835291602001916101ed565b820191906000526020600020905b8154815290600101906020018083116101d057829003601f168201915b5050505050905082565b600061020282610401565b90506000818154811061021857610217610893565b5b906000526020600020906002020160008082016000905560018201600061023f919061049b565b50505050565b60015481565b6000604051806040016040528060015481526020018381525090806001815401808255809150506001900390600052602060002090600202016000909190919091506000820151816000015560208201518160010190816102ac9190610a6e565b505050600160008154809291906102c290610b6f565b919050555050565b6000606060006102d984610401565b9050600081815481106102ef576102ee610893565b5b9060005260206000209060020201600001546000828154811061031557610314610893565b5b906000526020600020906002020160010180805461033290610862565b80601f016020809104026020016040519081016040528092919081815260200182805461035e90610862565b80156103ab5780601f10610380576101008083540402835291602001916103ab565b820191906000526020600020905b81548152906001019060200180831161038e57829003601f168201915b505050505090509250925050915091565b60006103c783610401565b905081600082815481106103de576103dd610893565b5b906000526020600020906002020160010190816103fb9190610a6e565b50505050565b6000805b60008054905081101561045a57826000828154811061042757610426610893565b5b906000526020600020906002020160000154036104475780915050610496565b808061045290610b6f565b915050610405565b506040517f08c379a000000000000000000000000000000000000000000000000000000000815260040161048d90610c03565b60405180910390fd5b919050565b5080546104a790610862565b6000825580601f106104b957506104d8565b601f0160209004906000526020600020908101906104d791906104db565b5b50565b5b808211156104f45760008160009055506001016104dc565b5090565b6000604051905090565b600080fd5b600080fd5b6000819050919050565b61051f8161050c565b811461052a57600080fd5b50565b60008135905061053c81610516565b92915050565b60006020828403121561055857610557610502565b5b60006105668482850161052d565b91505092915050565b6105788161050c565b82525050565b600081519050919050565b600082825260208201905092915050565b60005b838110156105b857808201518184015260208101905061059d565b60008484015250505050565b6000601f19601f8301169050919050565b60006105e08261057e565b6105ea8185610589565b93506105fa81856020860161059a565b610603816105c4565b840191505092915050565b6000604082019050610623600083018561056f565b818103602083015261063581846105d5565b90509392505050565b6000602082019050610653600083018461056f565b92915050565b600080fd5b600080fd5b7f4e487b7100000000000000000000000000000000000000000000000000000000600052604160045260246000fd5b61069b826105c4565b810181811067ffffffffffffffff821117156106ba576106b9610663565b5b80604052505050565b60006106cd6104f8565b90506106d98282610692565b919050565b600067ffffffffffffffff8211156106f9576106f8610663565b5b610702826105c4565b9050602081019050919050565b82818337600083830152505050565b600061073161072c846106de565b6106c3565b90508281526020810184848401111561074d5761074c61065e565b5b61075884828561070f565b509392505050565b600082601f83011261077557610774610659565b5b813561078584826020860161071e565b91505092915050565b6000602082840312156107a4576107a3610502565b5b600082013567ffffffffffffffff8111156107c2576107c1610507565b5b6107ce84828501610760565b91505092915050565b600080604083850312156107ee576107ed610502565b5b60006107fc8582860161052d565b925050602083013567ffffffffffffffff81111561081d5761081c610507565b5b61082985828601610760565b9150509250929050565b7f4e487b7100000000000000000000000000000000000000000000000000000000600052602260045260246000fd5b6000600282049050600182168061087a57607f821691505b60208210810361088d5761088c610833565b5b50919050565b7f4e487b7100000000000000000000000000000000000000000000000000000000600052603260045260246000fd5b60008190508160005260206000209050919050565b60006020601f8301049050919050565b600082821b905092915050565b6000600883026109247fffffffffffffffffffffffffffffffffffffffffffffffffffffffffffffffff826108e7565b61092e86836108e7565b95508019841693508086168417925050509392505050565b6000819050919050565b600061096b6109666109618461050c565b610946565b61050c565b9050919050565b6000819050919050565b61098583610950565b61099961099182610972565b8484546108f4565b825550505050565b600090565b6109ae6109a1565b6109b981848461097c565b505050565b5b818110156109dd576109d26000826109a6565b6001810190506109bf565b5050565b601f821115610a22576109f3816108c2565b6109fc846108d7565b81016020851015610a0b578190505b610a1f610a17856108d7565b8301826109be565b50505b505050565b600082821c905092915050565b6000610a4560001984600802610a27565b1980831691505092915050565b6000610a5e8383610a34565b9150826002028217905092915050565b610a778261057e565b67ffffffffffffffff811115610a9057610a8f610663565b5b610a9a8254610862565b610aa58282856109e1565b600060209050601f831160018114610ad85760008415610ac6578287015190505b610ad08582610a52565b865550610b38565b601f198416610ae6866108c2565b60005b82811015610b0e57848901518255600182019150602085019450602081019050610ae9565b86831015610b2b5784890151610b27601f891682610a34565b8355505b6001600288020188555050505b505050505050565b7f4e487b7100000000000000000000000000000000000000000000000000000000600052601160045260246000fd5b6000610b7a8261050c565b91507fffffffffffffffffffffffffffffffffffffffffffffffffffffffffffffffff8203610bac57610bab610b40565b5b600182019050919050565b7f75736572206e6f7420666f756e64000000000000000000000000000000000000600082015250565b6000610bed600e83610589565b9150610bf882610bb7565b602082019050919050565b60006020820190508181036000830152610c1c81610be0565b905091905056fea2646970667358221220b285f5d2ad5ea07db5d1ffade8788ebe707176d7f74ca19c1e251171d45753ea64736f6c63430008110033",
  "immutableReferences": {},
  "source": "// SPDX-License-Identifier: MIT\r\npragma solidity 0.8.17;\r\n\r\ncontract Crud {\r\n  struct User {\r\n    uint id;\r\n    string name;\r\n  }\r\n\r\n  User[] public users;\r\n  uint public nextId = 1;\r\n\r\n  function create(string memory _name) public {\r\n    users.push(User(nextId, _name));\r\n    nextId++;\r\n  }\r\n\r\n  function read(uint _id) view public returns(uint, string memory) {\r\n    uint i = find(_id);\r\n    return(users[i].id, users[i].name);\r\n  }\r\n\r\n  function update(uint _id, string memory _name) public {\r\n    uint i = find(_id);\r\n    users[i].name = _name;\r\n  }\r\n\r\n  function remove(uint _id) public {\r\n    uint i = find(_id);\r\n    delete users[i];\r\n  }\r\n\r\n  function find(uint _id) view private returns(uint) {\r\n    for (uint i; i < users.length; i++) {\r\n      if (users[i].id == _id) {\r\n        return i;\r\n      }\r\n    }\r\n    revert('user not found');\r\n  }\r\n}",
  "sourcePath": "C:\\Development\\Products\\Blockchain\\Dapp30\\Dapp30\\5CRUD\\contracts\\Crud.sol",
  "compiler": {
    "name": "solc",
    "version": "0.8.17+commit.8df45f5f.Emscripten.clang"
  },
  "schemaVersion": "3.4.10",
  "updatedAt": "2022-11-03T20:39:10.865Z",
  "networkType": "ethereum",
  "devdoc": {
    "kind": "dev",
    "methods": {},
    "version": 1
  },
  "userdoc": {
    "kind": "user",
    "methods": {},
    "version": 1
  }
}