{
  "contractName": "CryptoKitty",
  "abi": [
    {
      "inputs": [
        {
          "internalType": "string",
          "name": "_name",
          "type": "string"
        },
        {
          "internalType": "string",
          "name": "_symbol",
          "type": "string"
        },
        {
          "internalType": "string",
          "name": "_tokenURIBase",
          "type": "string"
        }
      ],
      "stateMutability": "nonpayable",
      "type": "constructor"
    },
    {
      "anonymous": false,
      "inputs": [
        {
          "indexed": true,
          "internalType": "address",
          "name": "_owner",
          "type": "address"
        },
        {
          "indexed": true,
          "internalType": "address",
          "name": "_approved",
          "type": "address"
        },
        {
          "indexed": true,
          "internalType": "uint256",
          "name": "_tokenId",
          "type": "uint256"
        }
      ],
      "name": "Approval",
      "type": "event"
    },
    {
      "anonymous": false,
      "inputs": [
        {
          "indexed": true,
          "internalType": "address",
          "name": "_owner",
          "type": "address"
        },
        {
          "indexed": true,
          "internalType": "address",
          "name": "_operator",
          "type": "address"
        },
        {
          "indexed": false,
          "internalType": "bool",
          "name": "_approved",
          "type": "bool"
        }
      ],
      "name": "ApprovalForAll",
      "type": "event"
    },
    {
      "anonymous": false,
      "inputs": [
        {
          "indexed": true,
          "internalType": "address",
          "name": "_from",
          "type": "address"
        },
        {
          "indexed": true,
          "internalType": "address",
          "name": "_to",
          "type": "address"
        },
        {
          "indexed": true,
          "internalType": "uint256",
          "name": "_tokenId",
          "type": "uint256"
        }
      ],
      "name": "Transfer",
      "type": "event"
    },
    {
      "inputs": [],
      "name": "admin",
      "outputs": [
        {
          "internalType": "address",
          "name": "",
          "type": "address"
        }
      ],
      "stateMutability": "view",
      "type": "function"
    },
    {
      "inputs": [
        {
          "internalType": "address",
          "name": "_approved",
          "type": "address"
        },
        {
          "internalType": "uint256",
          "name": "_tokenId",
          "type": "uint256"
        }
      ],
      "name": "approve",
      "outputs": [],
      "stateMutability": "payable",
      "type": "function"
    },
    {
      "inputs": [
        {
          "internalType": "address",
          "name": "_owner",
          "type": "address"
        }
      ],
      "name": "balanceOf",
      "outputs": [
        {
          "internalType": "uint256",
          "name": "",
          "type": "uint256"
        }
      ],
      "stateMutability": "view",
      "type": "function"
    },
    {
      "inputs": [
        {
          "internalType": "uint256",
          "name": "_tokenId",
          "type": "uint256"
        }
      ],
      "name": "getApproved",
      "outputs": [
        {
          "internalType": "address",
          "name": "",
          "type": "address"
        }
      ],
      "stateMutability": "view",
      "type": "function"
    },
    {
      "inputs": [
        {
          "internalType": "address",
          "name": "_owner",
          "type": "address"
        },
        {
          "internalType": "address",
          "name": "_operator",
          "type": "address"
        }
      ],
      "name": "isApprovedForAll",
      "outputs": [
        {
          "internalType": "bool",
          "name": "",
          "type": "bool"
        }
      ],
      "stateMutability": "view",
      "type": "function"
    },
    {
      "inputs": [],
      "name": "name",
      "outputs": [
        {
          "internalType": "string",
          "name": "",
          "type": "string"
        }
      ],
      "stateMutability": "view",
      "type": "function"
    },
    {
      "inputs": [],
      "name": "nextId",
      "outputs": [
        {
          "internalType": "uint256",
          "name": "",
          "type": "uint256"
        }
      ],
      "stateMutability": "view",
      "type": "function"
    },
    {
      "inputs": [],
      "name": "nextTokenId",
      "outputs": [
        {
          "internalType": "uint256",
          "name": "",
          "type": "uint256"
        }
      ],
      "stateMutability": "view",
      "type": "function"
    },
    {
      "inputs": [
        {
          "internalType": "uint256",
          "name": "_tokenId",
          "type": "uint256"
        }
      ],
      "name": "ownerOf",
      "outputs": [
        {
          "internalType": "address",
          "name": "",
          "type": "address"
        }
      ],
      "stateMutability": "view",
      "type": "function"
    },
    {
      "inputs": [
        {
          "internalType": "address",
          "name": "_from",
          "type": "address"
        },
        {
          "internalType": "address",
          "name": "_to",
          "type": "address"
        },
        {
          "internalType": "uint256",
          "name": "_tokenId",
          "type": "uint256"
        }
      ],
      "name": "safeTransferFrom",
      "outputs": [],
      "stateMutability": "payable",
      "type": "function"
    },
    {
      "inputs": [
        {
          "internalType": "address",
          "name": "_from",
          "type": "address"
        },
        {
          "internalType": "address",
          "name": "_to",
          "type": "address"
        },
        {
          "internalType": "uint256",
          "name": "_tokenId",
          "type": "uint256"
        },
        {
          "internalType": "bytes",
          "name": "data",
          "type": "bytes"
        }
      ],
      "name": "safeTransferFrom",
      "outputs": [],
      "stateMutability": "payable",
      "type": "function"
    },
    {
      "inputs": [
        {
          "internalType": "address",
          "name": "_operator",
          "type": "address"
        },
        {
          "internalType": "bool",
          "name": "_approved",
          "type": "bool"
        }
      ],
      "name": "setApprovalForAll",
      "outputs": [],
      "stateMutability": "nonpayable",
      "type": "function"
    },
    {
      "inputs": [],
      "name": "symbol",
      "outputs": [
        {
          "internalType": "string",
          "name": "",
          "type": "string"
        }
      ],
      "stateMutability": "view",
      "type": "function"
    },
    {
      "inputs": [
        {
          "internalType": "uint256",
          "name": "_tokenId",
          "type": "uint256"
        }
      ],
      "name": "tokenURI",
      "outputs": [
        {
          "internalType": "string",
          "name": "",
          "type": "string"
        }
      ],
      "stateMutability": "view",
      "type": "function"
    },
    {
      "inputs": [],
      "name": "tokenURIBase",
      "outputs": [
        {
          "internalType": "string",
          "name": "",
          "type": "string"
        }
      ],
      "stateMutability": "view",
      "type": "function"
    },
    {
      "inputs": [
        {
          "internalType": "address",
          "name": "_from",
          "type": "address"
        },
        {
          "internalType": "address",
          "name": "_to",
          "type": "address"
        },
        {
          "internalType": "uint256",
          "name": "_tokenId",
          "type": "uint256"
        }
      ],
      "name": "transferFrom",
      "outputs": [],
      "stateMutability": "payable",
      "type": "function"
    },
    {
      "inputs": [
        {
          "internalType": "uint256",
          "name": "kittyId1",
          "type": "uint256"
        },
        {
          "internalType": "uint256",
          "name": "kittyId2",
          "type": "uint256"
        }
      ],
      "name": "breed",
      "outputs": [],
      "stateMutability": "nonpayable",
      "type": "function"
    },
    {
      "inputs": [],
      "name": "mint",
      "outputs": [],
      "stateMutability": "nonpayable",
      "type": "function"
    }
  ],
  "bytecode": "0x60806040523480156200001157600080fd5b50604051620028f9380380620028f9833981810160405281019062000037919062000250565b82828282600490816200004b919062000554565b5081600590816200005d919062000554565b5080600690816200006f919062000554565b5050505033600a60006101000a81548173ffffffffffffffffffffffffffffffffffffffff021916908373ffffffffffffffffffffffffffffffffffffffff1602179055505050506200063b565b6000604051905090565b600080fd5b600080fd5b600080fd5b600080fd5b6000601f19601f8301169050919050565b7f4e487b7100000000000000000000000000000000000000000000000000000000600052604160045260246000fd5b6200012682620000db565b810181811067ffffffffffffffff82111715620001485762000147620000ec565b5b80604052505050565b60006200015d620000bd565b90506200016b82826200011b565b919050565b600067ffffffffffffffff8211156200018e576200018d620000ec565b5b6200019982620000db565b9050602081019050919050565b60005b83811015620001c6578082015181840152602081019050620001a9565b60008484015250505050565b6000620001e9620001e38462000170565b62000151565b905082815260208101848484011115620002085762000207620000d6565b5b62000215848285620001a6565b509392505050565b600082601f830112620002355762000234620000d1565b5b815162000247848260208601620001d2565b91505092915050565b6000806000606084860312156200026c576200026b620000c7565b5b600084015167ffffffffffffffff8111156200028d576200028c620000cc565b5b6200029b868287016200021d565b935050602084015167ffffffffffffffff811115620002bf57620002be620000cc565b5b620002cd868287016200021d565b925050604084015167ffffffffffffffff811115620002f157620002f0620000cc565b5b620002ff868287016200021d565b9150509250925092565b600081519050919050565b7f4e487b7100000000000000000000000000000000000000000000000000000000600052602260045260246000fd5b600060028204905060018216806200035c57607f821691505b60208210810362000372576200037162000314565b5b50919050565b60008190508160005260206000209050919050565b60006020601f8301049050919050565b600082821b905092915050565b600060088302620003dc7fffffffffffffffffffffffffffffffffffffffffffffffffffffffffffffffff826200039d565b620003e886836200039d565b95508019841693508086168417925050509392505050565b6000819050919050565b6000819050919050565b6000620004356200042f620004298462000400565b6200040a565b62000400565b9050919050565b6000819050919050565b620004518362000414565b6200046962000460826200043c565b848454620003aa565b825550505050565b600090565b6200048062000471565b6200048d81848462000446565b505050565b5b81811015620004b557620004a960008262000476565b60018101905062000493565b5050565b601f8211156200050457620004ce8162000378565b620004d9846200038d565b81016020851015620004e9578190505b62000501620004f8856200038d565b83018262000492565b50505b505050565b600082821c905092915050565b6000620005296000198460080262000509565b1980831691505092915050565b600062000544838362000516565b9150826002028217905092915050565b6200055f8262000309565b67ffffffffffffffff8111156200057b576200057a620000ec565b5b62000587825462000343565b62000594828285620004b9565b600060209050601f831160018114620005cc5760008415620005b7578287015190505b620005c3858262000536565b86555062000633565b601f198416620005dc8662000378565b60005b828110156200060657848901518255600182019150602085019450602081019050620005df565b8683101562000626578489015162000622601f89168262000516565b8355505b6001600288020188555050505b505050505050565b6122ae806200064b6000396000f3fe6080604052600436106101095760003560e01c806370a0823111610095578063b88d4fde11610064578063b88d4fde14610330578063c87b56dd1461034c578063d9ecad7b14610389578063e985e9c5146103b2578063f851a440146103ef57610109565b806370a082311461027457806375794a3c146102b157806395d89b41146102dc578063a22cb4651461030757610109565b806323b872dd116100dc57806323b872dd146101a9578063261220a3146101c557806342842e0e146101f057806361b8ce8c1461020c5780636352211e1461023757610109565b806306fdde031461010e578063081812fc14610139578063095ea7b3146101765780631249c58b14610192575b600080fd5b34801561011a57600080fd5b5061012361041a565b60405161013091906115b0565b60405180910390f35b34801561014557600080fd5b50610160600480360381019061015b9190611612565b6104a8565b60405161016d9190611680565b60405180910390f35b610190600480360381019061018b91906116c7565b6104e5565b005b34801561019e57600080fd5b506101a761063d565b005b6101c360048036038101906101be9190611707565b610769565b005b3480156101d157600080fd5b506101da610779565b6040516101e791906115b0565b60405180910390f35b61020a60048036038101906102059190611707565b610807565b005b34801561021857600080fd5b50610221610827565b60405161022e9190611769565b60405180910390f35b34801561024357600080fd5b5061025e60048036038101906102599190611612565b61082d565b60405161026b9190611680565b60405180910390f35b34801561028057600080fd5b5061029b60048036038101906102969190611784565b61086a565b6040516102a89190611769565b60405180910390f35b3480156102bd57600080fd5b506102c66108b2565b6040516102d39190611769565b60405180910390f35b3480156102e857600080fd5b506102f16108b8565b6040516102fe91906115b0565b60405180910390f35b34801561031357600080fd5b5061032e600480360381019061032991906117e9565b610946565b005b61034a6004803603810190610345919061188e565b610a43565b005b34801561035857600080fd5b50610373600480360381019061036e9190611612565b610a9a565b60405161038091906115b0565b60405180910390f35b34801561039557600080fd5b506103b060048036038101906103ab9190611916565b610ac6565b005b3480156103be57600080fd5b506103d960048036038101906103d49190611956565b610d65565b6040516103e691906119a5565b60405180910390f35b3480156103fb57600080fd5b50610404610df9565b6040516104119190611680565b60405180910390f35b60048054610427906119ef565b80601f0160208091040260200160405190810160405280929190818152602001828054610453906119ef565b80156104a05780601f10610475576101008083540402835291602001916104a0565b820191906000526020600020905b81548152906001019060200180831161048357829003601f168201915b505050505081565b60006002600083815260200190815260200160002060009054906101000a900473ffffffffffffffffffffffffffffffffffffffff169050919050565b60006001600083815260200190815260200160002060009054906101000a900473ffffffffffffffffffffffffffffffffffffffff1690508073ffffffffffffffffffffffffffffffffffffffff163373ffffffffffffffffffffffffffffffffffffffff161461058b576040517f08c379a000000000000000000000000000000000000000000000000000000000815260040161058290611a6c565b60405180910390fd5b826002600084815260200190815260200160002060006101000a81548173ffffffffffffffffffffffffffffffffffffffff021916908373ffffffffffffffffffffffffffffffffffffffff160217905550818373ffffffffffffffffffffffffffffffffffffffff168273ffffffffffffffffffffffffffffffffffffffff167f8c5be1e5ebec7d5bd14f71427d1e84f3dd0314c0f7b2291e5b200ac8c7c3b92560405160405180910390a4505050565b600a60009054906101000a900473ffffffffffffffffffffffffffffffffffffffff1673ffffffffffffffffffffffffffffffffffffffff163373ffffffffffffffffffffffffffffffffffffffff16146106cd576040517f08c379a00000000000000000000000000000000000000000000000000000000081526004016106c490611ad8565b60405180910390fd5b60405180608001604052806009548152602001600181526020016106f1600a610e1f565b8152602001610700600a610e1f565b8152506008600060095481526020019081526020016000206000820151816000015560208201518160010155604082015181600201556060820151816003015590505061074f60095433610e5f565b6009600081548092919061076290611b27565b9190505550565b610774838383611009565b505050565b60068054610786906119ef565b80601f01602080910402602001604051908101604052809291908181526020018280546107b2906119ef565b80156107ff5780601f106107d4576101008083540402835291602001916107ff565b820191906000526020600020905b8154815290600101906020018083116107e257829003601f168201915b505050505081565b61082283838360405180602001604052806000815250611311565b505050565b60095481565b60006001600083815260200190815260200160002060009054906101000a900473ffffffffffffffffffffffffffffffffffffffff169050919050565b60008060008373ffffffffffffffffffffffffffffffffffffffff1673ffffffffffffffffffffffffffffffffffffffff168152602001908152602001600020549050919050565b60075481565b600580546108c5906119ef565b80601f01602080910402602001604051908101604052809291908181526020018280546108f1906119ef565b801561093e5780601f106109135761010080835404028352916020019161093e565b820191906000526020600020905b81548152906001019060200180831161092157829003601f168201915b505050505081565b80600360003373ffffffffffffffffffffffffffffffffffffffff1673ffffffffffffffffffffffffffffffffffffffff16815260200190815260200160002060008473ffffffffffffffffffffffffffffffffffffffff1673ffffffffffffffffffffffffffffffffffffffff16815260200190815260200160002060006101000a81548160ff0219169083151502179055508173ffffffffffffffffffffffffffffffffffffffff163373ffffffffffffffffffffffffffffffffffffffff167f17307eab39ab6107e8899845ad3d59bd9653f200f220920489ca2b5937696c3183604051610a3791906119a5565b60405180910390a35050565b610a9385858585858080601f016020809104026020016040519081016040528093929190818152602001838380828437600081840152601f19601f82011690508083019250505050505050611311565b5050505050565b6060600682604051602001610ab0929190611c7f565b6040516020818303038152906040529050919050565b6009548210610b0a576040517f08c379a0000000000000000000000000000000000000000000000000000000008152600401610b0190611cfe565b60405180910390fd5b6009548110610b4e576040517f08c379a0000000000000000000000000000000000000000000000000000000008152600401610b4590611d6a565b60405180910390fd5b600060086000848152602001908152602001600020905060006008600084815260200190815260200160002090503373ffffffffffffffffffffffffffffffffffffffff16610b9c8561082d565b73ffffffffffffffffffffffffffffffffffffffff1614610bf2576040517f08c379a0000000000000000000000000000000000000000000000000000000008152600401610be990611dd6565b60405180910390fd5b3373ffffffffffffffffffffffffffffffffffffffff16610c128461082d565b73ffffffffffffffffffffffffffffffffffffffff1614610c68576040517f08c379a0000000000000000000000000000000000000000000000000000000008152600401610c5f90611e42565b60405180910390fd5b60008160010154836001015411610c83578160010154610c89565b82600101545b905060006001610c996004610e1f565b11610ca8578260020154610cae565b83600201545b905060006001610cbe6004610e1f565b11610ccd578360030154610cd3565b84600301545b9050604051806080016040528060095481526020018481526020018381526020018281525060086000600954815260200190815260200160002060008201518160000155602082015181600101556040820151816002015560608201518160030155905050610d4460095433610e5f565b60096000815480929190610d5790611b27565b919050555050505050505050565b6000600360008473ffffffffffffffffffffffffffffffffffffffff1673ffffffffffffffffffffffffffffffffffffffff16815260200190815260200160002060008373ffffffffffffffffffffffffffffffffffffffff1673ffffffffffffffffffffffffffffffffffffffff16815260200190815260200160002060009054906101000a900460ff16905092915050565b600a60009054906101000a900473ffffffffffffffffffffffffffffffffffffffff1681565b6000814244604051602001610e35929190611e62565b6040516020818303038152906040528051906020012060001c610e589190611ebd565b9050919050565b600073ffffffffffffffffffffffffffffffffffffffff166001600084815260200190815260200160002060009054906101000a900473ffffffffffffffffffffffffffffffffffffffff1673ffffffffffffffffffffffffffffffffffffffff1614610f01576040517f08c379a0000000000000000000000000000000000000000000000000000000008152600401610ef890611f3a565b60405180910390fd5b806001600084815260200190815260200160002060006101000a81548173ffffffffffffffffffffffffffffffffffffffff021916908373ffffffffffffffffffffffffffffffffffffffff16021790555060016000808373ffffffffffffffffffffffffffffffffffffffff1673ffffffffffffffffffffffffffffffffffffffff1681526020019081526020016000206000828254610fa29190611f5a565b92505081905550818173ffffffffffffffffffffffffffffffffffffffff16600073ffffffffffffffffffffffffffffffffffffffff167fddf252ad1be2c89b69c2b068fc378daa952ba7f163c4a11628f55a4df523b3ef60405160405180910390a45050565b8060006001600083815260200190815260200160002060009054906101000a900473ffffffffffffffffffffffffffffffffffffffff1690508073ffffffffffffffffffffffffffffffffffffffff163373ffffffffffffffffffffffffffffffffffffffff1614806110da57506002600083815260200190815260200160002060009054906101000a900473ffffffffffffffffffffffffffffffffffffffff1673ffffffffffffffffffffffffffffffffffffffff163373ffffffffffffffffffffffffffffffffffffffff16145b80611172575060011515600360008373ffffffffffffffffffffffffffffffffffffffff1673ffffffffffffffffffffffffffffffffffffffff16815260200190815260200160002060003373ffffffffffffffffffffffffffffffffffffffff1673ffffffffffffffffffffffffffffffffffffffff16815260200190815260200160002060009054906101000a900460ff161515145b6111b1576040517f08c379a00000000000000000000000000000000000000000000000000000000081526004016111a890611fda565b60405180910390fd5b60016000808773ffffffffffffffffffffffffffffffffffffffff1673ffffffffffffffffffffffffffffffffffffffff16815260200190815260200160002060008282546112009190611ffa565b9250508190555060016000808673ffffffffffffffffffffffffffffffffffffffff1673ffffffffffffffffffffffffffffffffffffffff16815260200190815260200160002060008282546112569190611f5a565b92505081905550836001600085815260200190815260200160002060006101000a81548173ffffffffffffffffffffffffffffffffffffffff021916908373ffffffffffffffffffffffffffffffffffffffff160217905550828473ffffffffffffffffffffffffffffffffffffffff168673ffffffffffffffffffffffffffffffffffffffff167fddf252ad1be2c89b69c2b068fc378daa952ba7f163c4a11628f55a4df523b3ef60405160405180910390a45050505050565b61131c848484611009565b600061132a8585858561137a565b90506001151581151514611373576040517f08c379a000000000000000000000000000000000000000000000000000000000815260040161136a906120a0565b60405180910390fd5b5050505050565b600061139b8473ffffffffffffffffffffffffffffffffffffffff166114fa565b156114ed578373ffffffffffffffffffffffffffffffffffffffff1663150b7a02338786866040518563ffffffff1660e01b81526004016113df9493929190612115565b6020604051808303816000875af192505050801561141b57506040513d601f19601f8201168201806040525081019061141891906121b9565b60015b61149d573d806000811461144b576040519150601f19603f3d011682016040523d82523d6000602084013e611450565b606091505b506000815103611495576040517f08c379a000000000000000000000000000000000000000000000000000000000815260040161148c90612258565b60405180910390fd5b805181602001fd5b63150b7a0260e01b7bffffffffffffffffffffffffffffffffffffffffffffffffffffffff1916817bffffffffffffffffffffffffffffffffffffffffffffffffffffffff1916149150506114f2565b600190505b949350505050565b60008060008373ffffffffffffffffffffffffffffffffffffffff163b11915050919050565b600081519050919050565b600082825260208201905092915050565b60005b8381101561155a57808201518184015260208101905061153f565b60008484015250505050565b6000601f19601f8301169050919050565b600061158282611520565b61158c818561152b565b935061159c81856020860161153c565b6115a581611566565b840191505092915050565b600060208201905081810360008301526115ca8184611577565b905092915050565b600080fd5b600080fd5b6000819050919050565b6115ef816115dc565b81146115fa57600080fd5b50565b60008135905061160c816115e6565b92915050565b600060208284031215611628576116276115d2565b5b6000611636848285016115fd565b91505092915050565b600073ffffffffffffffffffffffffffffffffffffffff82169050919050565b600061166a8261163f565b9050919050565b61167a8161165f565b82525050565b60006020820190506116956000830184611671565b92915050565b6116a48161165f565b81146116af57600080fd5b50565b6000813590506116c18161169b565b92915050565b600080604083850312156116de576116dd6115d2565b5b60006116ec858286016116b2565b92505060206116fd858286016115fd565b9150509250929050565b6000806000606084860312156117205761171f6115d2565b5b600061172e868287016116b2565b935050602061173f868287016116b2565b9250506040611750868287016115fd565b9150509250925092565b611763816115dc565b82525050565b600060208201905061177e600083018461175a565b92915050565b60006020828403121561179a576117996115d2565b5b60006117a8848285016116b2565b91505092915050565b60008115159050919050565b6117c6816117b1565b81146117d157600080fd5b50565b6000813590506117e3816117bd565b92915050565b60008060408385031215611800576117ff6115d2565b5b600061180e858286016116b2565b925050602061181f858286016117d4565b9150509250929050565b600080fd5b600080fd5b600080fd5b60008083601f84011261184e5761184d611829565b5b8235905067ffffffffffffffff81111561186b5761186a61182e565b5b60208301915083600182028301111561188757611886611833565b5b9250929050565b6000806000806000608086880312156118aa576118a96115d2565b5b60006118b8888289016116b2565b95505060206118c9888289016116b2565b94505060406118da888289016115fd565b935050606086013567ffffffffffffffff8111156118fb576118fa6115d7565b5b61190788828901611838565b92509250509295509295909350565b6000806040838503121561192d5761192c6115d2565b5b600061193b858286016115fd565b925050602061194c858286016115fd565b9150509250929050565b6000806040838503121561196d5761196c6115d2565b5b600061197b858286016116b2565b925050602061198c858286016116b2565b9150509250929050565b61199f816117b1565b82525050565b60006020820190506119ba6000830184611996565b92915050565b7f4e487b7100000000000000000000000000000000000000000000000000000000600052602260045260246000fd5b60006002820490506001821680611a0757607f821691505b602082108103611a1a57611a196119c0565b5b50919050565b7f4e6f7420617574686f7269736564000000000000000000000000000000000000600082015250565b6000611a56600e8361152b565b9150611a6182611a20565b602082019050919050565b60006020820190508181036000830152611a8581611a49565b9050919050565b7f6f6e6c792061646d696e00000000000000000000000000000000000000000000600082015250565b6000611ac2600a8361152b565b9150611acd82611a8c565b602082019050919050565b60006020820190508181036000830152611af181611ab5565b9050919050565b7f4e487b7100000000000000000000000000000000000000000000000000000000600052601160045260246000fd5b6000611b32826115dc565b91507fffffffffffffffffffffffffffffffffffffffffffffffffffffffffffffffff8203611b6457611b63611af8565b5b600182019050919050565b600081905092915050565b60008190508160005260206000209050919050565b60008154611b9c816119ef565b611ba68186611b6f565b94506001821660008114611bc15760018114611bd657611c09565b60ff1983168652811515820286019350611c09565b611bdf85611b7a565b60005b83811015611c0157815481890152600182019150602081019050611be2565b838801955050505b50505092915050565b7f2f00000000000000000000000000000000000000000000000000000000000000600082015250565b6000611c48600183611b6f565b9150611c5382611c12565b600182019050919050565b6000819050919050565b611c79611c74826115dc565b611c5e565b82525050565b6000611c8b8285611b8f565b9150611c9682611c3b565b9150611ca28284611c68565b6020820191508190509392505050565b7f6b697474793120646f6573206e6f742065786973740000000000000000000000600082015250565b6000611ce860158361152b565b9150611cf382611cb2565b602082019050919050565b60006020820190508181036000830152611d1781611cdb565b9050919050565b7f6b697474793220646f6573206e6f742065786973740000000000000000000000600082015250565b6000611d5460158361152b565b9150611d5f82611d1e565b602082019050919050565b60006020820190508181036000830152611d8381611d47565b9050919050565b7f73656e646572206d757374206f776e206b697474793100000000000000000000600082015250565b6000611dc060168361152b565b9150611dcb82611d8a565b602082019050919050565b60006020820190508181036000830152611def81611db3565b9050919050565b7f73656e646572206d757374206f776e206b697474793200000000000000000000600082015250565b6000611e2c60168361152b565b9150611e3782611df6565b602082019050919050565b60006020820190508181036000830152611e5b81611e1f565b9050919050565b6000611e6e8285611c68565b602082019150611e7e8284611c68565b6020820191508190509392505050565b7f4e487b7100000000000000000000000000000000000000000000000000000000600052601260045260246000fd5b6000611ec8826115dc565b9150611ed3836115dc565b925082611ee357611ee2611e8e565b5b828206905092915050565b7f7468697320746f6b656e20616c72656164792065786973740000000000000000600082015250565b6000611f2460188361152b565b9150611f2f82611eee565b602082019050919050565b60006020820190508181036000830152611f5381611f17565b9050919050565b6000611f65826115dc565b9150611f70836115dc565b9250828201905080821115611f8857611f87611af8565b5b92915050565b7f5472616e73666572206e6f7420617574686f7269736564000000000000000000600082015250565b6000611fc460178361152b565b9150611fcf82611f8e565b602082019050919050565b60006020820190508181036000830152611ff381611fb7565b9050919050565b6000612005826115dc565b9150612010836115dc565b925082820390508181111561202857612027611af8565b5b92915050565b7f726563697069656e7420736d61727420636f6e74726163742063616e6e6f742060008201527f68616e646c652045524337323120746f6b656e73000000000000000000000000602082015250565b600061208a60348361152b565b91506120958261202e565b604082019050919050565b600060208201905081810360008301526120b98161207d565b9050919050565b600081519050919050565b600082825260208201905092915050565b60006120e7826120c0565b6120f181856120cb565b935061210181856020860161153c565b61210a81611566565b840191505092915050565b600060808201905061212a6000830187611671565b6121376020830186611671565b612144604083018561175a565b818103606083015261215681846120dc565b905095945050505050565b60007fffffffff0000000000000000000000000000000000000000000000000000000082169050919050565b61219681612161565b81146121a157600080fd5b50565b6000815190506121b38161218d565b92915050565b6000602082840312156121cf576121ce6115d2565b5b60006121dd848285016121a4565b91505092915050565b7f4552433732313a207472616e7366657220746f206e6f6e20455243373231526560008201527f63656976657220696d706c656d656e7465720000000000000000000000000000602082015250565b600061224260328361152b565b915061224d826121e6565b604082019050919050565b6000602082019050818103600083015261227181612235565b905091905056fea2646970667358221220888625312ae71392298ace3354b20ab86bca1f36f8702faf0d0d1c9259ad667d64736f6c63430008110033",
  "immutableReferences": {},
  "source": "// SPDX-License-Identifier: MIT\r\npragma solidity 0.8.17;\r\n\r\nimport './ERC721Token.sol';\r\n\r\ncontract CryptoKitty is ERC721Token {\r\n\r\n  enum HairColor { White, Black }\r\n\r\n  struct Kitty {\r\n    uint id;\r\n    uint generation;\r\n    uint geneA;\r\n    uint geneB;\r\n  }\r\n\r\n  mapping (uint => Kitty) private kitties;\r\n  uint public nextId;\r\n\r\n  address public admin;\r\n  \r\n\r\n  constructor(\r\n    string memory _name,\r\n    string memory _symbol,\r\n    string memory _tokenURIBase\r\n  ) ERC721Token(_name, _symbol, _tokenURIBase) {\r\n    admin = msg.sender;\r\n    \r\n  }\r\n\r\n  function breed(uint kittyId1, uint kittyId2) external {\r\n    require(kittyId1 < nextId, 'kitty1 does not exist');\r\n    require(kittyId2 < nextId, 'kitty2 does not exist');\r\n\r\n    Kitty storage kitty1 = kitties[kittyId1];\r\n    Kitty storage kitty2 = kitties[kittyId2];\r\n\r\n    require(ownerOf(kittyId1) == msg.sender, 'sender must own kitty1');\r\n    require(ownerOf(kittyId2) == msg.sender, 'sender must own kitty2');\r\n\r\n    uint maxGen = kitty1.generation > kitty2.generation ? kitty1.generation : kitty2.generation;\r\n    uint geneA = _random(4) > 1 ? kitty1.geneA : kitty2.geneA;\r\n    uint geneB = _random(4) > 1 ? kitty1.geneB : kitty2.geneB;\r\n    kitties[nextId] = Kitty(nextId, maxGen, geneA, geneB);\r\n    _mint(nextId, msg.sender);\r\n    nextId++;\r\n  }\r\n\r\n  function mint() external {\r\n    require(msg.sender == admin, 'only admin');\r\n    kitties[nextId] = Kitty(nextId, 1, _random(10), _random(10));\r\n    _mint(nextId, msg.sender);\r\n    nextId++;\r\n  }\r\n\r\n  function _random(uint max) internal view returns(uint) {\r\n    return uint(keccak256(abi.encodePacked(block.timestamp, block.difficulty))) % max;\r\n  }\r\n}",
  "sourcePath": "C:\\Development\\Products\\Blockchain\\Dapp30\\Dapp30\\23CryptoKitties\\contracts\\CryptoKitty.sol",
  "compiler": {
    "name": "solc",
    "version": "0.8.17+commit.8df45f5f.Emscripten.clang"
  },
  "schemaVersion": "3.4.10",
  "updatedAt": "2023-02-05T19:52:48.364Z",
  "devdoc": {
    "kind": "dev",
    "methods": {
      "approve(address,uint256)": {
        "details": "The zero address indicates there is no approved address.  Throws unless `msg.sender` is the current NFT owner, or an authorized  operator of the current owner.",
        "params": {
          "_approved": "The new approved NFT controller",
          "_tokenId": "The NFT to approve"
        }
      },
      "balanceOf(address)": {
        "details": "NFTs assigned to the zero address are considered invalid, and this  function throws for queries about the zero address.",
        "params": {
          "_owner": "An address for whom to query the balance"
        },
        "returns": {
          "_0": "The number of NFTs owned by `_owner`, possibly zero"
        }
      },
      "getApproved(uint256)": {
        "details": "Throws if `_tokenId` is not a valid NFT.",
        "params": {
          "_tokenId": "The NFT to find the approved address for"
        },
        "returns": {
          "_0": "The approved address for this NFT, or the zero address if there is none"
        }
      },
      "isApprovedForAll(address,address)": {
        "params": {
          "_operator": "The address that acts on behalf of the owner",
          "_owner": "The address that owns the NFTs"
        },
        "returns": {
          "_0": "True if `_operator` is an approved operator for `_owner`, false otherwise"
        }
      },
      "ownerOf(uint256)": {
        "details": "NFTs assigned to zero address are considered invalid, and queries  about them do throw.",
        "params": {
          "_tokenId": "The identifier for an NFT"
        },
        "returns": {
          "_0": "The address of the owner of the NFT"
        }
      },
      "safeTransferFrom(address,address,uint256)": {
        "details": "This works identically to the other function with an extra data parameter,  except this function just sets data to \"\".",
        "params": {
          "_from": "The current owner of the NFT",
          "_to": "The new owner",
          "_tokenId": "The NFT to transfer"
        }
      },
      "safeTransferFrom(address,address,uint256,bytes)": {
        "details": "Throws unless `msg.sender` is the current owner, an authorized  operator, or the approved address for this NFT. Throws if `_from` is  not the current owner. Throws if `_to` is the zero address. Throws if  `_tokenId` is not a valid NFT. When transfer is complete, this function  checks if `_to` is a smart contract (code size > 0). If so, it calls  `onERC721Received` on `_to` and throws if the return value is not  `bytes4(keccak256(\"onERC721Received(address,address,uint256,bytes)\"))`.",
        "params": {
          "_from": "The current owner of the NFT",
          "_to": "The new owner",
          "_tokenId": "The NFT to transfer",
          "data": "Additional data with no specified format, sent in call to `_to`"
        }
      },
      "setApprovalForAll(address,bool)": {
        "details": "Emits the ApprovalForAll event. The contract MUST allow  multiple operators per owner.",
        "params": {
          "_approved": "True if the operator is approved, false to revoke approval",
          "_operator": "Address to add to the set of authorized operators"
        }
      },
      "transferFrom(address,address,uint256)": {
        "details": "Throws unless `msg.sender` is the current owner, an authorized  operator, or the approved address for this NFT. Throws if `_from` is  not the current owner. Throws if `_to` is the zero address. Throws if  `_tokenId` is not a valid NFT.",
        "params": {
          "_from": "The current owner of the NFT",
          "_to": "The new owner",
          "_tokenId": "The NFT to transfer"
        }
      }
    },
    "version": 1
  },
  "userdoc": {
    "kind": "user",
    "methods": {
      "approve(address,uint256)": {
        "notice": "Change or reaffirm the approved address for an NFT"
      },
      "balanceOf(address)": {
        "notice": "Count all NFTs assigned to an owner"
      },
      "getApproved(uint256)": {
        "notice": "Get the approved address for a single NFT"
      },
      "isApprovedForAll(address,address)": {
        "notice": "Query if an address is an authorized operator for another address"
      },
      "ownerOf(uint256)": {
        "notice": "Find the owner of an NFT"
      },
      "safeTransferFrom(address,address,uint256)": {
        "notice": "Transfers the ownership of an NFT from one address to another address"
      },
      "safeTransferFrom(address,address,uint256,bytes)": {
        "notice": "Transfers the ownership of an NFT from one address to another address"
      },
      "setApprovalForAll(address,bool)": {
        "notice": "Enable or disable approval for a third party (\"operator\") to manage  all of `msg.sender`'s assets"
      },
      "transferFrom(address,address,uint256)": {
        "notice": "Transfer ownership of an NFT -- THE CALLER IS RESPONSIBLE  TO CONFIRM THAT `_to` IS CAPABLE OF RECEIVING NFTS OR ELSE  THEY MAY BE PERMANENTLY LOST"
      }
    },
    "version": 1
  }
}