{
  "contractName": "ERC721Token",
  "abi": [
    {
      "inputs": [],
      "stateMutability": "nonpayable",
      "type": "constructor"
    },
    {
      "anonymous": false,
      "inputs": [
        {
          "indexed": true,
          "internalType": "address",
          "name": "_owner",
          "type": "address"
        },
        {
          "indexed": true,
          "internalType": "address",
          "name": "_approved",
          "type": "address"
        },
        {
          "indexed": true,
          "internalType": "uint256",
          "name": "_tokenId",
          "type": "uint256"
        }
      ],
      "name": "Approval",
      "type": "event"
    },
    {
      "anonymous": false,
      "inputs": [
        {
          "indexed": true,
          "internalType": "address",
          "name": "_owner",
          "type": "address"
        },
        {
          "indexed": true,
          "internalType": "address",
          "name": "_operator",
          "type": "address"
        },
        {
          "indexed": false,
          "internalType": "bool",
          "name": "_approved",
          "type": "bool"
        }
      ],
      "name": "ApprovalForAll",
      "type": "event"
    },
    {
      "anonymous": false,
      "inputs": [
        {
          "indexed": true,
          "internalType": "address",
          "name": "_from",
          "type": "address"
        },
        {
          "indexed": true,
          "internalType": "address",
          "name": "_to",
          "type": "address"
        },
        {
          "indexed": true,
          "internalType": "uint256",
          "name": "_tokenId",
          "type": "uint256"
        }
      ],
      "name": "Transfer",
      "type": "event"
    },
    {
      "inputs": [],
      "name": "admin",
      "outputs": [
        {
          "internalType": "address",
          "name": "",
          "type": "address"
        }
      ],
      "stateMutability": "view",
      "type": "function",
      "constant": true
    },
    {
      "inputs": [],
      "name": "nextTokenId",
      "outputs": [
        {
          "internalType": "uint256",
          "name": "",
          "type": "uint256"
        }
      ],
      "stateMutability": "view",
      "type": "function",
      "constant": true
    },
    {
      "inputs": [],
      "name": "mint",
      "outputs": [],
      "stateMutability": "nonpayable",
      "type": "function"
    },
    {
      "inputs": [
        {
          "internalType": "address",
          "name": "_owner",
          "type": "address"
        }
      ],
      "name": "balanceOf",
      "outputs": [
        {
          "internalType": "uint256",
          "name": "",
          "type": "uint256"
        }
      ],
      "stateMutability": "view",
      "type": "function",
      "constant": true
    },
    {
      "inputs": [
        {
          "internalType": "uint256",
          "name": "_tokenId",
          "type": "uint256"
        }
      ],
      "name": "ownerOf",
      "outputs": [
        {
          "internalType": "address",
          "name": "",
          "type": "address"
        }
      ],
      "stateMutability": "view",
      "type": "function",
      "constant": true
    },
    {
      "inputs": [
        {
          "internalType": "address",
          "name": "_from",
          "type": "address"
        },
        {
          "internalType": "address",
          "name": "_to",
          "type": "address"
        },
        {
          "internalType": "uint256",
          "name": "_tokenId",
          "type": "uint256"
        }
      ],
      "name": "safeTransferFrom",
      "outputs": [],
      "stateMutability": "payable",
      "type": "function",
      "payable": true
    },
    {
      "inputs": [
        {
          "internalType": "address",
          "name": "_from",
          "type": "address"
        },
        {
          "internalType": "address",
          "name": "_to",
          "type": "address"
        },
        {
          "internalType": "uint256",
          "name": "_tokenId",
          "type": "uint256"
        },
        {
          "internalType": "bytes",
          "name": "data",
          "type": "bytes"
        }
      ],
      "name": "safeTransferFrom",
      "outputs": [],
      "stateMutability": "payable",
      "type": "function",
      "payable": true
    },
    {
      "inputs": [
        {
          "internalType": "address",
          "name": "_from",
          "type": "address"
        },
        {
          "internalType": "address",
          "name": "_to",
          "type": "address"
        },
        {
          "internalType": "uint256",
          "name": "_tokenId",
          "type": "uint256"
        }
      ],
      "name": "transferFrom",
      "outputs": [],
      "stateMutability": "payable",
      "type": "function",
      "payable": true
    },
    {
      "inputs": [
        {
          "internalType": "address",
          "name": "_approved",
          "type": "address"
        },
        {
          "internalType": "uint256",
          "name": "_tokenId",
          "type": "uint256"
        }
      ],
      "name": "approve",
      "outputs": [],
      "stateMutability": "payable",
      "type": "function",
      "payable": true
    },
    {
      "inputs": [
        {
          "internalType": "address",
          "name": "_operator",
          "type": "address"
        },
        {
          "internalType": "bool",
          "name": "_approved",
          "type": "bool"
        }
      ],
      "name": "setApprovalForAll",
      "outputs": [],
      "stateMutability": "nonpayable",
      "type": "function"
    },
    {
      "inputs": [
        {
          "internalType": "uint256",
          "name": "_tokenId",
          "type": "uint256"
        }
      ],
      "name": "getApproved",
      "outputs": [
        {
          "internalType": "address",
          "name": "",
          "type": "address"
        }
      ],
      "stateMutability": "view",
      "type": "function",
      "constant": true
    },
    {
      "inputs": [
        {
          "internalType": "address",
          "name": "_owner",
          "type": "address"
        },
        {
          "internalType": "address",
          "name": "_operator",
          "type": "address"
        }
      ],
      "name": "isApprovedForAll",
      "outputs": [
        {
          "internalType": "bool",
          "name": "",
          "type": "bool"
        }
      ],
      "stateMutability": "view",
      "type": "function",
      "constant": true
    }
  ],
  "bytecode": "0x608060405234801561001057600080fd5b5033600460006101000a81548173ffffffffffffffffffffffffffffffffffffffff021916908373ffffffffffffffffffffffffffffffffffffffff1602179055506116ce806100616000396000f3fe6080604052600436106100a75760003560e01c806370a082311161006457806370a082311461019157806375794a3c146101ce578063a22cb465146101f9578063b88d4fde14610222578063e985e9c51461023e578063f851a4401461027b576100a7565b8063081812fc146100ac578063095ea7b3146100e95780631249c58b1461010557806323b872dd1461011c57806342842e0e146101385780636352211e14610154575b600080fd5b3480156100b857600080fd5b506100d360048036038101906100ce9190610e71565b6102a6565b6040516100e09190610edf565b60405180910390f35b61010360048036038101906100fe9190610f26565b6102e3565b005b34801561011157600080fd5b5061011a61043b565b005b61013660048036038101906101319190610f66565b610651565b005b610152600480360381019061014d9190610f66565b610661565b005b34801561016057600080fd5b5061017b60048036038101906101769190610e71565b610681565b6040516101889190610edf565b60405180910390f35b34801561019d57600080fd5b506101b860048036038101906101b39190610fb9565b6106be565b6040516101c59190610ff5565b60405180910390f35b3480156101da57600080fd5b506101e3610706565b6040516101f09190610ff5565b60405180910390f35b34801561020557600080fd5b50610220600480360381019061021b9190611048565b61070c565b005b61023c600480360381019061023791906110ed565b610809565b005b34801561024a57600080fd5b5061026560048036038101906102609190611175565b610860565b60405161027291906111c4565b60405180910390f35b34801561028757600080fd5b506102906108f4565b60405161029d9190610edf565b60405180910390f35b60006002600083815260200190815260200160002060009054906101000a900473ffffffffffffffffffffffffffffffffffffffff169050919050565b60006001600083815260200190815260200160002060009054906101000a900473ffffffffffffffffffffffffffffffffffffffff1690508073ffffffffffffffffffffffffffffffffffffffff163373ffffffffffffffffffffffffffffffffffffffff1614610389576040517f08c379a00000000000000000000000000000000000000000000000000000000081526004016103809061123c565b60405180910390fd5b826002600084815260200190815260200160002060006101000a81548173ffffffffffffffffffffffffffffffffffffffff021916908373ffffffffffffffffffffffffffffffffffffffff160217905550818373ffffffffffffffffffffffffffffffffffffffff168273ffffffffffffffffffffffffffffffffffffffff167f8c5be1e5ebec7d5bd14f71427d1e84f3dd0314c0f7b2291e5b200ac8c7c3b92560405160405180910390a4505050565b600460009054906101000a900473ffffffffffffffffffffffffffffffffffffffff1673ffffffffffffffffffffffffffffffffffffffff163373ffffffffffffffffffffffffffffffffffffffff16146104cb576040517f08c379a00000000000000000000000000000000000000000000000000000000081526004016104c2906112a8565b60405180910390fd5b600080600460009054906101000a900473ffffffffffffffffffffffffffffffffffffffff1673ffffffffffffffffffffffffffffffffffffffff1673ffffffffffffffffffffffffffffffffffffffff168152602001908152602001600020600081548092919061053c906112f7565b9190505550600460009054906101000a900473ffffffffffffffffffffffffffffffffffffffff1660016000600554815260200190815260200160002060006101000a81548173ffffffffffffffffffffffffffffffffffffffff021916908373ffffffffffffffffffffffffffffffffffffffff160217905550600554600460009054906101000a900473ffffffffffffffffffffffffffffffffffffffff1673ffffffffffffffffffffffffffffffffffffffff16600073ffffffffffffffffffffffffffffffffffffffff167fddf252ad1be2c89b69c2b068fc378daa952ba7f163c4a11628f55a4df523b3ef60405160405180910390a46005600081548092919061064a906112f7565b9190505550565b61065c83838361091a565b505050565b61067c83838360405180602001604052806000815250610c22565b505050565b60006001600083815260200190815260200160002060009054906101000a900473ffffffffffffffffffffffffffffffffffffffff169050919050565b60008060008373ffffffffffffffffffffffffffffffffffffffff1673ffffffffffffffffffffffffffffffffffffffff168152602001908152602001600020549050919050565b60055481565b80600360003373ffffffffffffffffffffffffffffffffffffffff1673ffffffffffffffffffffffffffffffffffffffff16815260200190815260200160002060008473ffffffffffffffffffffffffffffffffffffffff1673ffffffffffffffffffffffffffffffffffffffff16815260200190815260200160002060006101000a81548160ff0219169083151502179055508173ffffffffffffffffffffffffffffffffffffffff163373ffffffffffffffffffffffffffffffffffffffff167f17307eab39ab6107e8899845ad3d59bd9653f200f220920489ca2b5937696c31836040516107fd91906111c4565b60405180910390a35050565b61085985858585858080601f016020809104026020016040519081016040528093929190818152602001838380828437600081840152601f19601f82011690508083019250505050505050610c22565b5050505050565b6000600360008473ffffffffffffffffffffffffffffffffffffffff1673ffffffffffffffffffffffffffffffffffffffff16815260200190815260200160002060008373ffffffffffffffffffffffffffffffffffffffff1673ffffffffffffffffffffffffffffffffffffffff16815260200190815260200160002060009054906101000a900460ff16905092915050565b600460009054906101000a900473ffffffffffffffffffffffffffffffffffffffff1681565b8060006001600083815260200190815260200160002060009054906101000a900473ffffffffffffffffffffffffffffffffffffffff1690508073ffffffffffffffffffffffffffffffffffffffff163373ffffffffffffffffffffffffffffffffffffffff1614806109eb57506002600083815260200190815260200160002060009054906101000a900473ffffffffffffffffffffffffffffffffffffffff1673ffffffffffffffffffffffffffffffffffffffff163373ffffffffffffffffffffffffffffffffffffffff16145b80610a83575060011515600360008373ffffffffffffffffffffffffffffffffffffffff1673ffffffffffffffffffffffffffffffffffffffff16815260200190815260200160002060003373ffffffffffffffffffffffffffffffffffffffff1673ffffffffffffffffffffffffffffffffffffffff16815260200190815260200160002060009054906101000a900460ff161515145b610ac2576040517f08c379a0000000000000000000000000000000000000000000000000000000008152600401610ab99061138b565b60405180910390fd5b60016000808773ffffffffffffffffffffffffffffffffffffffff1673ffffffffffffffffffffffffffffffffffffffff1681526020019081526020016000206000828254610b1191906113ab565b9250508190555060016000808673ffffffffffffffffffffffffffffffffffffffff1673ffffffffffffffffffffffffffffffffffffffff1681526020019081526020016000206000828254610b6791906113df565b92505081905550836001600085815260200190815260200160002060006101000a81548173ffffffffffffffffffffffffffffffffffffffff021916908373ffffffffffffffffffffffffffffffffffffffff160217905550828473ffffffffffffffffffffffffffffffffffffffff168673ffffffffffffffffffffffffffffffffffffffff167fddf252ad1be2c89b69c2b068fc378daa952ba7f163c4a11628f55a4df523b3ef60405160405180910390a45050505050565b610c2d84848461091a565b6000610c3b85858585610c8b565b90506001151581151514610c84576040517f08c379a0000000000000000000000000000000000000000000000000000000008152600401610c7b90611485565b60405180910390fd5b5050505050565b6000610cac8473ffffffffffffffffffffffffffffffffffffffff16610e0b565b15610dfe578373ffffffffffffffffffffffffffffffffffffffff1663150b7a02338786866040518563ffffffff1660e01b8152600401610cf09493929190611535565b6020604051808303816000875af1925050508015610d2c57506040513d601f19601f82011682018060405250810190610d2991906115d9565b60015b610dae573d8060008114610d5c576040519150601f19603f3d011682016040523d82523d6000602084013e610d61565b606091505b506000815103610da6576040517f08c379a0000000000000000000000000000000000000000000000000000000008152600401610d9d90611678565b60405180910390fd5b805181602001fd5b63150b7a0260e01b7bffffffffffffffffffffffffffffffffffffffffffffffffffffffff1916817bffffffffffffffffffffffffffffffffffffffffffffffffffffffff191614915050610e03565b600190505b949350505050565b60008060008373ffffffffffffffffffffffffffffffffffffffff163b11915050919050565b600080fd5b600080fd5b6000819050919050565b610e4e81610e3b565b8114610e5957600080fd5b50565b600081359050610e6b81610e45565b92915050565b600060208284031215610e8757610e86610e31565b5b6000610e9584828501610e5c565b91505092915050565b600073ffffffffffffffffffffffffffffffffffffffff82169050919050565b6000610ec982610e9e565b9050919050565b610ed981610ebe565b82525050565b6000602082019050610ef46000830184610ed0565b92915050565b610f0381610ebe565b8114610f0e57600080fd5b50565b600081359050610f2081610efa565b92915050565b60008060408385031215610f3d57610f3c610e31565b5b6000610f4b85828601610f11565b9250506020610f5c85828601610e5c565b9150509250929050565b600080600060608486031215610f7f57610f7e610e31565b5b6000610f8d86828701610f11565b9350506020610f9e86828701610f11565b9250506040610faf86828701610e5c565b9150509250925092565b600060208284031215610fcf57610fce610e31565b5b6000610fdd84828501610f11565b91505092915050565b610fef81610e3b565b82525050565b600060208201905061100a6000830184610fe6565b92915050565b60008115159050919050565b61102581611010565b811461103057600080fd5b50565b6000813590506110428161101c565b92915050565b6000806040838503121561105f5761105e610e31565b5b600061106d85828601610f11565b925050602061107e85828601611033565b9150509250929050565b600080fd5b600080fd5b600080fd5b60008083601f8401126110ad576110ac611088565b5b8235905067ffffffffffffffff8111156110ca576110c961108d565b5b6020830191508360018202830111156110e6576110e5611092565b5b9250929050565b60008060008060006080868803121561110957611108610e31565b5b600061111788828901610f11565b955050602061112888828901610f11565b945050604061113988828901610e5c565b935050606086013567ffffffffffffffff81111561115a57611159610e36565b5b61116688828901611097565b92509250509295509295909350565b6000806040838503121561118c5761118b610e31565b5b600061119a85828601610f11565b92505060206111ab85828601610f11565b9150509250929050565b6111be81611010565b82525050565b60006020820190506111d960008301846111b5565b92915050565b600082825260208201905092915050565b7f4e6f7420617574686f7269736564000000000000000000000000000000000000600082015250565b6000611226600e836111df565b9150611231826111f0565b602082019050919050565b6000602082019050818103600083015261125581611219565b9050919050565b7f6f6e6c792061646d696e00000000000000000000000000000000000000000000600082015250565b6000611292600a836111df565b915061129d8261125c565b602082019050919050565b600060208201905081810360008301526112c181611285565b9050919050565b7f4e487b7100000000000000000000000000000000000000000000000000000000600052601160045260246000fd5b600061130282610e3b565b91507fffffffffffffffffffffffffffffffffffffffffffffffffffffffffffffffff8203611334576113336112c8565b5b600182019050919050565b7f5472616e73666572206e6f7420617574686f7269736564000000000000000000600082015250565b60006113756017836111df565b91506113808261133f565b602082019050919050565b600060208201905081810360008301526113a481611368565b9050919050565b60006113b682610e3b565b91506113c183610e3b565b92508282039050818111156113d9576113d86112c8565b5b92915050565b60006113ea82610e3b565b91506113f583610e3b565b925082820190508082111561140d5761140c6112c8565b5b92915050565b7f726563697069656e7420736d61727420636f6e74726163742063616e6e6f742060008201527f68616e646c652045524337323120746f6b656e73000000000000000000000000602082015250565b600061146f6034836111df565b915061147a82611413565b604082019050919050565b6000602082019050818103600083015261149e81611462565b9050919050565b600081519050919050565b600082825260208201905092915050565b60005b838110156114df5780820151818401526020810190506114c4565b60008484015250505050565b6000601f19601f8301169050919050565b6000611507826114a5565b61151181856114b0565b93506115218185602086016114c1565b61152a816114eb565b840191505092915050565b600060808201905061154a6000830187610ed0565b6115576020830186610ed0565b6115646040830185610fe6565b818103606083015261157681846114fc565b905095945050505050565b60007fffffffff0000000000000000000000000000000000000000000000000000000082169050919050565b6115b681611581565b81146115c157600080fd5b50565b6000815190506115d3816115ad565b92915050565b6000602082840312156115ef576115ee610e31565b5b60006115fd848285016115c4565b91505092915050565b7f4552433732313a207472616e7366657220746f206e6f6e20455243373231526560008201527f63656976657220696d706c656d656e7465720000000000000000000000000000602082015250565b60006116626032836111df565b915061166d82611606565b604082019050919050565b6000602082019050818103600083015261169181611655565b905091905056fea2646970667358221220f5f3438b8be1c406bcd0d5292241c246bf2fef966ac1d8221e69f6c3dfec993064736f6c63430008110033",
  "immutableReferences": {},
  "source": "// SPDX-License-Identifier: MIT\r\npragma solidity 0.8.17;\r\n\r\nlibrary AddressUtils\r\n{\r\n\r\n  /**\r\n   * @dev Returns whether the target address is a contract.\r\n   * @param _addr Address to check.\r\n   * @return addressCheck if _addr is a contract, false if not.\r\n   */\r\n  function isContract(\r\n    address _addr\r\n  )\r\n    internal\r\n    view\r\n    returns (bool)\r\n  {\r\n    uint256 size;\r\n\r\n    // /**\r\n    //  * XXX Currently there is no better way to check if there is a contract in an address than to\r\n    //  * check the size of the code at that address.\r\n    //  * See https://ethereum.stackexchange.com/a/14016/36603 for more details about how this works.\r\n    //  * TODO: Check this again before the Serenity release, because all addresses will be\r\n    //  * contracts then.\r\n    //  */\r\n    // assembly { size := extcodesize(_addr) } // solhint-disable-line\r\n    // addressCheck = size > 0;\r\n\r\n\r\n    // This method relies on extcodesize/address.code.length, which returns 0\r\n    // for contracts in construction, since the code is only stored at the end\r\n    // of the constructor execution.\r\n    return _addr.code.length > 0;\r\n  }\r\n\r\n}\r\n\r\ninterface ERC721TokenReceiver {\r\n    /// @notice Handle the receipt of an NFT\r\n    /// @dev The ERC721 smart contract calls this function on the recipient\r\n    ///  after a `transfer`. This function MAY throw to revert and reject the\r\n    ///  transfer. Return of other than the magic value MUST result in the\r\n    ///  transaction being reverted.\r\n    ///  Note: the contract address is always the message sender.\r\n    /// @param _operator The address which called `safeTransferFrom` function\r\n    /// @param _from The address which previously owned the token\r\n    /// @param _tokenId The NFT identifier which is being transferred\r\n    /// @param _data Additional data with no specified format\r\n    /// @return `bytes4(keccak256(\"onERC721Received(address,address,uint256,bytes)\"))`\r\n    ///  unless throwing\r\n    function onERC721Received(address _operator, address _from, uint256 _tokenId, bytes calldata _data) external returns(bytes4);\r\n}\r\n\r\ninterface ERC721 /* is ERC165 */ {\r\n    /// @dev This emits when ownership of any NFT changes by any mechanism.\r\n    ///  This event emits when NFTs are created (`from` == 0) and destroyed\r\n    ///  (`to` == 0). Exception: during contract creation, any number of NFTs\r\n    ///  may be created and assigned without emitting Transfer. At the time of\r\n    ///  any transfer, the approved address for that NFT (if any) is reset to none.\r\n    event Transfer(address indexed _from, address indexed _to, uint256 indexed _tokenId);\r\n\r\n    /// @dev This emits when the approved address for an NFT is changed or\r\n    ///  reaffirmed. The zero address indicates there is no approved address.\r\n    ///  When a Transfer event emits, this also indicates that the approved\r\n    ///  address for that NFT (if any) is reset to none.\r\n    event Approval(address indexed _owner, address indexed _approved, uint256 indexed _tokenId);\r\n\r\n    /// @dev This emits when an operator is enabled or disabled for an owner.\r\n    ///  The operator can manage all NFTs of the owner.\r\n    event ApprovalForAll(address indexed _owner, address indexed _operator, bool _approved);\r\n\r\n    /// @notice Count all NFTs assigned to an owner\r\n    /// @dev NFTs assigned to the zero address are considered invalid, and this\r\n    ///  function throws for queries about the zero address.\r\n    /// @param _owner An address for whom to query the balance\r\n    /// @return The number of NFTs owned by `_owner`, possibly zero\r\n    function balanceOf(address _owner) external view returns (uint256);\r\n\r\n    /// @notice Find the owner of an NFT\r\n    /// @dev NFTs assigned to zero address are considered invalid, and queries\r\n    ///  about them do throw.\r\n    /// @param _tokenId The identifier for an NFT\r\n    /// @return The address of the owner of the NFT\r\n    function ownerOf(uint256 _tokenId) external view returns (address);\r\n\r\n    /// @notice Transfers the ownership of an NFT from one address to another address\r\n    /// @dev Throws unless `msg.sender` is the current owner, an authorized\r\n    ///  operator, or the approved address for this NFT. Throws if `_from` is\r\n    ///  not the current owner. Throws if `_to` is the zero address. Throws if\r\n    ///  `_tokenId` is not a valid NFT. When transfer is complete, this function\r\n    ///  checks if `_to` is a smart contract (code size > 0). If so, it calls\r\n    ///  `onERC721Received` on `_to` and throws if the return value is not\r\n    ///  `bytes4(keccak256(\"onERC721Received(address,address,uint256,bytes)\"))`.\r\n    /// @param _from The current owner of the NFT\r\n    /// @param _to The new owner\r\n    /// @param _tokenId The NFT to transfer\r\n    /// @param data Additional data with no specified format, sent in call to `_to`\r\n    function safeTransferFrom(address _from, address _to, uint256 _tokenId, bytes calldata data) external payable;\r\n\r\n    /// @notice Transfers the ownership of an NFT from one address to another address\r\n    /// @dev This works identically to the other function with an extra data parameter,\r\n    ///  except this function just sets data to \"\".\r\n    /// @param _from The current owner of the NFT\r\n    /// @param _to The new owner\r\n    /// @param _tokenId The NFT to transfer\r\n    function safeTransferFrom(address _from, address _to, uint256 _tokenId) external payable;\r\n\r\n    /// @notice Transfer ownership of an NFT -- THE CALLER IS RESPONSIBLE\r\n    ///  TO CONFIRM THAT `_to` IS CAPABLE OF RECEIVING NFTS OR ELSE\r\n    ///  THEY MAY BE PERMANENTLY LOST\r\n    /// @dev Throws unless `msg.sender` is the current owner, an authorized\r\n    ///  operator, or the approved address for this NFT. Throws if `_from` is\r\n    ///  not the current owner. Throws if `_to` is the zero address. Throws if\r\n    ///  `_tokenId` is not a valid NFT.\r\n    /// @param _from The current owner of the NFT\r\n    /// @param _to The new owner\r\n    /// @param _tokenId The NFT to transfer\r\n    function transferFrom(address _from, address _to, uint256 _tokenId) external payable;\r\n\r\n    /// @notice Change or reaffirm the approved address for an NFT\r\n    /// @dev The zero address indicates there is no approved address.\r\n    ///  Throws unless `msg.sender` is the current NFT owner, or an authorized\r\n    ///  operator of the current owner.\r\n    /// @param _approved The new approved NFT controller\r\n    /// @param _tokenId The NFT to approve\r\n    function approve(address _approved, uint256 _tokenId) external payable;\r\n\r\n    /// @notice Enable or disable approval for a third party (\"operator\") to manage\r\n    ///  all of `msg.sender`'s assets\r\n    /// @dev Emits the ApprovalForAll event. The contract MUST allow\r\n    ///  multiple operators per owner.\r\n    /// @param _operator Address to add to the set of authorized operators\r\n    /// @param _approved True if the operator is approved, false to revoke approval\r\n    function setApprovalForAll(address _operator, bool _approved) external;\r\n\r\n    /// @notice Get the approved address for a single NFT\r\n    /// @dev Throws if `_tokenId` is not a valid NFT.\r\n    /// @param _tokenId The NFT to find the approved address for\r\n    /// @return The approved address for this NFT, or the zero address if there is none\r\n    function getApproved(uint256 _tokenId) external view returns (address);\r\n\r\n    /// @notice Query if an address is an authorized operator for another address\r\n    /// @param _owner The address that owns the NFTs\r\n    /// @param _operator The address that acts on behalf of the owner\r\n    /// @return True if `_operator` is an approved operator for `_owner`, false otherwise\r\n    function isApprovedForAll(address _owner, address _operator) external view returns (bool);\r\n}\r\n\r\ncontract ERC721Token is ERC721 {\r\n\r\n  using AddressUtils for address;\r\n\r\n  mapping(address => uint) private ownerToTokenCount;\r\n  mapping(uint => address) private idToOwner;\r\n  mapping(uint => address) private idToApproved;\r\n  mapping(address => mapping(address => bool)) private ownerToOperators;\r\n\r\n  bytes4 internal constant MAGIC_ON_ERC721_RECEIVED = 0x150b7a02;\r\n\r\n  address public admin;\r\n  uint public nextTokenId;\r\n\r\n  constructor() {\r\n    admin = msg.sender;\r\n  }\r\n\r\n  function mint() external {\r\n    require(msg.sender == admin, 'only admin');\r\n    ownerToTokenCount[admin]++;\r\n    idToOwner[nextTokenId] = admin;\r\n    emit Transfer(address(0), admin, nextTokenId);\r\n    nextTokenId++;\r\n  }\r\n\r\n  function balanceOf(address _owner) external view returns (uint) {\r\n    return ownerToTokenCount[_owner];\r\n  }\r\n\r\n  function ownerOf(uint256 _tokenId) external view returns (address) {\r\n    return idToOwner[_tokenId];\r\n  }\r\n\r\n  function safeTransferFrom(address _from, address _to, uint _tokenId, bytes calldata data) external payable {\r\n    _safeTransferFrom(_from, _to, _tokenId, data);\r\n  }\r\n\r\n  function safeTransferFrom(address _from, address _to, uint _tokenId) external payable {\r\n    _safeTransferFrom(_from, _to, _tokenId, '');\r\n  }\r\n\r\n  function transferFrom(address _from, address _to, uint _tokenId) external payable {\r\n    _transfer(_from, _to, _tokenId);\r\n  }\r\n\r\n  function approve(address _approved, uint _tokenId) external payable {\r\n    address owner = idToOwner[_tokenId];\r\n    require(msg.sender == owner, 'Not authorised');\r\n    idToApproved[_tokenId] = _approved;\r\n    emit Approval(owner, _approved, _tokenId);\r\n  }\r\n\r\n  function setApprovalForAll(address _operator, bool _approved) external {\r\n    ownerToOperators[msg.sender][_operator] = _approved;\r\n    emit ApprovalForAll(msg.sender, _operator, _approved);\r\n  }\r\n\r\n  function getApproved(uint256 _tokenId) external view returns (address) {\r\n    return idToApproved[_tokenId];\r\n  }\r\n\r\n  function isApprovedForAll(address _owner, address _operator) external view returns (bool) {\r\n    return ownerToOperators[_owner][_operator];\r\n  }\r\n\r\n  function _safeTransferFrom(address _from, address _to, uint256 _tokenId, bytes memory data) internal {\r\n    _transfer(_from, _to, _tokenId);\r\n\r\n    /// from openzepellin\r\n    bool returnValue = _checkOnERC721Received(_from, _to, _tokenId, data);\r\n    require(returnValue == true, 'recipient smart contract cannot handle ERC721 tokens');\r\n\r\n    // /// test that address is smart contract\r\n    // if (address(_to).isContract()) {\r\n    //   /// call smart contract and execute predefined function\r\n    //   bytes4 returnValue = ERC721TokenReceiver(_to).onERC721Received(msg.sender, _from, _tokenId, data);\r\n\r\n    //   /// compare this vallue with predifined value\r\n    //   require(returnValue == MAGIC_ON_ERC721_RECEIVED, 'recipient smart contract cannot handle ERC721 tokens');\r\n    // }\r\n  }\r\n\r\n  function _transfer(address _from, address _to, uint256 _tokenId) internal canTransfer(_tokenId) {\r\n    ownerToTokenCount[_from] -= 1;\r\n    ownerToTokenCount[_to] += 1;\r\n    idToOwner[_tokenId] = _to;\r\n    emit Transfer(_from, _to, _tokenId);\r\n  }\r\n\r\n  function _checkOnERC721Received(\r\n        address from,\r\n        address to,\r\n        uint256 tokenId,\r\n        bytes memory data\r\n    ) private returns (bool) {\r\n        if (to.isContract()) {\r\n            try ERC721TokenReceiver(to).onERC721Received(msg.sender, from, tokenId, data) returns (bytes4 retval) {\r\n                return retval == ERC721TokenReceiver.onERC721Received.selector;\r\n            } catch (bytes memory reason) {\r\n                if (reason.length == 0) {\r\n                    revert(\"ERC721: transfer to non ERC721Receiver implementer\");\r\n                } else {\r\n                    /// @solidity memory-safe-assembly\r\n                    assembly {\r\n                        revert(add(32, reason), mload(reason))\r\n                    }\r\n                }\r\n            }\r\n        } else {\r\n            return true;\r\n        }\r\n    }\r\n\r\n  modifier canTransfer(uint _tokenId) {\r\n    address owner = idToOwner[_tokenId];\r\n    require(msg.sender == owner \r\n      || msg.sender == idToApproved[_tokenId]\r\n      || ownerToOperators[owner][msg.sender] == true, 'Transfer not authorised');\r\n    _;\r\n  }\r\n\r\n}",
  "sourcePath": "C:\\Development\\Products\\Blockchain\\Dapp30\\Dapp30\\22ERC721\\contracts\\ERC721Token.sol",
  "compiler": {
    "name": "solc",
    "version": "0.8.17+commit.8df45f5f.Emscripten.clang"
  },
  "schemaVersion": "3.4.10",
  "updatedAt": "2023-02-01T19:55:09.850Z",
  "networkType": "ethereum",
  "devdoc": {
    "kind": "dev",
    "methods": {
      "approve(address,uint256)": {
        "details": "The zero address indicates there is no approved address.  Throws unless `msg.sender` is the current NFT owner, or an authorized  operator of the current owner.",
        "params": {
          "_approved": "The new approved NFT controller",
          "_tokenId": "The NFT to approve"
        }
      },
      "balanceOf(address)": {
        "details": "NFTs assigned to the zero address are considered invalid, and this  function throws for queries about the zero address.",
        "params": {
          "_owner": "An address for whom to query the balance"
        },
        "returns": {
          "_0": "The number of NFTs owned by `_owner`, possibly zero"
        }
      },
      "getApproved(uint256)": {
        "details": "Throws if `_tokenId` is not a valid NFT.",
        "params": {
          "_tokenId": "The NFT to find the approved address for"
        },
        "returns": {
          "_0": "The approved address for this NFT, or the zero address if there is none"
        }
      },
      "isApprovedForAll(address,address)": {
        "params": {
          "_operator": "The address that acts on behalf of the owner",
          "_owner": "The address that owns the NFTs"
        },
        "returns": {
          "_0": "True if `_operator` is an approved operator for `_owner`, false otherwise"
        }
      },
      "ownerOf(uint256)": {
        "details": "NFTs assigned to zero address are considered invalid, and queries  about them do throw.",
        "params": {
          "_tokenId": "The identifier for an NFT"
        },
        "returns": {
          "_0": "The address of the owner of the NFT"
        }
      },
      "safeTransferFrom(address,address,uint256)": {
        "details": "This works identically to the other function with an extra data parameter,  except this function just sets data to \"\".",
        "params": {
          "_from": "The current owner of the NFT",
          "_to": "The new owner",
          "_tokenId": "The NFT to transfer"
        }
      },
      "safeTransferFrom(address,address,uint256,bytes)": {
        "details": "Throws unless `msg.sender` is the current owner, an authorized  operator, or the approved address for this NFT. Throws if `_from` is  not the current owner. Throws if `_to` is the zero address. Throws if  `_tokenId` is not a valid NFT. When transfer is complete, this function  checks if `_to` is a smart contract (code size > 0). If so, it calls  `onERC721Received` on `_to` and throws if the return value is not  `bytes4(keccak256(\"onERC721Received(address,address,uint256,bytes)\"))`.",
        "params": {
          "_from": "The current owner of the NFT",
          "_to": "The new owner",
          "_tokenId": "The NFT to transfer",
          "data": "Additional data with no specified format, sent in call to `_to`"
        }
      },
      "setApprovalForAll(address,bool)": {
        "details": "Emits the ApprovalForAll event. The contract MUST allow  multiple operators per owner.",
        "params": {
          "_approved": "True if the operator is approved, false to revoke approval",
          "_operator": "Address to add to the set of authorized operators"
        }
      },
      "transferFrom(address,address,uint256)": {
        "details": "Throws unless `msg.sender` is the current owner, an authorized  operator, or the approved address for this NFT. Throws if `_from` is  not the current owner. Throws if `_to` is the zero address. Throws if  `_tokenId` is not a valid NFT.",
        "params": {
          "_from": "The current owner of the NFT",
          "_to": "The new owner",
          "_tokenId": "The NFT to transfer"
        }
      }
    },
    "version": 1
  },
  "userdoc": {
    "kind": "user",
    "methods": {
      "approve(address,uint256)": {
        "notice": "Change or reaffirm the approved address for an NFT"
      },
      "balanceOf(address)": {
        "notice": "Count all NFTs assigned to an owner"
      },
      "getApproved(uint256)": {
        "notice": "Get the approved address for a single NFT"
      },
      "isApprovedForAll(address,address)": {
        "notice": "Query if an address is an authorized operator for another address"
      },
      "ownerOf(uint256)": {
        "notice": "Find the owner of an NFT"
      },
      "safeTransferFrom(address,address,uint256)": {
        "notice": "Transfers the ownership of an NFT from one address to another address"
      },
      "safeTransferFrom(address,address,uint256,bytes)": {
        "notice": "Transfers the ownership of an NFT from one address to another address"
      },
      "setApprovalForAll(address,bool)": {
        "notice": "Enable or disable approval for a third party (\"operator\") to manage  all of `msg.sender`'s assets"
      },
      "transferFrom(address,address,uint256)": {
        "notice": "Transfer ownership of an NFT -- THE CALLER IS RESPONSIBLE  TO CONFIRM THAT `_to` IS CAPABLE OF RECEIVING NFTS OR ELSE  THEY MAY BE PERMANENTLY LOST"
      }
    },
    "version": 1
  }
}