{
  "contractName": "MockGoodContract",
  "abi": [
    {
      "inputs": [
        {
          "internalType": "address",
          "name": "_operator",
          "type": "address"
        },
        {
          "internalType": "address",
          "name": "_from",
          "type": "address"
        },
        {
          "internalType": "uint256",
          "name": "_tokenId",
          "type": "uint256"
        },
        {
          "internalType": "bytes",
          "name": "_data",
          "type": "bytes"
        }
      ],
      "name": "onERC721Received",
      "outputs": [
        {
          "internalType": "bytes4",
          "name": "",
          "type": "bytes4"
        }
      ],
      "stateMutability": "nonpayable",
      "type": "function"
    }
  ],
  "bytecode": "0x608060405234801561001057600080fd5b5061028c806100206000396000f3fe608060405234801561001057600080fd5b506004361061002b5760003560e01c8063150b7a0214610030575b600080fd5b61004a60048036038101906100459190610178565b610060565b604051610057919061023b565b60405180910390f35b600063150b7a0260e01b905095945050505050565b600080fd5b600080fd5b600073ffffffffffffffffffffffffffffffffffffffff82169050919050565b60006100aa8261007f565b9050919050565b6100ba8161009f565b81146100c557600080fd5b50565b6000813590506100d7816100b1565b92915050565b6000819050919050565b6100f0816100dd565b81146100fb57600080fd5b50565b60008135905061010d816100e7565b92915050565b600080fd5b600080fd5b600080fd5b60008083601f84011261013857610137610113565b5b8235905067ffffffffffffffff81111561015557610154610118565b5b6020830191508360018202830111156101715761017061011d565b5b9250929050565b60008060008060006080868803121561019457610193610075565b5b60006101a2888289016100c8565b95505060206101b3888289016100c8565b94505060406101c4888289016100fe565b935050606086013567ffffffffffffffff8111156101e5576101e461007a565b5b6101f188828901610122565b92509250509295509295909350565b60007fffffffff0000000000000000000000000000000000000000000000000000000082169050919050565b61023581610200565b82525050565b6000602082019050610250600083018461022c565b9291505056fea26469706673582212203f3df8030c7ce3fff76bf4a7b8e6696a346d007b8b9cbb01df6d3dcc4ecee40b64736f6c63430008110033",
  "immutableReferences": {},
  "source": "pragma solidity 0.8.17;\r\n\r\ninterface ERC721TokenReceiver {\r\n    function onERC721Received(address _operator, address _from, uint256 _tokenId, bytes calldata _data) external returns(bytes4);\r\n}\r\n\r\ncontract MockGoodContract is ERC721TokenReceiver {\r\n  bytes4 internal constant MAGIC_ON_ERC721_RECEIVED = 0x150b7a02;\r\n  function onERC721Received(address _operator, address _from, uint256 _tokenId, bytes calldata _data) external returns(bytes4) {\r\n    return MAGIC_ON_ERC721_RECEIVED;\r\n  }\r\n  \r\n}",
  "sourcePath": "C:\\Development\\Products\\Blockchain\\Dapp30\\Dapp30\\22ERC721\\contracts\\MockGoodContract.sol",
  "compiler": {
    "name": "solc",
    "version": "0.8.17+commit.8df45f5f.Emscripten.clang"
  },
  "schemaVersion": "3.4.10",
  "updatedAt": "2023-02-01T19:55:01.043Z",
  "devdoc": {
    "kind": "dev",
    "methods": {},
    "version": 1
  },
  "userdoc": {
    "kind": "user",
    "methods": {},
    "version": 1
  }
}