{
  "contractName": "Twitter",
  "abi": [
    {
      "anonymous": false,
      "inputs": [
        {
          "indexed": false,
          "internalType": "uint256",
          "name": "id",
          "type": "uint256"
        },
        {
          "indexed": true,
          "internalType": "address",
          "name": "from",
          "type": "address"
        },
        {
          "indexed": true,
          "internalType": "address",
          "name": "followed",
          "type": "address"
        },
        {
          "indexed": false,
          "internalType": "uint256",
          "name": "createdAt",
          "type": "uint256"
        }
      ],
      "name": "Follow",
      "type": "event"
    },
    {
      "anonymous": false,
      "inputs": [
        {
          "indexed": false,
          "internalType": "uint256",
          "name": "id",
          "type": "uint256"
        },
        {
          "indexed": false,
          "internalType": "string",
          "name": "content",
          "type": "string"
        },
        {
          "indexed": true,
          "internalType": "address",
          "name": "from",
          "type": "address"
        },
        {
          "indexed": true,
          "internalType": "address",
          "name": "to",
          "type": "address"
        },
        {
          "indexed": false,
          "internalType": "uint256",
          "name": "createdAt",
          "type": "uint256"
        }
      ],
      "name": "MessageSent",
      "type": "event"
    },
    {
      "anonymous": false,
      "inputs": [
        {
          "indexed": false,
          "internalType": "uint256",
          "name": "id",
          "type": "uint256"
        },
        {
          "indexed": true,
          "internalType": "address",
          "name": "author",
          "type": "address"
        },
        {
          "indexed": false,
          "internalType": "string",
          "name": "content",
          "type": "string"
        },
        {
          "indexed": false,
          "internalType": "uint256",
          "name": "createdAt",
          "type": "uint256"
        }
      ],
      "name": "TweetSent",
      "type": "event"
    },
    {
      "inputs": [
        {
          "internalType": "address",
          "name": "operator",
          "type": "address"
        }
      ],
      "name": "approve",
      "outputs": [],
      "stateMutability": "nonpayable",
      "type": "function"
    },
    {
      "inputs": [
        {
          "internalType": "address",
          "name": "operator",
          "type": "address"
        }
      ],
      "name": "disapprove",
      "outputs": [],
      "stateMutability": "nonpayable",
      "type": "function"
    },
    {
      "inputs": [
        {
          "internalType": "string",
          "name": "_content",
          "type": "string"
        }
      ],
      "name": "sendTweet",
      "outputs": [],
      "stateMutability": "nonpayable",
      "type": "function"
    },
    {
      "inputs": [
        {
          "internalType": "address",
          "name": "_from",
          "type": "address"
        },
        {
          "internalType": "string",
          "name": "_content",
          "type": "string"
        }
      ],
      "name": "sendTweetFrom",
      "outputs": [],
      "stateMutability": "nonpayable",
      "type": "function"
    },
    {
      "inputs": [
        {
          "internalType": "string",
          "name": "_content",
          "type": "string"
        },
        {
          "internalType": "address",
          "name": "_to",
          "type": "address"
        }
      ],
      "name": "sendMessage",
      "outputs": [],
      "stateMutability": "nonpayable",
      "type": "function"
    },
    {
      "inputs": [
        {
          "internalType": "string",
          "name": "_content",
          "type": "string"
        },
        {
          "internalType": "address",
          "name": "_from",
          "type": "address"
        },
        {
          "internalType": "address",
          "name": "_to",
          "type": "address"
        }
      ],
      "name": "sendMessageFrom",
      "outputs": [],
      "stateMutability": "nonpayable",
      "type": "function"
    },
    {
      "inputs": [
        {
          "internalType": "address",
          "name": "_followed",
          "type": "address"
        }
      ],
      "name": "follow",
      "outputs": [],
      "stateMutability": "nonpayable",
      "type": "function"
    },
    {
      "inputs": [
        {
          "internalType": "address",
          "name": "_from",
          "type": "address"
        },
        {
          "internalType": "address",
          "name": "_followed",
          "type": "address"
        }
      ],
      "name": "followFrom",
      "outputs": [],
      "stateMutability": "nonpayable",
      "type": "function"
    },
    {
      "inputs": [
        {
          "internalType": "uint256",
          "name": "count",
          "type": "uint256"
        }
      ],
      "name": "getLatestTweets",
      "outputs": [
        {
          "components": [
            {
              "internalType": "uint256",
              "name": "id",
              "type": "uint256"
            },
            {
              "internalType": "address",
              "name": "author",
              "type": "address"
            },
            {
              "internalType": "string",
              "name": "content",
              "type": "string"
            },
            {
              "internalType": "uint256",
              "name": "createdAt",
              "type": "uint256"
            }
          ],
          "internalType": "struct Twitter.Tweet[]",
          "name": "",
          "type": "tuple[]"
        }
      ],
      "stateMutability": "view",
      "type": "function"
    },
    {
      "inputs": [
        {
          "internalType": "address",
          "name": "_user",
          "type": "address"
        },
        {
          "internalType": "uint256",
          "name": "count",
          "type": "uint256"
        }
      ],
      "name": "getTweetsOf",
      "outputs": [
        {
          "components": [
            {
              "internalType": "uint256",
              "name": "id",
              "type": "uint256"
            },
            {
              "internalType": "address",
              "name": "author",
              "type": "address"
            },
            {
              "internalType": "string",
              "name": "content",
              "type": "string"
            },
            {
              "internalType": "uint256",
              "name": "createdAt",
              "type": "uint256"
            }
          ],
          "internalType": "struct Twitter.Tweet[]",
          "name": "",
          "type": "tuple[]"
        }
      ],
      "stateMutability": "view",
      "type": "function"
    },
    {
      "inputs": [
        {
          "internalType": "address",
          "name": "_user",
          "type": "address"
        },
        {
          "internalType": "uint256",
          "name": "count",
          "type": "uint256"
        }
      ],
      "name": "getFollowings",
      "outputs": [
        {
          "components": [
            {
              "internalType": "uint256",
              "name": "id",
              "type": "uint256"
            },
            {
              "internalType": "address",
              "name": "user",
              "type": "address"
            },
            {
              "internalType": "uint256",
              "name": "createdAt",
              "type": "uint256"
            }
          ],
          "internalType": "struct Twitter.Following[]",
          "name": "",
          "type": "tuple[]"
        }
      ],
      "stateMutability": "view",
      "type": "function"
    },
    {
      "inputs": [
        {
          "internalType": "address",
          "name": "_from",
          "type": "address"
        },
        {
          "internalType": "address",
          "name": "_to",
          "type": "address"
        },
        {
          "internalType": "uint256",
          "name": "count",
          "type": "uint256"
        }
      ],
      "name": "getConversation",
      "outputs": [
        {
          "components": [
            {
              "internalType": "uint256",
              "name": "id",
              "type": "uint256"
            },
            {
              "internalType": "string",
              "name": "content",
              "type": "string"
            },
            {
              "internalType": "address",
              "name": "from",
              "type": "address"
            },
            {
              "internalType": "address",
              "name": "to",
              "type": "address"
            },
            {
              "internalType": "uint256",
              "name": "createdAt",
              "type": "uint256"
            }
          ],
          "internalType": "struct Twitter.Message[]",
          "name": "",
          "type": "tuple[]"
        }
      ],
      "stateMutability": "view",
      "type": "function"
    }
  ],
  "bytecode": "0x608060405234801561001057600080fd5b506127b7806100206000396000f3fe608060405234801561001057600080fd5b50600436106100b45760003560e01c806352aaa2031161007157806352aaa203146101755780635b4d4214146101a5578063c48d6d5e146101d5578063d08261bb146101f1578063daea85c514610221578063dc6e18691461023d576100b4565b806315770d99146100b9578063179a21e8146100d55780632110f40d146100f1578063390ce8321461010d5780634dbf27cc146101295780634dc0a68714610145575b600080fd5b6100d360048036038101906100ce919061178b565b610259565b005b6100ef60048036038101906100ea919061181d565b6102f1565b005b61010b60048036038101906101069190611891565b6103d5565b005b610127600480360381019061012291906118d1565b6104b5565b005b610143600480360381019061013e919061178b565b6105da565b005b61015f600480360381019061015a9190611967565b6105e7565b60405161016c9190611b67565b60405180910390f35b61018f600480360381019061018a9190611b89565b610837565b60405161019c9190611cba565b60405180910390f35b6101bf60048036038101906101ba9190611b89565b610a4f565b6040516101cc9190611b67565b60405180910390f35b6101ef60048036038101906101ea9190611cdc565b610d07565b005b61020b60048036038101906102069190611d3c565b610d18565b6040516102189190611ec7565b60405180910390f35b61023b6004803603810190610236919061178b565b611014565b005b61025760048036038101906102529190611ee9565b6110ac565b005b6000600760003373ffffffffffffffffffffffffffffffffffffffff1673ffffffffffffffffffffffffffffffffffffffff16815260200190815260200160002060008373ffffffffffffffffffffffffffffffffffffffff1673ffffffffffffffffffffffffffffffffffffffff16815260200190815260200160002060006101000a81548160ff02191690831515021790555050565b8160011515600760008373ffffffffffffffffffffffffffffffffffffffff1673ffffffffffffffffffffffffffffffffffffffff16815260200190815260200160002060003373ffffffffffffffffffffffffffffffffffffffff1673ffffffffffffffffffffffffffffffffffffffff16815260200190815260200160002060009054906101000a900460ff161515146103c2576040517f08c379a00000000000000000000000000000000000000000000000000000000081526004016103b990611f93565b60405180910390fd5b6103ce858585856110fe565b5050505050565b8160011515600760008373ffffffffffffffffffffffffffffffffffffffff1673ffffffffffffffffffffffffffffffffffffffff16815260200190815260200160002060003373ffffffffffffffffffffffffffffffffffffffff1673ffffffffffffffffffffffffffffffffffffffff16815260200190815260200160002060009054906101000a900460ff161515146104a6576040517f08c379a000000000000000000000000000000000000000000000000000000000815260040161049d90611f93565b60405180910390fd5b6104b08383611355565b505050565b8260011515600760008373ffffffffffffffffffffffffffffffffffffffff1673ffffffffffffffffffffffffffffffffffffffff16815260200190815260200160002060003373ffffffffffffffffffffffffffffffffffffffff1673ffffffffffffffffffffffffffffffffffffffff16815260200190815260200160002060009054906101000a900460ff16151514610586576040517f08c379a000000000000000000000000000000000000000000000000000000000815260040161057d90611f93565b60405180910390fd5b6105d48484848080601f016020809104026020016040519081016040528093929190818152602001838380828437600081840152601f19601f820116905080830192505050505050506114ba565b50505050565b6105e43382611355565b50565b60606000821161062c576040517f08c379a000000000000000000000000000000000000000000000000000000000815260040161062390611fff565b60405180910390fd5b600154821115610671576040517f08c379a00000000000000000000000000000000000000000000000000000000081526004016106689061206b565b60405180910390fd5b60008267ffffffffffffffff81111561068d5761068c61208b565b5b6040519080825280602002602001820160405280156106c657816020015b6106b3611653565b8152602001906001900390816106ab5790505b509050600080846001546106da91906120e9565b90505b60015481101561082c57600080600083815260200190815260200160002090506040518060800160405280826000015481526020018260010160009054906101000a900473ffffffffffffffffffffffffffffffffffffffff1673ffffffffffffffffffffffffffffffffffffffff1681526020018260020180546107619061214c565b80601f016020809104026020016040519081016040528092919081815260200182805461078d9061214c565b80156107da5780601f106107af576101008083540402835291602001916107da565b820191906000526020600020905b8154815290600101906020018083116107bd57829003601f168201915b5050505050815260200182600301548152508484815181106107ff576107fe61217d565b5b60200260200101819052508280610815906121ac565b935050508080610824906121ac565b9150506106dd565b508192505050919050565b60606000600560008573ffffffffffffffffffffffffffffffffffffffff1673ffffffffffffffffffffffffffffffffffffffff1681526020019081526020016000209050600083116108bf576040517f08c379a00000000000000000000000000000000000000000000000000000000081526004016108b690612240565b60405180910390fd5b8080549050831115610906576040517f08c379a00000000000000000000000000000000000000000000000000000000081526004016108fd906122ac565b60405180910390fd5b60008367ffffffffffffffff8111156109225761092161208b565b5b60405190808252806020026020018201604052801561095b57816020015b610948611691565b8152602001906001900390816109405790505b50905060008085848054905061097191906120e9565b90505b8380549050811015610a425760008482815481106109955761099461217d565b5b906000526020600020906003020190506040518060600160405280826000015481526020018260010160009054906101000a900473ffffffffffffffffffffffffffffffffffffffff1673ffffffffffffffffffffffffffffffffffffffff1681526020018260020154815250848481518110610a1557610a1461217d565b5b60200260200101819052508280610a2b906121ac565b935050508080610a3a906121ac565b915050610974565b5081935050505092915050565b60606000600260008573ffffffffffffffffffffffffffffffffffffffff1673ffffffffffffffffffffffffffffffffffffffff168152602001908152602001600020905060008311610ad7576040517f08c379a0000000000000000000000000000000000000000000000000000000008152600401610ace90611fff565b60405180910390fd5b8080549050831115610b1e576040517f08c379a0000000000000000000000000000000000000000000000000000000008152600401610b159061206b565b60405180910390fd5b60008367ffffffffffffffff811115610b3a57610b3961208b565b5b604051908082528060200260200182016040528015610b7357816020015b610b60611653565b815260200190600190039081610b585790505b509050600080858480549050610b8991906120e9565b90505b8380549050811015610cfa576000806000868481548110610bb057610baf61217d565b5b9060005260206000200154815260200190815260200160002090506040518060800160405280826000015481526020018260010160009054906101000a900473ffffffffffffffffffffffffffffffffffffffff1673ffffffffffffffffffffffffffffffffffffffff168152602001826002018054610c2f9061214c565b80601f0160208091040260200160405190810160405280929190818152602001828054610c5b9061214c565b8015610ca85780601f10610c7d57610100808354040283529160200191610ca8565b820191906000526020600020905b815481529060010190602001808311610c8b57829003601f168201915b505050505081526020018260030154815250848481518110610ccd57610ccc61217d565b5b60200260200101819052508280610ce3906121ac565b935050508080610cf2906121ac565b915050610b8c565b5081935050505092915050565b610d13838333846110fe565b505050565b606060008373ffffffffffffffffffffffffffffffffffffffff168573ffffffffffffffffffffffffffffffffffffffff16610d5491906122cc565b9050600060036000838152602001908152602001600020905060008411610db0576040517f08c379a0000000000000000000000000000000000000000000000000000000008152600401610da79061234c565b60405180910390fd5b8080549050841115610df7576040517f08c379a0000000000000000000000000000000000000000000000000000000008152600401610dee906123b8565b60405180910390fd5b60008467ffffffffffffffff811115610e1357610e1261208b565b5b604051908082528060200260200182016040528015610e4c57816020015b610e396116c8565b815260200190600190039081610e315790505b509050600080868480549050610e6291906120e9565b90505b8380549050811015611005576000848281548110610e8657610e8561217d565b5b906000526020600020906005020190506040518060a0016040528082600001548152602001826001018054610eba9061214c565b80601f0160208091040260200160405190810160405280929190818152602001828054610ee69061214c565b8015610f335780601f10610f0857610100808354040283529160200191610f33565b820191906000526020600020905b815481529060010190602001808311610f1657829003601f168201915b505050505081526020018260020160009054906101000a900473ffffffffffffffffffffffffffffffffffffffff1673ffffffffffffffffffffffffffffffffffffffff1681526020018260030160009054906101000a900473ffffffffffffffffffffffffffffffffffffffff1673ffffffffffffffffffffffffffffffffffffffff1681526020018260040154815250848481518110610fd857610fd761217d565b5b60200260200101819052508280610fee906121ac565b935050508080610ffd906121ac565b915050610e65565b50819450505050509392505050565b6001600760003373ffffffffffffffffffffffffffffffffffffffff1673ffffffffffffffffffffffffffffffffffffffff16815260200190815260200160002060008373ffffffffffffffffffffffffffffffffffffffff1673ffffffffffffffffffffffffffffffffffffffff16815260200190815260200160002060006101000a81548160ff02191690831515021790555050565b6110fa3383838080601f016020809104026020016040519081016040528093929190818152602001838380828437600081840152601f19601f820116905080830192505050505050506114ba565b5050565b60008173ffffffffffffffffffffffffffffffffffffffff168373ffffffffffffffffffffffffffffffffffffffff1661113891906122cc565b9050600360008281526020019081526020016000206040518060a00160405280600454815260200187878080601f016020809104026020016040519081016040528093929190818152602001838380828437600081840152601f19601f8201169050808301925050505050505081526020018573ffffffffffffffffffffffffffffffffffffffff1681526020018473ffffffffffffffffffffffffffffffffffffffff16815260200142815250908060018154018082558091505060019003906000526020600020906005020160009091909190915060008201518160000155602082015181600101908161122e9190612584565b5060408201518160020160006101000a81548173ffffffffffffffffffffffffffffffffffffffff021916908373ffffffffffffffffffffffffffffffffffffffff16021790555060608201518160030160006101000a81548173ffffffffffffffffffffffffffffffffffffffff021916908373ffffffffffffffffffffffffffffffffffffffff1602179055506080820151816004015550508173ffffffffffffffffffffffffffffffffffffffff168373ffffffffffffffffffffffffffffffffffffffff167f053227a5bdcc96607ea58ea40dd04c9394ddebceb1cd539ad1289d8b074bc4eb60045488884260405161132e94939291906126a1565b60405180910390a360046000815480929190611349906121ac565b91905055505050505050565b600560008373ffffffffffffffffffffffffffffffffffffffff1673ffffffffffffffffffffffffffffffffffffffff168152602001908152602001600020604051806060016040528060065481526020018373ffffffffffffffffffffffffffffffffffffffff1681526020014281525090806001815401808255809150506001900390600052602060002090600302016000909190919091506000820151816000015560208201518160010160006101000a81548173ffffffffffffffffffffffffffffffffffffffff021916908373ffffffffffffffffffffffffffffffffffffffff1602179055506040820151816002015550508073ffffffffffffffffffffffffffffffffffffffff168273ffffffffffffffffffffffffffffffffffffffff167feafc70ce8f96bf66b6f0da21c594c699f3069161c9140aea61b44b9693f9de6d600654426040516114ae9291906126e1565b60405180910390a35050565b604051806080016040528060015481526020018373ffffffffffffffffffffffffffffffffffffffff1681526020018281526020014281525060008060015481526020019081526020016000206000820151816000015560208201518160010160006101000a81548173ffffffffffffffffffffffffffffffffffffffff021916908373ffffffffffffffffffffffffffffffffffffffff160217905550604082015181600201908161156d9190612584565b5060608201518160030155905050600260008373ffffffffffffffffffffffffffffffffffffffff1673ffffffffffffffffffffffffffffffffffffffff16815260200190815260200160002060015490806001815401808255809150506001900390600052602060002001600090919091909150553373ffffffffffffffffffffffffffffffffffffffff167f8d6b17b300471dd2e4fef05e2e70f50c236372b9a4aaf37cdb52644d99bc21a7600154834260405161162f93929190612743565b60405180910390a26001600081548092919061164a906121ac565b91905055505050565b604051806080016040528060008152602001600073ffffffffffffffffffffffffffffffffffffffff16815260200160608152602001600081525090565b604051806060016040528060008152602001600073ffffffffffffffffffffffffffffffffffffffff168152602001600081525090565b6040518060a001604052806000815260200160608152602001600073ffffffffffffffffffffffffffffffffffffffff168152602001600073ffffffffffffffffffffffffffffffffffffffff168152602001600081525090565b600080fd5b600080fd5b600073ffffffffffffffffffffffffffffffffffffffff82169050919050565b60006117588261172d565b9050919050565b6117688161174d565b811461177357600080fd5b50565b6000813590506117858161175f565b92915050565b6000602082840312156117a1576117a0611723565b5b60006117af84828501611776565b91505092915050565b600080fd5b600080fd5b600080fd5b60008083601f8401126117dd576117dc6117b8565b5b8235905067ffffffffffffffff8111156117fa576117f96117bd565b5b602083019150836001820283011115611816576118156117c2565b5b9250929050565b6000806000806060858703121561183757611836611723565b5b600085013567ffffffffffffffff81111561185557611854611728565b5b611861878288016117c7565b9450945050602061187487828801611776565b925050604061188587828801611776565b91505092959194509250565b600080604083850312156118a8576118a7611723565b5b60006118b685828601611776565b92505060206118c785828601611776565b9150509250929050565b6000806000604084860312156118ea576118e9611723565b5b60006118f886828701611776565b935050602084013567ffffffffffffffff81111561191957611918611728565b5b611925868287016117c7565b92509250509250925092565b6000819050919050565b61194481611931565b811461194f57600080fd5b50565b6000813590506119618161193b565b92915050565b60006020828403121561197d5761197c611723565b5b600061198b84828501611952565b91505092915050565b600081519050919050565b600082825260208201905092915050565b6000819050602082019050919050565b6119c981611931565b82525050565b6119d88161174d565b82525050565b600081519050919050565b600082825260208201905092915050565b60005b83811015611a185780820151818401526020810190506119fd565b60008484015250505050565b6000601f19601f8301169050919050565b6000611a40826119de565b611a4a81856119e9565b9350611a5a8185602086016119fa565b611a6381611a24565b840191505092915050565b6000608083016000830151611a8660008601826119c0565b506020830151611a9960208601826119cf565b5060408301518482036040860152611ab18282611a35565b9150506060830151611ac660608601826119c0565b508091505092915050565b6000611add8383611a6e565b905092915050565b6000602082019050919050565b6000611afd82611994565b611b07818561199f565b935083602082028501611b19856119b0565b8060005b85811015611b555784840389528151611b368582611ad1565b9450611b4183611ae5565b925060208a01995050600181019050611b1d565b50829750879550505050505092915050565b60006020820190508181036000830152611b818184611af2565b905092915050565b60008060408385031215611ba057611b9f611723565b5b6000611bae85828601611776565b9250506020611bbf85828601611952565b9150509250929050565b600081519050919050565b600082825260208201905092915050565b6000819050602082019050919050565b606082016000820151611c0b60008501826119c0565b506020820151611c1e60208501826119cf565b506040820151611c3160408501826119c0565b50505050565b6000611c438383611bf5565b60608301905092915050565b6000602082019050919050565b6000611c6782611bc9565b611c718185611bd4565b9350611c7c83611be5565b8060005b83811015611cad578151611c948882611c37565b9750611c9f83611c4f565b925050600181019050611c80565b5085935050505092915050565b60006020820190508181036000830152611cd48184611c5c565b905092915050565b600080600060408486031215611cf557611cf4611723565b5b600084013567ffffffffffffffff811115611d1357611d12611728565b5b611d1f868287016117c7565b93509350506020611d3286828701611776565b9150509250925092565b600080600060608486031215611d5557611d54611723565b5b6000611d6386828701611776565b9350506020611d7486828701611776565b9250506040611d8586828701611952565b9150509250925092565b600081519050919050565b600082825260208201905092915050565b6000819050602082019050919050565b600060a083016000830151611dd360008601826119c0565b5060208301518482036020860152611deb8282611a35565b9150506040830151611e0060408601826119cf565b506060830151611e1360608601826119cf565b506080830151611e2660808601826119c0565b508091505092915050565b6000611e3d8383611dbb565b905092915050565b6000602082019050919050565b6000611e5d82611d8f565b611e678185611d9a565b935083602082028501611e7985611dab565b8060005b85811015611eb55784840389528151611e968582611e31565b9450611ea183611e45565b925060208a01995050600181019050611e7d565b50829750879550505050505092915050565b60006020820190508181036000830152611ee18184611e52565b905092915050565b60008060208385031215611f0057611eff611723565b5b600083013567ffffffffffffffff811115611f1e57611f1d611728565b5b611f2a858286016117c7565b92509250509250929050565b600082825260208201905092915050565b7f4f70657261746f72206e6f7420617574686f7269736564000000000000000000600082015250565b6000611f7d601783611f36565b9150611f8882611f47565b602082019050919050565b60006020820190508181036000830152611fac81611f70565b9050919050565b7f546f6f2066657720747765657473000000000000000000000000000000000000600082015250565b6000611fe9600e83611f36565b9150611ff482611fb3565b602082019050919050565b6000602082019050818103600083015261201881611fdc565b9050919050565b7f546f6f206d616e79207477656574730000000000000000000000000000000000600082015250565b6000612055600f83611f36565b91506120608261201f565b602082019050919050565b6000602082019050818103600083015261208481612048565b9050919050565b7f4e487b7100000000000000000000000000000000000000000000000000000000600052604160045260246000fd5b7f4e487b7100000000000000000000000000000000000000000000000000000000600052601160045260246000fd5b60006120f482611931565b91506120ff83611931565b9250828203905081811115612117576121166120ba565b5b92915050565b7f4e487b7100000000000000000000000000000000000000000000000000000000600052602260045260246000fd5b6000600282049050600182168061216457607f821691505b6020821081036121775761217661211d565b5b50919050565b7f4e487b7100000000000000000000000000000000000000000000000000000000600052603260045260246000fd5b60006121b782611931565b91507fffffffffffffffffffffffffffffffffffffffffffffffffffffffffffffffff82036121e9576121e86120ba565b5b600182019050919050565b7f546f6f2066657720666f6c6c6f77696e67730000000000000000000000000000600082015250565b600061222a601283611f36565b9150612235826121f4565b602082019050919050565b600060208201905081810360008301526122598161221d565b9050919050565b7f546f6f206d616e7920666f6c6c6f77696e677300000000000000000000000000600082015250565b6000612296601383611f36565b91506122a182612260565b602082019050919050565b600060208201905081810360008301526122c581612289565b9050919050565b60006122d782611931565b91506122e283611931565b92508282019050808211156122fa576122f96120ba565b5b92915050565b7f546f6f20666577206d6573736167657300000000000000000000000000000000600082015250565b6000612336601083611f36565b915061234182612300565b602082019050919050565b6000602082019050818103600083015261236581612329565b9050919050565b7f546f6f206d616e79206d65737361676573000000000000000000000000000000600082015250565b60006123a2601183611f36565b91506123ad8261236c565b602082019050919050565b600060208201905081810360008301526123d181612395565b9050919050565b60008190508160005260206000209050919050565b60006020601f8301049050919050565b600082821b905092915050565b60006008830261243a7fffffffffffffffffffffffffffffffffffffffffffffffffffffffffffffffff826123fd565b61244486836123fd565b95508019841693508086168417925050509392505050565b6000819050919050565b600061248161247c61247784611931565b61245c565b611931565b9050919050565b6000819050919050565b61249b83612466565b6124af6124a782612488565b84845461240a565b825550505050565b600090565b6124c46124b7565b6124cf818484612492565b505050565b5b818110156124f3576124e86000826124bc565b6001810190506124d5565b5050565b601f82111561253857612509816123d8565b612512846123ed565b81016020851015612521578190505b61253561252d856123ed565b8301826124d4565b50505b505050565b600082821c905092915050565b600061255b6000198460080261253d565b1980831691505092915050565b6000612574838361254a565b9150826002028217905092915050565b61258d826119de565b67ffffffffffffffff8111156125a6576125a561208b565b5b6125b0825461214c565b6125bb8282856124f7565b600060209050601f8311600181146125ee57600084156125dc578287015190505b6125e68582612568565b86555061264e565b601f1984166125fc866123d8565b60005b82811015612624578489015182556001820191506020850194506020810190506125ff565b86831015612641578489015161263d601f89168261254a565b8355505b6001600288020188555050505b505050505050565b61265f81611931565b82525050565b82818337600083830152505050565b60006126808385611f36565b935061268d838584612665565b61269683611a24565b840190509392505050565b60006060820190506126b66000830187612656565b81810360208301526126c9818587612674565b90506126d86040830184612656565b95945050505050565b60006040820190506126f66000830185612656565b6127036020830184612656565b9392505050565b6000612715826119de565b61271f8185611f36565b935061272f8185602086016119fa565b61273881611a24565b840191505092915050565b60006060820190506127586000830186612656565b818103602083015261276a818561270a565b90506127796040830184612656565b94935050505056fea26469706673582212209997fbca85c11abc357b6bb5ee36aeede6e2120a690aeeac51d574587c49568f64736f6c63430008110033",
  "immutableReferences": {},
  "source": "// SPDX-License-Identifier: MIT\r\npragma solidity 0.8.17;\r\n\r\n//1. send tweet\r\n//2. sent private messages\r\n//3. follow other people\r\n//4. get list of tweets\r\n//5. implement an api\r\ncontract Twitter {\r\n\r\n  struct Tweet {\r\n    uint id;\r\n    address author;\r\n    string content;\r\n    uint createdAt;\r\n  }\r\n\r\n  struct Message {\r\n    uint id;\r\n    string content;\r\n    address from;\r\n    address to;\r\n    uint createdAt;\r\n  }\r\n\r\n  struct Following {\r\n    uint id;\r\n    address user;\r\n    uint createdAt;\r\n  }\r\n\r\n  mapping(uint => Tweet) private tweets;\r\n  uint private nextTweetId;\r\n  mapping(address => uint[]) private tweetsOf;\r\n\r\n  mapping(uint => Message[]) private conversations;\r\n  uint private nextMessageId;\r\n\r\n  mapping(address => Following[]) private following;\r\n  uint private nextFollowingId;\r\n\r\n  mapping(address => mapping(address => bool)) private operators;\r\n\r\n  event TweetSent (\r\n    uint id,\r\n    address indexed author,\r\n    string content,\r\n    uint createdAt\r\n  );\r\n\r\n  event MessageSent(\r\n    uint id,\r\n    string content,\r\n    address indexed from,\r\n    address indexed to,\r\n    uint createdAt\r\n  );\r\n\r\n  event Follow(\r\n    uint id,\r\n    address indexed from, \r\n    address indexed followed,\r\n    uint createdAt\r\n  );\r\n\r\n  function approve(address operator) external {\r\n    operators[msg.sender][operator] = true;\r\n  }\r\n\r\n  function disapprove(address operator) external {\r\n    operators[msg.sender][operator] = false;\r\n  }\r\n\r\n  function sendTweet(string calldata _content) external {\r\n    _sendTweet(msg.sender, _content);\r\n  }\r\n\r\n  function sendTweetFrom(address _from, string calldata _content) external canOperate(_from) {\r\n    _sendTweet(_from, _content);\r\n  }\r\n\r\n  function sendMessage(\r\n    string calldata _content,\r\n    address _to) \r\n    external {\r\n    _sendMessage(_content, msg.sender, _to);\r\n  }\r\n\r\n  function sendMessageFrom(\r\n    string calldata _content,\r\n    address _from,\r\n    address _to) \r\n    external canOperate(_from) {\r\n    _sendMessage(_content, _from, _to);\r\n  }\r\n\r\n  function follow(address _followed) external {\r\n    _follow(msg.sender, _followed);\r\n  }\r\n\r\n  function followFrom(address _from, address _followed) external canOperate(_from) {\r\n    _follow(_from, _followed);\r\n  }\r\n\r\n  function getLatestTweets(uint count) view external returns(Tweet[] memory) {\r\n    require(count > 0, 'Too few tweets');\r\n    require(count <= nextTweetId, 'Too many tweets');\r\n    Tweet[] memory _tweets = new Tweet[](count);\r\n    uint nextIndex;\r\n    for(uint i = nextTweetId - count; i < nextTweetId; i++) {\r\n      Tweet storage _tweet = tweets[i];\r\n      _tweets[nextIndex] = Tweet(_tweet.id, _tweet.author, _tweet.content, _tweet.createdAt);\r\n      nextIndex++;\r\n    }\r\n    return _tweets;\r\n  }\r\n\r\n  function getTweetsOf(address _user, uint count) view external returns(Tweet[] memory) {\r\n    uint[] storage tweetIds = tweetsOf[_user];\r\n\r\n    require(count > 0, 'Too few tweets');\r\n    require(count <= tweetIds.length, 'Too many tweets');\r\n    \r\n    Tweet[] memory _tweets = new Tweet[](count);\r\n    uint nextIndex;\r\n    for(uint i = tweetIds.length - count; i < tweetIds.length; i++) {\r\n      Tweet storage _tweet = tweets[tweetIds[i]];\r\n      _tweets[nextIndex] = Tweet(_tweet.id, _tweet.author, _tweet.content, _tweet.createdAt);\r\n      nextIndex++;\r\n    }\r\n    return _tweets;\r\n  }\r\n\r\n  function getFollowings(address _user, uint count) view external returns(Following[] memory) {\r\n    Following[] storage followings = following[_user];\r\n\r\n    require(count > 0, 'Too few followings');\r\n    require(count <= followings.length, 'Too many followings');\r\n\r\n    Following[] memory _followings = new Following[](count);\r\n    uint nextIndex;\r\n    for(uint i = followings.length - count; i < followings.length; i++) {\r\n      Following storage _following = followings[i];\r\n      _followings[nextIndex] = Following(_following.id, _following.user, _following.createdAt);\r\n      nextIndex++;\r\n    }\r\n    return _followings;\r\n  }\r\n\r\n  function getConversation(address _from, address _to, uint count) view external returns(Message[] memory) {\r\n    uint conversationId = uint(uint160(_from)) + uint(uint160(_to));\r\n    Message[] storage messages = conversations[conversationId];\r\n\r\n    require(count > 0, 'Too few messages');\r\n    require(count <= messages.length, 'Too many messages');\r\n\r\n    Message[] memory _messages = new Message[](count);\r\n    uint nextIndex;\r\n    for(uint i = messages.length - count; i < messages.length; i++) {\r\n      Message storage _message = messages[i];\r\n      _messages[nextIndex] = Message(_message.id, _message.content, _message.from, _message.to, _message.createdAt);\r\n      nextIndex++;\r\n    }\r\n    return _messages;\r\n  }\r\n\r\n  \r\n  function _sendTweet(address _from, string memory _content) internal {\r\n    tweets[nextTweetId] = Tweet(nextTweetId, _from, _content, block.timestamp);\r\n    tweetsOf[_from].push(nextTweetId);\r\n    emit TweetSent(nextTweetId, msg.sender, _content, block.timestamp);\r\n    nextTweetId++;\r\n  }\r\n\r\n  function _sendMessage(\r\n    string calldata _content,\r\n    address _from,\r\n    address _to) \r\n    internal {\r\n    uint conversationId = uint(uint160(_from)) + uint(uint160(_to));\r\n    conversations[conversationId].push(Message(\r\n      nextMessageId, \r\n      _content, \r\n      _from, \r\n      _to, \r\n      block.timestamp));\r\n      emit MessageSent(nextMessageId, _content, _from, _to, block.timestamp);\r\n      nextMessageId++;\r\n  }\r\n\r\n  function _follow(address _from, address _followed) internal {\r\n    following[_from].push(Following(\r\n      nextFollowingId,\r\n      _followed,\r\n      block.timestamp\r\n    ));\r\n    emit Follow(nextFollowingId, _from, _followed, block.timestamp);\r\n  }\r\n\r\n  modifier canOperate(address _from) {\r\n    require(operators[_from][msg.sender] == true, 'Operator not authorised');\r\n    _;\r\n  }\r\n\r\n}",
  "sourcePath": "C:\\Development\\Products\\Blockchain\\Dapp30\\Dapp30\\24Twitter\\contracts\\Twitter.sol",
  "compiler": {
    "name": "solc",
    "version": "0.8.17+commit.8df45f5f.Emscripten.clang"
  },
  "schemaVersion": "3.4.10",
  "updatedAt": "2023-02-11T08:29:53.530Z",
  "devdoc": {
    "kind": "dev",
    "methods": {},
    "version": 1
  },
  "userdoc": {
    "kind": "user",
    "methods": {},
    "version": 1
  }
}