{
  "contractName": "HelloWorld",
  "abi": [
    {
      "inputs": [],
      "name": "hello",
      "outputs": [
        {
          "internalType": "string",
          "name": "",
          "type": "string"
        }
      ],
      "stateMutability": "pure",
      "type": "function",
      "constant": true
    }
  ],
  "bytecode": "0x608060405234801561001057600080fd5b50610173806100206000396000f3fe608060405234801561001057600080fd5b506004361061002b5760003560e01c806319ff1d2114610030575b600080fd5b61003861004e565b604051610045919061011b565b60405180910390f35b60606040518060400160405280600b81526020017f48656c6c6f20576f726c64000000000000000000000000000000000000000000815250905090565b600081519050919050565b600082825260208201905092915050565b60005b838110156100c55780820151818401526020810190506100aa565b60008484015250505050565b6000601f19601f8301169050919050565b60006100ed8261008b565b6100f78185610096565b93506101078185602086016100a7565b610110816100d1565b840191505092915050565b6000602082019050818103600083015261013581846100e2565b90509291505056fea26469706673582212200612be159143009aec3ba65624689ec6a99004279d8dce66c0970ed00c1e772d64736f6c63430008110033",
  "immutableReferences": {},
  "source": "// SPDX-License-Identifier: MIT\r\npragma solidity 0.8.17;\r\n\r\ncontract HelloWorld {\r\n  function hello() public pure returns (string memory) {\r\n    return 'Hello World';\r\n  }\r\n}",
  "sourcePath": "C:\\Development\\Products\\Blockchain\\Dapp30\\Dapp30\\2HelloWorld\\contracts\\HelloWorld.sol",
  "compiler": {
    "name": "solc",
    "version": "0.8.17+commit.8df45f5f.Emscripten.clang"
  },
  "schemaVersion": "3.4.10",
  "updatedAt": "2022-11-02T16:50:00.692Z",
  "networkType": "ethereum",
  "devdoc": {
    "kind": "dev",
    "methods": {},
    "version": 1
  },
  "userdoc": {
    "kind": "user",
    "methods": {},
    "version": 1
  }
}