{
  "contractName": "RockPaperScissors",
  "abi": [
    {
      "inputs": [],
      "stateMutability": "nonpayable",
      "type": "constructor"
    },
    {
      "inputs": [],
      "name": "gameId",
      "outputs": [
        {
          "internalType": "uint256",
          "name": "",
          "type": "uint256"
        }
      ],
      "stateMutability": "view",
      "type": "function",
      "constant": true
    },
    {
      "inputs": [
        {
          "internalType": "uint256",
          "name": "",
          "type": "uint256"
        }
      ],
      "name": "games",
      "outputs": [
        {
          "internalType": "uint256",
          "name": "id",
          "type": "uint256"
        },
        {
          "internalType": "uint256",
          "name": "bet",
          "type": "uint256"
        },
        {
          "internalType": "enum RockPaperScissors.State",
          "name": "state",
          "type": "uint8"
        }
      ],
      "stateMutability": "view",
      "type": "function",
      "constant": true
    },
    {
      "inputs": [
        {
          "internalType": "uint256",
          "name": "",
          "type": "uint256"
        },
        {
          "internalType": "address",
          "name": "",
          "type": "address"
        }
      ],
      "name": "moves",
      "outputs": [
        {
          "internalType": "bytes32",
          "name": "hash",
          "type": "bytes32"
        },
        {
          "internalType": "uint256",
          "name": "value",
          "type": "uint256"
        }
      ],
      "stateMutability": "view",
      "type": "function",
      "constant": true
    },
    {
      "inputs": [
        {
          "internalType": "uint256",
          "name": "",
          "type": "uint256"
        }
      ],
      "name": "winningMoves",
      "outputs": [
        {
          "internalType": "uint256",
          "name": "",
          "type": "uint256"
        }
      ],
      "stateMutability": "view",
      "type": "function",
      "constant": true
    },
    {
      "inputs": [
        {
          "internalType": "address payable",
          "name": "participant",
          "type": "address"
        }
      ],
      "name": "createGame",
      "outputs": [],
      "stateMutability": "payable",
      "type": "function",
      "payable": true
    },
    {
      "inputs": [
        {
          "internalType": "uint256",
          "name": "_gameId",
          "type": "uint256"
        }
      ],
      "name": "joinGame",
      "outputs": [],
      "stateMutability": "payable",
      "type": "function",
      "payable": true
    },
    {
      "inputs": [
        {
          "internalType": "uint256",
          "name": "_gameId",
          "type": "uint256"
        },
        {
          "internalType": "uint256",
          "name": "moveId",
          "type": "uint256"
        },
        {
          "internalType": "uint256",
          "name": "salt",
          "type": "uint256"
        }
      ],
      "name": "commitMove",
      "outputs": [],
      "stateMutability": "nonpayable",
      "type": "function"
    },
    {
      "inputs": [
        {
          "internalType": "uint256",
          "name": "_gameId",
          "type": "uint256"
        },
        {
          "internalType": "uint256",
          "name": "moveId",
          "type": "uint256"
        },
        {
          "internalType": "uint256",
          "name": "salt",
          "type": "uint256"
        }
      ],
      "name": "revealMove",
      "outputs": [],
      "stateMutability": "nonpayable",
      "type": "function"
    }
  ],
  "bytecode": "0x608060405234801561001057600080fd5b506003806000600181526020019081526020016000208190555060016003600060028152602001908152602001600020819055506002600360006003815260200190815260200160002081905550611ce78061006d6000396000f3fe60806040526004361061007b5760003560e01c8063474d0b5a1161004e578063474d0b5a1461014f5780634b4cbb451461016b578063d7c81b55146101a8578063efaa55a0146101d35761007b565b8063117a5b901461008057806322337a88146100bf57806334d3ce4b146100fd578063354fe54a14610126575b600080fd5b34801561008c57600080fd5b506100a760048036038101906100a2919061131d565b6101ef565b6040516100b6939291906113d0565b60405180910390f35b3480156100cb57600080fd5b506100e660048036038101906100e19190611465565b610226565b6040516100f49291906114be565b60405180910390f35b34801561010957600080fd5b50610124600480360381019061011f91906114e7565b610257565b005b34801561013257600080fd5b5061014d600480360381019061014891906114e7565b610718565b005b61016960048036038101906101649190611578565b610d7c565b005b34801561017757600080fd5b50610192600480360381019061018d919061131d565b610f75565b60405161019f91906115a5565b60405180910390f35b3480156101b457600080fd5b506101bd610f8d565b6040516101ca91906115a5565b60405180910390f35b6101ed60048036038101906101e8919061131d565b610f93565b005b60006020528060005260406000206000915090508060000154908060010154908060030160009054906101000a900460ff16905083565b6002602052816000526040600020602052806000526040600020600091509150508060000154908060010154905082565b600080600085815260200190815260200160002090506001600381111561028157610280611359565b5b8160030160009054906101000a900460ff1660038111156102a5576102a4611359565b5b146102e5576040517f08c379a00000000000000000000000000000000000000000000000000000000081526004016102dc9061161d565b60405180910390fd5b3373ffffffffffffffffffffffffffffffffffffffff16816002016000815481106103135761031261163d565b5b9060005260206000200160009054906101000a900473ffffffffffffffffffffffffffffffffffffffff1673ffffffffffffffffffffffffffffffffffffffff1614806103cc57503373ffffffffffffffffffffffffffffffffffffffff16816002016001815481106103895761038861163d565b5b9060005260206000200160009054906101000a900473ffffffffffffffffffffffffffffffffffffffff1673ffffffffffffffffffffffffffffffffffffffff16145b61040b576040517f08c379a0000000000000000000000000000000000000000000000000000000008152600401610402906116b8565b60405180910390fd5b6000801b6002600086815260200190815260200160002060003373ffffffffffffffffffffffffffffffffffffffff1673ffffffffffffffffffffffffffffffffffffffff16815260200190815260200160002060000154146104a3576040517f08c379a000000000000000000000000000000000000000000000000000000000815260040161049a90611724565b60405180910390fd5b60018314806104b25750600283145b806104bd5750600383145b6104fc576040517f08c379a00000000000000000000000000000000000000000000000000000000081526004016104f390611790565b60405180910390fd5b6040518060400160405280848460405160200161051a9291906117d1565b60405160208183030381529060405280519060200120815260200160008152506002600086815260200190815260200160002060003373ffffffffffffffffffffffffffffffffffffffff1673ffffffffffffffffffffffffffffffffffffffff16815260200190815260200160002060008201518160000155602082015181600101559050506000801b600260008681526020019081526020016000206000836002016000815481106105d1576105d061163d565b5b9060005260206000200160009054906101000a900473ffffffffffffffffffffffffffffffffffffffff1673ffffffffffffffffffffffffffffffffffffffff1673ffffffffffffffffffffffffffffffffffffffff16815260200190815260200160002060000154141580156106df57506000801b600260008681526020019081526020016000206000836002016001815481106106735761067261163d565b5b9060005260206000200160009054906101000a900473ffffffffffffffffffffffffffffffffffffffff1673ffffffffffffffffffffffffffffffffffffffff1673ffffffffffffffffffffffffffffffffffffffff1681526020019081526020016000206000015414155b156107125760028160030160006101000a81548160ff0219169083600381111561070c5761070b611359565b5b02179055505b50505050565b6000806000858152602001908152602001600020905060006002600086815260200190815260200160002060008360020160008154811061075c5761075b61163d565b5b9060005260206000200160009054906101000a900473ffffffffffffffffffffffffffffffffffffffff1673ffffffffffffffffffffffffffffffffffffffff1673ffffffffffffffffffffffffffffffffffffffff16815260200190815260200160002090506000600260008781526020019081526020016000206000846002016001815481106107f1576107f061163d565b5b9060005260206000200160009054906101000a900473ffffffffffffffffffffffffffffffffffffffff1673ffffffffffffffffffffffffffffffffffffffff1673ffffffffffffffffffffffffffffffffffffffff168152602001908152602001600020905060006002600088815260200190815260200160002060003373ffffffffffffffffffffffffffffffffffffffff1673ffffffffffffffffffffffffffffffffffffffff1681526020019081526020016000209050600260038111156108c0576108bf611359565b5b8460030160009054906101000a900460ff1660038111156108e4576108e3611359565b5b14610924576040517f08c379a000000000000000000000000000000000000000000000000000000000815260040161091b90611849565b60405180910390fd5b3373ffffffffffffffffffffffffffffffffffffffff16846002016000815481106109525761095161163d565b5b9060005260206000200160009054906101000a900473ffffffffffffffffffffffffffffffffffffffff1673ffffffffffffffffffffffffffffffffffffffff161480610a0b57503373ffffffffffffffffffffffffffffffffffffffff16846002016001815481106109c8576109c761163d565b5b9060005260206000200160009054906101000a900473ffffffffffffffffffffffffffffffffffffffff1673ffffffffffffffffffffffffffffffffffffffff16145b610a4a576040517f08c379a0000000000000000000000000000000000000000000000000000000008152600401610a41906116b8565b60405180910390fd5b6001861480610a595750600286145b80610a645750600386145b610aa3576040517f08c379a0000000000000000000000000000000000000000000000000000000008152600401610a9a90611790565b60405180910390fd5b8585604051602001610ab69291906117d1565b60405160208183030381529060405280519060200120816000015414610b11576040517f08c379a0000000000000000000000000000000000000000000000000000000008152600401610b08906118b5565b60405180910390fd5b8581600101819055506000836001015414158015610b3457506000826001015414155b15610d72578160010154836001015403610c5a57610bb6846001015485600201600081548110610b6757610b6661163d565b5b9060005260206000200160009054906101000a900473ffffffffffffffffffffffffffffffffffffffff1673ffffffffffffffffffffffffffffffffffffffff1661114790919063ffffffff16565b610c24846001015485600201600181548110610bd557610bd461163d565b5b9060005260206000200160009054906101000a900473ffffffffffffffffffffffffffffffffffffffff1673ffffffffffffffffffffffffffffffffffffffff1661114790919063ffffffff16565b60038460030160006101000a81548160ff02191690836003811115610c4c57610c4b611359565b5b021790555050505050610d77565b6000826001015460036000866001015481526020019081526020016000205414610cc55784600201600181548110610c9557610c9461163d565b5b9060005260206000200160009054906101000a900473ffffffffffffffffffffffffffffffffffffffff16610d08565b84600201600081548110610cdc57610cdb61163d565b5b9060005260206000200160009054906101000a900473ffffffffffffffffffffffffffffffffffffffff165b9050610d4360028660010154610d1e9190611904565b8273ffffffffffffffffffffffffffffffffffffffff1661114790919063ffffffff16565b60038560030160006101000a81548160ff02191690836003811115610d6b57610d6a611359565b5b0217905550505b505050505b505050565b60003411610dbf576040517f08c379a0000000000000000000000000000000000000000000000000000000008152600401610db690611992565b60405180910390fd5b6000600267ffffffffffffffff811115610ddc57610ddb6119b2565b5b604051908082528060200260200182016040528015610e0a5781602001602082028036833780820191505090505b5090503381600081518110610e2257610e2161163d565b5b602002602001019073ffffffffffffffffffffffffffffffffffffffff16908173ffffffffffffffffffffffffffffffffffffffff16815250508181600181518110610e7157610e7061163d565b5b602002602001019073ffffffffffffffffffffffffffffffffffffffff16908173ffffffffffffffffffffffffffffffffffffffff16815250506040518060800160405280600154815260200134815260200182815260200160006003811115610ede57610edd611359565b5b815250600080600154815260200190815260200160002060008201518160000155602082015181600101556040820151816002019080519060200190610f2592919061123b565b5060608201518160030160006101000a81548160ff02191690836003811115610f5157610f50611359565b5b021790555090505060016000815480929190610f6c906119e1565b91905055505050565b60036020528060005260406000206000915090505481565b60015481565b600080600083815260200190815260200160002090503373ffffffffffffffffffffffffffffffffffffffff1681600201600181548110610fd757610fd661163d565b5b9060005260206000200160009054906101000a900473ffffffffffffffffffffffffffffffffffffffff1673ffffffffffffffffffffffffffffffffffffffff1614611058576040517f08c379a000000000000000000000000000000000000000000000000000000000815260040161104f90611a75565b60405180910390fd5b6000600381111561106c5761106b611359565b5b8160030160009054906101000a900460ff1660038111156110905761108f611359565b5b146110d0576040517f08c379a00000000000000000000000000000000000000000000000000000000081526004016110c790611ae1565b60405180910390fd5b34816001015414611116576040517f08c379a000000000000000000000000000000000000000000000000000000000815260040161110d90611b4d565b60405180910390fd5b60018160030160006101000a81548160ff0219169083600381111561113e5761113d611359565b5b02179055505050565b8047101561118a576040517f08c379a000000000000000000000000000000000000000000000000000000000815260040161118190611bb9565b60405180910390fd5b60008273ffffffffffffffffffffffffffffffffffffffff16826040516111b090611c0a565b60006040518083038185875af1925050503d80600081146111ed576040519150601f19603f3d011682016040523d82523d6000602084013e6111f2565b606091505b5050905080611236576040517f08c379a000000000000000000000000000000000000000000000000000000000815260040161122d90611c91565b60405180910390fd5b505050565b8280548282559060005260206000209081019282156112b4579160200282015b828111156112b35782518260006101000a81548173ffffffffffffffffffffffffffffffffffffffff021916908373ffffffffffffffffffffffffffffffffffffffff1602179055509160200191906001019061125b565b5b5090506112c191906112c5565b5090565b5b808211156112de5760008160009055506001016112c6565b5090565b600080fd5b6000819050919050565b6112fa816112e7565b811461130557600080fd5b50565b600081359050611317816112f1565b92915050565b600060208284031215611333576113326112e2565b5b600061134184828501611308565b91505092915050565b611353816112e7565b82525050565b7f4e487b7100000000000000000000000000000000000000000000000000000000600052602160045260246000fd5b6004811061139957611398611359565b5b50565b60008190506113aa82611388565b919050565b60006113ba8261139c565b9050919050565b6113ca816113af565b82525050565b60006060820190506113e5600083018661134a565b6113f2602083018561134a565b6113ff60408301846113c1565b949350505050565b600073ffffffffffffffffffffffffffffffffffffffff82169050919050565b600061143282611407565b9050919050565b61144281611427565b811461144d57600080fd5b50565b60008135905061145f81611439565b92915050565b6000806040838503121561147c5761147b6112e2565b5b600061148a85828601611308565b925050602061149b85828601611450565b9150509250929050565b6000819050919050565b6114b8816114a5565b82525050565b60006040820190506114d360008301856114af565b6114e0602083018461134a565b9392505050565b600080600060608486031215611500576114ff6112e2565b5b600061150e86828701611308565b935050602061151f86828701611308565b925050604061153086828701611308565b9150509250925092565b600061154582611407565b9050919050565b6115558161153a565b811461156057600080fd5b50565b6000813590506115728161154c565b92915050565b60006020828403121561158e5761158d6112e2565b5b600061159c84828501611563565b91505092915050565b60006020820190506115ba600083018461134a565b92915050565b600082825260208201905092915050565b7f6d75737420626520696e204a4f494e4544207374617465000000000000000000600082015250565b60006116076017836115c0565b9150611612826115d1565b602082019050919050565b60006020820190508181036000830152611636816115fa565b9050919050565b7f4e487b7100000000000000000000000000000000000000000000000000000000600052603260045260246000fd5b7f63616e206f6e6c79206265206120706c61796572000000000000000000000000600082015250565b60006116a26014836115c0565b91506116ad8261166c565b602082019050919050565b600060208201905081810360008301526116d181611695565b9050919050565b7f6d6f766520616c7265616479206d616465000000000000000000000000000000600082015250565b600061170e6011836115c0565b9150611719826116d8565b602082019050919050565b6000602082019050818103600083015261173d81611701565b9050919050565b7f6d6f7665206d7573742062652031206f722032206f7220330000000000000000600082015250565b600061177a6018836115c0565b915061178582611744565b602082019050919050565b600060208201905081810360008301526117a98161176d565b9050919050565b6000819050919050565b6117cb6117c6826112e7565b6117b0565b82525050565b60006117dd82856117ba565b6020820191506117ed82846117ba565b6020820191508190509392505050565b7f6d75737420626520696e20434f4d4d4954454420737461746500000000000000600082015250565b60006118336019836115c0565b915061183e826117fd565b602082019050919050565b6000602082019050818103600083015261186281611826565b9050919050565b7f6d6f7665696420646f6573206e6f74206d6174636820636f6d6d69746d656e74600082015250565b600061189f6020836115c0565b91506118aa82611869565b602082019050919050565b600060208201905081810360008301526118ce81611892565b9050919050565b7f4e487b7100000000000000000000000000000000000000000000000000000000600052601160045260246000fd5b600061190f826112e7565b915061191a836112e7565b9250828202611928816112e7565b9150828204841483151761193f5761193e6118d5565b5b5092915050565b7f6e65656420746f2073656e6420736f6d65206574686572000000000000000000600082015250565b600061197c6017836115c0565b915061198782611946565b602082019050919050565b600060208201905081810360008301526119ab8161196f565b9050919050565b7f4e487b7100000000000000000000000000000000000000000000000000000000600052604160045260246000fd5b60006119ec826112e7565b91507fffffffffffffffffffffffffffffffffffffffffffffffffffffffffffffffff8203611a1e57611a1d6118d5565b5b600182019050919050565b7f6973206e6f74207365636f6e6420706c61796572000000000000000000000000600082015250565b6000611a5f6014836115c0565b9150611a6a82611a29565b602082019050919050565b60006020820190508181036000830152611a8e81611a52565b9050919050565b7f6d75737420626520696e20435245415445207374617465000000000000000000600082015250565b6000611acb6017836115c0565b9150611ad682611a95565b602082019050919050565b60006020820190508181036000830152611afa81611abe565b9050919050565b7f6e6f7420656e6f7567682065746865722073656e740000000000000000000000600082015250565b6000611b376015836115c0565b9150611b4282611b01565b602082019050919050565b60006020820190508181036000830152611b6681611b2a565b9050919050565b7f416464726573733a20696e73756666696369656e742062616c616e6365000000600082015250565b6000611ba3601d836115c0565b9150611bae82611b6d565b602082019050919050565b60006020820190508181036000830152611bd281611b96565b9050919050565b600081905092915050565b50565b6000611bf4600083611bd9565b9150611bff82611be4565b600082019050919050565b6000611c1582611be7565b9150819050919050565b7f416464726573733a20756e61626c6520746f2073656e642076616c75652c207260008201527f6563697069656e74206d61792068617665207265766572746564000000000000602082015250565b6000611c7b603a836115c0565b9150611c8682611c1f565b604082019050919050565b60006020820190508181036000830152611caa81611c6e565b905091905056fea26469706673582212205c2d87f3aaa780992a86f280ca81281cad64e86d5e7ac374d3e4a24aa466dfc664736f6c63430008110033",
  "immutableReferences": {},
  "source": "// SPDX-License-Identifier: MIT\r\npragma solidity 0.8.17;\r\n\r\nimport '@openzeppelin/contracts/utils/Address.sol';\r\n\r\ncontract RockPaperScissors {\r\n  using Address for address payable;\r\n\r\n  enum State {\r\n    CREATED,\r\n    JOINED,\r\n    COMMITED,\r\n    REVEALED\r\n  }\r\n\r\n  struct Game {\r\n    uint id;\r\n    uint bet;\r\n    address payable[] players;\r\n    State state;\r\n  }\r\n\r\n  mapping(uint => Game) public games;\r\n  uint public gameId;\r\n  mapping(uint => mapping(address => Move)) public moves;\r\n  mapping(uint => uint) public winningMoves;\r\n\r\n  /// commit reveal patt\r\n  /// produce hash in 1st step --> then on reveal phase you reveal move\r\n  /// smart contract will hash move and compare with hash in commit phase to confirm\r\n  struct Move {\r\n    bytes32 hash;\r\n    uint value;\r\n  }\r\n\r\n  constructor() {\r\n    // 1. rock\r\n    // 2. papper\r\n    // 3. scissors\r\n    winningMoves[1] = 3;\r\n    winningMoves[2] = 1;\r\n    winningMoves[3] = 2;\r\n  }\r\n\r\n  function createGame(address payable participant) external payable {\r\n    require(msg.value > 0, 'need to send some ether');\r\n    //address payable[2] memory players = new address payable[](2);\r\n    address payable[] memory players = new address payable[](2);\r\n    players[0] = payable(msg.sender);\r\n    players[1] = participant;\r\n\r\n    games[gameId] = Game(\r\n      gameId,\r\n      msg.value,\r\n      players,\r\n      State.CREATED\r\n    );\r\n\r\n    gameId++;\r\n  }\r\n\r\n  function joinGame(uint _gameId) external payable {    \r\n    Game storage game = games[_gameId];\r\n\r\n    require(game.players[1] == msg.sender, 'is not second player');\r\n    require(game.state == State.CREATED, 'must be in CREATE state');\r\n    require(game.bet == msg.value, 'not enough ether sent');\r\n\r\n    game.state = State.JOINED;\r\n  }\r\n\r\n  function commitMove(uint _gameId, uint moveId, uint salt) external {\r\n    Game storage game = games[_gameId];\r\n\r\n    require(game.state == State.JOINED, 'must be in JOINED state');\r\n    require(game.players[0] == msg.sender || game.players[1] == msg.sender, 'can only be a player');\r\n    require(moves[_gameId][msg.sender].hash == 0, 'move already made');\r\n    require(moveId == 1 || moveId == 2 || moveId == 3, 'move must be 1 or 2 or 3');\r\n\r\n    moves[_gameId][msg.sender] = Move(\r\n      keccak256(abi.encodePacked(moveId, salt)), \r\n      0\r\n    );\r\n\r\n    if (moves[_gameId][game.players[0]].hash != 0 && \r\n      moves[_gameId][game.players[1]].hash != 0) {\r\n      game.state = State.COMMITED;\r\n    }\r\n  }\r\n\r\n  function revealMove(uint _gameId, uint moveId, uint salt) external {\r\n    Game storage game = games[_gameId];\r\n    Move storage move1 = moves[_gameId][game.players[0]];\r\n    Move storage move2 = moves[_gameId][game.players[1]];\r\n    Move storage moveSender = moves[_gameId][msg.sender];\r\n\r\n    require(game.state == State.COMMITED, 'must be in COMMITED state');\r\n    require(game.players[0] == msg.sender || game.players[1] == msg.sender, 'can only be a player');\r\n    require(moveId == 1 || moveId == 2 || moveId == 3, 'move must be 1 or 2 or 3');\r\n    require(moveSender.hash == keccak256(abi.encodePacked(moveId, salt)), 'moveid does not match commitment');\r\n\r\n    moveSender.value = moveId;\r\n\r\n    if (move1.value != 0 && move2.value != 0) {\r\n      if (move1.value == move2.value) {\r\n        payable(game.players[0]).sendValue(game.bet);\r\n        payable(game.players[1]).sendValue(game.bet);\r\n        game.state = State.REVEALED;\r\n        return;\r\n      }\r\n\r\n      address payable winner;\r\n      winner = winningMoves[move1.value] == move2.value ? game.players[0] : game.players[1];\r\n      payable(winner).sendValue(game.bet * 2);\r\n      game.state = State.REVEALED;\r\n    }\r\n  }\r\n}",
  "sourcePath": "C:\\Development\\Products\\Blockchain\\Dapp30\\Dapp30\\20RockPaperScissors\\contracts\\RockPaperScissors.sol",
  "compiler": {
    "name": "solc",
    "version": "0.8.17+commit.8df45f5f.Emscripten.clang"
  },
  "schemaVersion": "3.4.10",
  "updatedAt": "2022-12-04T18:00:27.224Z",
  "networkType": "ethereum",
  "devdoc": {
    "kind": "dev",
    "methods": {},
    "version": 1
  },
  "userdoc": {
    "kind": "user",
    "methods": {},
    "version": 1
  }
}