{
  "contractName": "DAO",
  "abi": [
    {
      "inputs": [
        {
          "internalType": "uint256",
          "name": "contributionTime",
          "type": "uint256"
        },
        {
          "internalType": "uint256",
          "name": "_voteTime",
          "type": "uint256"
        },
        {
          "internalType": "uint256",
          "name": "_quorum",
          "type": "uint256"
        }
      ],
      "stateMutability": "nonpayable",
      "type": "constructor"
    },
    {
      "anonymous": false,
      "inputs": [
        {
          "indexed": true,
          "internalType": "address",
          "name": "previousOwner",
          "type": "address"
        },
        {
          "indexed": true,
          "internalType": "address",
          "name": "newOwner",
          "type": "address"
        }
      ],
      "name": "OwnershipTransferred",
      "type": "event"
    },
    {
      "inputs": [],
      "name": "availableFunds",
      "outputs": [
        {
          "internalType": "uint256",
          "name": "",
          "type": "uint256"
        }
      ],
      "stateMutability": "view",
      "type": "function",
      "constant": true
    },
    {
      "inputs": [],
      "name": "contributionEnd",
      "outputs": [
        {
          "internalType": "uint256",
          "name": "",
          "type": "uint256"
        }
      ],
      "stateMutability": "view",
      "type": "function",
      "constant": true
    },
    {
      "inputs": [
        {
          "internalType": "address",
          "name": "",
          "type": "address"
        }
      ],
      "name": "investors",
      "outputs": [
        {
          "internalType": "bool",
          "name": "",
          "type": "bool"
        }
      ],
      "stateMutability": "view",
      "type": "function",
      "constant": true
    },
    {
      "inputs": [],
      "name": "nextProposalId",
      "outputs": [
        {
          "internalType": "uint256",
          "name": "",
          "type": "uint256"
        }
      ],
      "stateMutability": "view",
      "type": "function",
      "constant": true
    },
    {
      "inputs": [],
      "name": "owner",
      "outputs": [
        {
          "internalType": "address",
          "name": "",
          "type": "address"
        }
      ],
      "stateMutability": "view",
      "type": "function",
      "constant": true
    },
    {
      "inputs": [
        {
          "internalType": "uint256",
          "name": "",
          "type": "uint256"
        }
      ],
      "name": "proposals",
      "outputs": [
        {
          "internalType": "uint256",
          "name": "id",
          "type": "uint256"
        },
        {
          "internalType": "string",
          "name": "name",
          "type": "string"
        },
        {
          "internalType": "uint256",
          "name": "amount",
          "type": "uint256"
        },
        {
          "internalType": "address payable",
          "name": "recipient",
          "type": "address"
        },
        {
          "internalType": "uint256",
          "name": "votes",
          "type": "uint256"
        },
        {
          "internalType": "uint256",
          "name": "end",
          "type": "uint256"
        },
        {
          "internalType": "bool",
          "name": "executed",
          "type": "bool"
        }
      ],
      "stateMutability": "view",
      "type": "function",
      "constant": true
    },
    {
      "inputs": [],
      "name": "quorum",
      "outputs": [
        {
          "internalType": "uint256",
          "name": "",
          "type": "uint256"
        }
      ],
      "stateMutability": "view",
      "type": "function",
      "constant": true
    },
    {
      "inputs": [],
      "name": "renounceOwnership",
      "outputs": [],
      "stateMutability": "nonpayable",
      "type": "function"
    },
    {
      "inputs": [
        {
          "internalType": "address",
          "name": "",
          "type": "address"
        }
      ],
      "name": "shares",
      "outputs": [
        {
          "internalType": "uint256",
          "name": "",
          "type": "uint256"
        }
      ],
      "stateMutability": "view",
      "type": "function",
      "constant": true
    },
    {
      "inputs": [],
      "name": "totalShares",
      "outputs": [
        {
          "internalType": "uint256",
          "name": "",
          "type": "uint256"
        }
      ],
      "stateMutability": "view",
      "type": "function",
      "constant": true
    },
    {
      "inputs": [
        {
          "internalType": "address",
          "name": "newOwner",
          "type": "address"
        }
      ],
      "name": "transferOwnership",
      "outputs": [],
      "stateMutability": "nonpayable",
      "type": "function"
    },
    {
      "inputs": [],
      "name": "voteTime",
      "outputs": [
        {
          "internalType": "uint256",
          "name": "",
          "type": "uint256"
        }
      ],
      "stateMutability": "view",
      "type": "function",
      "constant": true
    },
    {
      "inputs": [
        {
          "internalType": "address",
          "name": "",
          "type": "address"
        },
        {
          "internalType": "uint256",
          "name": "",
          "type": "uint256"
        }
      ],
      "name": "votes",
      "outputs": [
        {
          "internalType": "bool",
          "name": "",
          "type": "bool"
        }
      ],
      "stateMutability": "view",
      "type": "function",
      "constant": true
    },
    {
      "stateMutability": "payable",
      "type": "receive",
      "payable": true
    },
    {
      "inputs": [],
      "name": "contribute",
      "outputs": [],
      "stateMutability": "payable",
      "type": "function",
      "payable": true
    },
    {
      "inputs": [
        {
          "internalType": "uint256",
          "name": "nShares",
          "type": "uint256"
        }
      ],
      "name": "redeemShare",
      "outputs": [],
      "stateMutability": "nonpayable",
      "type": "function"
    },
    {
      "inputs": [
        {
          "internalType": "uint256",
          "name": "nShares",
          "type": "uint256"
        },
        {
          "internalType": "address",
          "name": "recipient",
          "type": "address"
        }
      ],
      "name": "transferShare",
      "outputs": [],
      "stateMutability": "nonpayable",
      "type": "function"
    },
    {
      "inputs": [
        {
          "internalType": "string",
          "name": "name",
          "type": "string"
        },
        {
          "internalType": "uint256",
          "name": "amount",
          "type": "uint256"
        },
        {
          "internalType": "address payable",
          "name": "recipient",
          "type": "address"
        }
      ],
      "name": "createProposal",
      "outputs": [],
      "stateMutability": "nonpayable",
      "type": "function"
    },
    {
      "inputs": [
        {
          "internalType": "uint256",
          "name": "proposalId",
          "type": "uint256"
        }
      ],
      "name": "vote",
      "outputs": [],
      "stateMutability": "nonpayable",
      "type": "function"
    },
    {
      "inputs": [
        {
          "internalType": "uint256",
          "name": "proposalId",
          "type": "uint256"
        }
      ],
      "name": "executeProposal",
      "outputs": [],
      "stateMutability": "nonpayable",
      "type": "function"
    },
    {
      "inputs": [
        {
          "internalType": "uint256",
          "name": "amount",
          "type": "uint256"
        },
        {
          "internalType": "address payable",
          "name": "to",
          "type": "address"
        }
      ],
      "name": "withdrawEther",
      "outputs": [],
      "stateMutability": "nonpayable",
      "type": "function"
    }
  ],
  "bytecode": "0x60806040523480156200001157600080fd5b5060405162002788380380620027888339818101604052810190620000379190620001e1565b620000576200004b620000d560201b60201c565b620000dd60201b60201c565b600081118015620000685750606481105b620000aa576040517f08c379a0000000000000000000000000000000000000000000000000000000008152600401620000a1906200029e565b60405180910390fd5b8242620000b89190620002ef565b6005819055508160098190555080600a819055505050506200032a565b600033905090565b60008060009054906101000a900473ffffffffffffffffffffffffffffffffffffffff169050816000806101000a81548173ffffffffffffffffffffffffffffffffffffffff021916908373ffffffffffffffffffffffffffffffffffffffff1602179055508173ffffffffffffffffffffffffffffffffffffffff168173ffffffffffffffffffffffffffffffffffffffff167f8be0079c531659141344cd1fd0a4f28419497f9722a3daafe3b4186f6b6457e060405160405180910390a35050565b600080fd5b6000819050919050565b620001bb81620001a6565b8114620001c757600080fd5b50565b600081519050620001db81620001b0565b92915050565b600080600060608486031215620001fd57620001fc620001a1565b5b60006200020d86828701620001ca565b93505060206200022086828701620001ca565b92505060406200023386828701620001ca565b9150509250925092565b600082825260208201905092915050565b7f71756f72756d206d757374206265206265747765656e203020616e6420313030600082015250565b6000620002866020836200023d565b915062000293826200024e565b602082019050919050565b60006020820190508181036000830152620002b98162000277565b9050919050565b7f4e487b7100000000000000000000000000000000000000000000000000000000600052601160045260246000fd5b6000620002fc82620001a6565b91506200030983620001a6565b9250828201905080821115620003245762000323620002c0565b5b92915050565b61244e806200033a6000396000f3fe6080604052600436106101235760003560e01c8063715018a6116100a0578063ce56c45411610064578063ce56c454146103ea578063ce7c2ac214610413578063d151b51614610450578063d7bb99ba1461047b578063f2fde38b1461048557610142565b8063715018a614610317578063868643df1461032e5780638da5cb5b146103575780639f2524ee14610382578063bcf93dd6146103bf57610142565b80632ab09d14116100e75780632ab09d14146102305780633a98ef391461025b57806346fcff4c146102865780636ac1e01f146102b15780636f7bc9be146102da57610142565b80630121b93f14610147578063013cf08b14610170578063039383e6146101b35780630d61b519146101dc5780631703a0181461020557610142565b3661014257346004600082825461013a9190611435565b925050819055005b600080fd5b34801561015357600080fd5b5061016e600480360381019061016991906114a9565b6104ae565b005b34801561017c57600080fd5b50610197600480360381019061019291906114a9565b610709565b6040516101aa97969594939291906115d1565b60405180910390f35b3480156101bf57600080fd5b506101da60048036038101906101d59190611685565b610800565b005b3480156101e857600080fd5b5061020360048036038101906101fe91906114a9565b6109ce565b005b34801561021157600080fd5b5061021a610b24565b60405161022791906116c5565b60405180910390f35b34801561023c57600080fd5b50610245610b2a565b60405161025291906116c5565b60405180910390f35b34801561026757600080fd5b50610270610b30565b60405161027d91906116c5565b60405180910390f35b34801561029257600080fd5b5061029b610b36565b6040516102a891906116c5565b60405180910390f35b3480156102bd57600080fd5b506102d860048036038101906102d39190611841565b610b3c565b005b3480156102e657600080fd5b5061030160048036038101906102fc91906118b0565b610d63565b60405161030e91906118dd565b60405180910390f35b34801561032357600080fd5b5061032c610d83565b005b34801561033a57600080fd5b50610355600480360381019061035091906114a9565b610d97565b005b34801561036357600080fd5b5061036c610ef9565b6040516103799190611907565b60405180910390f35b34801561038e57600080fd5b506103a960048036038101906103a49190611922565b610f22565b6040516103b691906118dd565b60405180910390f35b3480156103cb57600080fd5b506103d4610f51565b6040516103e191906116c5565b60405180910390f35b3480156103f657600080fd5b50610411600480360381019061040c9190611962565b610f57565b005b34801561041f57600080fd5b5061043a600480360381019061043591906118b0565b610f6d565b60405161044791906116c5565b60405180910390f35b34801561045c57600080fd5b50610465610f85565b60405161047291906116c5565b60405180910390f35b610483610f8b565b005b34801561049157600080fd5b506104ac60048036038101906104a791906118b0565b6110b0565b005b60011515600160003373ffffffffffffffffffffffffffffffffffffffff1673ffffffffffffffffffffffffffffffffffffffff16815260200190815260200160002060009054906101000a900460ff16151514610541576040517f08c379a0000000000000000000000000000000000000000000000000000000008152600401610538906119ee565b60405180910390fd5b600060066000838152602001908152602001600020905060001515600860003373ffffffffffffffffffffffffffffffffffffffff1673ffffffffffffffffffffffffffffffffffffffff168152602001908152602001600020600084815260200190815260200160002060009054906101000a900460ff161515146105fc576040517f08c379a00000000000000000000000000000000000000000000000000000000081526004016105f390611a5a565b60405180910390fd5b80600501544210610642576040517f08c379a000000000000000000000000000000000000000000000000000000000815260040161063990611ac6565b60405180910390fd5b6001600860003373ffffffffffffffffffffffffffffffffffffffff1673ffffffffffffffffffffffffffffffffffffffff168152602001908152602001600020600084815260200190815260200160002060006101000a81548160ff021916908315150217905550600260003373ffffffffffffffffffffffffffffffffffffffff1673ffffffffffffffffffffffffffffffffffffffff168152602001908152602001600020548160040160008282546106fe9190611435565b925050819055505050565b600660205280600052604060002060009150905080600001549080600101805461073290611b15565b80601f016020809104026020016040519081016040528092919081815260200182805461075e90611b15565b80156107ab5780601f10610780576101008083540402835291602001916107ab565b820191906000526020600020905b81548152906001019060200180831161078e57829003601f168201915b5050505050908060020154908060030160009054906101000a900473ffffffffffffffffffffffffffffffffffffffff16908060040154908060050154908060060160009054906101000a900460ff16905087565b81600260003373ffffffffffffffffffffffffffffffffffffffff1673ffffffffffffffffffffffffffffffffffffffff168152602001908152602001600020541015610882576040517f08c379a000000000000000000000000000000000000000000000000000000000815260040161087990611b92565b60405180910390fd5b8160045410156108c7576040517f08c379a00000000000000000000000000000000000000000000000000000000081526004016108be90611bfe565b60405180910390fd5b81600260003373ffffffffffffffffffffffffffffffffffffffff1673ffffffffffffffffffffffffffffffffffffffff16815260200190815260200160002060008282546109169190611c1e565b9250508190555081600260008373ffffffffffffffffffffffffffffffffffffffff1673ffffffffffffffffffffffffffffffffffffffff168152602001908152602001600020600082825461096c9190611435565b9250508190555060018060008373ffffffffffffffffffffffffffffffffffffffff1673ffffffffffffffffffffffffffffffffffffffff16815260200190815260200160002060006101000a81548160ff0219169083151502179055505050565b6109d6611133565b60006006600083815260200190815260200160002090508060050154421015610a34576040517f08c379a0000000000000000000000000000000000000000000000000000000008152600401610a2b90611c9e565b60405180910390fd5b600015158160060160009054906101000a900460ff16151514610a8c576040517f08c379a0000000000000000000000000000000000000000000000000000000008152600401610a8390611d0a565b60405180910390fd5b600a5460646003548360040154610aa39190611d59565b610aad9190611d8a565b1015610aee576040517f08c379a0000000000000000000000000000000000000000000000000000000008152600401610ae590611e18565b60405180910390fd5b610b2081600201548260030160009054906101000a900473ffffffffffffffffffffffffffffffffffffffff166111b1565b5050565b600a5481565b60075481565b60035481565b60045481565b60011515600160003373ffffffffffffffffffffffffffffffffffffffff1673ffffffffffffffffffffffffffffffffffffffff16815260200190815260200160002060009054906101000a900460ff16151514610bcf576040517f08c379a0000000000000000000000000000000000000000000000000000000008152600401610bc6906119ee565b60405180910390fd5b816004541015610c14576040517f08c379a0000000000000000000000000000000000000000000000000000000008152600401610c0b90611e84565b60405180910390fd5b6040518060e0016040528060075481526020018481526020018381526020018273ffffffffffffffffffffffffffffffffffffffff1681526020016000815260200160095442610c649190611435565b815260200160001515815250600660006007548152602001908152602001600020600082015181600001556020820151816001019081610ca49190612050565b506040820151816002015560608201518160030160006101000a81548173ffffffffffffffffffffffffffffffffffffffff021916908373ffffffffffffffffffffffffffffffffffffffff1602179055506080820151816004015560a0820151816005015560c08201518160060160006101000a81548160ff0219169083151502179055509050508160046000828254610d3f9190611c1e565b9250508190555060076000815480929190610d5990612122565b9190505550505050565b60016020528060005260406000206000915054906101000a900460ff1681565b610d8b611133565b610d95600061123c565b565b80600260003373ffffffffffffffffffffffffffffffffffffffff1673ffffffffffffffffffffffffffffffffffffffff168152602001908152602001600020541015610e19576040517f08c379a0000000000000000000000000000000000000000000000000000000008152600401610e1090611b92565b60405180910390fd5b806004541015610e5e576040517f08c379a0000000000000000000000000000000000000000000000000000000008152600401610e5590611bfe565b60405180910390fd5b80600260003373ffffffffffffffffffffffffffffffffffffffff1673ffffffffffffffffffffffffffffffffffffffff1681526020019081526020016000206000828254610ead9190611c1e565b925050819055508060046000828254610ec69190611c1e565b92505081905550610ef6813373ffffffffffffffffffffffffffffffffffffffff1661130090919063ffffffff16565b50565b60008060009054906101000a900473ffffffffffffffffffffffffffffffffffffffff16905090565b60086020528160005260406000206020528060005260406000206000915091509054906101000a900460ff1681565b60095481565b610f5f611133565b610f6982826111b1565b5050565b60026020528060005260406000206000915090505481565b60055481565b6005544210610fcf576040517f08c379a0000000000000000000000000000000000000000000000000000000008152600401610fc6906121b6565b60405180910390fd5b60018060003373ffffffffffffffffffffffffffffffffffffffff1673ffffffffffffffffffffffffffffffffffffffff16815260200190815260200160002060006101000a81548160ff02191690831515021790555034600260003373ffffffffffffffffffffffffffffffffffffffff1673ffffffffffffffffffffffffffffffffffffffff16815260200190815260200160002060008282546110759190611435565b92505081905550346003600082825461108e9190611435565b9250508190555034600460008282546110a79190611435565b92505081905550565b6110b8611133565b600073ffffffffffffffffffffffffffffffffffffffff168173ffffffffffffffffffffffffffffffffffffffff1603611127576040517f08c379a000000000000000000000000000000000000000000000000000000000815260040161111e90612248565b60405180910390fd5b6111308161123c565b50565b61113b6113f4565b73ffffffffffffffffffffffffffffffffffffffff16611159610ef9565b73ffffffffffffffffffffffffffffffffffffffff16146111af576040517f08c379a00000000000000000000000000000000000000000000000000000000081526004016111a6906122b4565b60405180910390fd5b565b6004548211156111f6576040517f08c379a00000000000000000000000000000000000000000000000000000000081526004016111ed90611bfe565b60405180910390fd5b81600460008282546112089190611c1e565b92505081905550611238828273ffffffffffffffffffffffffffffffffffffffff1661130090919063ffffffff16565b5050565b60008060009054906101000a900473ffffffffffffffffffffffffffffffffffffffff169050816000806101000a81548173ffffffffffffffffffffffffffffffffffffffff021916908373ffffffffffffffffffffffffffffffffffffffff1602179055508173ffffffffffffffffffffffffffffffffffffffff168173ffffffffffffffffffffffffffffffffffffffff167f8be0079c531659141344cd1fd0a4f28419497f9722a3daafe3b4186f6b6457e060405160405180910390a35050565b80471015611343576040517f08c379a000000000000000000000000000000000000000000000000000000000815260040161133a90612320565b60405180910390fd5b60008273ffffffffffffffffffffffffffffffffffffffff168260405161136990612371565b60006040518083038185875af1925050503d80600081146113a6576040519150601f19603f3d011682016040523d82523d6000602084013e6113ab565b606091505b50509050806113ef576040517f08c379a00000000000000000000000000000000000000000000000000000000081526004016113e6906123f8565b60405180910390fd5b505050565b600033905090565b6000819050919050565b7f4e487b7100000000000000000000000000000000000000000000000000000000600052601160045260246000fd5b6000611440826113fc565b915061144b836113fc565b925082820190508082111561146357611462611406565b5b92915050565b6000604051905090565b600080fd5b600080fd5b611486816113fc565b811461149157600080fd5b50565b6000813590506114a38161147d565b92915050565b6000602082840312156114bf576114be611473565b5b60006114cd84828501611494565b91505092915050565b6114df816113fc565b82525050565b600081519050919050565b600082825260208201905092915050565b60005b8381101561151f578082015181840152602081019050611504565b60008484015250505050565b6000601f19601f8301169050919050565b6000611547826114e5565b61155181856114f0565b9350611561818560208601611501565b61156a8161152b565b840191505092915050565b600073ffffffffffffffffffffffffffffffffffffffff82169050919050565b60006115a082611575565b9050919050565b6115b081611595565b82525050565b60008115159050919050565b6115cb816115b6565b82525050565b600060e0820190506115e6600083018a6114d6565b81810360208301526115f8818961153c565b905061160760408301886114d6565b61161460608301876115a7565b61162160808301866114d6565b61162e60a08301856114d6565b61163b60c08301846115c2565b98975050505050505050565b600061165282611575565b9050919050565b61166281611647565b811461166d57600080fd5b50565b60008135905061167f81611659565b92915050565b6000806040838503121561169c5761169b611473565b5b60006116aa85828601611494565b92505060206116bb85828601611670565b9150509250929050565b60006020820190506116da60008301846114d6565b92915050565b600080fd5b600080fd5b7f4e487b7100000000000000000000000000000000000000000000000000000000600052604160045260246000fd5b6117228261152b565b810181811067ffffffffffffffff82111715611741576117406116ea565b5b80604052505050565b6000611754611469565b90506117608282611719565b919050565b600067ffffffffffffffff8211156117805761177f6116ea565b5b6117898261152b565b9050602081019050919050565b82818337600083830152505050565b60006117b86117b384611765565b61174a565b9050828152602081018484840111156117d4576117d36116e5565b5b6117df848285611796565b509392505050565b600082601f8301126117fc576117fb6116e0565b5b813561180c8482602086016117a5565b91505092915050565b61181e81611595565b811461182957600080fd5b50565b60008135905061183b81611815565b92915050565b60008060006060848603121561185a57611859611473565b5b600084013567ffffffffffffffff81111561187857611877611478565b5b611884868287016117e7565b935050602061189586828701611494565b92505060406118a68682870161182c565b9150509250925092565b6000602082840312156118c6576118c5611473565b5b60006118d484828501611670565b91505092915050565b60006020820190506118f260008301846115c2565b92915050565b61190181611647565b82525050565b600060208201905061191c60008301846118f8565b92915050565b6000806040838503121561193957611938611473565b5b600061194785828601611670565b925050602061195885828601611494565b9150509250929050565b6000806040838503121561197957611978611473565b5b600061198785828601611494565b92505060206119988582860161182c565b9150509250929050565b7f6f6e6c7920696e766573746f7273000000000000000000000000000000000000600082015250565b60006119d8600e836114f0565b91506119e3826119a2565b602082019050919050565b60006020820190508181036000830152611a07816119cb565b9050919050565b7f68617320616c726561647920766f746564000000000000000000000000000000600082015250565b6000611a446011836114f0565b9150611a4f82611a0e565b602082019050919050565b60006020820190508181036000830152611a7381611a37565b9050919050565b7f70726f706f73616c20656e646564000000000000000000000000000000000000600082015250565b6000611ab0600e836114f0565b9150611abb82611a7a565b602082019050919050565b60006020820190508181036000830152611adf81611aa3565b9050919050565b7f4e487b7100000000000000000000000000000000000000000000000000000000600052602260045260246000fd5b60006002820490506001821680611b2d57607f821691505b602082108103611b4057611b3f611ae6565b5b50919050565b7f6e6f7420656e6f75676820736861726573000000000000000000000000000000600082015250565b6000611b7c6011836114f0565b9150611b8782611b46565b602082019050919050565b60006020820190508181036000830152611bab81611b6f565b9050919050565b7f6e6f7420656e6f7567682066756e647300000000000000000000000000000000600082015250565b6000611be86010836114f0565b9150611bf382611bb2565b602082019050919050565b60006020820190508181036000830152611c1781611bdb565b9050919050565b6000611c29826113fc565b9150611c34836113fc565b9250828203905081811115611c4c57611c4b611406565b5b92915050565b7f70726f706f73616c206e6f7420656e6465640000000000000000000000000000600082015250565b6000611c886012836114f0565b9150611c9382611c52565b602082019050919050565b60006020820190508181036000830152611cb781611c7b565b9050919050565b7f616c726561647920657865637574656400000000000000000000000000000000600082015250565b6000611cf46010836114f0565b9150611cff82611cbe565b602082019050919050565b60006020820190508181036000830152611d2381611ce7565b9050919050565b7f4e487b7100000000000000000000000000000000000000000000000000000000600052601260045260246000fd5b6000611d64826113fc565b9150611d6f836113fc565b925082611d7f57611d7e611d2a565b5b828204905092915050565b6000611d95826113fc565b9150611da0836113fc565b9250828202611dae816113fc565b91508282048414831517611dc557611dc4611406565b5b5092915050565b7f6e6f7420656e6f75676820766f74657300000000000000000000000000000000600082015250565b6000611e026010836114f0565b9150611e0d82611dcc565b602082019050919050565b60006020820190508181036000830152611e3181611df5565b9050919050565b7f616d6f756e7420746f6f20626967000000000000000000000000000000000000600082015250565b6000611e6e600e836114f0565b9150611e7982611e38565b602082019050919050565b60006020820190508181036000830152611e9d81611e61565b9050919050565b60008190508160005260206000209050919050565b60006020601f8301049050919050565b600082821b905092915050565b600060088302611f067fffffffffffffffffffffffffffffffffffffffffffffffffffffffffffffffff82611ec9565b611f108683611ec9565b95508019841693508086168417925050509392505050565b6000819050919050565b6000611f4d611f48611f43846113fc565b611f28565b6113fc565b9050919050565b6000819050919050565b611f6783611f32565b611f7b611f7382611f54565b848454611ed6565b825550505050565b600090565b611f90611f83565b611f9b818484611f5e565b505050565b5b81811015611fbf57611fb4600082611f88565b600181019050611fa1565b5050565b601f82111561200457611fd581611ea4565b611fde84611eb9565b81016020851015611fed578190505b612001611ff985611eb9565b830182611fa0565b50505b505050565b600082821c905092915050565b600061202760001984600802612009565b1980831691505092915050565b60006120408383612016565b9150826002028217905092915050565b612059826114e5565b67ffffffffffffffff811115612072576120716116ea565b5b61207c8254611b15565b612087828285611fc3565b600060209050601f8311600181146120ba57600084156120a8578287015190505b6120b28582612034565b86555061211a565b601f1984166120c886611ea4565b60005b828110156120f0578489015182556001820191506020850194506020810190506120cb565b8683101561210d5784890151612109601f891682612016565b8355505b6001600288020188555050505b505050505050565b600061212d826113fc565b91507fffffffffffffffffffffffffffffffffffffffffffffffffffffffffffffffff820361215f5761215e611406565b5b600182019050919050565b7f636f6e747269627574696f6e20656e6465640000000000000000000000000000600082015250565b60006121a06012836114f0565b91506121ab8261216a565b602082019050919050565b600060208201905081810360008301526121cf81612193565b9050919050565b7f4f776e61626c653a206e6577206f776e657220697320746865207a65726f206160008201527f6464726573730000000000000000000000000000000000000000000000000000602082015250565b60006122326026836114f0565b915061223d826121d6565b604082019050919050565b6000602082019050818103600083015261226181612225565b9050919050565b7f4f776e61626c653a2063616c6c6572206973206e6f7420746865206f776e6572600082015250565b600061229e6020836114f0565b91506122a982612268565b602082019050919050565b600060208201905081810360008301526122cd81612291565b9050919050565b7f416464726573733a20696e73756666696369656e742062616c616e6365000000600082015250565b600061230a601d836114f0565b9150612315826122d4565b602082019050919050565b60006020820190508181036000830152612339816122fd565b9050919050565b600081905092915050565b50565b600061235b600083612340565b91506123668261234b565b600082019050919050565b600061237c8261234e565b9150819050919050565b7f416464726573733a20756e61626c6520746f2073656e642076616c75652c207260008201527f6563697069656e74206d61792068617665207265766572746564000000000000602082015250565b60006123e2603a836114f0565b91506123ed82612386565b604082019050919050565b60006020820190508181036000830152612411816123d5565b905091905056fea2646970667358221220ac4c9066b41e5834f36fce64bc2b1877ffeb89c55c0d877c01e094af7a6ea66864736f6c63430008110033",
  "immutableReferences": {},
  "source": "// SPDX-License-Identifier: MIT\r\npragma solidity 0.8.17;\r\n\r\n/**\r\n  DAO Contract\r\n  1. Collects investors money (ether)\r\n  2. Keep track of investor contributions with shares\r\n  3. Allow investors to transfer shares\r\n  4. Allow investment proposals to be created and voted\r\n  5. Execute successful investment proposals (e.i send money)\r\n */\r\n\r\nimport '@openzeppelin/contracts/utils/Address.sol';\r\nimport '@openzeppelin/contracts/access/Ownable.sol';\r\n\r\ncontract DAO is Ownable {\r\n  using Address for address payable;\r\n\r\n  mapping(address => bool) public investors;\r\n  mapping(address => uint) public shares;\r\n  uint public totalShares;\r\n  uint public availableFunds;\r\n  uint public contributionEnd;\r\n\r\n  struct Proposal {\r\n    uint id;\r\n    string name;\r\n    uint amount;\r\n    address payable recipient; // ether sent to another smart contract which will represent the investment\r\n    uint votes;\r\n    uint end;\r\n    bool executed;\r\n  }\r\n\r\n  mapping(uint => Proposal) public proposals;\r\n  uint public nextProposalId;\r\n  mapping(address => mapping(uint => bool)) public votes;\r\n  uint public voteTime;\r\n  uint public quorum; /// percentage\r\n\r\n  constructor(uint contributionTime, uint _voteTime, uint _quorum) {\r\n    require(_quorum > 0 && _quorum < 100, 'quorum must be between 0 and 100');\r\n    contributionEnd = block.timestamp + contributionTime;\r\n    voteTime = _voteTime;\r\n    quorum = _quorum;\r\n  }\r\n\r\n  /// 1 wei = 1 share\r\n  function contribute() payable external {\r\n    require(block.timestamp < contributionEnd, 'contribution ended');\r\n\r\n    investors[msg.sender] = true;\r\n    shares[msg.sender] += msg.value;\r\n    totalShares += msg.value;\r\n    availableFunds += msg.value;\r\n  }\r\n\r\n  /// 1 share = 1 wei\r\n  /// normally the value of the investment fluctuates after being invested in different smart contracts\r\n  /// one way to measure is using and \"Oracle\" but we'll keep it simple here\r\n  /// --> release back to the dao\r\n  function redeemShare(uint nShares) external { \r\n    require(shares[msg.sender] >= nShares, 'not enough shares');\r\n    require(availableFunds >= nShares, 'not enough funds');\r\n\r\n    shares[msg.sender] -= nShares;\r\n    availableFunds -= nShares;\r\n\r\n    payable(msg.sender).sendValue(nShares);\r\n  }\r\n\r\n  /// --> transfer between users\r\n  /// can happen on a dex which will handle the ether transfer between the parties\r\n  function transferShare(uint nShares, address recipient) external { \r\n    require(shares[msg.sender] >= nShares, 'not enough shares');\r\n    require(availableFunds >= nShares, 'not enough funds');\r\n\r\n    shares[msg.sender] -= nShares;\r\n    shares[recipient] += nShares;\r\n\r\n    investors[recipient] = true;\r\n  }\r\n\r\n  function createProposal(string memory name, uint amount, address payable recipient) external onlyInvestors {\r\n    require(availableFunds >= amount, 'amount too big');\r\n\r\n    proposals[nextProposalId] = Proposal(\r\n      nextProposalId,\r\n      name,\r\n      amount,\r\n      recipient,\r\n      0,\r\n      block.timestamp + voteTime,\r\n      false\r\n    );\r\n\r\n    availableFunds -= amount;\r\n    nextProposalId++;\r\n  }\r\n\r\n  function vote(uint proposalId) external onlyInvestors {\r\n    Proposal storage proposal = proposals[proposalId];\r\n\r\n    require(votes[msg.sender][proposalId] == false, 'has already voted');\r\n    require(block.timestamp < proposal.end, 'proposal ended');\r\n\r\n    votes[msg.sender][proposalId] = true;\r\n    proposal.votes += shares[msg.sender];\r\n  }\r\n\r\n  function executeProposal(uint proposalId) external onlyOwner {\r\n    Proposal storage proposal = proposals[proposalId];\r\n\r\n    require(block.timestamp >= proposal.end, 'proposal not ended');\r\n    require(proposal.executed == false, 'already executed');\r\n    require((proposal.votes / totalShares) * 100 >= quorum, 'not enough votes');\r\n\r\n    _transferEther(proposal.amount, proposal.recipient);\r\n  }\r\n\r\n  function withdrawEther(uint amount, address payable to) external onlyOwner {\r\n    _transferEther(amount, to);\r\n  }\r\n\r\n  /// react when ether is sent to smart contract\r\n  receive () external payable {\r\n    availableFunds += msg.value;\r\n  }\r\n\r\n  function _transferEther(uint amount, address payable to) internal {\r\n    require(amount <= availableFunds, 'not enough funds');\r\n\r\n    availableFunds -= amount;\r\n    payable(to).sendValue(amount);\r\n  }\r\n\r\n  modifier onlyInvestors() {\r\n    require(investors[msg.sender] == true, 'only investors');\r\n    _;\r\n  }\r\n}",
  "sourcePath": "C:\\Development\\Products\\Blockchain\\Dapp30\\Dapp30\\15DAO\\contracts\\DAO.sol",
  "compiler": {
    "name": "solc",
    "version": "0.8.17+commit.8df45f5f.Emscripten.clang"
  },
  "schemaVersion": "3.4.10",
  "updatedAt": "2022-11-10T20:43:24.798Z",
  "networkType": "ethereum",
  "devdoc": {
    "kind": "dev",
    "methods": {
      "owner()": {
        "details": "Returns the address of the current owner."
      },
      "renounceOwnership()": {
        "details": "Leaves the contract without owner. It will not be possible to call `onlyOwner` functions anymore. Can only be called by the current owner. NOTE: Renouncing ownership will leave the contract without an owner, thereby removing any functionality that is only available to the owner."
      },
      "transferOwnership(address)": {
        "details": "Transfers ownership of the contract to a new account (`newOwner`). Can only be called by the current owner."
      }
    },
    "version": 1
  },
  "userdoc": {
    "kind": "user",
    "methods": {
      "constructor": {
        "notice": "percentage"
      },
      "contribute()": {
        "notice": "1 wei = 1 share"
      },
      "redeemShare(uint256)": {
        "notice": "1 share = 1 wei normally the value of the investment fluctuates after being invested in different smart contracts one way to measure is using and \"Oracle\" but we'll keep it simple here --> release back to the dao"
      },
      "transferShare(uint256,address)": {
        "notice": "--> transfer between users can happen on a dex which will handle the ether transfer between the parties"
      }
    },
    "version": 1
  }
}