{
  "contractName": "MultiSig",
  "abi": [
    {
      "inputs": [
        {
          "internalType": "address[]",
          "name": "_approvers",
          "type": "address[]"
        },
        {
          "internalType": "uint256",
          "name": "_quorum",
          "type": "uint256"
        }
      ],
      "stateMutability": "payable",
      "type": "constructor",
      "payable": true
    },
    {
      "inputs": [
        {
          "internalType": "address",
          "name": "",
          "type": "address"
        },
        {
          "internalType": "uint256",
          "name": "",
          "type": "uint256"
        }
      ],
      "name": "approved",
      "outputs": [
        {
          "internalType": "bool",
          "name": "",
          "type": "bool"
        }
      ],
      "stateMutability": "view",
      "type": "function",
      "constant": true
    },
    {
      "inputs": [
        {
          "internalType": "uint256",
          "name": "",
          "type": "uint256"
        }
      ],
      "name": "approvers",
      "outputs": [
        {
          "internalType": "address",
          "name": "",
          "type": "address"
        }
      ],
      "stateMutability": "view",
      "type": "function",
      "constant": true
    },
    {
      "inputs": [],
      "name": "nextId",
      "outputs": [
        {
          "internalType": "uint256",
          "name": "",
          "type": "uint256"
        }
      ],
      "stateMutability": "view",
      "type": "function",
      "constant": true
    },
    {
      "inputs": [],
      "name": "quorum",
      "outputs": [
        {
          "internalType": "uint256",
          "name": "",
          "type": "uint256"
        }
      ],
      "stateMutability": "view",
      "type": "function",
      "constant": true
    },
    {
      "inputs": [
        {
          "internalType": "uint256",
          "name": "",
          "type": "uint256"
        }
      ],
      "name": "transfers",
      "outputs": [
        {
          "internalType": "uint256",
          "name": "id",
          "type": "uint256"
        },
        {
          "internalType": "uint256",
          "name": "amount",
          "type": "uint256"
        },
        {
          "internalType": "address",
          "name": "recipient",
          "type": "address"
        },
        {
          "internalType": "uint256",
          "name": "approvals",
          "type": "uint256"
        },
        {
          "internalType": "bool",
          "name": "sent",
          "type": "bool"
        }
      ],
      "stateMutability": "view",
      "type": "function",
      "constant": true
    },
    {
      "inputs": [
        {
          "internalType": "uint256",
          "name": "_amount",
          "type": "uint256"
        },
        {
          "internalType": "address payable",
          "name": "_to",
          "type": "address"
        }
      ],
      "name": "createTransfer",
      "outputs": [],
      "stateMutability": "nonpayable",
      "type": "function"
    },
    {
      "inputs": [
        {
          "internalType": "uint256",
          "name": "_id",
          "type": "uint256"
        }
      ],
      "name": "Approve",
      "outputs": [],
      "stateMutability": "nonpayable",
      "type": "function"
    }
  ],
  "bytecode": "0x6080604052604051620011fb380380620011fb833981810160405281019062000029919062000328565b81600090805190602001906200004192919062000051565b508060018190555050506200038e565b828054828255906000526020600020908101928215620000cd579160200282015b82811115620000cc5782518260006101000a81548173ffffffffffffffffffffffffffffffffffffffff021916908373ffffffffffffffffffffffffffffffffffffffff1602179055509160200191906001019062000072565b5b509050620000dc9190620000e0565b5090565b5b80821115620000fb576000816000905550600101620000e1565b5090565b6000604051905090565b600080fd5b600080fd5b600080fd5b6000601f19601f8301169050919050565b7f4e487b7100000000000000000000000000000000000000000000000000000000600052604160045260246000fd5b620001638262000118565b810181811067ffffffffffffffff8211171562000185576200018462000129565b5b80604052505050565b60006200019a620000ff565b9050620001a8828262000158565b919050565b600067ffffffffffffffff821115620001cb57620001ca62000129565b5b602082029050602081019050919050565b600080fd5b600073ffffffffffffffffffffffffffffffffffffffff82169050919050565b60006200020e82620001e1565b9050919050565b620002208162000201565b81146200022c57600080fd5b50565b600081519050620002408162000215565b92915050565b60006200025d6200025784620001ad565b6200018e565b90508083825260208201905060208402830185811115620002835762000282620001dc565b5b835b81811015620002b057806200029b88826200022f565b84526020840193505060208101905062000285565b5050509392505050565b600082601f830112620002d257620002d162000113565b5b8151620002e484826020860162000246565b91505092915050565b6000819050919050565b6200030281620002ed565b81146200030e57600080fd5b50565b6000815190506200032281620002f7565b92915050565b6000806040838503121562000342576200034162000109565b5b600083015167ffffffffffffffff8111156200036357620003626200010e565b5b6200037185828601620002ba565b9250506020620003848582860162000311565b9150509250929050565b610e5d806200039e6000396000f3fe608060405234801561001057600080fd5b506004361061007d5760003560e01c806377b92c071161005b57806377b92c07146100da5780639377d711146100f6578063c14482841461012a578063d3650fb81461015a5761007d565b80631703a018146100825780634c12fa47146100a057806361b8ce8c146100bc575b600080fd5b61008a61018a565b60405161009791906108a0565b60405180910390f35b6100ba60048036038101906100b5919061094a565b610190565b005b6100c461036f565b6040516100d191906108a0565b60405180910390f35b6100f460048036038101906100ef919061098a565b610375565b005b610110600480360381019061010b919061098a565b6106c2565b6040516101219594939291906109f3565b60405180910390f35b610144600480360381019061013f9190610a72565b610725565b6040516101519190610ab2565b60405180910390f35b610174600480360381019061016f919061098a565b610754565b6040516101819190610acd565b60405180910390f35b60015481565b6000805b60008054905081101561022a57600081815481106101b5576101b4610ae8565b5b9060005260206000200160009054906101000a900473ffffffffffffffffffffffffffffffffffffffff1673ffffffffffffffffffffffffffffffffffffffff163373ffffffffffffffffffffffffffffffffffffffff160361021757600191505b808061022290610b46565b915050610194565b506001151581151514610272576040517f08c379a000000000000000000000000000000000000000000000000000000000815260040161026990610beb565b60405180910390fd5b6040518060a0016040528060035481526020018481526020018373ffffffffffffffffffffffffffffffffffffffff1681526020016000815260200160001515815250600260006003548152602001908152602001600020600082015181600001556020820151816001015560408201518160020160006101000a81548173ffffffffffffffffffffffffffffffffffffffff021916908373ffffffffffffffffffffffffffffffffffffffff1602179055506060820151816003015560808201518160040160006101000a81548160ff0219169083151502179055509050506003600081548092919061036590610b46565b9190505550505050565b60035481565b6000805b60008054905081101561040f576000818154811061039a57610399610ae8565b5b9060005260206000200160009054906101000a900473ffffffffffffffffffffffffffffffffffffffff1673ffffffffffffffffffffffffffffffffffffffff163373ffffffffffffffffffffffffffffffffffffffff16036103fc57600191505b808061040790610b46565b915050610379565b506001151581151514610457576040517f08c379a000000000000000000000000000000000000000000000000000000000815260040161044e90610beb565b60405180910390fd5b60001515600460003373ffffffffffffffffffffffffffffffffffffffff1673ffffffffffffffffffffffffffffffffffffffff168152602001908152602001600020600084815260200190815260200160002060009054906101000a900460ff161515146104fb576040517f08c379a00000000000000000000000000000000000000000000000000000000081526004016104f290610c57565b60405180910390fd5b600015156002600084815260200190815260200160002060040160009054906101000a900460ff16151514610565576040517f08c379a000000000000000000000000000000000000000000000000000000000815260040161055c90610cc3565b60405180910390fd5b6001600460003373ffffffffffffffffffffffffffffffffffffffff1673ffffffffffffffffffffffffffffffffffffffff168152602001908152602001600020600084815260200190815260200160002060006101000a81548160ff0219169083151502179055506002600083815260200190815260200160002060030160008154809291906105f590610b46565b91905055506001546002600084815260200190815260200160002060030154036106be5760016002600084815260200190815260200160002060040160006101000a81548160ff0219169083151502179055506106bd60026000848152602001908152602001600020600101546002600085815260200190815260200160002060020160009054906101000a900473ffffffffffffffffffffffffffffffffffffffff1673ffffffffffffffffffffffffffffffffffffffff1661079390919063ffffffff16565b5b5050565b60026020528060005260406000206000915090508060000154908060010154908060020160009054906101000a900473ffffffffffffffffffffffffffffffffffffffff16908060030154908060040160009054906101000a900460ff16905085565b60046020528160005260406000206020528060005260406000206000915091509054906101000a900460ff1681565b6000818154811061076457600080fd5b906000526020600020016000915054906101000a900473ffffffffffffffffffffffffffffffffffffffff1681565b804710156107d6576040517f08c379a00000000000000000000000000000000000000000000000000000000081526004016107cd90610d2f565b60405180910390fd5b60008273ffffffffffffffffffffffffffffffffffffffff16826040516107fc90610d80565b60006040518083038185875af1925050503d8060008114610839576040519150601f19603f3d011682016040523d82523d6000602084013e61083e565b606091505b5050905080610882576040517f08c379a000000000000000000000000000000000000000000000000000000000815260040161087990610e07565b60405180910390fd5b505050565b6000819050919050565b61089a81610887565b82525050565b60006020820190506108b56000830184610891565b92915050565b600080fd5b6108c981610887565b81146108d457600080fd5b50565b6000813590506108e6816108c0565b92915050565b600073ffffffffffffffffffffffffffffffffffffffff82169050919050565b6000610917826108ec565b9050919050565b6109278161090c565b811461093257600080fd5b50565b6000813590506109448161091e565b92915050565b60008060408385031215610961576109606108bb565b5b600061096f858286016108d7565b925050602061098085828601610935565b9150509250929050565b6000602082840312156109a05761099f6108bb565b5b60006109ae848285016108d7565b91505092915050565b60006109c2826108ec565b9050919050565b6109d2816109b7565b82525050565b60008115159050919050565b6109ed816109d8565b82525050565b600060a082019050610a086000830188610891565b610a156020830187610891565b610a2260408301866109c9565b610a2f6060830185610891565b610a3c60808301846109e4565b9695505050505050565b610a4f816109b7565b8114610a5a57600080fd5b50565b600081359050610a6c81610a46565b92915050565b60008060408385031215610a8957610a886108bb565b5b6000610a9785828601610a5d565b9250506020610aa8858286016108d7565b9150509250929050565b6000602082019050610ac760008301846109e4565b92915050565b6000602082019050610ae260008301846109c9565b92915050565b7f4e487b7100000000000000000000000000000000000000000000000000000000600052603260045260246000fd5b7f4e487b7100000000000000000000000000000000000000000000000000000000600052601160045260246000fd5b6000610b5182610887565b91507fffffffffffffffffffffffffffffffffffffffffffffffffffffffffffffffff8203610b8357610b82610b17565b5b600182019050919050565b600082825260208201905092915050565b7f6f6e6c7920617070726f76657200000000000000000000000000000000000000600082015250565b6000610bd5600d83610b8e565b9150610be082610b9f565b602082019050919050565b60006020820190508181036000830152610c0481610bc8565b9050919050565b7f616c726561647920617070726f76656400000000000000000000000000000000600082015250565b6000610c41601083610b8e565b9150610c4c82610c0b565b602082019050919050565b60006020820190508181036000830152610c7081610c34565b9050919050565b7f616c72656164792073656e740000000000000000000000000000000000000000600082015250565b6000610cad600c83610b8e565b9150610cb882610c77565b602082019050919050565b60006020820190508181036000830152610cdc81610ca0565b9050919050565b7f416464726573733a20696e73756666696369656e742062616c616e6365000000600082015250565b6000610d19601d83610b8e565b9150610d2482610ce3565b602082019050919050565b60006020820190508181036000830152610d4881610d0c565b9050919050565b600081905092915050565b50565b6000610d6a600083610d4f565b9150610d7582610d5a565b600082019050919050565b6000610d8b82610d5d565b9150819050919050565b7f416464726573733a20756e61626c6520746f2073656e642076616c75652c207260008201527f6563697069656e74206d61792068617665207265766572746564000000000000602082015250565b6000610df1603a83610b8e565b9150610dfc82610d95565b604082019050919050565b60006020820190508181036000830152610e2081610de4565b905091905056fea2646970667358221220ef05654944a0b18276e1e94983a7bb2dbb9e7ee84a378f42dd12f6279b95ec0464736f6c63430008110033",
  "immutableReferences": {},
  "source": "// SPDX-License-Identifier: MIT\r\npragma solidity 0.8.17;\r\n\r\nimport \"@openzeppelin/contracts/utils/Address.sol\";\r\n\r\ncontract MultiSig {\r\n\r\n  using Address for address payable;\r\n\r\n  address[] public approvers;\r\n  uint public quorum;\r\n\r\n  struct Transfer {\r\n    uint id;\r\n    uint amount;\r\n    address recipient;\r\n    uint approvals;\r\n    bool sent;\r\n  }\r\n\r\n  mapping(uint => Transfer) public transfers;\r\n  uint public nextId;\r\n\r\n  mapping(address => mapping(uint => bool)) public approved;\r\n\r\n  constructor(address[] memory _approvers, uint _quorum) payable {\r\n    approvers = _approvers;\r\n    quorum = _quorum;\r\n  }\r\n\r\n  function createTransfer(uint _amount, address payable _to) external onlyApprover {\r\n    transfers[nextId] = Transfer(nextId, _amount, _to, 0, false);\r\n    nextId++;\r\n  }\r\n\r\n  function Approve(uint _id) external onlyApprover {\r\n    require(approved[msg.sender][_id] == false, 'already approved');\r\n    require(transfers[_id].sent == false, 'already sent');\r\n\r\n    approved[msg.sender][_id] = true;\r\n    transfers[_id].approvals++;\r\n\r\n    if (transfers[_id].approvals == quorum) {\r\n      transfers[_id].sent = true;\r\n      payable(transfers[_id].recipient).sendValue(transfers[_id].amount);\r\n    }\r\n  }\r\n\r\n  modifier onlyApprover() {\r\n    bool isApprover = false;\r\n    for (uint i; i < approvers.length; i++) {\r\n      if (msg.sender == approvers[i]) {\r\n        isApprover = true;\r\n      }\r\n    }\r\n    require(isApprover == true, 'only approver');\r\n    _;\r\n  }\r\n\r\n  \r\n}",
  "sourcePath": "C:\\Development\\Products\\Blockchain\\Dapp30\\Dapp30\\13MultiSig\\contracts\\MultiSig.sol",
  "compiler": {
    "name": "solc",
    "version": "0.8.17+commit.8df45f5f.Emscripten.clang"
  },
  "schemaVersion": "3.4.10",
  "updatedAt": "2022-11-07T19:20:04.836Z",
  "networkType": "ethereum",
  "devdoc": {
    "kind": "dev",
    "methods": {},
    "version": 1
  },
  "userdoc": {
    "kind": "user",
    "methods": {},
    "version": 1
  }
}