{
  "contractName": "StateMachine",
  "abi": [
    {
      "inputs": [
        {
          "internalType": "uint256",
          "name": "_amount",
          "type": "uint256"
        },
        {
          "internalType": "uint256",
          "name": "_interest",
          "type": "uint256"
        },
        {
          "internalType": "uint256",
          "name": "_duration",
          "type": "uint256"
        },
        {
          "internalType": "address payable",
          "name": "_borrower",
          "type": "address"
        },
        {
          "internalType": "address payable",
          "name": "_lender",
          "type": "address"
        }
      ],
      "stateMutability": "nonpayable",
      "type": "constructor"
    },
    {
      "inputs": [],
      "name": "amount",
      "outputs": [
        {
          "internalType": "uint256",
          "name": "",
          "type": "uint256"
        }
      ],
      "stateMutability": "view",
      "type": "function",
      "constant": true
    },
    {
      "inputs": [],
      "name": "borrower",
      "outputs": [
        {
          "internalType": "address payable",
          "name": "",
          "type": "address"
        }
      ],
      "stateMutability": "view",
      "type": "function",
      "constant": true
    },
    {
      "inputs": [],
      "name": "duration",
      "outputs": [
        {
          "internalType": "uint256",
          "name": "",
          "type": "uint256"
        }
      ],
      "stateMutability": "view",
      "type": "function",
      "constant": true
    },
    {
      "inputs": [],
      "name": "end",
      "outputs": [
        {
          "internalType": "uint256",
          "name": "",
          "type": "uint256"
        }
      ],
      "stateMutability": "view",
      "type": "function",
      "constant": true
    },
    {
      "inputs": [],
      "name": "interest",
      "outputs": [
        {
          "internalType": "uint256",
          "name": "",
          "type": "uint256"
        }
      ],
      "stateMutability": "view",
      "type": "function",
      "constant": true
    },
    {
      "inputs": [],
      "name": "lender",
      "outputs": [
        {
          "internalType": "address payable",
          "name": "",
          "type": "address"
        }
      ],
      "stateMutability": "view",
      "type": "function",
      "constant": true
    },
    {
      "inputs": [],
      "name": "state",
      "outputs": [
        {
          "internalType": "enum StateMachine.State",
          "name": "",
          "type": "uint8"
        }
      ],
      "stateMutability": "view",
      "type": "function",
      "constant": true
    },
    {
      "inputs": [],
      "name": "fund",
      "outputs": [],
      "stateMutability": "payable",
      "type": "function",
      "payable": true
    },
    {
      "inputs": [],
      "name": "reimburse",
      "outputs": [],
      "stateMutability": "payable",
      "type": "function",
      "payable": true
    }
  ],
  "bytecode": "0x608060405260008060006101000a81548160ff021916908360028111156200002c576200002b6200011a565b5b02179055503480156200003e57600080fd5b5060405162001278380380620012788339818101604052810190620000649190620001ee565b8460018190555083600281905550826004819055508242620000879190620002a5565b60038190555081600560006101000a81548173ffffffffffffffffffffffffffffffffffffffff021916908373ffffffffffffffffffffffffffffffffffffffff16021790555080600660006101000a81548173ffffffffffffffffffffffffffffffffffffffff021916908373ffffffffffffffffffffffffffffffffffffffff1602179055505050505050620002e0565b7f4e487b7100000000000000000000000000000000000000000000000000000000600052602160045260246000fd5b600080fd5b6000819050919050565b62000163816200014e565b81146200016f57600080fd5b50565b600081519050620001838162000158565b92915050565b600073ffffffffffffffffffffffffffffffffffffffff82169050919050565b6000620001b68262000189565b9050919050565b620001c881620001a9565b8114620001d457600080fd5b50565b600081519050620001e881620001bd565b92915050565b600080600080600060a086880312156200020d576200020c62000149565b5b60006200021d8882890162000172565b9550506020620002308882890162000172565b9450506040620002438882890162000172565b93505060606200025688828901620001d7565b92505060806200026988828901620001d7565b9150509295509295909350565b7f4e487b7100000000000000000000000000000000000000000000000000000000600052601160045260246000fd5b6000620002b2826200014e565b9150620002bf836200014e565b9250828201905080821115620002da57620002d962000276565b5b92915050565b610f8880620002f06000396000f3fe6080604052600436106100865760003560e01c8063bcead63e11610059578063bcead63e14610116578063c19d93fb14610141578063c392f7661461016c578063d3927c1514610197578063efbe1c1c146101a157610086565b80630fb5a6b41461008b5780637df1f1b9146100b6578063aa8c217c146100e1578063b60d42881461010c575b600080fd5b34801561009757600080fd5b506100a06101cc565b6040516100ad9190610879565b60405180910390f35b3480156100c257600080fd5b506100cb6101d2565b6040516100d891906108d5565b60405180910390f35b3480156100ed57600080fd5b506100f66101f8565b6040516101039190610879565b60405180910390f35b6101146101fe565b005b34801561012257600080fd5b5061012b61032b565b60405161013891906108d5565b60405180910390f35b34801561014d57600080fd5b50610156610351565b6040516101639190610967565b60405180910390f35b34801561017857600080fd5b50610181610362565b60405161018e9190610879565b60405180910390f35b61019f610368565b005b3480156101ad57600080fd5b506101b66104af565b6040516101c39190610879565b60405180910390f35b60045481565b600560009054906101000a900473ffffffffffffffffffffffffffffffffffffffff1681565b60015481565b600660009054906101000a900473ffffffffffffffffffffffffffffffffffffffff1673ffffffffffffffffffffffffffffffffffffffff163373ffffffffffffffffffffffffffffffffffffffff161461028e576040517f08c379a0000000000000000000000000000000000000000000000000000000008152600401610285906109df565b60405180910390fd5b60015447146102d2576040517f08c379a00000000000000000000000000000000000000000000000000000000081526004016102c990610a4b565b60405180910390fd5b6102dc60016104b5565b610329600154600560009054906101000a900473ffffffffffffffffffffffffffffffffffffffff1673ffffffffffffffffffffffffffffffffffffffff1661076c90919063ffffffff16565b565b600660009054906101000a900473ffffffffffffffffffffffffffffffffffffffff1681565b60008054906101000a900460ff1681565b60025481565b600560009054906101000a900473ffffffffffffffffffffffffffffffffffffffff1673ffffffffffffffffffffffffffffffffffffffff163373ffffffffffffffffffffffffffffffffffffffff16146103f8576040517f08c379a00000000000000000000000000000000000000000000000000000000081526004016103ef90610ab7565b60405180910390fd5b6002546001546104089190610b06565b3414610449576040517f08c379a000000000000000000000000000000000000000000000000000000000815260040161044090610b86565b60405180910390fd5b61045360026104b5565b6104ad6002546001546104669190610b06565b600660009054906101000a900473ffffffffffffffffffffffffffffffffffffffff1673ffffffffffffffffffffffffffffffffffffffff1661076c90919063ffffffff16565b565b60035481565b600060028111156104c9576104c86108f0565b5b8160028111156104dc576104db6108f0565b5b0361051c576040517f08c379a000000000000000000000000000000000000000000000000000000000815260040161051390610bf2565b60405180910390fd5b60008054906101000a900460ff16600281111561053c5761053b6108f0565b5b81600281111561054f5761054e6108f0565b5b0361058f576040517f08c379a000000000000000000000000000000000000000000000000000000000815260040161058690610c5e565b60405180910390fd5b600160028111156105a3576105a26108f0565b5b8160028111156105b6576105b56108f0565b5b0361065a57600060028111156105cf576105ce6108f0565b5b60008054906101000a900460ff1660028111156105ef576105ee6108f0565b5b1461062f576040517f08c379a000000000000000000000000000000000000000000000000000000000815260040161062690610cf0565b60405180910390fd5b60016000806101000a81548160ff02191690836002811115610654576106536108f0565b5b02179055505b60028081111561066d5761066c6108f0565b5b8160028111156106805761067f6108f0565b5b036107695760016002811115610699576106986108f0565b5b60008054906101000a900460ff1660028111156106b9576106b86108f0565b5b146106f9576040517f08c379a00000000000000000000000000000000000000000000000000000000081526004016106f090610d82565b60405180910390fd5b60035442101561073e576040517f08c379a000000000000000000000000000000000000000000000000000000000815260040161073590610dee565b60405180910390fd5b60026000806101000a81548160ff02191690836002811115610763576107626108f0565b5b02179055505b50565b804710156107af576040517f08c379a00000000000000000000000000000000000000000000000000000000081526004016107a690610e5a565b60405180910390fd5b60008273ffffffffffffffffffffffffffffffffffffffff16826040516107d590610eab565b60006040518083038185875af1925050503d8060008114610812576040519150601f19603f3d011682016040523d82523d6000602084013e610817565b606091505b505090508061085b576040517f08c379a000000000000000000000000000000000000000000000000000000000815260040161085290610f32565b60405180910390fd5b505050565b6000819050919050565b61087381610860565b82525050565b600060208201905061088e600083018461086a565b92915050565b600073ffffffffffffffffffffffffffffffffffffffff82169050919050565b60006108bf82610894565b9050919050565b6108cf816108b4565b82525050565b60006020820190506108ea60008301846108c6565b92915050565b7f4e487b7100000000000000000000000000000000000000000000000000000000600052602160045260246000fd5b600381106109305761092f6108f0565b5b50565b60008190506109418261091f565b919050565b600061095182610933565b9050919050565b61096181610946565b82525050565b600060208201905061097c6000830184610958565b92915050565b600082825260208201905092915050565b7f6f6e6c79206c656e646572000000000000000000000000000000000000000000600082015250565b60006109c9600b83610982565b91506109d482610993565b602082019050919050565b600060208201905081810360008301526109f8816109bc565b9050919050565b7f746f6f206d756368206574680000000000000000000000000000000000000000600082015250565b6000610a35600c83610982565b9150610a40826109ff565b602082019050919050565b60006020820190508181036000830152610a6481610a28565b9050919050565b7f6f6e6c7920626f72726f77657200000000000000000000000000000000000000600082015250565b6000610aa1600d83610982565b9150610aac82610a6b565b602082019050919050565b60006020820190508181036000830152610ad081610a94565b9050919050565b7f4e487b7100000000000000000000000000000000000000000000000000000000600052601160045260246000fd5b6000610b1182610860565b9150610b1c83610860565b9250828201905080821115610b3457610b33610ad7565b5b92915050565b7f6e65656420657861637420616d6f756e74202b20696e74657265737400000000600082015250565b6000610b70601c83610982565b9150610b7b82610b3a565b602082019050919050565b60006020820190508181036000830152610b9f81610b63565b9050919050565b7f63616e6e6f7420676f206261636b20746f2070656e64696e6720737461746500600082015250565b6000610bdc601f83610982565b9150610be782610ba6565b602082019050919050565b60006020820190508181036000830152610c0b81610bcf565b9050919050565b7f63616e6e6f74206368616e676520746f2063757272656e742073746174650000600082015250565b6000610c48601e83610982565b9150610c5382610c12565b602082019050919050565b60006020820190508181036000830152610c7781610c3b565b9050919050565b7f63616e206f6e6c79206d6f766520746f206163746976652066726f6d2070656e60008201527f64696e6700000000000000000000000000000000000000000000000000000000602082015250565b6000610cda602483610982565b9150610ce582610c7e565b604082019050919050565b60006020820190508181036000830152610d0981610ccd565b9050919050565b7f63616e206f6e6c79206d6f766520746f20636c6f7365642066726f6d2061637460008201527f6976650000000000000000000000000000000000000000000000000000000000602082015250565b6000610d6c602383610982565b9150610d7782610d10565b604082019050919050565b60006020820190508181036000830152610d9b81610d5f565b9050919050565b7f6c6f616e206861736e74206d6174757265642079657400000000000000000000600082015250565b6000610dd8601683610982565b9150610de382610da2565b602082019050919050565b60006020820190508181036000830152610e0781610dcb565b9050919050565b7f416464726573733a20696e73756666696369656e742062616c616e6365000000600082015250565b6000610e44601d83610982565b9150610e4f82610e0e565b602082019050919050565b60006020820190508181036000830152610e7381610e37565b9050919050565b600081905092915050565b50565b6000610e95600083610e7a565b9150610ea082610e85565b600082019050919050565b6000610eb682610e88565b9150819050919050565b7f416464726573733a20756e61626c6520746f2073656e642076616c75652c207260008201527f6563697069656e74206d61792068617665207265766572746564000000000000602082015250565b6000610f1c603a83610982565b9150610f2782610ec0565b604082019050919050565b60006020820190508181036000830152610f4b81610f0f565b905091905056fea2646970667358221220d55212bcb23762908f8ca007db1fd87d792ae643eddb697517563cc3b38430d164736f6c63430008110033",
  "immutableReferences": {},
  "source": "// SPDX-License-Identifier: MIT\r\npragma solidity 0.8.17;\r\n\r\nimport '@openzeppelin/contracts/utils/Address.sol';\r\n\r\ncontract StateMachine {\r\n  using Address for address payable;\r\n\r\n  /**\r\n    PENDING - Investors are funding\r\n    ACTIVE - \r\n    CLOSED - when maturity is reached\r\n   */\r\n  enum State {\r\n    PENDING,\r\n    ACTIVE,\r\n    CLOSED\r\n  }\r\n\r\n  State public state = State.PENDING;\r\n  uint public amount;\r\n  uint public interest;\r\n  uint public end;\r\n  uint public duration;\r\n  address payable public borrower;\r\n  address payable public lender;\r\n  \r\n  constructor(\r\n    uint _amount,\r\n    uint _interest,\r\n    uint _duration,\r\n    address payable _borrower,\r\n    address payable _lender\r\n  ) {\r\n    amount = _amount;\r\n    interest = _interest;\r\n    duration = _duration;\r\n    end = block.timestamp + _duration;\r\n    borrower = _borrower;\r\n    lender = _lender;\r\n  }\r\n\r\n  function fund() payable external {\r\n    require(msg.sender == lender, 'only lender');\r\n    require(address(this).balance == amount, 'too much eth');\r\n    _transitionTo(State.ACTIVE);\r\n    payable(borrower).sendValue(amount);\r\n  }\r\n\r\n  function reimburse() payable external {\r\n    require(msg.sender == borrower, 'only borrower');\r\n    require(msg.value == amount + interest, 'need exact amount + interest');\r\n    _transitionTo(State.CLOSED);\r\n    payable(lender).sendValue(amount + interest);\r\n  }\r\n\r\n  function _transitionTo(State to) internal {\r\n    require(to != State.PENDING, 'cannot go back to pending state');\r\n    require(to != state, 'cannot change to current state');\r\n    if (to == State.ACTIVE) {\r\n      require(state == State.PENDING, 'can only move to active from pending');\r\n      state = State.ACTIVE;\r\n    }\r\n    if (to == State.CLOSED) {\r\n      require(state == State.ACTIVE, 'can only move to closed from active');\r\n      require(block.timestamp >= end, 'loan hasnt matured yet');\r\n      state = State.CLOSED;\r\n    }\r\n  }\r\n}",
  "sourcePath": "C:\\Development\\Products\\Blockchain\\Dapp30\\Dapp30\\16LoanStateMachine\\contracts\\StateMachine.sol",
  "compiler": {
    "name": "solc",
    "version": "0.8.17+commit.8df45f5f.Emscripten.clang"
  },
  "schemaVersion": "3.4.10",
  "updatedAt": "2022-11-12T19:10:44.152Z",
  "networkType": "ethereum",
  "devdoc": {
    "kind": "dev",
    "methods": {},
    "version": 1
  },
  "userdoc": {
    "kind": "user",
    "methods": {},
    "version": 1
  }
}