{
  "contractName": "SplitPayment",
  "abi": [
    {
      "anonymous": false,
      "inputs": [
        {
          "indexed": true,
          "internalType": "address",
          "name": "previousOwner",
          "type": "address"
        },
        {
          "indexed": true,
          "internalType": "address",
          "name": "newOwner",
          "type": "address"
        }
      ],
      "name": "OwnershipTransferred",
      "type": "event"
    },
    {
      "inputs": [],
      "name": "owner",
      "outputs": [
        {
          "internalType": "address",
          "name": "",
          "type": "address"
        }
      ],
      "stateMutability": "view",
      "type": "function",
      "constant": true
    },
    {
      "inputs": [],
      "name": "renounceOwnership",
      "outputs": [],
      "stateMutability": "nonpayable",
      "type": "function"
    },
    {
      "inputs": [
        {
          "internalType": "address",
          "name": "newOwner",
          "type": "address"
        }
      ],
      "name": "transferOwnership",
      "outputs": [],
      "stateMutability": "nonpayable",
      "type": "function"
    },
    {
      "inputs": [
        {
          "internalType": "address payable[]",
          "name": "_to",
          "type": "address[]"
        },
        {
          "internalType": "uint256[]",
          "name": "_amounts",
          "type": "uint256[]"
        }
      ],
      "name": "send",
      "outputs": [],
      "stateMutability": "payable",
      "type": "function",
      "payable": true
    }
  ],
  "bytecode": "0x608060405234801561001057600080fd5b5061002d61002261003260201b60201c565b61003a60201b60201c565b6100fe565b600033905090565b60008060009054906101000a900473ffffffffffffffffffffffffffffffffffffffff169050816000806101000a81548173ffffffffffffffffffffffffffffffffffffffff021916908373ffffffffffffffffffffffffffffffffffffffff1602179055508173ffffffffffffffffffffffffffffffffffffffff168173ffffffffffffffffffffffffffffffffffffffff167f8be0079c531659141344cd1fd0a4f28419497f9722a3daafe3b4186f6b6457e060405160405180910390a35050565b610c028061010d6000396000f3fe60806040526004361061003f5760003560e01c8063715018a6146100445780638da5cb5b1461005b578063a645ff5f14610086578063f2fde38b146100a2575b600080fd5b34801561005057600080fd5b506100596100cb565b005b34801561006757600080fd5b506100706100df565b60405161007d91906104d7565b60405180910390f35b6100a0600480360381019061009b9190610796565b610108565b005b3480156100ae57600080fd5b506100c960048036038101906100c4919061083a565b6101d5565b005b6100d3610258565b6100dd60006102d6565b565b60008060009054906101000a900473ffffffffffffffffffffffffffffffffffffffff16905090565b610110610258565b8051825114610154576040517f08c379a000000000000000000000000000000000000000000000000000000000815260040161014b906108c4565b60405180910390fd5b60005b82518110156101d0576101bd828281518110610176576101756108e4565b5b6020026020010151848381518110610191576101906108e4565b5b602002602001015173ffffffffffffffffffffffffffffffffffffffff1661039a90919063ffffffff16565b80806101c890610942565b915050610157565b505050565b6101dd610258565b600073ffffffffffffffffffffffffffffffffffffffff168173ffffffffffffffffffffffffffffffffffffffff160361024c576040517f08c379a0000000000000000000000000000000000000000000000000000000008152600401610243906109fc565b60405180910390fd5b610255816102d6565b50565b61026061048e565b73ffffffffffffffffffffffffffffffffffffffff1661027e6100df565b73ffffffffffffffffffffffffffffffffffffffff16146102d4576040517f08c379a00000000000000000000000000000000000000000000000000000000081526004016102cb90610a68565b60405180910390fd5b565b60008060009054906101000a900473ffffffffffffffffffffffffffffffffffffffff169050816000806101000a81548173ffffffffffffffffffffffffffffffffffffffff021916908373ffffffffffffffffffffffffffffffffffffffff1602179055508173ffffffffffffffffffffffffffffffffffffffff168173ffffffffffffffffffffffffffffffffffffffff167f8be0079c531659141344cd1fd0a4f28419497f9722a3daafe3b4186f6b6457e060405160405180910390a35050565b804710156103dd576040517f08c379a00000000000000000000000000000000000000000000000000000000081526004016103d490610ad4565b60405180910390fd5b60008273ffffffffffffffffffffffffffffffffffffffff168260405161040390610b25565b60006040518083038185875af1925050503d8060008114610440576040519150601f19603f3d011682016040523d82523d6000602084013e610445565b606091505b5050905080610489576040517f08c379a000000000000000000000000000000000000000000000000000000000815260040161048090610bac565b60405180910390fd5b505050565b600033905090565b600073ffffffffffffffffffffffffffffffffffffffff82169050919050565b60006104c182610496565b9050919050565b6104d1816104b6565b82525050565b60006020820190506104ec60008301846104c8565b92915050565b6000604051905090565b600080fd5b600080fd5b600080fd5b6000601f19601f8301169050919050565b7f4e487b7100000000000000000000000000000000000000000000000000000000600052604160045260246000fd5b6105548261050b565b810181811067ffffffffffffffff821117156105735761057261051c565b5b80604052505050565b60006105866104f2565b9050610592828261054b565b919050565b600067ffffffffffffffff8211156105b2576105b161051c565b5b602082029050602081019050919050565b600080fd5b60006105d382610496565b9050919050565b6105e3816105c8565b81146105ee57600080fd5b50565b600081359050610600816105da565b92915050565b600061061961061484610597565b61057c565b9050808382526020820190506020840283018581111561063c5761063b6105c3565b5b835b81811015610665578061065188826105f1565b84526020840193505060208101905061063e565b5050509392505050565b600082601f83011261068457610683610506565b5b8135610694848260208601610606565b91505092915050565b600067ffffffffffffffff8211156106b8576106b761051c565b5b602082029050602081019050919050565b6000819050919050565b6106dc816106c9565b81146106e757600080fd5b50565b6000813590506106f9816106d3565b92915050565b600061071261070d8461069d565b61057c565b90508083825260208201905060208402830185811115610735576107346105c3565b5b835b8181101561075e578061074a88826106ea565b845260208401935050602081019050610737565b5050509392505050565b600082601f83011261077d5761077c610506565b5b813561078d8482602086016106ff565b91505092915050565b600080604083850312156107ad576107ac6104fc565b5b600083013567ffffffffffffffff8111156107cb576107ca610501565b5b6107d78582860161066f565b925050602083013567ffffffffffffffff8111156107f8576107f7610501565b5b61080485828601610768565b9150509250929050565b610817816104b6565b811461082257600080fd5b50565b6000813590506108348161080e565b92915050565b6000602082840312156108505761084f6104fc565b5b600061085e84828501610825565b91505092915050565b600082825260208201905092915050565b7f706172616d7320617265206e6f74207468652073616d65206c656e6774680000600082015250565b60006108ae601e83610867565b91506108b982610878565b602082019050919050565b600060208201905081810360008301526108dd816108a1565b9050919050565b7f4e487b7100000000000000000000000000000000000000000000000000000000600052603260045260246000fd5b7f4e487b7100000000000000000000000000000000000000000000000000000000600052601160045260246000fd5b600061094d826106c9565b91507fffffffffffffffffffffffffffffffffffffffffffffffffffffffffffffffff820361097f5761097e610913565b5b600182019050919050565b7f4f776e61626c653a206e6577206f776e657220697320746865207a65726f206160008201527f6464726573730000000000000000000000000000000000000000000000000000602082015250565b60006109e6602683610867565b91506109f18261098a565b604082019050919050565b60006020820190508181036000830152610a15816109d9565b9050919050565b7f4f776e61626c653a2063616c6c6572206973206e6f7420746865206f776e6572600082015250565b6000610a52602083610867565b9150610a5d82610a1c565b602082019050919050565b60006020820190508181036000830152610a8181610a45565b9050919050565b7f416464726573733a20696e73756666696369656e742062616c616e6365000000600082015250565b6000610abe601d83610867565b9150610ac982610a88565b602082019050919050565b60006020820190508181036000830152610aed81610ab1565b9050919050565b600081905092915050565b50565b6000610b0f600083610af4565b9150610b1a82610aff565b600082019050919050565b6000610b3082610b02565b9150819050919050565b7f416464726573733a20756e61626c6520746f2073656e642076616c75652c207260008201527f6563697069656e74206d61792068617665207265766572746564000000000000602082015250565b6000610b96603a83610867565b9150610ba182610b3a565b604082019050919050565b60006020820190508181036000830152610bc581610b89565b905091905056fea26469706673582212206688e7ed66a36e8e9114ab48821d78689b2ebcf4febf91264896e49b518e60b364736f6c63430008110033",
  "immutableReferences": {},
  "source": "// SPDX-License-Identifier: MIT\r\npragma solidity 0.8.17;\r\n\r\nimport \"@openzeppelin/contracts/utils/Address.sol\";\r\nimport \"@openzeppelin/contracts/access/Ownable.sol\";\r\n\r\ncontract SplitPayment is Ownable {\r\n\r\n  using Address for address payable;\r\n\r\n  function send(address payable[] memory _to, uint[] memory _amounts) public payable onlyOwner {\r\n    require(_to.length == _amounts.length, 'params are not the same length');\r\n    for(uint i; i < _to.length; i++) {\r\n      //_to[i].transfer(_amounts[i]);\r\n      payable(_to[i]).sendValue(_amounts[i]);\r\n    }\r\n  } \r\n}",
  "sourcePath": "C:\\Development\\Products\\Blockchain\\Dapp30\\Dapp30\\7SplitPayment\\contracts\\SplitPayment.sol",
  "compiler": {
    "name": "solc",
    "version": "0.8.17+commit.8df45f5f.Emscripten.clang"
  },
  "schemaVersion": "3.4.10",
  "updatedAt": "2022-11-05T12:05:28.890Z",
  "networkType": "ethereum",
  "devdoc": {
    "kind": "dev",
    "methods": {
      "owner()": {
        "details": "Returns the address of the current owner."
      },
      "renounceOwnership()": {
        "details": "Leaves the contract without owner. It will not be possible to call `onlyOwner` functions anymore. Can only be called by the current owner. NOTE: Renouncing ownership will leave the contract without an owner, thereby removing any functionality that is only available to the owner."
      },
      "transferOwnership(address)": {
        "details": "Transfers ownership of the contract to a new account (`newOwner`). Can only be called by the current owner."
      }
    },
    "version": 1
  },
  "userdoc": {
    "kind": "user",
    "methods": {},
    "version": 1
  }
}