{
  "contractName": "EventContract",
  "abi": [
    {
      "anonymous": false,
      "inputs": [
        {
          "indexed": true,
          "internalType": "address",
          "name": "previousOwner",
          "type": "address"
        },
        {
          "indexed": true,
          "internalType": "address",
          "name": "newOwner",
          "type": "address"
        }
      ],
      "name": "OwnershipTransferred",
      "type": "event"
    },
    {
      "inputs": [
        {
          "internalType": "uint256",
          "name": "",
          "type": "uint256"
        }
      ],
      "name": "events",
      "outputs": [
        {
          "internalType": "address",
          "name": "admin",
          "type": "address"
        },
        {
          "internalType": "string",
          "name": "name",
          "type": "string"
        },
        {
          "internalType": "uint256",
          "name": "date",
          "type": "uint256"
        },
        {
          "internalType": "uint256",
          "name": "price",
          "type": "uint256"
        },
        {
          "internalType": "uint256",
          "name": "ticketCount",
          "type": "uint256"
        },
        {
          "internalType": "uint256",
          "name": "ticketRemaining",
          "type": "uint256"
        }
      ],
      "stateMutability": "view",
      "type": "function",
      "constant": true
    },
    {
      "inputs": [],
      "name": "nextId",
      "outputs": [
        {
          "internalType": "uint256",
          "name": "",
          "type": "uint256"
        }
      ],
      "stateMutability": "view",
      "type": "function",
      "constant": true
    },
    {
      "inputs": [],
      "name": "owner",
      "outputs": [
        {
          "internalType": "address",
          "name": "",
          "type": "address"
        }
      ],
      "stateMutability": "view",
      "type": "function",
      "constant": true
    },
    {
      "inputs": [],
      "name": "renounceOwnership",
      "outputs": [],
      "stateMutability": "nonpayable",
      "type": "function"
    },
    {
      "inputs": [
        {
          "internalType": "address",
          "name": "",
          "type": "address"
        },
        {
          "internalType": "uint256",
          "name": "",
          "type": "uint256"
        }
      ],
      "name": "tickets",
      "outputs": [
        {
          "internalType": "uint256",
          "name": "",
          "type": "uint256"
        }
      ],
      "stateMutability": "view",
      "type": "function",
      "constant": true
    },
    {
      "inputs": [
        {
          "internalType": "address",
          "name": "newOwner",
          "type": "address"
        }
      ],
      "name": "transferOwnership",
      "outputs": [],
      "stateMutability": "nonpayable",
      "type": "function"
    },
    {
      "inputs": [
        {
          "internalType": "string",
          "name": "name",
          "type": "string"
        },
        {
          "internalType": "uint256",
          "name": "date",
          "type": "uint256"
        },
        {
          "internalType": "uint256",
          "name": "price",
          "type": "uint256"
        },
        {
          "internalType": "uint256",
          "name": "ticketCount",
          "type": "uint256"
        }
      ],
      "name": "createEvent",
      "outputs": [],
      "stateMutability": "nonpayable",
      "type": "function"
    },
    {
      "inputs": [
        {
          "internalType": "uint256",
          "name": "id",
          "type": "uint256"
        },
        {
          "internalType": "uint256",
          "name": "quantity",
          "type": "uint256"
        }
      ],
      "name": "buyTicket",
      "outputs": [],
      "stateMutability": "payable",
      "type": "function",
      "payable": true
    },
    {
      "inputs": [
        {
          "internalType": "uint256",
          "name": "id",
          "type": "uint256"
        },
        {
          "internalType": "uint256",
          "name": "quantity",
          "type": "uint256"
        },
        {
          "internalType": "address",
          "name": "recipient",
          "type": "address"
        }
      ],
      "name": "transferTicket",
      "outputs": [],
      "stateMutability": "nonpayable",
      "type": "function"
    }
  ],
  "bytecode": "0x608060405234801561001057600080fd5b5061002d61002261003260201b60201c565b61003a60201b60201c565b6100fe565b600033905090565b60008060009054906101000a900473ffffffffffffffffffffffffffffffffffffffff169050816000806101000a81548173ffffffffffffffffffffffffffffffffffffffff021916908373ffffffffffffffffffffffffffffffffffffffff1602179055508173ffffffffffffffffffffffffffffffffffffffff168173ffffffffffffffffffffffffffffffffffffffff167f8be0079c531659141344cd1fd0a4f28419497f9722a3daafe3b4186f6b6457e060405160405180910390a35050565b61173a8061010d6000396000f3fe6080604052600436106100865760003560e01c8063715018a611610059578063715018a61461013d5780638da5cb5b14610154578063dae7a13c1461017f578063f086a09b146101bc578063f2fde38b146101e557610086565b80630374ab0b1461008b5780630b791430146100b4578063298ec208146100f657806361b8ce8c14610112575b600080fd5b34801561009757600080fd5b506100b260048036038101906100ad9190610b85565b61020e565b005b3480156100c057600080fd5b506100db60048036038101906100d69190610c0d565b6103de565b6040516100ed96959493929190610d1a565b60405180910390f35b610110600480360381019061010b9190610d82565b6104c2565b005b34801561011e57600080fd5b50610127610685565b6040516101349190610dc2565b60405180910390f35b34801561014957600080fd5b5061015261068b565b005b34801561016057600080fd5b5061016961069f565b6040516101769190610ddd565b60405180910390f35b34801561018b57600080fd5b506101a660048036038101906101a19190610e24565b6106c8565b6040516101b39190610dc2565b60405180910390f35b3480156101c857600080fd5b506101e360048036038101906101de9190610e64565b6106ed565b005b3480156101f157600080fd5b5061020c60048036038101906102079190610eb7565b610913565b005b610216610996565b428311610258576040517f08c379a000000000000000000000000000000000000000000000000000000000815260040161024f90610f30565b60405180910390fd5b6000811161029b576040517f08c379a000000000000000000000000000000000000000000000000000000000815260040161029290610f9c565b60405180910390fd5b6040518060c001604052803373ffffffffffffffffffffffffffffffffffffffff16815260200186868080601f016020809104026020016040519081016040528093929190818152602001838380828437600081840152601f19601f8201169050808301925050505050505081526020018481526020018381526020018281526020018281525060016000600254815260200190815260200160002060008201518160000160006101000a81548173ffffffffffffffffffffffffffffffffffffffff021916908373ffffffffffffffffffffffffffffffffffffffff160217905550602082015181600101908161039391906111f7565b5060408201518160020155606082015181600301556080820151816004015560a08201518160050155905050600260008154809291906103d2906112f8565b91905055505050505050565b60016020528060005260406000206000915090508060000160009054906101000a900473ffffffffffffffffffffffffffffffffffffffff16908060010180546104279061101a565b80601f01602080910402602001604051908101604052809291908181526020018280546104539061101a565b80156104a05780601f10610475576101008083540402835291602001916104a0565b820191906000526020600020905b81548152906001019060200180831161048357829003601f168201915b5050505050908060020154908060030154908060040154908060050154905086565b60006001600084815260200190815260200160002090506000816004015403610520576040517f08c379a00000000000000000000000000000000000000000000000000000000081526004016105179061138c565b60405180910390fd5b42816002015411610566576040517f08c379a000000000000000000000000000000000000000000000000000000000815260040161055d906113f8565b60405180910390fd5b478282600301546105779190611418565b146105b7576040517f08c379a00000000000000000000000000000000000000000000000000000000081526004016105ae906114a6565b60405180910390fd5b81816005015410156105fe576040517f08c379a00000000000000000000000000000000000000000000000000000000081526004016105f590611512565b60405180910390fd5b818160050160008282546106129190611532565b9250508190555081600360003373ffffffffffffffffffffffffffffffffffffffff1673ffffffffffffffffffffffffffffffffffffffff168152602001908152602001600020600085815260200190815260200160002060008282546106799190611566565b92505081905550505050565b60025481565b610693610996565b61069d6000610a14565b565b60008060009054906101000a900473ffffffffffffffffffffffffffffffffffffffff16905090565b6003602052816000526040600020602052806000526040600020600091509150505481565b6000600160008581526020019081526020016000209050600081600401540361074b576040517f08c379a00000000000000000000000000000000000000000000000000000000081526004016107429061138c565b60405180910390fd5b42816002015411610791576040517f08c379a0000000000000000000000000000000000000000000000000000000008152600401610788906113f8565b60405180910390fd5b82600360003373ffffffffffffffffffffffffffffffffffffffff1673ffffffffffffffffffffffffffffffffffffffff1681526020019081526020016000206000868152602001908152602001600020541015610824576040517f08c379a000000000000000000000000000000000000000000000000000000000815260040161081b906115e6565b60405180910390fd5b828160050160008282546108389190611566565b9250508190555082600360008473ffffffffffffffffffffffffffffffffffffffff1673ffffffffffffffffffffffffffffffffffffffff1681526020019081526020016000206000868152602001908152602001600020600082825461089f9190611566565b9250508190555082600360003373ffffffffffffffffffffffffffffffffffffffff1673ffffffffffffffffffffffffffffffffffffffff168152602001908152602001600020600086815260200190815260200160002060008282546109069190611532565b9250508190555050505050565b61091b610996565b600073ffffffffffffffffffffffffffffffffffffffff168173ffffffffffffffffffffffffffffffffffffffff160361098a576040517f08c379a000000000000000000000000000000000000000000000000000000000815260040161098190611678565b60405180910390fd5b61099381610a14565b50565b61099e610ad8565b73ffffffffffffffffffffffffffffffffffffffff166109bc61069f565b73ffffffffffffffffffffffffffffffffffffffff1614610a12576040517f08c379a0000000000000000000000000000000000000000000000000000000008152600401610a09906116e4565b60405180910390fd5b565b60008060009054906101000a900473ffffffffffffffffffffffffffffffffffffffff169050816000806101000a81548173ffffffffffffffffffffffffffffffffffffffff021916908373ffffffffffffffffffffffffffffffffffffffff1602179055508173ffffffffffffffffffffffffffffffffffffffff168173ffffffffffffffffffffffffffffffffffffffff167f8be0079c531659141344cd1fd0a4f28419497f9722a3daafe3b4186f6b6457e060405160405180910390a35050565b600033905090565b600080fd5b600080fd5b600080fd5b600080fd5b600080fd5b60008083601f840112610b0f57610b0e610aea565b5b8235905067ffffffffffffffff811115610b2c57610b2b610aef565b5b602083019150836001820283011115610b4857610b47610af4565b5b9250929050565b6000819050919050565b610b6281610b4f565b8114610b6d57600080fd5b50565b600081359050610b7f81610b59565b92915050565b600080600080600060808688031215610ba157610ba0610ae0565b5b600086013567ffffffffffffffff811115610bbf57610bbe610ae5565b5b610bcb88828901610af9565b95509550506020610bde88828901610b70565b9350506040610bef88828901610b70565b9250506060610c0088828901610b70565b9150509295509295909350565b600060208284031215610c2357610c22610ae0565b5b6000610c3184828501610b70565b91505092915050565b600073ffffffffffffffffffffffffffffffffffffffff82169050919050565b6000610c6582610c3a565b9050919050565b610c7581610c5a565b82525050565b600081519050919050565b600082825260208201905092915050565b60005b83811015610cb5578082015181840152602081019050610c9a565b60008484015250505050565b6000601f19601f8301169050919050565b6000610cdd82610c7b565b610ce78185610c86565b9350610cf7818560208601610c97565b610d0081610cc1565b840191505092915050565b610d1481610b4f565b82525050565b600060c082019050610d2f6000830189610c6c565b8181036020830152610d418188610cd2565b9050610d506040830187610d0b565b610d5d6060830186610d0b565b610d6a6080830185610d0b565b610d7760a0830184610d0b565b979650505050505050565b60008060408385031215610d9957610d98610ae0565b5b6000610da785828601610b70565b9250506020610db885828601610b70565b9150509250929050565b6000602082019050610dd76000830184610d0b565b92915050565b6000602082019050610df26000830184610c6c565b92915050565b610e0181610c5a565b8114610e0c57600080fd5b50565b600081359050610e1e81610df8565b92915050565b60008060408385031215610e3b57610e3a610ae0565b5b6000610e4985828601610e0f565b9250506020610e5a85828601610b70565b9150509250929050565b600080600060608486031215610e7d57610e7c610ae0565b5b6000610e8b86828701610b70565b9350506020610e9c86828701610b70565b9250506040610ead86828701610e0f565b9150509250925092565b600060208284031215610ecd57610ecc610ae0565b5b6000610edb84828501610e0f565b91505092915050565b7f63616e206f6e6c7920626520696e207468652066757475726500000000000000600082015250565b6000610f1a601983610c86565b9150610f2582610ee4565b602082019050919050565b60006020820190508181036000830152610f4981610f0d565b9050919050565b7f6174206c65617374206f6e65207469636b657420726571756972656400000000600082015250565b6000610f86601c83610c86565b9150610f9182610f50565b602082019050919050565b60006020820190508181036000830152610fb581610f79565b9050919050565b7f4e487b7100000000000000000000000000000000000000000000000000000000600052604160045260246000fd5b7f4e487b7100000000000000000000000000000000000000000000000000000000600052602260045260246000fd5b6000600282049050600182168061103257607f821691505b60208210810361104557611044610feb565b5b50919050565b60008190508160005260206000209050919050565b60006020601f8301049050919050565b600082821b905092915050565b6000600883026110ad7fffffffffffffffffffffffffffffffffffffffffffffffffffffffffffffffff82611070565b6110b78683611070565b95508019841693508086168417925050509392505050565b6000819050919050565b60006110f46110ef6110ea84610b4f565b6110cf565b610b4f565b9050919050565b6000819050919050565b61110e836110d9565b61112261111a826110fb565b84845461107d565b825550505050565b600090565b61113761112a565b611142818484611105565b505050565b5b818110156111665761115b60008261112f565b600181019050611148565b5050565b601f8211156111ab5761117c8161104b565b61118584611060565b81016020851015611194578190505b6111a86111a085611060565b830182611147565b50505b505050565b600082821c905092915050565b60006111ce600019846008026111b0565b1980831691505092915050565b60006111e783836111bd565b9150826002028217905092915050565b61120082610c7b565b67ffffffffffffffff81111561121957611218610fbc565b5b611223825461101a565b61122e82828561116a565b600060209050601f831160018114611261576000841561124f578287015190505b61125985826111db565b8655506112c1565b601f19841661126f8661104b565b60005b8281101561129757848901518255600182019150602085019450602081019050611272565b868310156112b457848901516112b0601f8916826111bd565b8355505b6001600288020188555050505b505050505050565b7f4e487b7100000000000000000000000000000000000000000000000000000000600052601160045260246000fd5b600061130382610b4f565b91507fffffffffffffffffffffffffffffffffffffffffffffffffffffffffffffffff8203611335576113346112c9565b5b600182019050919050565b7f6576656e7420646f6573206e6f74206578697374000000000000000000000000600082015250565b6000611376601483610c86565b915061138182611340565b602082019050919050565b600060208201905081810360008301526113a581611369565b9050919050565b7f6576656e74206e6f742061637469766520616e796d6f72650000000000000000600082015250565b60006113e2601883610c86565b91506113ed826113ac565b602082019050919050565b60006020820190508181036000830152611411816113d5565b9050919050565b600061142382610b4f565b915061142e83610b4f565b925082820261143c81610b4f565b91508282048414831517611453576114526112c9565b5b5092915050565b7f6e6f742065786163742065746800000000000000000000000000000000000000600082015250565b6000611490600d83610c86565b915061149b8261145a565b602082019050919050565b600060208201905081810360008301526114bf81611483565b9050919050565b7f6e6f7420656e6f756768207469636b657473206c656674000000000000000000600082015250565b60006114fc601783610c86565b9150611507826114c6565b602082019050919050565b6000602082019050818103600083015261152b816114ef565b9050919050565b600061153d82610b4f565b915061154883610b4f565b92508282039050818111156115605761155f6112c9565b5b92915050565b600061157182610b4f565b915061157c83610b4f565b9250828201905080821115611594576115936112c9565b5b92915050565b7f6e6f7420656e6f756768207469636b65747320746f2073656c6c000000000000600082015250565b60006115d0601a83610c86565b91506115db8261159a565b602082019050919050565b600060208201905081810360008301526115ff816115c3565b9050919050565b7f4f776e61626c653a206e6577206f776e657220697320746865207a65726f206160008201527f6464726573730000000000000000000000000000000000000000000000000000602082015250565b6000611662602683610c86565b915061166d82611606565b604082019050919050565b6000602082019050818103600083015261169181611655565b9050919050565b7f4f776e61626c653a2063616c6c6572206973206e6f7420746865206f776e6572600082015250565b60006116ce602083610c86565b91506116d982611698565b602082019050919050565b600060208201905081810360008301526116fd816116c1565b905091905056fea2646970667358221220faded031a41e406428ac6c852cc8c219bab33d54b3075af554f42dfd4bfd598164736f6c63430008110033",
  "immutableReferences": {},
  "source": "// SPDX-License-Identifier: MIT\r\npragma solidity 0.8.17;\r\n\r\nimport '@openzeppelin/contracts/utils/Address.sol';\r\nimport '@openzeppelin/contracts/access/Ownable.sol';\r\n\r\ncontract EventContract is Ownable {\r\n  \r\n  struct Event {\r\n    address admin;\r\n    string name;\r\n    uint date;\r\n    uint price;\r\n    uint ticketCount;\r\n    uint ticketRemaining;\r\n  }\r\n\r\n  mapping(uint => Event) public events;\r\n  uint public nextId;\r\n  // customer ==> eventID ==> number of tickets\r\n  mapping(address => mapping(uint => uint)) public tickets;\r\n\r\n  function createEvent(\r\n    string calldata name,\r\n    uint date,\r\n    uint price,\r\n    uint ticketCount\r\n  ) external onlyOwner {\r\n    require(date > block.timestamp, 'can only be in the future');\r\n    require(ticketCount > 0, 'at least one ticket required');\r\n    events[nextId] = Event(\r\n      msg.sender,\r\n      name,\r\n      date,\r\n      price,\r\n      ticketCount,\r\n      ticketCount\r\n    );\r\n    nextId++;\r\n  }\r\n\r\n  function buyTicket(uint id, uint quantity) external payable {\r\n    Event storage _event = events[id];\r\n    require(_event.ticketCount != 0, 'event does not exist');\r\n    require(_event.date > block.timestamp, 'event not active anymore');\r\n    require(_event.price * quantity == address(this).balance, 'not exact eth');\r\n    require(_event.ticketRemaining >= quantity, 'not enough tickets left');\r\n    _event.ticketRemaining -= quantity;\r\n    tickets[msg.sender][id] += quantity;\r\n  }\r\n\r\n  /// another smart contract must handle the transfer of eth\r\n  function transferTicket(uint id, uint quantity, address recipient) external {\r\n    Event storage _event = events[id];\r\n    require(_event.ticketCount != 0, 'event does not exist');\r\n    require(_event.date > block.timestamp, 'event not active anymore');\r\n    require(tickets[msg.sender][id] >= quantity, 'not enough tickets to sell');\r\n\r\n    _event.ticketRemaining += quantity;\r\n    tickets[recipient][id] += quantity;\r\n    tickets[msg.sender][id] -= quantity;\r\n  }\r\n\r\n}",
  "sourcePath": "C:\\Development\\Products\\Blockchain\\Dapp30\\Dapp30\\17EventOrganization\\contracts\\EventContract.sol",
  "compiler": {
    "name": "solc",
    "version": "0.8.17+commit.8df45f5f.Emscripten.clang"
  },
  "schemaVersion": "3.4.10",
  "updatedAt": "2022-11-13T05:41:16.333Z",
  "networkType": "ethereum",
  "devdoc": {
    "kind": "dev",
    "methods": {
      "owner()": {
        "details": "Returns the address of the current owner."
      },
      "renounceOwnership()": {
        "details": "Leaves the contract without owner. It will not be possible to call `onlyOwner` functions anymore. Can only be called by the current owner. NOTE: Renouncing ownership will leave the contract without an owner, thereby removing any functionality that is only available to the owner."
      },
      "transferOwnership(address)": {
        "details": "Transfers ownership of the contract to a new account (`newOwner`). Can only be called by the current owner."
      }
    },
    "version": 1
  },
  "userdoc": {
    "kind": "user",
    "methods": {
      "transferTicket(uint256,uint256,address)": {
        "notice": "another smart contract must handle the transfer of eth"
      }
    },
    "version": 1
  }
}