{
  "contractName": "EtherWallet",
  "abi": [
    {
      "anonymous": false,
      "inputs": [
        {
          "indexed": true,
          "internalType": "address",
          "name": "previousOwner",
          "type": "address"
        },
        {
          "indexed": true,
          "internalType": "address",
          "name": "newOwner",
          "type": "address"
        }
      ],
      "name": "OwnershipTransferred",
      "type": "event"
    },
    {
      "inputs": [],
      "name": "owner",
      "outputs": [
        {
          "internalType": "address",
          "name": "",
          "type": "address"
        }
      ],
      "stateMutability": "view",
      "type": "function",
      "constant": true
    },
    {
      "inputs": [],
      "name": "renounceOwnership",
      "outputs": [],
      "stateMutability": "nonpayable",
      "type": "function"
    },
    {
      "inputs": [
        {
          "internalType": "address",
          "name": "newOwner",
          "type": "address"
        }
      ],
      "name": "transferOwnership",
      "outputs": [],
      "stateMutability": "nonpayable",
      "type": "function"
    },
    {
      "inputs": [],
      "name": "deposit",
      "outputs": [],
      "stateMutability": "payable",
      "type": "function",
      "payable": true
    },
    {
      "inputs": [
        {
          "internalType": "address payable",
          "name": "_recipient",
          "type": "address"
        },
        {
          "internalType": "uint256",
          "name": "_amount",
          "type": "uint256"
        }
      ],
      "name": "send",
      "outputs": [],
      "stateMutability": "nonpayable",
      "type": "function"
    },
    {
      "inputs": [],
      "name": "balanceOf",
      "outputs": [
        {
          "internalType": "uint256",
          "name": "",
          "type": "uint256"
        }
      ],
      "stateMutability": "view",
      "type": "function",
      "constant": true
    }
  ],
  "bytecode": "0x608060405234801561001057600080fd5b5061002d61002261003260201b60201c565b61003a60201b60201c565b6100fe565b600033905090565b60008060009054906101000a900473ffffffffffffffffffffffffffffffffffffffff169050816000806101000a81548173ffffffffffffffffffffffffffffffffffffffff021916908373ffffffffffffffffffffffffffffffffffffffff1602179055508173ffffffffffffffffffffffffffffffffffffffff168173ffffffffffffffffffffffffffffffffffffffff167f8be0079c531659141344cd1fd0a4f28419497f9722a3daafe3b4186f6b6457e060405160405180910390a35050565b6108818061010d6000396000f3fe6080604052600436106100555760003560e01c8063715018a61461005a578063722713f7146100715780638da5cb5b1461009c578063d0679d34146100c7578063d0e30db0146100f0578063f2fde38b146100fa575b600080fd5b34801561006657600080fd5b5061006f610123565b005b34801561007d57600080fd5b50610086610137565b6040516100939190610479565b60405180910390f35b3480156100a857600080fd5b506100b161013f565b6040516100be91906104d5565b60405180910390f35b3480156100d357600080fd5b506100ee60048036038101906100e9919061055f565b610168565b005b6100f861019d565b005b34801561010657600080fd5b50610121600480360381019061011c91906105cb565b61019f565b005b61012b610222565b61013560006102a0565b565b600047905090565b60008060009054906101000a900473ffffffffffffffffffffffffffffffffffffffff16905090565b610170610222565b610199818373ffffffffffffffffffffffffffffffffffffffff1661036490919063ffffffff16565b5050565b565b6101a7610222565b600073ffffffffffffffffffffffffffffffffffffffff168173ffffffffffffffffffffffffffffffffffffffff1603610216576040517f08c379a000000000000000000000000000000000000000000000000000000000815260040161020d9061067b565b60405180910390fd5b61021f816102a0565b50565b61022a610458565b73ffffffffffffffffffffffffffffffffffffffff1661024861013f565b73ffffffffffffffffffffffffffffffffffffffff161461029e576040517f08c379a0000000000000000000000000000000000000000000000000000000008152600401610295906106e7565b60405180910390fd5b565b60008060009054906101000a900473ffffffffffffffffffffffffffffffffffffffff169050816000806101000a81548173ffffffffffffffffffffffffffffffffffffffff021916908373ffffffffffffffffffffffffffffffffffffffff1602179055508173ffffffffffffffffffffffffffffffffffffffff168173ffffffffffffffffffffffffffffffffffffffff167f8be0079c531659141344cd1fd0a4f28419497f9722a3daafe3b4186f6b6457e060405160405180910390a35050565b804710156103a7576040517f08c379a000000000000000000000000000000000000000000000000000000000815260040161039e90610753565b60405180910390fd5b60008273ffffffffffffffffffffffffffffffffffffffff16826040516103cd906107a4565b60006040518083038185875af1925050503d806000811461040a576040519150601f19603f3d011682016040523d82523d6000602084013e61040f565b606091505b5050905080610453576040517f08c379a000000000000000000000000000000000000000000000000000000000815260040161044a9061082b565b60405180910390fd5b505050565b600033905090565b6000819050919050565b61047381610460565b82525050565b600060208201905061048e600083018461046a565b92915050565b600073ffffffffffffffffffffffffffffffffffffffff82169050919050565b60006104bf82610494565b9050919050565b6104cf816104b4565b82525050565b60006020820190506104ea60008301846104c6565b92915050565b600080fd5b600061050082610494565b9050919050565b610510816104f5565b811461051b57600080fd5b50565b60008135905061052d81610507565b92915050565b61053c81610460565b811461054757600080fd5b50565b60008135905061055981610533565b92915050565b60008060408385031215610576576105756104f0565b5b60006105848582860161051e565b92505060206105958582860161054a565b9150509250929050565b6105a8816104b4565b81146105b357600080fd5b50565b6000813590506105c58161059f565b92915050565b6000602082840312156105e1576105e06104f0565b5b60006105ef848285016105b6565b91505092915050565b600082825260208201905092915050565b7f4f776e61626c653a206e6577206f776e657220697320746865207a65726f206160008201527f6464726573730000000000000000000000000000000000000000000000000000602082015250565b60006106656026836105f8565b915061067082610609565b604082019050919050565b6000602082019050818103600083015261069481610658565b9050919050565b7f4f776e61626c653a2063616c6c6572206973206e6f7420746865206f776e6572600082015250565b60006106d16020836105f8565b91506106dc8261069b565b602082019050919050565b60006020820190508181036000830152610700816106c4565b9050919050565b7f416464726573733a20696e73756666696369656e742062616c616e6365000000600082015250565b600061073d601d836105f8565b915061074882610707565b602082019050919050565b6000602082019050818103600083015261076c81610730565b9050919050565b600081905092915050565b50565b600061078e600083610773565b91506107998261077e565b600082019050919050565b60006107af82610781565b9150819050919050565b7f416464726573733a20756e61626c6520746f2073656e642076616c75652c207260008201527f6563697069656e74206d61792068617665207265766572746564000000000000602082015250565b6000610815603a836105f8565b9150610820826107b9565b604082019050919050565b6000602082019050818103600083015261084481610808565b905091905056fea26469706673582212207528c13ab2d4efe524fc1d4afa52640cd1a6c547c0291be1a1346020d5a8bec064736f6c63430008110033",
  "immutableReferences": {},
  "source": "// SPDX-License-Identifier: MIT\r\npragma solidity 0.8.17;\r\n\r\nimport \"@openzeppelin/contracts/utils/Address.sol\";\r\nimport \"@openzeppelin/contracts/access/Ownable.sol\";\r\n\r\ncontract EtherWallet is Ownable {\r\n\r\n  using Address for address payable;\r\n\r\n  function deposit() payable public {\r\n\r\n  }\r\n\r\n  function send(address payable _recipient, uint256 _amount) public onlyOwner {\r\n    //_recipient.transfer(_amount);\r\n    payable(_recipient).sendValue(_amount);\r\n  }\r\n\r\n  function balanceOf() view public returns(uint256) {\r\n    return address(this).balance;\r\n  }\r\n}",
  "sourcePath": "C:\\Development\\Products\\Blockchain\\Dapp30\\Dapp30\\6EtherWallet\\contracts\\EtherWallet.sol",
  "compiler": {
    "name": "solc",
    "version": "0.8.17+commit.8df45f5f.Emscripten.clang"
  },
  "schemaVersion": "3.4.10",
  "updatedAt": "2022-11-04T20:20:35.024Z",
  "networkType": "ethereum",
  "devdoc": {
    "kind": "dev",
    "methods": {
      "owner()": {
        "details": "Returns the address of the current owner."
      },
      "renounceOwnership()": {
        "details": "Leaves the contract without owner. It will not be possible to call `onlyOwner` functions anymore. Can only be called by the current owner. NOTE: Renouncing ownership will leave the contract without an owner, thereby removing any functionality that is only available to the owner."
      },
      "transferOwnership(address)": {
        "details": "Transfers ownership of the contract to a new account (`newOwner`). Can only be called by the current owner."
      }
    },
    "version": 1
  },
  "userdoc": {
    "kind": "user",
    "methods": {},
    "version": 1
  }
}