{
  "contractName": "Strings",
  "abi": [
    {
      "inputs": [
        {
          "internalType": "string",
          "name": "str",
          "type": "string"
        }
      ],
      "name": "length",
      "outputs": [
        {
          "internalType": "uint256",
          "name": "",
          "type": "uint256"
        }
      ],
      "stateMutability": "pure",
      "type": "function",
      "constant": true
    },
    {
      "inputs": [
        {
          "internalType": "string",
          "name": "str1",
          "type": "string"
        },
        {
          "internalType": "string",
          "name": "str2",
          "type": "string"
        }
      ],
      "name": "concatenate",
      "outputs": [
        {
          "internalType": "string",
          "name": "",
          "type": "string"
        }
      ],
      "stateMutability": "pure",
      "type": "function",
      "constant": true
    }
  ],
  "bytecode": "0x608060405234801561001057600080fd5b50610645806100206000396000f3fe608060405234801561001057600080fd5b50600436106100365760003560e01c8063266001d31461003b578063436a66e71461006b575b600080fd5b6100556004803603810190610050919061039f565b61009b565b6040516100629190610496565b60405180910390f35b610085600480360381019061008091906104b8565b610235565b604051610092919061051a565b60405180910390f35b6060600083905060008390506000815183516100b79190610564565b67ffffffffffffffff8111156100d0576100cf610274565b5b6040519080825280601f01601f1916602001820160405280156101025781602001600182028036833780820191505090505b50905060008190506000805b85518110156101985785818151811061012a57610129610598565b5b602001015160f81c60f81b83838151811061014857610147610598565b5b60200101907effffffffffffffffffffffffffffffffffffffffffffffffffffffffffffff1916908160001a9053508180610182906105c7565b9250508080610190906105c7565b91505061010e565b5060005b8451811015610226578481815181106101b8576101b7610598565b5b602001015160f81c60f81b8383815181106101d6576101d5610598565b5b60200101907effffffffffffffffffffffffffffffffffffffffffffffffffffffffffffff1916908160001a9053508180610210906105c7565b925050808061021e906105c7565b91505061019c565b50819550505050505092915050565b6000808290508051915050919050565b6000604051905090565b600080fd5b600080fd5b600080fd5b600080fd5b6000601f19601f8301169050919050565b7f4e487b7100000000000000000000000000000000000000000000000000000000600052604160045260246000fd5b6102ac82610263565b810181811067ffffffffffffffff821117156102cb576102ca610274565b5b80604052505050565b60006102de610245565b90506102ea82826102a3565b919050565b600067ffffffffffffffff82111561030a57610309610274565b5b61031382610263565b9050602081019050919050565b82818337600083830152505050565b600061034261033d846102ef565b6102d4565b90508281526020810184848401111561035e5761035d61025e565b5b610369848285610320565b509392505050565b600082601f83011261038657610385610259565b5b813561039684826020860161032f565b91505092915050565b600080604083850312156103b6576103b561024f565b5b600083013567ffffffffffffffff8111156103d4576103d3610254565b5b6103e085828601610371565b925050602083013567ffffffffffffffff81111561040157610400610254565b5b61040d85828601610371565b9150509250929050565b600081519050919050565b600082825260208201905092915050565b60005b83811015610451578082015181840152602081019050610436565b60008484015250505050565b600061046882610417565b6104728185610422565b9350610482818560208601610433565b61048b81610263565b840191505092915050565b600060208201905081810360008301526104b0818461045d565b905092915050565b6000602082840312156104ce576104cd61024f565b5b600082013567ffffffffffffffff8111156104ec576104eb610254565b5b6104f884828501610371565b91505092915050565b6000819050919050565b61051481610501565b82525050565b600060208201905061052f600083018461050b565b92915050565b7f4e487b7100000000000000000000000000000000000000000000000000000000600052601160045260246000fd5b600061056f82610501565b915061057a83610501565b925082820190508082111561059257610591610535565b5b92915050565b7f4e487b7100000000000000000000000000000000000000000000000000000000600052603260045260246000fd5b60006105d282610501565b91507fffffffffffffffffffffffffffffffffffffffffffffffffffffffffffffffff820361060457610603610535565b5b60018201905091905056fea26469706673582212206a0030117d0c021d705e7c624f68460b3034f68fbc7b9194fbf8e16a1e9afc7564736f6c63430008110033",
  "immutableReferences": {},
  "source": "// SPDX-License-Identifier: MIT\r\npragma solidity 0.8.17;\r\n\r\ncontract Strings {\r\n\r\n  function length(string memory str) pure public returns(uint) {\r\n    bytes memory str_bytes = bytes(str);\r\n    return str_bytes.length;\r\n  }\r\n\r\n  function concatenate(string memory str1, string memory str2) pure public returns(string memory) {\r\n    bytes memory str1_bytes = bytes(str1);\r\n    bytes memory str2_bytes = bytes(str2);\r\n\r\n    string memory str = new string(str1_bytes.length + str2_bytes.length);\r\n    bytes memory str_bytes = bytes(str);\r\n\r\n    uint j = 0;\r\n    for(uint i = 0; i < str1_bytes.length; i++) {\r\n      str_bytes[j] = str1_bytes[i];\r\n      j++;\r\n    }\r\n    for(uint i = 0; i < str2_bytes.length; i++) {\r\n      str_bytes[j] = str2_bytes[i];\r\n      j++;\r\n    }\r\n\r\n    return string(str_bytes);\r\n  }\r\n}",
  "sourcePath": "C:\\Development\\Products\\Blockchain\\Dapp30\\Dapp30\\11StringManipulation\\contracts\\Strings.sol",
  "compiler": {
    "name": "solc",
    "version": "0.8.17+commit.8df45f5f.Emscripten.clang"
  },
  "schemaVersion": "3.4.10",
  "updatedAt": "2022-11-06T10:36:25.321Z",
  "networkType": "ethereum",
  "devdoc": {
    "kind": "dev",
    "methods": {},
    "version": 1
  },
  "userdoc": {
    "kind": "user",
    "methods": {},
    "version": 1
  }
}