{
  "contractName": "Escrow",
  "abi": [
    {
      "inputs": [
        {
          "internalType": "address",
          "name": "_payer",
          "type": "address"
        },
        {
          "internalType": "address payable",
          "name": "_payee",
          "type": "address"
        },
        {
          "internalType": "uint256",
          "name": "_amount",
          "type": "uint256"
        }
      ],
      "stateMutability": "nonpayable",
      "type": "constructor"
    },
    {
      "inputs": [],
      "name": "amount",
      "outputs": [
        {
          "internalType": "uint256",
          "name": "",
          "type": "uint256"
        }
      ],
      "stateMutability": "view",
      "type": "function",
      "constant": true
    },
    {
      "inputs": [],
      "name": "lawyer",
      "outputs": [
        {
          "internalType": "address",
          "name": "",
          "type": "address"
        }
      ],
      "stateMutability": "view",
      "type": "function",
      "constant": true
    },
    {
      "inputs": [],
      "name": "payee",
      "outputs": [
        {
          "internalType": "address payable",
          "name": "",
          "type": "address"
        }
      ],
      "stateMutability": "view",
      "type": "function",
      "constant": true
    },
    {
      "inputs": [],
      "name": "payer",
      "outputs": [
        {
          "internalType": "address",
          "name": "",
          "type": "address"
        }
      ],
      "stateMutability": "view",
      "type": "function",
      "constant": true
    },
    {
      "inputs": [],
      "name": "deposit",
      "outputs": [],
      "stateMutability": "payable",
      "type": "function",
      "payable": true
    },
    {
      "inputs": [],
      "name": "release",
      "outputs": [],
      "stateMutability": "nonpayable",
      "type": "function"
    },
    {
      "inputs": [],
      "name": "balanceOf",
      "outputs": [
        {
          "internalType": "uint256",
          "name": "",
          "type": "uint256"
        }
      ],
      "stateMutability": "view",
      "type": "function",
      "constant": true
    }
  ],
  "bytecode": "0x60806040523480156200001157600080fd5b5060405162000b3b38038062000b3b8339818101604052810190620000379190620001f3565b826000806101000a81548173ffffffffffffffffffffffffffffffffffffffff021916908373ffffffffffffffffffffffffffffffffffffffff16021790555081600160006101000a81548173ffffffffffffffffffffffffffffffffffffffff021916908373ffffffffffffffffffffffffffffffffffffffff1602179055508060038190555033600260006101000a81548173ffffffffffffffffffffffffffffffffffffffff021916908373ffffffffffffffffffffffffffffffffffffffff1602179055505050506200024f565b600080fd5b600073ffffffffffffffffffffffffffffffffffffffff82169050919050565b60006200013b826200010e565b9050919050565b6200014d816200012e565b81146200015957600080fd5b50565b6000815190506200016d8162000142565b92915050565b600062000180826200010e565b9050919050565b620001928162000173565b81146200019e57600080fd5b50565b600081519050620001b28162000187565b92915050565b6000819050919050565b620001cd81620001b8565b8114620001d957600080fd5b50565b600081519050620001ed81620001c2565b92915050565b6000806000606084860312156200020f576200020e62000109565b5b60006200021f868287016200015c565b93505060206200023286828701620001a1565b92505060406200024586828701620001dc565b9150509250925092565b6108dc806200025f6000396000f3fe6080604052600436106100705760003560e01c806386d1a69f1161004e57806386d1a69f146100f6578063aa8c217c1461010d578063ae90b21314610138578063d0e30db01461016357610070565b8063123119cd146100755780633bfb6e31146100a0578063722713f7146100cb575b600080fd5b34801561008157600080fd5b5061008a61016d565b6040516100979190610516565b60405180910390f35b3480156100ac57600080fd5b506100b5610191565b6040516100c29190610516565b60405180910390f35b3480156100d757600080fd5b506100e06101b7565b6040516100ed919061054a565b60405180910390f35b34801561010257600080fd5b5061010b6101bf565b005b34801561011957600080fd5b506101226102e0565b60405161012f919061054a565b60405180910390f35b34801561014457600080fd5b5061014d6102e6565b60405161015a9190610586565b60405180910390f35b61016b61030c565b005b60008054906101000a900473ffffffffffffffffffffffffffffffffffffffff1681565b600260009054906101000a900473ffffffffffffffffffffffffffffffffffffffff1681565b600047905090565b6003544714610203576040517f08c379a00000000000000000000000000000000000000000000000000000000081526004016101fa906105fe565b60405180910390fd5b600260009054906101000a900473ffffffffffffffffffffffffffffffffffffffff1673ffffffffffffffffffffffffffffffffffffffff163373ffffffffffffffffffffffffffffffffffffffff1614610293576040517f08c379a000000000000000000000000000000000000000000000000000000000815260040161028a9061066a565b60405180910390fd5b6102de47600160009054906101000a900473ffffffffffffffffffffffffffffffffffffffff1673ffffffffffffffffffffffffffffffffffffffff166103e190919063ffffffff16565b565b60035481565b600160009054906101000a900473ffffffffffffffffffffffffffffffffffffffff1681565b60008054906101000a900473ffffffffffffffffffffffffffffffffffffffff1673ffffffffffffffffffffffffffffffffffffffff163373ffffffffffffffffffffffffffffffffffffffff161461039a576040517f08c379a0000000000000000000000000000000000000000000000000000000008152600401610391906106d6565b60405180910390fd5b6003544711156103df576040517f08c379a00000000000000000000000000000000000000000000000000000000081526004016103d690610742565b60405180910390fd5b565b80471015610424576040517f08c379a000000000000000000000000000000000000000000000000000000000815260040161041b906107ae565b60405180910390fd5b60008273ffffffffffffffffffffffffffffffffffffffff168260405161044a906107ff565b60006040518083038185875af1925050503d8060008114610487576040519150601f19603f3d011682016040523d82523d6000602084013e61048c565b606091505b50509050806104d0576040517f08c379a00000000000000000000000000000000000000000000000000000000081526004016104c790610886565b60405180910390fd5b505050565b600073ffffffffffffffffffffffffffffffffffffffff82169050919050565b6000610500826104d5565b9050919050565b610510816104f5565b82525050565b600060208201905061052b6000830184610507565b92915050565b6000819050919050565b61054481610531565b82525050565b600060208201905061055f600083018461053b565b92915050565b6000610570826104d5565b9050919050565b61058081610565565b82525050565b600060208201905061059b6000830184610577565b92915050565b600082825260208201905092915050565b7f6e6f7420656e6f7567682066756e647300000000000000000000000000000000600082015250565b60006105e86010836105a1565b91506105f3826105b2565b602082019050919050565b60006020820190508181036000830152610617816105db565b9050919050565b7f6f6e6c79206c6177657200000000000000000000000000000000000000000000600082015250565b6000610654600a836105a1565b915061065f8261061e565b602082019050919050565b6000602082019050818103600083015261068381610647565b9050919050565b7f6f6e6c7920706179657200000000000000000000000000000000000000000000600082015250565b60006106c0600a836105a1565b91506106cb8261068a565b602082019050919050565b600060208201905081810360008301526106ef816106b3565b9050919050565b7f746f6f206d756368206574686572000000000000000000000000000000000000600082015250565b600061072c600e836105a1565b9150610737826106f6565b602082019050919050565b6000602082019050818103600083015261075b8161071f565b9050919050565b7f416464726573733a20696e73756666696369656e742062616c616e6365000000600082015250565b6000610798601d836105a1565b91506107a382610762565b602082019050919050565b600060208201905081810360008301526107c78161078b565b9050919050565b600081905092915050565b50565b60006107e96000836107ce565b91506107f4826107d9565b600082019050919050565b600061080a826107dc565b9150819050919050565b7f416464726573733a20756e61626c6520746f2073656e642076616c75652c207260008201527f6563697069656e74206d61792068617665207265766572746564000000000000602082015250565b6000610870603a836105a1565b915061087b82610814565b604082019050919050565b6000602082019050818103600083015261089f81610863565b905091905056fea2646970667358221220b7168a1049f51fb573b3ebb5c6aa9b78cdddeb0637f764e1bb909858c3727c5764736f6c63430008110033",
  "immutableReferences": {},
  "source": "// SPDX-License-Identifier: MIT\r\npragma solidity 0.8.17;\r\n\r\nimport \"@openzeppelin/contracts/utils/Address.sol\";\r\n\r\ncontract Escrow {\r\n\r\n  using Address for address payable;\r\n\r\n  address public payer;\r\n  address payable public payee;\r\n  address public lawyer;\r\n  uint public amount;\r\n\r\n  constructor(address _payer, address payable _payee, uint _amount) {\r\n    payer = _payer;\r\n    payee = _payee;\r\n    amount = _amount;\r\n    lawyer = msg.sender;\r\n  }\r\n\r\n  function deposit() payable public {\r\n    require(msg.sender == payer, 'only payer');\r\n    require(address(this).balance <= amount, 'too much ether');\r\n  }\r\n\r\n  function release() public {\r\n    require(address(this).balance == amount, 'not enough funds');\r\n    require(msg.sender == lawyer, 'only lawer');\r\n    payable(payee).sendValue(address(this).balance);\r\n  }\r\n\r\n  function balanceOf() view public returns(uint256) {\r\n    return address(this).balance;\r\n  }\r\n}",
  "sourcePath": "C:\\Development\\Products\\Blockchain\\Dapp30\\Dapp30\\10Escrow\\contracts\\Escrow.sol",
  "compiler": {
    "name": "solc",
    "version": "0.8.17+commit.8df45f5f.Emscripten.clang"
  },
  "schemaVersion": "3.4.10",
  "updatedAt": "2022-11-06T09:28:53.959Z",
  "networkType": "ethereum",
  "devdoc": {
    "kind": "dev",
    "methods": {},
    "version": 1
  },
  "userdoc": {
    "kind": "user",
    "methods": {},
    "version": 1
  }
}