{
  "contractName": "Lottery",
  "abi": [
    {
      "inputs": [
        {
          "internalType": "uint256",
          "name": "fee",
          "type": "uint256"
        }
      ],
      "stateMutability": "nonpayable",
      "type": "constructor"
    },
    {
      "anonymous": false,
      "inputs": [
        {
          "indexed": true,
          "internalType": "address",
          "name": "previousOwner",
          "type": "address"
        },
        {
          "indexed": true,
          "internalType": "address",
          "name": "newOwner",
          "type": "address"
        }
      ],
      "name": "OwnershipTransferred",
      "type": "event"
    },
    {
      "inputs": [],
      "name": "currentState",
      "outputs": [
        {
          "internalType": "enum Lottery.State",
          "name": "",
          "type": "uint8"
        }
      ],
      "stateMutability": "view",
      "type": "function",
      "constant": true
    },
    {
      "inputs": [],
      "name": "houseFee",
      "outputs": [
        {
          "internalType": "uint256",
          "name": "",
          "type": "uint256"
        }
      ],
      "stateMutability": "view",
      "type": "function",
      "constant": true
    },
    {
      "inputs": [],
      "name": "owner",
      "outputs": [
        {
          "internalType": "address",
          "name": "",
          "type": "address"
        }
      ],
      "stateMutability": "view",
      "type": "function",
      "constant": true
    },
    {
      "inputs": [
        {
          "internalType": "uint256",
          "name": "",
          "type": "uint256"
        }
      ],
      "name": "players",
      "outputs": [
        {
          "internalType": "address payable",
          "name": "",
          "type": "address"
        }
      ],
      "stateMutability": "view",
      "type": "function",
      "constant": true
    },
    {
      "inputs": [],
      "name": "renounceOwnership",
      "outputs": [],
      "stateMutability": "nonpayable",
      "type": "function"
    },
    {
      "inputs": [],
      "name": "requiredParticipants",
      "outputs": [
        {
          "internalType": "uint256",
          "name": "",
          "type": "uint256"
        }
      ],
      "stateMutability": "view",
      "type": "function",
      "constant": true
    },
    {
      "inputs": [],
      "name": "requiredPrice",
      "outputs": [
        {
          "internalType": "uint256",
          "name": "",
          "type": "uint256"
        }
      ],
      "stateMutability": "view",
      "type": "function",
      "constant": true
    },
    {
      "inputs": [
        {
          "internalType": "address",
          "name": "newOwner",
          "type": "address"
        }
      ],
      "name": "transferOwnership",
      "outputs": [],
      "stateMutability": "nonpayable",
      "type": "function"
    },
    {
      "inputs": [
        {
          "internalType": "uint256",
          "name": "nParticipants",
          "type": "uint256"
        },
        {
          "internalType": "uint256",
          "name": "price",
          "type": "uint256"
        }
      ],
      "name": "createBet",
      "outputs": [],
      "stateMutability": "payable",
      "type": "function",
      "payable": true
    },
    {
      "inputs": [],
      "name": "bet",
      "outputs": [],
      "stateMutability": "payable",
      "type": "function",
      "payable": true
    },
    {
      "inputs": [],
      "name": "cancel",
      "outputs": [],
      "stateMutability": "nonpayable",
      "type": "function"
    }
  ],
  "bytecode": "0x608060405260008060146101000a81548160ff021916908360018111156200002c576200002b620001b1565b5b02179055503480156200003e57600080fd5b50604051620014e4380380620014e4833981810160405281019062000064919062000220565b6200008462000078620000e560201b60201c565b620000ed60201b60201c565b600181118015620000955750606381105b620000d7576040517f08c379a0000000000000000000000000000000000000000000000000000000008152600401620000ce90620002b3565b60405180910390fd5b8060048190555050620002d5565b600033905090565b60008060009054906101000a900473ffffffffffffffffffffffffffffffffffffffff169050816000806101000a81548173ffffffffffffffffffffffffffffffffffffffff021916908373ffffffffffffffffffffffffffffffffffffffff1602179055508173ffffffffffffffffffffffffffffffffffffffff168173ffffffffffffffffffffffffffffffffffffffff167f8be0079c531659141344cd1fd0a4f28419497f9722a3daafe3b4186f6b6457e060405160405180910390a35050565b7f4e487b7100000000000000000000000000000000000000000000000000000000600052602160045260246000fd5b600080fd5b6000819050919050565b620001fa81620001e5565b81146200020657600080fd5b50565b6000815190506200021a81620001ef565b92915050565b600060208284031215620002395762000238620001e0565b5b6000620002498482850162000209565b91505092915050565b600082825260208201905092915050565b7f666565206265747765656e203120616e64203939000000000000000000000000600082015250565b60006200029b60148362000252565b9150620002a88262000263565b602082019050919050565b60006020820190508181036000830152620002ce816200028c565b9050919050565b6111ff80620002e56000396000f3fe60806040526004361061009c5760003560e01c8063807eed4d11610064578063807eed4d146101435780638da5cb5b1461016e578063ea8a1af014610199578063f2fde38b146101b0578063f71d96cb146101d9578063fff058e6146102165761009c565b80630c3f6acf146100a15780630ed469b8146100cc57806311610c25146100f75780634fd3973a14610101578063715018a61461012c575b600080fd5b3480156100ad57600080fd5b506100b6610232565b6040516100c39190610aa0565b60405180910390f35b3480156100d857600080fd5b506100e1610245565b6040516100ee9190610ad4565b60405180910390f35b6100ff61024b565b005b34801561010d57600080fd5b5061011661045e565b6040516101239190610ad4565b60405180910390f35b34801561013857600080fd5b50610141610464565b005b34801561014f57600080fd5b50610158610478565b6040516101659190610ad4565b60405180910390f35b34801561017a57600080fd5b5061018361047e565b6040516101909190610b30565b60405180910390f35b3480156101a557600080fd5b506101ae6104a7565b005b3480156101bc57600080fd5b506101d760048036038101906101d29190610b7c565b6105ee565b005b3480156101e557600080fd5b5061020060048036038101906101fb9190610bd5565b610671565b60405161020d9190610c23565b60405180910390f35b610230600480360381019061022b9190610c3e565b6106b0565b005b600060149054906101000a900460ff1681565b60045481565b60018060018111156102605761025f610a29565b5b600060149054906101000a900460ff16600181111561028257610281610a29565b5b146102c2576040517f08c379a00000000000000000000000000000000000000000000000000000000081526004016102b990610d01565b60405180910390fd5b6003543414610306576040517f08c379a00000000000000000000000000000000000000000000000000000000081526004016102fd90610d6d565b60405180910390fd5b6001339080600181540180825580915050600190039060005260206000200160009091909190916101000a81548173ffffffffffffffffffffffffffffffffffffffff021916908373ffffffffffffffffffffffffffffffffffffffff1602179055506002546001805490500361045b57600061038460025461076d565b90506104216064600454606461039a9190610dbc565b6003546002546103aa9190610df0565b6103b49190610df0565b6103be9190610e61565b600183815481106103d2576103d1610e92565b5b9060005260206000200160009054906101000a900473ffffffffffffffffffffffffffffffffffffffff1673ffffffffffffffffffffffffffffffffffffffff166107ad90919063ffffffff16565b60008060146101000a81548160ff0219169083600181111561044657610445610a29565b5b02179055506001600061045991906109eb565b505b50565b60025481565b61046c6108a1565b610476600061091f565b565b60035481565b60008060009054906101000a900473ffffffffffffffffffffffffffffffffffffffff16905090565b60018060018111156104bc576104bb610a29565b5b600060149054906101000a900460ff1660018111156104de576104dd610a29565b5b1461051e576040517f08c379a000000000000000000000000000000000000000000000000000000000815260040161051590610d01565b60405180910390fd5b6105266108a1565b60005b6001805490508110156105b25761059f600354600183815481106105505761054f610e92565b5b9060005260206000200160009054906101000a900473ffffffffffffffffffffffffffffffffffffffff1673ffffffffffffffffffffffffffffffffffffffff166107ad90919063ffffffff16565b80806105aa90610ec1565b915050610529565b50600160006105c191906109eb565b60008060146101000a81548160ff021916908360018111156105e6576105e5610a29565b5b021790555050565b6105f66108a1565b600073ffffffffffffffffffffffffffffffffffffffff168173ffffffffffffffffffffffffffffffffffffffff1603610665576040517f08c379a000000000000000000000000000000000000000000000000000000000815260040161065c90610f7b565b60405180910390fd5b61066e8161091f565b50565b6001818154811061068157600080fd5b906000526020600020016000915054906101000a900473ffffffffffffffffffffffffffffffffffffffff1681565b6106b86108a1565b60008060018111156106cd576106cc610a29565b5b600060149054906101000a900460ff1660018111156106ef576106ee610a29565b5b1461072f576040517f08c379a000000000000000000000000000000000000000000000000000000000815260040161072690610d01565b60405180910390fd5b82600281905550816003819055506001600060146101000a81548160ff0219169083600181111561076357610762610a29565b5b0217905550505050565b6000814244604051602001610783929190610fbc565b6040516020818303038152906040528051906020012060001c6107a69190610fe8565b9050919050565b804710156107f0576040517f08c379a00000000000000000000000000000000000000000000000000000000081526004016107e790611065565b60405180910390fd5b60008273ffffffffffffffffffffffffffffffffffffffff1682604051610816906110b6565b60006040518083038185875af1925050503d8060008114610853576040519150601f19603f3d011682016040523d82523d6000602084013e610858565b606091505b505090508061089c576040517f08c379a00000000000000000000000000000000000000000000000000000000081526004016108939061113d565b60405180910390fd5b505050565b6108a96109e3565b73ffffffffffffffffffffffffffffffffffffffff166108c761047e565b73ffffffffffffffffffffffffffffffffffffffff161461091d576040517f08c379a0000000000000000000000000000000000000000000000000000000008152600401610914906111a9565b60405180910390fd5b565b60008060009054906101000a900473ffffffffffffffffffffffffffffffffffffffff169050816000806101000a81548173ffffffffffffffffffffffffffffffffffffffff021916908373ffffffffffffffffffffffffffffffffffffffff1602179055508173ffffffffffffffffffffffffffffffffffffffff168173ffffffffffffffffffffffffffffffffffffffff167f8be0079c531659141344cd1fd0a4f28419497f9722a3daafe3b4186f6b6457e060405160405180910390a35050565b600033905090565b5080546000825590600052602060002090810190610a099190610a0c565b50565b5b80821115610a25576000816000905550600101610a0d565b5090565b7f4e487b7100000000000000000000000000000000000000000000000000000000600052602160045260246000fd5b60028110610a6957610a68610a29565b5b50565b6000819050610a7a82610a58565b919050565b6000610a8a82610a6c565b9050919050565b610a9a81610a7f565b82525050565b6000602082019050610ab56000830184610a91565b92915050565b6000819050919050565b610ace81610abb565b82525050565b6000602082019050610ae96000830184610ac5565b92915050565b600073ffffffffffffffffffffffffffffffffffffffff82169050919050565b6000610b1a82610aef565b9050919050565b610b2a81610b0f565b82525050565b6000602082019050610b456000830184610b21565b92915050565b600080fd5b610b5981610b0f565b8114610b6457600080fd5b50565b600081359050610b7681610b50565b92915050565b600060208284031215610b9257610b91610b4b565b5b6000610ba084828501610b67565b91505092915050565b610bb281610abb565b8114610bbd57600080fd5b50565b600081359050610bcf81610ba9565b92915050565b600060208284031215610beb57610bea610b4b565b5b6000610bf984828501610bc0565b91505092915050565b6000610c0d82610aef565b9050919050565b610c1d81610c02565b82525050565b6000602082019050610c386000830184610c14565b92915050565b60008060408385031215610c5557610c54610b4b565b5b6000610c6385828601610bc0565b9250506020610c7485828601610bc0565b9150509250929050565b600082825260208201905092915050565b7f63757272656e7420737461746520646f6573206e6f7420616c6c6f772074686960008201527f7300000000000000000000000000000000000000000000000000000000000000602082015250565b6000610ceb602183610c7e565b9150610cf682610c8f565b604082019050919050565b60006020820190508181036000830152610d1a81610cde565b9050919050565b7f63616e206f6e6c792073656e6420657861637420616d6f756e74000000000000600082015250565b6000610d57601a83610c7e565b9150610d6282610d21565b602082019050919050565b60006020820190508181036000830152610d8681610d4a565b9050919050565b7f4e487b7100000000000000000000000000000000000000000000000000000000600052601160045260246000fd5b6000610dc782610abb565b9150610dd283610abb565b9250828203905081811115610dea57610de9610d8d565b5b92915050565b6000610dfb82610abb565b9150610e0683610abb565b9250828202610e1481610abb565b91508282048414831517610e2b57610e2a610d8d565b5b5092915050565b7f4e487b7100000000000000000000000000000000000000000000000000000000600052601260045260246000fd5b6000610e6c82610abb565b9150610e7783610abb565b925082610e8757610e86610e32565b5b828204905092915050565b7f4e487b7100000000000000000000000000000000000000000000000000000000600052603260045260246000fd5b6000610ecc82610abb565b91507fffffffffffffffffffffffffffffffffffffffffffffffffffffffffffffffff8203610efe57610efd610d8d565b5b600182019050919050565b7f4f776e61626c653a206e6577206f776e657220697320746865207a65726f206160008201527f6464726573730000000000000000000000000000000000000000000000000000602082015250565b6000610f65602683610c7e565b9150610f7082610f09565b604082019050919050565b60006020820190508181036000830152610f9481610f58565b9050919050565b6000819050919050565b610fb6610fb182610abb565b610f9b565b82525050565b6000610fc88285610fa5565b602082019150610fd88284610fa5565b6020820191508190509392505050565b6000610ff382610abb565b9150610ffe83610abb565b92508261100e5761100d610e32565b5b828206905092915050565b7f416464726573733a20696e73756666696369656e742062616c616e6365000000600082015250565b600061104f601d83610c7e565b915061105a82611019565b602082019050919050565b6000602082019050818103600083015261107e81611042565b9050919050565b600081905092915050565b50565b60006110a0600083611085565b91506110ab82611090565b600082019050919050565b60006110c182611093565b9150819050919050565b7f416464726573733a20756e61626c6520746f2073656e642076616c75652c207260008201527f6563697069656e74206d61792068617665207265766572746564000000000000602082015250565b6000611127603a83610c7e565b9150611132826110cb565b604082019050919050565b600060208201905081810360008301526111568161111a565b9050919050565b7f4f776e61626c653a2063616c6c6572206973206e6f7420746865206f776e6572600082015250565b6000611193602083610c7e565b915061119e8261115d565b602082019050919050565b600060208201905081810360008301526111c281611186565b905091905056fea2646970667358221220bee6aa7a92a27d18de995e052c0009a7f9d01dcf9511e6609dfb80a4d19757b764736f6c63430008110033",
  "immutableReferences": {},
  "source": "// SPDX-License-Identifier: MIT\r\npragma solidity 0.8.17;\r\n\r\nimport '@openzeppelin/contracts/utils/Address.sol';\r\nimport '@openzeppelin/contracts/access/Ownable.sol';\r\n\r\ncontract Lottery is Ownable {\r\n  using Address for address payable;\r\n\r\n  enum State {\r\n    IDLE,\r\n    BETTING\r\n  }\r\n\r\n  State public currentState = State.IDLE;\r\n  address payable[] public players;\r\n  uint public requiredParticipants; // reuired for each round\r\n  uint public requiredPrice; // amount of eth to participate\r\n  uint public houseFee; // percentage\r\n  \r\n  constructor(uint fee) {\r\n    require(fee > 1 && fee < 99, 'fee between 1 and 99');\r\n    houseFee = fee;\r\n  }\r\n\r\n  function createBet(uint nParticipants, uint price) external payable onlyOwner inState(State.IDLE) {\r\n    requiredParticipants = nParticipants;\r\n    requiredPrice = price;\r\n    currentState = State.BETTING;\r\n  }\r\n\r\n  function bet() external payable inState(State.BETTING) {\r\n    require(msg.value == requiredPrice, 'can only send exact amount');\r\n\r\n    players.push(payable(msg.sender));\r\n    if (players.length == requiredParticipants) {\r\n      // 1. pick a winner\r\n      // 2. send money\r\n      // 3. change state to idle\r\n      // 4. data cleanup\r\n\r\n      uint winner = _randomModulo(requiredParticipants);\r\n      payable(players[winner]).sendValue((requiredParticipants * requiredPrice) * (100 - houseFee) / 100);\r\n      currentState = State.IDLE;\r\n      delete players;\r\n    }\r\n  }\r\n\r\n  function cancel() external inState(State.BETTING) onlyOwner {\r\n    for(uint i = 0; i < players.length; i++) {\r\n      payable(players[i]).sendValue(requiredPrice);\r\n    }\r\n    delete players;\r\n    currentState = State.IDLE;\r\n  }\r\n\r\n  function _randomModulo(uint modulo) view internal returns(uint) {\r\n    return uint(keccak256(abi.encodePacked(block.timestamp, block.difficulty))) % modulo;\r\n  }\r\n\r\n  modifier inState(State _state) {\r\n    require(currentState == _state, 'current state does not allow this');\r\n    _;\r\n  }\r\n}",
  "sourcePath": "C:\\Development\\Products\\Blockchain\\Dapp30\\Dapp30\\18Lottery\\contracts\\Lottery.sol",
  "compiler": {
    "name": "solc",
    "version": "0.8.17+commit.8df45f5f.Emscripten.clang"
  },
  "schemaVersion": "3.4.10",
  "updatedAt": "2022-11-25T19:49:27.625Z",
  "networkType": "ethereum",
  "devdoc": {
    "kind": "dev",
    "methods": {
      "owner()": {
        "details": "Returns the address of the current owner."
      },
      "renounceOwnership()": {
        "details": "Leaves the contract without owner. It will not be possible to call `onlyOwner` functions anymore. Can only be called by the current owner. NOTE: Renouncing ownership will leave the contract without an owner, thereby removing any functionality that is only available to the owner."
      },
      "transferOwnership(address)": {
        "details": "Transfers ownership of the contract to a new account (`newOwner`). Can only be called by the current owner."
      }
    },
    "version": 1
  },
  "userdoc": {
    "kind": "user",
    "methods": {},
    "version": 1
  }
}