{
  "contractName": "CryptoKitty",
  "abi": [
    {
      "inputs": [
        {
          "internalType": "string",
          "name": "_name",
          "type": "string"
        },
        {
          "internalType": "string",
          "name": "_symbol",
          "type": "string"
        },
        {
          "internalType": "string",
          "name": "_tokenURIBase",
          "type": "string"
        }
      ],
      "stateMutability": "nonpayable",
      "type": "constructor"
    },
    {
      "anonymous": false,
      "inputs": [
        {
          "indexed": true,
          "internalType": "address",
          "name": "_owner",
          "type": "address"
        },
        {
          "indexed": true,
          "internalType": "address",
          "name": "_approved",
          "type": "address"
        },
        {
          "indexed": true,
          "internalType": "uint256",
          "name": "_tokenId",
          "type": "uint256"
        }
      ],
      "name": "Approval",
      "type": "event"
    },
    {
      "anonymous": false,
      "inputs": [
        {
          "indexed": true,
          "internalType": "address",
          "name": "_owner",
          "type": "address"
        },
        {
          "indexed": true,
          "internalType": "address",
          "name": "_operator",
          "type": "address"
        },
        {
          "indexed": false,
          "internalType": "bool",
          "name": "_approved",
          "type": "bool"
        }
      ],
      "name": "ApprovalForAll",
      "type": "event"
    },
    {
      "anonymous": false,
      "inputs": [
        {
          "indexed": true,
          "internalType": "address",
          "name": "_from",
          "type": "address"
        },
        {
          "indexed": true,
          "internalType": "address",
          "name": "_to",
          "type": "address"
        },
        {
          "indexed": true,
          "internalType": "uint256",
          "name": "_tokenId",
          "type": "uint256"
        }
      ],
      "name": "Transfer",
      "type": "event"
    },
    {
      "inputs": [],
      "name": "admin",
      "outputs": [
        {
          "internalType": "address",
          "name": "",
          "type": "address"
        }
      ],
      "stateMutability": "view",
      "type": "function",
      "constant": true
    },
    {
      "inputs": [
        {
          "internalType": "address",
          "name": "_approved",
          "type": "address"
        },
        {
          "internalType": "uint256",
          "name": "_tokenId",
          "type": "uint256"
        }
      ],
      "name": "approve",
      "outputs": [],
      "stateMutability": "payable",
      "type": "function",
      "payable": true
    },
    {
      "inputs": [
        {
          "internalType": "address",
          "name": "_owner",
          "type": "address"
        }
      ],
      "name": "balanceOf",
      "outputs": [
        {
          "internalType": "uint256",
          "name": "",
          "type": "uint256"
        }
      ],
      "stateMutability": "view",
      "type": "function",
      "constant": true
    },
    {
      "inputs": [
        {
          "internalType": "uint256",
          "name": "_tokenId",
          "type": "uint256"
        }
      ],
      "name": "getApproved",
      "outputs": [
        {
          "internalType": "address",
          "name": "",
          "type": "address"
        }
      ],
      "stateMutability": "view",
      "type": "function",
      "constant": true
    },
    {
      "inputs": [
        {
          "internalType": "address",
          "name": "_owner",
          "type": "address"
        },
        {
          "internalType": "address",
          "name": "_operator",
          "type": "address"
        }
      ],
      "name": "isApprovedForAll",
      "outputs": [
        {
          "internalType": "bool",
          "name": "",
          "type": "bool"
        }
      ],
      "stateMutability": "view",
      "type": "function",
      "constant": true
    },
    {
      "inputs": [
        {
          "internalType": "uint256",
          "name": "",
          "type": "uint256"
        }
      ],
      "name": "kitties",
      "outputs": [
        {
          "internalType": "uint256",
          "name": "id",
          "type": "uint256"
        },
        {
          "internalType": "uint256",
          "name": "generation",
          "type": "uint256"
        },
        {
          "internalType": "uint256",
          "name": "geneA",
          "type": "uint256"
        },
        {
          "internalType": "uint256",
          "name": "geneB",
          "type": "uint256"
        }
      ],
      "stateMutability": "view",
      "type": "function",
      "constant": true
    },
    {
      "inputs": [],
      "name": "name",
      "outputs": [
        {
          "internalType": "string",
          "name": "",
          "type": "string"
        }
      ],
      "stateMutability": "view",
      "type": "function",
      "constant": true
    },
    {
      "inputs": [],
      "name": "nextId",
      "outputs": [
        {
          "internalType": "uint256",
          "name": "",
          "type": "uint256"
        }
      ],
      "stateMutability": "view",
      "type": "function",
      "constant": true
    },
    {
      "inputs": [],
      "name": "nextTokenId",
      "outputs": [
        {
          "internalType": "uint256",
          "name": "",
          "type": "uint256"
        }
      ],
      "stateMutability": "view",
      "type": "function",
      "constant": true
    },
    {
      "inputs": [
        {
          "internalType": "uint256",
          "name": "_tokenId",
          "type": "uint256"
        }
      ],
      "name": "ownerOf",
      "outputs": [
        {
          "internalType": "address",
          "name": "",
          "type": "address"
        }
      ],
      "stateMutability": "view",
      "type": "function",
      "constant": true
    },
    {
      "inputs": [
        {
          "internalType": "address",
          "name": "_from",
          "type": "address"
        },
        {
          "internalType": "address",
          "name": "_to",
          "type": "address"
        },
        {
          "internalType": "uint256",
          "name": "_tokenId",
          "type": "uint256"
        }
      ],
      "name": "safeTransferFrom",
      "outputs": [],
      "stateMutability": "payable",
      "type": "function",
      "payable": true
    },
    {
      "inputs": [
        {
          "internalType": "address",
          "name": "_from",
          "type": "address"
        },
        {
          "internalType": "address",
          "name": "_to",
          "type": "address"
        },
        {
          "internalType": "uint256",
          "name": "_tokenId",
          "type": "uint256"
        },
        {
          "internalType": "bytes",
          "name": "data",
          "type": "bytes"
        }
      ],
      "name": "safeTransferFrom",
      "outputs": [],
      "stateMutability": "payable",
      "type": "function",
      "payable": true
    },
    {
      "inputs": [
        {
          "internalType": "address",
          "name": "_operator",
          "type": "address"
        },
        {
          "internalType": "bool",
          "name": "_approved",
          "type": "bool"
        }
      ],
      "name": "setApprovalForAll",
      "outputs": [],
      "stateMutability": "nonpayable",
      "type": "function"
    },
    {
      "inputs": [],
      "name": "symbol",
      "outputs": [
        {
          "internalType": "string",
          "name": "",
          "type": "string"
        }
      ],
      "stateMutability": "view",
      "type": "function",
      "constant": true
    },
    {
      "inputs": [
        {
          "internalType": "uint256",
          "name": "_tokenId",
          "type": "uint256"
        }
      ],
      "name": "tokenURI",
      "outputs": [
        {
          "internalType": "string",
          "name": "",
          "type": "string"
        }
      ],
      "stateMutability": "view",
      "type": "function",
      "constant": true
    },
    {
      "inputs": [],
      "name": "tokenURIBase",
      "outputs": [
        {
          "internalType": "string",
          "name": "",
          "type": "string"
        }
      ],
      "stateMutability": "view",
      "type": "function",
      "constant": true
    },
    {
      "inputs": [
        {
          "internalType": "address",
          "name": "_from",
          "type": "address"
        },
        {
          "internalType": "address",
          "name": "_to",
          "type": "address"
        },
        {
          "internalType": "uint256",
          "name": "_tokenId",
          "type": "uint256"
        }
      ],
      "name": "transferFrom",
      "outputs": [],
      "stateMutability": "payable",
      "type": "function",
      "payable": true
    },
    {
      "inputs": [],
      "name": "getAllKitties",
      "outputs": [
        {
          "components": [
            {
              "internalType": "uint256",
              "name": "id",
              "type": "uint256"
            },
            {
              "internalType": "uint256",
              "name": "generation",
              "type": "uint256"
            },
            {
              "internalType": "uint256",
              "name": "geneA",
              "type": "uint256"
            },
            {
              "internalType": "uint256",
              "name": "geneB",
              "type": "uint256"
            }
          ],
          "internalType": "struct CryptoKitty.Kitty[]",
          "name": "",
          "type": "tuple[]"
        }
      ],
      "stateMutability": "view",
      "type": "function",
      "constant": true
    },
    {
      "inputs": [
        {
          "internalType": "uint256",
          "name": "kittyId1",
          "type": "uint256"
        },
        {
          "internalType": "uint256",
          "name": "kittyId2",
          "type": "uint256"
        }
      ],
      "name": "breed",
      "outputs": [],
      "stateMutability": "nonpayable",
      "type": "function"
    },
    {
      "inputs": [],
      "name": "mint",
      "outputs": [],
      "stateMutability": "nonpayable",
      "type": "function"
    }
  ],
  "bytecode": "0x60806040523480156200001157600080fd5b5060405162002c9d38038062002c9d833981810160405281019062000037919062000250565b82828282600490816200004b919062000554565b5081600590816200005d919062000554565b5080600690816200006f919062000554565b5050505033600a60006101000a81548173ffffffffffffffffffffffffffffffffffffffff021916908373ffffffffffffffffffffffffffffffffffffffff1602179055505050506200063b565b6000604051905090565b600080fd5b600080fd5b600080fd5b600080fd5b6000601f19601f8301169050919050565b7f4e487b7100000000000000000000000000000000000000000000000000000000600052604160045260246000fd5b6200012682620000db565b810181811067ffffffffffffffff82111715620001485762000147620000ec565b5b80604052505050565b60006200015d620000bd565b90506200016b82826200011b565b919050565b600067ffffffffffffffff8211156200018e576200018d620000ec565b5b6200019982620000db565b9050602081019050919050565b60005b83811015620001c6578082015181840152602081019050620001a9565b60008484015250505050565b6000620001e9620001e38462000170565b62000151565b905082815260208101848484011115620002085762000207620000d6565b5b62000215848285620001a6565b509392505050565b600082601f830112620002355762000234620000d1565b5b815162000247848260208601620001d2565b91505092915050565b6000806000606084860312156200026c576200026b620000c7565b5b600084015167ffffffffffffffff8111156200028d576200028c620000cc565b5b6200029b868287016200021d565b935050602084015167ffffffffffffffff811115620002bf57620002be620000cc565b5b620002cd868287016200021d565b925050604084015167ffffffffffffffff811115620002f157620002f0620000cc565b5b620002ff868287016200021d565b9150509250925092565b600081519050919050565b7f4e487b7100000000000000000000000000000000000000000000000000000000600052602260045260246000fd5b600060028204905060018216806200035c57607f821691505b60208210810362000372576200037162000314565b5b50919050565b60008190508160005260206000209050919050565b60006020601f8301049050919050565b600082821b905092915050565b600060088302620003dc7fffffffffffffffffffffffffffffffffffffffffffffffffffffffffffffffff826200039d565b620003e886836200039d565b95508019841693508086168417925050509392505050565b6000819050919050565b6000819050919050565b6000620004356200042f620004298462000400565b6200040a565b62000400565b9050919050565b6000819050919050565b620004518362000414565b6200046962000460826200043c565b848454620003aa565b825550505050565b600090565b6200048062000471565b6200048d81848462000446565b505050565b5b81811015620004b557620004a960008262000476565b60018101905062000493565b5050565b601f8211156200050457620004ce8162000378565b620004d9846200038d565b81016020851015620004e9578190505b62000501620004f8856200038d565b83018262000492565b50505b505050565b600082821c905092915050565b6000620005296000198460080262000509565b1980831691505092915050565b600062000544838362000516565b9150826002028217905092915050565b6200055f8262000309565b67ffffffffffffffff8111156200057b576200057a620000ec565b5b62000587825462000343565b62000594828285620004b9565b600060209050601f831160018114620005cc5760008415620005b7578287015190505b620005c3858262000536565b86555062000633565b601f198416620005dc8662000378565b60005b828110156200060657848901518255600182019150602085019450602081019050620005df565b8683101562000626578489015162000622601f89168262000516565b8355505b6001600288020188555050505b505050505050565b612652806200064b6000396000f3fe60806040526004361061011f5760003560e01c806370a08231116100a0578063b88d4fde11610064578063b88d4fde146103b1578063c87b56dd146103cd578063d9ecad7b1461040a578063e985e9c514610433578063f851a440146104705761011f565b806370a08231146102b557806375794a3c146102f25780638cc51eda1461031d57806395d89b411461035d578063a22cb465146103885761011f565b8063261220a3116100e7578063261220a3146101db57806342842e0e1461020657806361b8ce8c146102225780636352211e1461024d57806369491ed41461028a5761011f565b806306fdde0314610124578063081812fc1461014f578063095ea7b31461018c5780631249c58b146101a857806323b872dd146101bf575b600080fd5b34801561013057600080fd5b5061013961049b565b604051610146919061177c565b60405180910390f35b34801561015b57600080fd5b50610176600480360381019061017191906117de565b610529565b604051610183919061184c565b60405180910390f35b6101a660048036038101906101a19190611893565b610566565b005b3480156101b457600080fd5b506101bd6106be565b005b6101d960048036038101906101d491906118d3565b6107ea565b005b3480156101e757600080fd5b506101f06107fa565b6040516101fd919061177c565b60405180910390f35b610220600480360381019061021b91906118d3565b610888565b005b34801561022e57600080fd5b506102376108a8565b6040516102449190611935565b60405180910390f35b34801561025957600080fd5b50610274600480360381019061026f91906117de565b6108ae565b604051610281919061184c565b60405180910390f35b34801561029657600080fd5b5061029f6108eb565b6040516102ac9190611a63565b60405180910390f35b3480156102c157600080fd5b506102dc60048036038101906102d79190611a85565b6109d2565b6040516102e99190611935565b60405180910390f35b3480156102fe57600080fd5b50610307610a1a565b6040516103149190611935565b60405180910390f35b34801561032957600080fd5b50610344600480360381019061033f91906117de565b610a20565b6040516103549493929190611ab2565b60405180910390f35b34801561036957600080fd5b50610372610a50565b60405161037f919061177c565b60405180910390f35b34801561039457600080fd5b506103af60048036038101906103aa9190611b2f565b610ade565b005b6103cb60048036038101906103c69190611bd4565b610bdb565b005b3480156103d957600080fd5b506103f460048036038101906103ef91906117de565b610c32565b604051610401919061177c565b60405180910390f35b34801561041657600080fd5b50610431600480360381019061042c9190611c5c565b610c5e565b005b34801561043f57600080fd5b5061045a60048036038101906104559190611c9c565b610f09565b6040516104679190611ceb565b60405180910390f35b34801561047c57600080fd5b50610485610f9d565b604051610492919061184c565b60405180910390f35b600480546104a890611d35565b80601f01602080910402602001604051908101604052809291908181526020018280546104d490611d35565b80156105215780601f106104f657610100808354040283529160200191610521565b820191906000526020600020905b81548152906001019060200180831161050457829003601f168201915b505050505081565b60006002600083815260200190815260200160002060009054906101000a900473ffffffffffffffffffffffffffffffffffffffff169050919050565b60006001600083815260200190815260200160002060009054906101000a900473ffffffffffffffffffffffffffffffffffffffff1690508073ffffffffffffffffffffffffffffffffffffffff163373ffffffffffffffffffffffffffffffffffffffff161461060c576040517f08c379a000000000000000000000000000000000000000000000000000000000815260040161060390611db2565b60405180910390fd5b826002600084815260200190815260200160002060006101000a81548173ffffffffffffffffffffffffffffffffffffffff021916908373ffffffffffffffffffffffffffffffffffffffff160217905550818373ffffffffffffffffffffffffffffffffffffffff168273ffffffffffffffffffffffffffffffffffffffff167f8c5be1e5ebec7d5bd14f71427d1e84f3dd0314c0f7b2291e5b200ac8c7c3b92560405160405180910390a4505050565b600a60009054906101000a900473ffffffffffffffffffffffffffffffffffffffff1673ffffffffffffffffffffffffffffffffffffffff163373ffffffffffffffffffffffffffffffffffffffff161461074e576040517f08c379a000000000000000000000000000000000000000000000000000000000815260040161074590611e1e565b60405180910390fd5b6040518060800160405280600954815260200160018152602001610772600a610fc3565b8152602001610781600a610fc3565b815250600860006009548152602001908152602001600020600082015181600001556020820151816001015560408201518160020155606082015181600301559050506107d060095433611003565b600960008154809291906107e390611e6d565b9190505550565b6107f58383836111ad565b505050565b6006805461080790611d35565b80601f016020809104026020016040519081016040528092919081815260200182805461083390611d35565b80156108805780601f1061085557610100808354040283529160200191610880565b820191906000526020600020905b81548152906001019060200180831161086357829003601f168201915b505050505081565b6108a3838383604051806020016040528060008152506114b5565b505050565b60095481565b60006001600083815260200190815260200160002060009054906101000a900473ffffffffffffffffffffffffffffffffffffffff169050919050565b6060600060095467ffffffffffffffff81111561090b5761090a611eb5565b5b60405190808252806020026020018201604052801561094457816020015b6109316116c4565b8152602001906001900390816109295790505b50905060005b81518110156109ca57600860008281526020019081526020016000206040518060800160405290816000820154815260200160018201548152602001600282015481526020016003820154815250508282815181106109ac576109ab611ee4565b5b602002602001018190525080806109c290611e6d565b91505061094a565b508091505090565b60008060008373ffffffffffffffffffffffffffffffffffffffff1673ffffffffffffffffffffffffffffffffffffffff168152602001908152602001600020549050919050565b60075481565b60086020528060005260406000206000915090508060000154908060010154908060020154908060030154905084565b60058054610a5d90611d35565b80601f0160208091040260200160405190810160405280929190818152602001828054610a8990611d35565b8015610ad65780601f10610aab57610100808354040283529160200191610ad6565b820191906000526020600020905b815481529060010190602001808311610ab957829003601f168201915b505050505081565b80600360003373ffffffffffffffffffffffffffffffffffffffff1673ffffffffffffffffffffffffffffffffffffffff16815260200190815260200160002060008473ffffffffffffffffffffffffffffffffffffffff1673ffffffffffffffffffffffffffffffffffffffff16815260200190815260200160002060006101000a81548160ff0219169083151502179055508173ffffffffffffffffffffffffffffffffffffffff163373ffffffffffffffffffffffffffffffffffffffff167f17307eab39ab6107e8899845ad3d59bd9653f200f220920489ca2b5937696c3183604051610bcf9190611ceb565b60405180910390a35050565b610c2b85858585858080601f016020809104026020016040519081016040528093929190818152602001838380828437600081840152601f19601f820116905080830192505050505050506114b5565b5050505050565b6060600682604051602001610c48929190612023565b6040516020818303038152906040529050919050565b6009548210610ca2576040517f08c379a0000000000000000000000000000000000000000000000000000000008152600401610c99906120a2565b60405180910390fd5b6009548110610ce6576040517f08c379a0000000000000000000000000000000000000000000000000000000008152600401610cdd9061210e565b60405180910390fd5b600060086000848152602001908152602001600020905060006008600084815260200190815260200160002090503373ffffffffffffffffffffffffffffffffffffffff16610d34856108ae565b73ffffffffffffffffffffffffffffffffffffffff1614610d8a576040517f08c379a0000000000000000000000000000000000000000000000000000000008152600401610d819061217a565b60405180910390fd5b3373ffffffffffffffffffffffffffffffffffffffff16610daa846108ae565b73ffffffffffffffffffffffffffffffffffffffff1614610e00576040517f08c379a0000000000000000000000000000000000000000000000000000000008152600401610df7906121e6565b60405180910390fd5b60008160010154836001015411610e1b578160010154610e21565b82600101545b905060006001610e316004610fc3565b11610e40578260020154610e46565b83600201545b905060006001610e566004610fc3565b11610e65578360030154610e6b565b84600301545b905060405180608001604052806009548152602001600185610e8d9190612206565b81526020018381526020018281525060086000600954815260200190815260200160002060008201518160000155602082015181600101556040820151816002015560608201518160030155905050610ee860095433611003565b60096000815480929190610efb90611e6d565b919050555050505050505050565b6000600360008473ffffffffffffffffffffffffffffffffffffffff1673ffffffffffffffffffffffffffffffffffffffff16815260200190815260200160002060008373ffffffffffffffffffffffffffffffffffffffff1673ffffffffffffffffffffffffffffffffffffffff16815260200190815260200160002060009054906101000a900460ff16905092915050565b600a60009054906101000a900473ffffffffffffffffffffffffffffffffffffffff1681565b6000814244604051602001610fd992919061223a565b6040516020818303038152906040528051906020012060001c610ffc9190612295565b9050919050565b600073ffffffffffffffffffffffffffffffffffffffff166001600084815260200190815260200160002060009054906101000a900473ffffffffffffffffffffffffffffffffffffffff1673ffffffffffffffffffffffffffffffffffffffff16146110a5576040517f08c379a000000000000000000000000000000000000000000000000000000000815260040161109c90612312565b60405180910390fd5b806001600084815260200190815260200160002060006101000a81548173ffffffffffffffffffffffffffffffffffffffff021916908373ffffffffffffffffffffffffffffffffffffffff16021790555060016000808373ffffffffffffffffffffffffffffffffffffffff1673ffffffffffffffffffffffffffffffffffffffff16815260200190815260200160002060008282546111469190612206565b92505081905550818173ffffffffffffffffffffffffffffffffffffffff16600073ffffffffffffffffffffffffffffffffffffffff167fddf252ad1be2c89b69c2b068fc378daa952ba7f163c4a11628f55a4df523b3ef60405160405180910390a45050565b8060006001600083815260200190815260200160002060009054906101000a900473ffffffffffffffffffffffffffffffffffffffff1690508073ffffffffffffffffffffffffffffffffffffffff163373ffffffffffffffffffffffffffffffffffffffff16148061127e57506002600083815260200190815260200160002060009054906101000a900473ffffffffffffffffffffffffffffffffffffffff1673ffffffffffffffffffffffffffffffffffffffff163373ffffffffffffffffffffffffffffffffffffffff16145b80611316575060011515600360008373ffffffffffffffffffffffffffffffffffffffff1673ffffffffffffffffffffffffffffffffffffffff16815260200190815260200160002060003373ffffffffffffffffffffffffffffffffffffffff1673ffffffffffffffffffffffffffffffffffffffff16815260200190815260200160002060009054906101000a900460ff161515145b611355576040517f08c379a000000000000000000000000000000000000000000000000000000000815260040161134c9061237e565b60405180910390fd5b60016000808773ffffffffffffffffffffffffffffffffffffffff1673ffffffffffffffffffffffffffffffffffffffff16815260200190815260200160002060008282546113a4919061239e565b9250508190555060016000808673ffffffffffffffffffffffffffffffffffffffff1673ffffffffffffffffffffffffffffffffffffffff16815260200190815260200160002060008282546113fa9190612206565b92505081905550836001600085815260200190815260200160002060006101000a81548173ffffffffffffffffffffffffffffffffffffffff021916908373ffffffffffffffffffffffffffffffffffffffff160217905550828473ffffffffffffffffffffffffffffffffffffffff168673ffffffffffffffffffffffffffffffffffffffff167fddf252ad1be2c89b69c2b068fc378daa952ba7f163c4a11628f55a4df523b3ef60405160405180910390a45050505050565b6114c08484846111ad565b60006114ce8585858561151e565b90506001151581151514611517576040517f08c379a000000000000000000000000000000000000000000000000000000000815260040161150e90612444565b60405180910390fd5b5050505050565b600061153f8473ffffffffffffffffffffffffffffffffffffffff1661169e565b15611691578373ffffffffffffffffffffffffffffffffffffffff1663150b7a02338786866040518563ffffffff1660e01b815260040161158394939291906124b9565b6020604051808303816000875af19250505080156115bf57506040513d601f19601f820116820180604052508101906115bc919061255d565b60015b611641573d80600081146115ef576040519150601f19603f3d011682016040523d82523d6000602084013e6115f4565b606091505b506000815103611639576040517f08c379a0000000000000000000000000000000000000000000000000000000008152600401611630906125fc565b60405180910390fd5b805181602001fd5b63150b7a0260e01b7bffffffffffffffffffffffffffffffffffffffffffffffffffffffff1916817bffffffffffffffffffffffffffffffffffffffffffffffffffffffff191614915050611696565b600190505b949350505050565b60008060008373ffffffffffffffffffffffffffffffffffffffff163b11915050919050565b6040518060800160405280600081526020016000815260200160008152602001600081525090565b600081519050919050565b600082825260208201905092915050565b60005b8381101561172657808201518184015260208101905061170b565b60008484015250505050565b6000601f19601f8301169050919050565b600061174e826116ec565b61175881856116f7565b9350611768818560208601611708565b61177181611732565b840191505092915050565b600060208201905081810360008301526117968184611743565b905092915050565b600080fd5b600080fd5b6000819050919050565b6117bb816117a8565b81146117c657600080fd5b50565b6000813590506117d8816117b2565b92915050565b6000602082840312156117f4576117f361179e565b5b6000611802848285016117c9565b91505092915050565b600073ffffffffffffffffffffffffffffffffffffffff82169050919050565b60006118368261180b565b9050919050565b6118468161182b565b82525050565b6000602082019050611861600083018461183d565b92915050565b6118708161182b565b811461187b57600080fd5b50565b60008135905061188d81611867565b92915050565b600080604083850312156118aa576118a961179e565b5b60006118b88582860161187e565b92505060206118c9858286016117c9565b9150509250929050565b6000806000606084860312156118ec576118eb61179e565b5b60006118fa8682870161187e565b935050602061190b8682870161187e565b925050604061191c868287016117c9565b9150509250925092565b61192f816117a8565b82525050565b600060208201905061194a6000830184611926565b92915050565b600081519050919050565b600082825260208201905092915050565b6000819050602082019050919050565b611985816117a8565b82525050565b6080820160008201516119a1600085018261197c565b5060208201516119b4602085018261197c565b5060408201516119c7604085018261197c565b5060608201516119da606085018261197c565b50505050565b60006119ec838361198b565b60808301905092915050565b6000602082019050919050565b6000611a1082611950565b611a1a818561195b565b9350611a258361196c565b8060005b83811015611a56578151611a3d88826119e0565b9750611a48836119f8565b925050600181019050611a29565b5085935050505092915050565b60006020820190508181036000830152611a7d8184611a05565b905092915050565b600060208284031215611a9b57611a9a61179e565b5b6000611aa98482850161187e565b91505092915050565b6000608082019050611ac76000830187611926565b611ad46020830186611926565b611ae16040830185611926565b611aee6060830184611926565b95945050505050565b60008115159050919050565b611b0c81611af7565b8114611b1757600080fd5b50565b600081359050611b2981611b03565b92915050565b60008060408385031215611b4657611b4561179e565b5b6000611b548582860161187e565b9250506020611b6585828601611b1a565b9150509250929050565b600080fd5b600080fd5b600080fd5b60008083601f840112611b9457611b93611b6f565b5b8235905067ffffffffffffffff811115611bb157611bb0611b74565b5b602083019150836001820283011115611bcd57611bcc611b79565b5b9250929050565b600080600080600060808688031215611bf057611bef61179e565b5b6000611bfe8882890161187e565b9550506020611c0f8882890161187e565b9450506040611c20888289016117c9565b935050606086013567ffffffffffffffff811115611c4157611c406117a3565b5b611c4d88828901611b7e565b92509250509295509295909350565b60008060408385031215611c7357611c7261179e565b5b6000611c81858286016117c9565b9250506020611c92858286016117c9565b9150509250929050565b60008060408385031215611cb357611cb261179e565b5b6000611cc18582860161187e565b9250506020611cd28582860161187e565b9150509250929050565b611ce581611af7565b82525050565b6000602082019050611d006000830184611cdc565b92915050565b7f4e487b7100000000000000000000000000000000000000000000000000000000600052602260045260246000fd5b60006002820490506001821680611d4d57607f821691505b602082108103611d6057611d5f611d06565b5b50919050565b7f4e6f7420617574686f7269736564000000000000000000000000000000000000600082015250565b6000611d9c600e836116f7565b9150611da782611d66565b602082019050919050565b60006020820190508181036000830152611dcb81611d8f565b9050919050565b7f6f6e6c792061646d696e00000000000000000000000000000000000000000000600082015250565b6000611e08600a836116f7565b9150611e1382611dd2565b602082019050919050565b60006020820190508181036000830152611e3781611dfb565b9050919050565b7f4e487b7100000000000000000000000000000000000000000000000000000000600052601160045260246000fd5b6000611e78826117a8565b91507fffffffffffffffffffffffffffffffffffffffffffffffffffffffffffffffff8203611eaa57611ea9611e3e565b5b600182019050919050565b7f4e487b7100000000000000000000000000000000000000000000000000000000600052604160045260246000fd5b7f4e487b7100000000000000000000000000000000000000000000000000000000600052603260045260246000fd5b600081905092915050565b60008190508160005260206000209050919050565b60008154611f4081611d35565b611f4a8186611f13565b94506001821660008114611f655760018114611f7a57611fad565b60ff1983168652811515820286019350611fad565b611f8385611f1e565b60005b83811015611fa557815481890152600182019150602081019050611f86565b838801955050505b50505092915050565b7f2f00000000000000000000000000000000000000000000000000000000000000600082015250565b6000611fec600183611f13565b9150611ff782611fb6565b600182019050919050565b6000819050919050565b61201d612018826117a8565b612002565b82525050565b600061202f8285611f33565b915061203a82611fdf565b9150612046828461200c565b6020820191508190509392505050565b7f6b697474793120646f6573206e6f742065786973740000000000000000000000600082015250565b600061208c6015836116f7565b915061209782612056565b602082019050919050565b600060208201905081810360008301526120bb8161207f565b9050919050565b7f6b697474793220646f6573206e6f742065786973740000000000000000000000600082015250565b60006120f86015836116f7565b9150612103826120c2565b602082019050919050565b60006020820190508181036000830152612127816120eb565b9050919050565b7f73656e646572206d757374206f776e206b697474793100000000000000000000600082015250565b60006121646016836116f7565b915061216f8261212e565b602082019050919050565b6000602082019050818103600083015261219381612157565b9050919050565b7f73656e646572206d757374206f776e206b697474793200000000000000000000600082015250565b60006121d06016836116f7565b91506121db8261219a565b602082019050919050565b600060208201905081810360008301526121ff816121c3565b9050919050565b6000612211826117a8565b915061221c836117a8565b925082820190508082111561223457612233611e3e565b5b92915050565b6000612246828561200c565b602082019150612256828461200c565b6020820191508190509392505050565b7f4e487b7100000000000000000000000000000000000000000000000000000000600052601260045260246000fd5b60006122a0826117a8565b91506122ab836117a8565b9250826122bb576122ba612266565b5b828206905092915050565b7f7468697320746f6b656e20616c72656164792065786973740000000000000000600082015250565b60006122fc6018836116f7565b9150612307826122c6565b602082019050919050565b6000602082019050818103600083015261232b816122ef565b9050919050565b7f5472616e73666572206e6f7420617574686f7269736564000000000000000000600082015250565b60006123686017836116f7565b915061237382612332565b602082019050919050565b600060208201905081810360008301526123978161235b565b9050919050565b60006123a9826117a8565b91506123b4836117a8565b92508282039050818111156123cc576123cb611e3e565b5b92915050565b7f726563697069656e7420736d61727420636f6e74726163742063616e6e6f742060008201527f68616e646c652045524337323120746f6b656e73000000000000000000000000602082015250565b600061242e6034836116f7565b9150612439826123d2565b604082019050919050565b6000602082019050818103600083015261245d81612421565b9050919050565b600081519050919050565b600082825260208201905092915050565b600061248b82612464565b612495818561246f565b93506124a5818560208601611708565b6124ae81611732565b840191505092915050565b60006080820190506124ce600083018761183d565b6124db602083018661183d565b6124e86040830185611926565b81810360608301526124fa8184612480565b905095945050505050565b60007fffffffff0000000000000000000000000000000000000000000000000000000082169050919050565b61253a81612505565b811461254557600080fd5b50565b60008151905061255781612531565b92915050565b6000602082840312156125735761257261179e565b5b600061258184828501612548565b91505092915050565b7f4552433732313a207472616e7366657220746f206e6f6e20455243373231526560008201527f63656976657220696d706c656d656e7465720000000000000000000000000000602082015250565b60006125e66032836116f7565b91506125f18261258a565b604082019050919050565b60006020820190508181036000830152612615816125d9565b905091905056fea2646970667358221220a3d58cf806a04761ba85a7ad2ff4474741249fcbe6efbd1523f37e5fad3ef3d964736f6c63430008110033",
  "immutableReferences": {},
  "source": "// SPDX-License-Identifier: MIT\r\npragma solidity 0.8.17;\r\n\r\nimport './ERC721Token.sol';\r\n\r\ncontract CryptoKitty is ERC721Token {\r\n\r\n  enum HairColor { White, Black }\r\n\r\n  struct Kitty {\r\n    uint id;\r\n    uint generation;\r\n    uint geneA;\r\n    uint geneB;\r\n  }\r\n\r\n  mapping (uint => Kitty) public kitties;\r\n  uint public nextId;\r\n\r\n  address public admin;\r\n  \r\n\r\n  constructor(\r\n    string memory _name,\r\n    string memory _symbol,\r\n    string memory _tokenURIBase\r\n  ) ERC721Token(_name, _symbol, _tokenURIBase) {\r\n    admin = msg.sender;\r\n    \r\n  }\r\n\r\n  function getAllKitties() external view returns(Kitty[] memory) {\r\n    Kitty[] memory _kitties = new Kitty[](nextId);\r\n    for(uint i = 0; i < _kitties.length; i++) {\r\n      _kitties[i] = kitties[i];\r\n    }\r\n    return _kitties;\r\n  }\r\n\r\n  // function getAllKittiesOf(address owner) external view returns(Kitty[] memory) {\r\n\r\n  // }\r\n\r\n  function breed(uint kittyId1, uint kittyId2) external {\r\n    require(kittyId1 < nextId, 'kitty1 does not exist');\r\n    require(kittyId2 < nextId, 'kitty2 does not exist');\r\n\r\n    Kitty storage kitty1 = kitties[kittyId1];\r\n    Kitty storage kitty2 = kitties[kittyId2];\r\n\r\n    require(ownerOf(kittyId1) == msg.sender, 'sender must own kitty1');\r\n    require(ownerOf(kittyId2) == msg.sender, 'sender must own kitty2');\r\n\r\n    uint maxGen = kitty1.generation > kitty2.generation ? kitty1.generation : kitty2.generation;\r\n    uint geneA = _random(4) > 1 ? kitty1.geneA : kitty2.geneA;\r\n    uint geneB = _random(4) > 1 ? kitty1.geneB : kitty2.geneB;\r\n    kitties[nextId] = Kitty(nextId, maxGen + 1, geneA, geneB);\r\n    _mint(nextId, msg.sender);\r\n    nextId++;\r\n  }\r\n\r\n  function mint() external {\r\n    require(msg.sender == admin, 'only admin');\r\n    kitties[nextId] = Kitty(nextId, 1, _random(10), _random(10));\r\n    _mint(nextId, msg.sender);\r\n    nextId++;\r\n  }\r\n\r\n  function _random(uint max) internal view returns(uint) {\r\n    return uint(keccak256(abi.encodePacked(block.timestamp, block.difficulty))) % max;\r\n  }\r\n}",
  "sourcePath": "C:\\Development\\Products\\Blockchain\\Dapp30\\Dapp30\\23CryptoKitties\\contracts\\CryptoKitty.sol",
  "compiler": {
    "name": "solc",
    "version": "0.8.17+commit.8df45f5f.Emscripten.clang"
  },
  "schemaVersion": "3.4.10",
  "updatedAt": "2023-02-06T19:39:20.677Z",
  "networkType": "ethereum",
  "devdoc": {
    "kind": "dev",
    "methods": {
      "approve(address,uint256)": {
        "details": "The zero address indicates there is no approved address.  Throws unless `msg.sender` is the current NFT owner, or an authorized  operator of the current owner.",
        "params": {
          "_approved": "The new approved NFT controller",
          "_tokenId": "The NFT to approve"
        }
      },
      "balanceOf(address)": {
        "details": "NFTs assigned to the zero address are considered invalid, and this  function throws for queries about the zero address.",
        "params": {
          "_owner": "An address for whom to query the balance"
        },
        "returns": {
          "_0": "The number of NFTs owned by `_owner`, possibly zero"
        }
      },
      "getApproved(uint256)": {
        "details": "Throws if `_tokenId` is not a valid NFT.",
        "params": {
          "_tokenId": "The NFT to find the approved address for"
        },
        "returns": {
          "_0": "The approved address for this NFT, or the zero address if there is none"
        }
      },
      "isApprovedForAll(address,address)": {
        "params": {
          "_operator": "The address that acts on behalf of the owner",
          "_owner": "The address that owns the NFTs"
        },
        "returns": {
          "_0": "True if `_operator` is an approved operator for `_owner`, false otherwise"
        }
      },
      "ownerOf(uint256)": {
        "details": "NFTs assigned to zero address are considered invalid, and queries  about them do throw.",
        "params": {
          "_tokenId": "The identifier for an NFT"
        },
        "returns": {
          "_0": "The address of the owner of the NFT"
        }
      },
      "safeTransferFrom(address,address,uint256)": {
        "details": "This works identically to the other function with an extra data parameter,  except this function just sets data to \"\".",
        "params": {
          "_from": "The current owner of the NFT",
          "_to": "The new owner",
          "_tokenId": "The NFT to transfer"
        }
      },
      "safeTransferFrom(address,address,uint256,bytes)": {
        "details": "Throws unless `msg.sender` is the current owner, an authorized  operator, or the approved address for this NFT. Throws if `_from` is  not the current owner. Throws if `_to` is the zero address. Throws if  `_tokenId` is not a valid NFT. When transfer is complete, this function  checks if `_to` is a smart contract (code size > 0). If so, it calls  `onERC721Received` on `_to` and throws if the return value is not  `bytes4(keccak256(\"onERC721Received(address,address,uint256,bytes)\"))`.",
        "params": {
          "_from": "The current owner of the NFT",
          "_to": "The new owner",
          "_tokenId": "The NFT to transfer",
          "data": "Additional data with no specified format, sent in call to `_to`"
        }
      },
      "setApprovalForAll(address,bool)": {
        "details": "Emits the ApprovalForAll event. The contract MUST allow  multiple operators per owner.",
        "params": {
          "_approved": "True if the operator is approved, false to revoke approval",
          "_operator": "Address to add to the set of authorized operators"
        }
      },
      "transferFrom(address,address,uint256)": {
        "details": "Throws unless `msg.sender` is the current owner, an authorized  operator, or the approved address for this NFT. Throws if `_from` is  not the current owner. Throws if `_to` is the zero address. Throws if  `_tokenId` is not a valid NFT.",
        "params": {
          "_from": "The current owner of the NFT",
          "_to": "The new owner",
          "_tokenId": "The NFT to transfer"
        }
      }
    },
    "version": 1
  },
  "userdoc": {
    "kind": "user",
    "methods": {
      "approve(address,uint256)": {
        "notice": "Change or reaffirm the approved address for an NFT"
      },
      "balanceOf(address)": {
        "notice": "Count all NFTs assigned to an owner"
      },
      "getApproved(uint256)": {
        "notice": "Get the approved address for a single NFT"
      },
      "isApprovedForAll(address,address)": {
        "notice": "Query if an address is an authorized operator for another address"
      },
      "ownerOf(uint256)": {
        "notice": "Find the owner of an NFT"
      },
      "safeTransferFrom(address,address,uint256)": {
        "notice": "Transfers the ownership of an NFT from one address to another address"
      },
      "safeTransferFrom(address,address,uint256,bytes)": {
        "notice": "Transfers the ownership of an NFT from one address to another address"
      },
      "setApprovalForAll(address,bool)": {
        "notice": "Enable or disable approval for a third party (\"operator\") to manage  all of `msg.sender`'s assets"
      },
      "transferFrom(address,address,uint256)": {
        "notice": "Transfer ownership of an NFT -- THE CALLER IS RESPONSIBLE  TO CONFIRM THAT `_to` IS CAPABLE OF RECEIVING NFTS OR ELSE  THEY MAY BE PERMANENTLY LOST"
      }
    },
    "version": 1
  }
}