{
  "contractName": "CryptoKitty",
  "abi": [
    {
      "inputs": [
        {
          "internalType": "string",
          "name": "_name",
          "type": "string"
        },
        {
          "internalType": "string",
          "name": "_symbol",
          "type": "string"
        },
        {
          "internalType": "string",
          "name": "_tokenURIBase",
          "type": "string"
        }
      ],
      "stateMutability": "nonpayable",
      "type": "constructor"
    },
    {
      "anonymous": false,
      "inputs": [
        {
          "indexed": true,
          "internalType": "address",
          "name": "_owner",
          "type": "address"
        },
        {
          "indexed": true,
          "internalType": "address",
          "name": "_approved",
          "type": "address"
        },
        {
          "indexed": true,
          "internalType": "uint256",
          "name": "_tokenId",
          "type": "uint256"
        }
      ],
      "name": "Approval",
      "type": "event"
    },
    {
      "anonymous": false,
      "inputs": [
        {
          "indexed": true,
          "internalType": "address",
          "name": "_owner",
          "type": "address"
        },
        {
          "indexed": true,
          "internalType": "address",
          "name": "_operator",
          "type": "address"
        },
        {
          "indexed": false,
          "internalType": "bool",
          "name": "_approved",
          "type": "bool"
        }
      ],
      "name": "ApprovalForAll",
      "type": "event"
    },
    {
      "anonymous": false,
      "inputs": [
        {
          "indexed": true,
          "internalType": "address",
          "name": "_from",
          "type": "address"
        },
        {
          "indexed": true,
          "internalType": "address",
          "name": "_to",
          "type": "address"
        },
        {
          "indexed": true,
          "internalType": "uint256",
          "name": "_tokenId",
          "type": "uint256"
        }
      ],
      "name": "Transfer",
      "type": "event"
    },
    {
      "inputs": [],
      "name": "admin",
      "outputs": [
        {
          "internalType": "address",
          "name": "",
          "type": "address"
        }
      ],
      "stateMutability": "view",
      "type": "function",
      "constant": true
    },
    {
      "inputs": [
        {
          "internalType": "address",
          "name": "_approved",
          "type": "address"
        },
        {
          "internalType": "uint256",
          "name": "_tokenId",
          "type": "uint256"
        }
      ],
      "name": "approve",
      "outputs": [],
      "stateMutability": "payable",
      "type": "function",
      "payable": true
    },
    {
      "inputs": [
        {
          "internalType": "address",
          "name": "_owner",
          "type": "address"
        }
      ],
      "name": "balanceOf",
      "outputs": [
        {
          "internalType": "uint256",
          "name": "",
          "type": "uint256"
        }
      ],
      "stateMutability": "view",
      "type": "function",
      "constant": true
    },
    {
      "inputs": [
        {
          "internalType": "uint256",
          "name": "_tokenId",
          "type": "uint256"
        }
      ],
      "name": "getApproved",
      "outputs": [
        {
          "internalType": "address",
          "name": "",
          "type": "address"
        }
      ],
      "stateMutability": "view",
      "type": "function",
      "constant": true
    },
    {
      "inputs": [
        {
          "internalType": "address",
          "name": "_owner",
          "type": "address"
        },
        {
          "internalType": "address",
          "name": "_operator",
          "type": "address"
        }
      ],
      "name": "isApprovedForAll",
      "outputs": [
        {
          "internalType": "bool",
          "name": "",
          "type": "bool"
        }
      ],
      "stateMutability": "view",
      "type": "function",
      "constant": true
    },
    {
      "inputs": [
        {
          "internalType": "uint256",
          "name": "",
          "type": "uint256"
        }
      ],
      "name": "kitties",
      "outputs": [
        {
          "internalType": "uint256",
          "name": "id",
          "type": "uint256"
        },
        {
          "internalType": "uint256",
          "name": "generation",
          "type": "uint256"
        },
        {
          "internalType": "uint256",
          "name": "geneA",
          "type": "uint256"
        },
        {
          "internalType": "uint256",
          "name": "geneB",
          "type": "uint256"
        }
      ],
      "stateMutability": "view",
      "type": "function",
      "constant": true
    },
    {
      "inputs": [],
      "name": "name",
      "outputs": [
        {
          "internalType": "string",
          "name": "",
          "type": "string"
        }
      ],
      "stateMutability": "view",
      "type": "function",
      "constant": true
    },
    {
      "inputs": [],
      "name": "nextId",
      "outputs": [
        {
          "internalType": "uint256",
          "name": "",
          "type": "uint256"
        }
      ],
      "stateMutability": "view",
      "type": "function",
      "constant": true
    },
    {
      "inputs": [],
      "name": "nextTokenId",
      "outputs": [
        {
          "internalType": "uint256",
          "name": "",
          "type": "uint256"
        }
      ],
      "stateMutability": "view",
      "type": "function",
      "constant": true
    },
    {
      "inputs": [
        {
          "internalType": "uint256",
          "name": "_tokenId",
          "type": "uint256"
        }
      ],
      "name": "ownerOf",
      "outputs": [
        {
          "internalType": "address",
          "name": "",
          "type": "address"
        }
      ],
      "stateMutability": "view",
      "type": "function",
      "constant": true
    },
    {
      "inputs": [
        {
          "internalType": "address",
          "name": "_from",
          "type": "address"
        },
        {
          "internalType": "address",
          "name": "_to",
          "type": "address"
        },
        {
          "internalType": "uint256",
          "name": "_tokenId",
          "type": "uint256"
        }
      ],
      "name": "safeTransferFrom",
      "outputs": [],
      "stateMutability": "payable",
      "type": "function",
      "payable": true
    },
    {
      "inputs": [
        {
          "internalType": "address",
          "name": "_from",
          "type": "address"
        },
        {
          "internalType": "address",
          "name": "_to",
          "type": "address"
        },
        {
          "internalType": "uint256",
          "name": "_tokenId",
          "type": "uint256"
        },
        {
          "internalType": "bytes",
          "name": "data",
          "type": "bytes"
        }
      ],
      "name": "safeTransferFrom",
      "outputs": [],
      "stateMutability": "payable",
      "type": "function",
      "payable": true
    },
    {
      "inputs": [
        {
          "internalType": "address",
          "name": "_operator",
          "type": "address"
        },
        {
          "internalType": "bool",
          "name": "_approved",
          "type": "bool"
        }
      ],
      "name": "setApprovalForAll",
      "outputs": [],
      "stateMutability": "nonpayable",
      "type": "function"
    },
    {
      "inputs": [],
      "name": "symbol",
      "outputs": [
        {
          "internalType": "string",
          "name": "",
          "type": "string"
        }
      ],
      "stateMutability": "view",
      "type": "function",
      "constant": true
    },
    {
      "inputs": [
        {
          "internalType": "uint256",
          "name": "_tokenId",
          "type": "uint256"
        }
      ],
      "name": "tokenURI",
      "outputs": [
        {
          "internalType": "string",
          "name": "",
          "type": "string"
        }
      ],
      "stateMutability": "view",
      "type": "function",
      "constant": true
    },
    {
      "inputs": [],
      "name": "tokenURIBase",
      "outputs": [
        {
          "internalType": "string",
          "name": "",
          "type": "string"
        }
      ],
      "stateMutability": "view",
      "type": "function",
      "constant": true
    },
    {
      "inputs": [
        {
          "internalType": "address",
          "name": "_from",
          "type": "address"
        },
        {
          "internalType": "address",
          "name": "_to",
          "type": "address"
        },
        {
          "internalType": "uint256",
          "name": "_tokenId",
          "type": "uint256"
        }
      ],
      "name": "transferFrom",
      "outputs": [],
      "stateMutability": "payable",
      "type": "function",
      "payable": true
    },
    {
      "inputs": [
        {
          "internalType": "uint256",
          "name": "kittyId1",
          "type": "uint256"
        },
        {
          "internalType": "uint256",
          "name": "kittyId2",
          "type": "uint256"
        }
      ],
      "name": "breed",
      "outputs": [],
      "stateMutability": "nonpayable",
      "type": "function"
    },
    {
      "inputs": [],
      "name": "mint",
      "outputs": [],
      "stateMutability": "nonpayable",
      "type": "function"
    }
  ],
  "bytecode": "0x60806040523480156200001157600080fd5b50604051620029c5380380620029c5833981810160405281019062000037919062000250565b82828282600490816200004b919062000554565b5081600590816200005d919062000554565b5080600690816200006f919062000554565b5050505033600a60006101000a81548173ffffffffffffffffffffffffffffffffffffffff021916908373ffffffffffffffffffffffffffffffffffffffff1602179055505050506200063b565b6000604051905090565b600080fd5b600080fd5b600080fd5b600080fd5b6000601f19601f8301169050919050565b7f4e487b7100000000000000000000000000000000000000000000000000000000600052604160045260246000fd5b6200012682620000db565b810181811067ffffffffffffffff82111715620001485762000147620000ec565b5b80604052505050565b60006200015d620000bd565b90506200016b82826200011b565b919050565b600067ffffffffffffffff8211156200018e576200018d620000ec565b5b6200019982620000db565b9050602081019050919050565b60005b83811015620001c6578082015181840152602081019050620001a9565b60008484015250505050565b6000620001e9620001e38462000170565b62000151565b905082815260208101848484011115620002085762000207620000d6565b5b62000215848285620001a6565b509392505050565b600082601f830112620002355762000234620000d1565b5b815162000247848260208601620001d2565b91505092915050565b6000806000606084860312156200026c576200026b620000c7565b5b600084015167ffffffffffffffff8111156200028d576200028c620000cc565b5b6200029b868287016200021d565b935050602084015167ffffffffffffffff811115620002bf57620002be620000cc565b5b620002cd868287016200021d565b925050604084015167ffffffffffffffff811115620002f157620002f0620000cc565b5b620002ff868287016200021d565b9150509250925092565b600081519050919050565b7f4e487b7100000000000000000000000000000000000000000000000000000000600052602260045260246000fd5b600060028204905060018216806200035c57607f821691505b60208210810362000372576200037162000314565b5b50919050565b60008190508160005260206000209050919050565b60006020601f8301049050919050565b600082821b905092915050565b600060088302620003dc7fffffffffffffffffffffffffffffffffffffffffffffffffffffffffffffffff826200039d565b620003e886836200039d565b95508019841693508086168417925050509392505050565b6000819050919050565b6000819050919050565b6000620004356200042f620004298462000400565b6200040a565b62000400565b9050919050565b6000819050919050565b620004518362000414565b6200046962000460826200043c565b848454620003aa565b825550505050565b600090565b6200048062000471565b6200048d81848462000446565b505050565b5b81811015620004b557620004a960008262000476565b60018101905062000493565b5050565b601f8211156200050457620004ce8162000378565b620004d9846200038d565b81016020851015620004e9578190505b62000501620004f8856200038d565b83018262000492565b50505b505050565b600082821c905092915050565b6000620005296000198460080262000509565b1980831691505092915050565b600062000544838362000516565b9150826002028217905092915050565b6200055f8262000309565b67ffffffffffffffff8111156200057b576200057a620000ec565b5b62000587825462000343565b62000594828285620004b9565b600060209050601f831160018114620005cc5760008415620005b7578287015190505b620005c3858262000536565b86555062000633565b601f198416620005dc8662000378565b60005b828110156200060657848901518255600182019150602085019450602081019050620005df565b8683101562000626578489015162000622601f89168262000516565b8355505b6001600288020188555050505b505050505050565b61237a806200064b6000396000f3fe6080604052600436106101145760003560e01c806370a08231116100a0578063b88d4fde11610064578063b88d4fde1461037b578063c87b56dd14610397578063d9ecad7b146103d4578063e985e9c5146103fd578063f851a4401461043a57610114565b806370a082311461027f57806375794a3c146102bc5780638cc51eda146102e757806395d89b4114610327578063a22cb4651461035257610114565b806323b872dd116100e757806323b872dd146101b4578063261220a3146101d057806342842e0e146101fb57806361b8ce8c146102175780636352211e1461024257610114565b806306fdde0314610119578063081812fc14610144578063095ea7b3146101815780631249c58b1461019d575b600080fd5b34801561012557600080fd5b5061012e610465565b60405161013b9190611637565b60405180910390f35b34801561015057600080fd5b5061016b60048036038101906101669190611699565b6104f3565b6040516101789190611707565b60405180910390f35b61019b6004803603810190610196919061174e565b610530565b005b3480156101a957600080fd5b506101b2610688565b005b6101ce60048036038101906101c9919061178e565b6107b4565b005b3480156101dc57600080fd5b506101e56107c4565b6040516101f29190611637565b60405180910390f35b6102156004803603810190610210919061178e565b610852565b005b34801561022357600080fd5b5061022c610872565b60405161023991906117f0565b60405180910390f35b34801561024e57600080fd5b5061026960048036038101906102649190611699565b610878565b6040516102769190611707565b60405180910390f35b34801561028b57600080fd5b506102a660048036038101906102a1919061180b565b6108b5565b6040516102b391906117f0565b60405180910390f35b3480156102c857600080fd5b506102d16108fd565b6040516102de91906117f0565b60405180910390f35b3480156102f357600080fd5b5061030e60048036038101906103099190611699565b610903565b60405161031e9493929190611838565b60405180910390f35b34801561033357600080fd5b5061033c610933565b6040516103499190611637565b60405180910390f35b34801561035e57600080fd5b50610379600480360381019061037491906118b5565b6109c1565b005b6103956004803603810190610390919061195a565b610abe565b005b3480156103a357600080fd5b506103be60048036038101906103b99190611699565b610b15565b6040516103cb9190611637565b60405180910390f35b3480156103e057600080fd5b506103fb60048036038101906103f691906119e2565b610b41565b005b34801561040957600080fd5b50610424600480360381019061041f9190611a22565b610dec565b6040516104319190611a71565b60405180910390f35b34801561044657600080fd5b5061044f610e80565b60405161045c9190611707565b60405180910390f35b6004805461047290611abb565b80601f016020809104026020016040519081016040528092919081815260200182805461049e90611abb565b80156104eb5780601f106104c0576101008083540402835291602001916104eb565b820191906000526020600020905b8154815290600101906020018083116104ce57829003601f168201915b505050505081565b60006002600083815260200190815260200160002060009054906101000a900473ffffffffffffffffffffffffffffffffffffffff169050919050565b60006001600083815260200190815260200160002060009054906101000a900473ffffffffffffffffffffffffffffffffffffffff1690508073ffffffffffffffffffffffffffffffffffffffff163373ffffffffffffffffffffffffffffffffffffffff16146105d6576040517f08c379a00000000000000000000000000000000000000000000000000000000081526004016105cd90611b38565b60405180910390fd5b826002600084815260200190815260200160002060006101000a81548173ffffffffffffffffffffffffffffffffffffffff021916908373ffffffffffffffffffffffffffffffffffffffff160217905550818373ffffffffffffffffffffffffffffffffffffffff168273ffffffffffffffffffffffffffffffffffffffff167f8c5be1e5ebec7d5bd14f71427d1e84f3dd0314c0f7b2291e5b200ac8c7c3b92560405160405180910390a4505050565b600a60009054906101000a900473ffffffffffffffffffffffffffffffffffffffff1673ffffffffffffffffffffffffffffffffffffffff163373ffffffffffffffffffffffffffffffffffffffff1614610718576040517f08c379a000000000000000000000000000000000000000000000000000000000815260040161070f90611ba4565b60405180910390fd5b604051806080016040528060095481526020016001815260200161073c600a610ea6565b815260200161074b600a610ea6565b8152506008600060095481526020019081526020016000206000820151816000015560208201518160010155604082015181600201556060820151816003015590505061079a60095433610ee6565b600960008154809291906107ad90611bf3565b9190505550565b6107bf838383611090565b505050565b600680546107d190611abb565b80601f01602080910402602001604051908101604052809291908181526020018280546107fd90611abb565b801561084a5780601f1061081f5761010080835404028352916020019161084a565b820191906000526020600020905b81548152906001019060200180831161082d57829003601f168201915b505050505081565b61086d83838360405180602001604052806000815250611398565b505050565b60095481565b60006001600083815260200190815260200160002060009054906101000a900473ffffffffffffffffffffffffffffffffffffffff169050919050565b60008060008373ffffffffffffffffffffffffffffffffffffffff1673ffffffffffffffffffffffffffffffffffffffff168152602001908152602001600020549050919050565b60075481565b60086020528060005260406000206000915090508060000154908060010154908060020154908060030154905084565b6005805461094090611abb565b80601f016020809104026020016040519081016040528092919081815260200182805461096c90611abb565b80156109b95780601f1061098e576101008083540402835291602001916109b9565b820191906000526020600020905b81548152906001019060200180831161099c57829003601f168201915b505050505081565b80600360003373ffffffffffffffffffffffffffffffffffffffff1673ffffffffffffffffffffffffffffffffffffffff16815260200190815260200160002060008473ffffffffffffffffffffffffffffffffffffffff1673ffffffffffffffffffffffffffffffffffffffff16815260200190815260200160002060006101000a81548160ff0219169083151502179055508173ffffffffffffffffffffffffffffffffffffffff163373ffffffffffffffffffffffffffffffffffffffff167f17307eab39ab6107e8899845ad3d59bd9653f200f220920489ca2b5937696c3183604051610ab29190611a71565b60405180910390a35050565b610b0e85858585858080601f016020809104026020016040519081016040528093929190818152602001838380828437600081840152601f19601f82011690508083019250505050505050611398565b5050505050565b6060600682604051602001610b2b929190611d4b565b6040516020818303038152906040529050919050565b6009548210610b85576040517f08c379a0000000000000000000000000000000000000000000000000000000008152600401610b7c90611dca565b60405180910390fd5b6009548110610bc9576040517f08c379a0000000000000000000000000000000000000000000000000000000008152600401610bc090611e36565b60405180910390fd5b600060086000848152602001908152602001600020905060006008600084815260200190815260200160002090503373ffffffffffffffffffffffffffffffffffffffff16610c1785610878565b73ffffffffffffffffffffffffffffffffffffffff1614610c6d576040517f08c379a0000000000000000000000000000000000000000000000000000000008152600401610c6490611ea2565b60405180910390fd5b3373ffffffffffffffffffffffffffffffffffffffff16610c8d84610878565b73ffffffffffffffffffffffffffffffffffffffff1614610ce3576040517f08c379a0000000000000000000000000000000000000000000000000000000008152600401610cda90611f0e565b60405180910390fd5b60008160010154836001015411610cfe578160010154610d04565b82600101545b905060006001610d146004610ea6565b11610d23578260020154610d29565b83600201545b905060006001610d396004610ea6565b11610d48578360030154610d4e565b84600301545b905060405180608001604052806009548152602001600185610d709190611f2e565b81526020018381526020018281525060086000600954815260200190815260200160002060008201518160000155602082015181600101556040820151816002015560608201518160030155905050610dcb60095433610ee6565b60096000815480929190610dde90611bf3565b919050555050505050505050565b6000600360008473ffffffffffffffffffffffffffffffffffffffff1673ffffffffffffffffffffffffffffffffffffffff16815260200190815260200160002060008373ffffffffffffffffffffffffffffffffffffffff1673ffffffffffffffffffffffffffffffffffffffff16815260200190815260200160002060009054906101000a900460ff16905092915050565b600a60009054906101000a900473ffffffffffffffffffffffffffffffffffffffff1681565b6000814244604051602001610ebc929190611f62565b6040516020818303038152906040528051906020012060001c610edf9190611fbd565b9050919050565b600073ffffffffffffffffffffffffffffffffffffffff166001600084815260200190815260200160002060009054906101000a900473ffffffffffffffffffffffffffffffffffffffff1673ffffffffffffffffffffffffffffffffffffffff1614610f88576040517f08c379a0000000000000000000000000000000000000000000000000000000008152600401610f7f9061203a565b60405180910390fd5b806001600084815260200190815260200160002060006101000a81548173ffffffffffffffffffffffffffffffffffffffff021916908373ffffffffffffffffffffffffffffffffffffffff16021790555060016000808373ffffffffffffffffffffffffffffffffffffffff1673ffffffffffffffffffffffffffffffffffffffff16815260200190815260200160002060008282546110299190611f2e565b92505081905550818173ffffffffffffffffffffffffffffffffffffffff16600073ffffffffffffffffffffffffffffffffffffffff167fddf252ad1be2c89b69c2b068fc378daa952ba7f163c4a11628f55a4df523b3ef60405160405180910390a45050565b8060006001600083815260200190815260200160002060009054906101000a900473ffffffffffffffffffffffffffffffffffffffff1690508073ffffffffffffffffffffffffffffffffffffffff163373ffffffffffffffffffffffffffffffffffffffff16148061116157506002600083815260200190815260200160002060009054906101000a900473ffffffffffffffffffffffffffffffffffffffff1673ffffffffffffffffffffffffffffffffffffffff163373ffffffffffffffffffffffffffffffffffffffff16145b806111f9575060011515600360008373ffffffffffffffffffffffffffffffffffffffff1673ffffffffffffffffffffffffffffffffffffffff16815260200190815260200160002060003373ffffffffffffffffffffffffffffffffffffffff1673ffffffffffffffffffffffffffffffffffffffff16815260200190815260200160002060009054906101000a900460ff161515145b611238576040517f08c379a000000000000000000000000000000000000000000000000000000000815260040161122f906120a6565b60405180910390fd5b60016000808773ffffffffffffffffffffffffffffffffffffffff1673ffffffffffffffffffffffffffffffffffffffff168152602001908152602001600020600082825461128791906120c6565b9250508190555060016000808673ffffffffffffffffffffffffffffffffffffffff1673ffffffffffffffffffffffffffffffffffffffff16815260200190815260200160002060008282546112dd9190611f2e565b92505081905550836001600085815260200190815260200160002060006101000a81548173ffffffffffffffffffffffffffffffffffffffff021916908373ffffffffffffffffffffffffffffffffffffffff160217905550828473ffffffffffffffffffffffffffffffffffffffff168673ffffffffffffffffffffffffffffffffffffffff167fddf252ad1be2c89b69c2b068fc378daa952ba7f163c4a11628f55a4df523b3ef60405160405180910390a45050505050565b6113a3848484611090565b60006113b185858585611401565b905060011515811515146113fa576040517f08c379a00000000000000000000000000000000000000000000000000000000081526004016113f19061216c565b60405180910390fd5b5050505050565b60006114228473ffffffffffffffffffffffffffffffffffffffff16611581565b15611574578373ffffffffffffffffffffffffffffffffffffffff1663150b7a02338786866040518563ffffffff1660e01b815260040161146694939291906121e1565b6020604051808303816000875af19250505080156114a257506040513d601f19601f8201168201806040525081019061149f9190612285565b60015b611524573d80600081146114d2576040519150601f19603f3d011682016040523d82523d6000602084013e6114d7565b606091505b50600081510361151c576040517f08c379a000000000000000000000000000000000000000000000000000000000815260040161151390612324565b60405180910390fd5b805181602001fd5b63150b7a0260e01b7bffffffffffffffffffffffffffffffffffffffffffffffffffffffff1916817bffffffffffffffffffffffffffffffffffffffffffffffffffffffff191614915050611579565b600190505b949350505050565b60008060008373ffffffffffffffffffffffffffffffffffffffff163b11915050919050565b600081519050919050565b600082825260208201905092915050565b60005b838110156115e15780820151818401526020810190506115c6565b60008484015250505050565b6000601f19601f8301169050919050565b6000611609826115a7565b61161381856115b2565b93506116238185602086016115c3565b61162c816115ed565b840191505092915050565b6000602082019050818103600083015261165181846115fe565b905092915050565b600080fd5b600080fd5b6000819050919050565b61167681611663565b811461168157600080fd5b50565b6000813590506116938161166d565b92915050565b6000602082840312156116af576116ae611659565b5b60006116bd84828501611684565b91505092915050565b600073ffffffffffffffffffffffffffffffffffffffff82169050919050565b60006116f1826116c6565b9050919050565b611701816116e6565b82525050565b600060208201905061171c60008301846116f8565b92915050565b61172b816116e6565b811461173657600080fd5b50565b60008135905061174881611722565b92915050565b6000806040838503121561176557611764611659565b5b600061177385828601611739565b925050602061178485828601611684565b9150509250929050565b6000806000606084860312156117a7576117a6611659565b5b60006117b586828701611739565b93505060206117c686828701611739565b92505060406117d786828701611684565b9150509250925092565b6117ea81611663565b82525050565b600060208201905061180560008301846117e1565b92915050565b60006020828403121561182157611820611659565b5b600061182f84828501611739565b91505092915050565b600060808201905061184d60008301876117e1565b61185a60208301866117e1565b61186760408301856117e1565b61187460608301846117e1565b95945050505050565b60008115159050919050565b6118928161187d565b811461189d57600080fd5b50565b6000813590506118af81611889565b92915050565b600080604083850312156118cc576118cb611659565b5b60006118da85828601611739565b92505060206118eb858286016118a0565b9150509250929050565b600080fd5b600080fd5b600080fd5b60008083601f84011261191a576119196118f5565b5b8235905067ffffffffffffffff811115611937576119366118fa565b5b602083019150836001820283011115611953576119526118ff565b5b9250929050565b60008060008060006080868803121561197657611975611659565b5b600061198488828901611739565b955050602061199588828901611739565b94505060406119a688828901611684565b935050606086013567ffffffffffffffff8111156119c7576119c661165e565b5b6119d388828901611904565b92509250509295509295909350565b600080604083850312156119f9576119f8611659565b5b6000611a0785828601611684565b9250506020611a1885828601611684565b9150509250929050565b60008060408385031215611a3957611a38611659565b5b6000611a4785828601611739565b9250506020611a5885828601611739565b9150509250929050565b611a6b8161187d565b82525050565b6000602082019050611a866000830184611a62565b92915050565b7f4e487b7100000000000000000000000000000000000000000000000000000000600052602260045260246000fd5b60006002820490506001821680611ad357607f821691505b602082108103611ae657611ae5611a8c565b5b50919050565b7f4e6f7420617574686f7269736564000000000000000000000000000000000000600082015250565b6000611b22600e836115b2565b9150611b2d82611aec565b602082019050919050565b60006020820190508181036000830152611b5181611b15565b9050919050565b7f6f6e6c792061646d696e00000000000000000000000000000000000000000000600082015250565b6000611b8e600a836115b2565b9150611b9982611b58565b602082019050919050565b60006020820190508181036000830152611bbd81611b81565b9050919050565b7f4e487b7100000000000000000000000000000000000000000000000000000000600052601160045260246000fd5b6000611bfe82611663565b91507fffffffffffffffffffffffffffffffffffffffffffffffffffffffffffffffff8203611c3057611c2f611bc4565b5b600182019050919050565b600081905092915050565b60008190508160005260206000209050919050565b60008154611c6881611abb565b611c728186611c3b565b94506001821660008114611c8d5760018114611ca257611cd5565b60ff1983168652811515820286019350611cd5565b611cab85611c46565b60005b83811015611ccd57815481890152600182019150602081019050611cae565b838801955050505b50505092915050565b7f2f00000000000000000000000000000000000000000000000000000000000000600082015250565b6000611d14600183611c3b565b9150611d1f82611cde565b600182019050919050565b6000819050919050565b611d45611d4082611663565b611d2a565b82525050565b6000611d578285611c5b565b9150611d6282611d07565b9150611d6e8284611d34565b6020820191508190509392505050565b7f6b697474793120646f6573206e6f742065786973740000000000000000000000600082015250565b6000611db46015836115b2565b9150611dbf82611d7e565b602082019050919050565b60006020820190508181036000830152611de381611da7565b9050919050565b7f6b697474793220646f6573206e6f742065786973740000000000000000000000600082015250565b6000611e206015836115b2565b9150611e2b82611dea565b602082019050919050565b60006020820190508181036000830152611e4f81611e13565b9050919050565b7f73656e646572206d757374206f776e206b697474793100000000000000000000600082015250565b6000611e8c6016836115b2565b9150611e9782611e56565b602082019050919050565b60006020820190508181036000830152611ebb81611e7f565b9050919050565b7f73656e646572206d757374206f776e206b697474793200000000000000000000600082015250565b6000611ef86016836115b2565b9150611f0382611ec2565b602082019050919050565b60006020820190508181036000830152611f2781611eeb565b9050919050565b6000611f3982611663565b9150611f4483611663565b9250828201905080821115611f5c57611f5b611bc4565b5b92915050565b6000611f6e8285611d34565b602082019150611f7e8284611d34565b6020820191508190509392505050565b7f4e487b7100000000000000000000000000000000000000000000000000000000600052601260045260246000fd5b6000611fc882611663565b9150611fd383611663565b925082611fe357611fe2611f8e565b5b828206905092915050565b7f7468697320746f6b656e20616c72656164792065786973740000000000000000600082015250565b60006120246018836115b2565b915061202f82611fee565b602082019050919050565b6000602082019050818103600083015261205381612017565b9050919050565b7f5472616e73666572206e6f7420617574686f7269736564000000000000000000600082015250565b60006120906017836115b2565b915061209b8261205a565b602082019050919050565b600060208201905081810360008301526120bf81612083565b9050919050565b60006120d182611663565b91506120dc83611663565b92508282039050818111156120f4576120f3611bc4565b5b92915050565b7f726563697069656e7420736d61727420636f6e74726163742063616e6e6f742060008201527f68616e646c652045524337323120746f6b656e73000000000000000000000000602082015250565b60006121566034836115b2565b9150612161826120fa565b604082019050919050565b6000602082019050818103600083015261218581612149565b9050919050565b600081519050919050565b600082825260208201905092915050565b60006121b38261218c565b6121bd8185612197565b93506121cd8185602086016115c3565b6121d6816115ed565b840191505092915050565b60006080820190506121f660008301876116f8565b61220360208301866116f8565b61221060408301856117e1565b818103606083015261222281846121a8565b905095945050505050565b60007fffffffff0000000000000000000000000000000000000000000000000000000082169050919050565b6122628161222d565b811461226d57600080fd5b50565b60008151905061227f81612259565b92915050565b60006020828403121561229b5761229a611659565b5b60006122a984828501612270565b91505092915050565b7f4552433732313a207472616e7366657220746f206e6f6e20455243373231526560008201527f63656976657220696d706c656d656e7465720000000000000000000000000000602082015250565b600061230e6032836115b2565b9150612319826122b2565b604082019050919050565b6000602082019050818103600083015261233d81612301565b905091905056fea2646970667358221220a3e8be46644f9603b11ced88fd36ae1968b9892fd9438db9c9b0d8d74b319b1564736f6c63430008110033",
  "immutableReferences": {},
  "source": "// SPDX-License-Identifier: MIT\r\npragma solidity 0.8.17;\r\n\r\nimport './ERC721Token.sol';\r\n\r\ncontract CryptoKitty is ERC721Token {\r\n\r\n  enum HairColor { White, Black }\r\n\r\n  struct Kitty {\r\n    uint id;\r\n    uint generation;\r\n    uint geneA;\r\n    uint geneB;\r\n  }\r\n\r\n  mapping (uint => Kitty) public kitties;\r\n  uint public nextId;\r\n\r\n  address public admin;\r\n  \r\n\r\n  constructor(\r\n    string memory _name,\r\n    string memory _symbol,\r\n    string memory _tokenURIBase\r\n  ) ERC721Token(_name, _symbol, _tokenURIBase) {\r\n    admin = msg.sender;\r\n    \r\n  }\r\n\r\n  function breed(uint kittyId1, uint kittyId2) external {\r\n    require(kittyId1 < nextId, 'kitty1 does not exist');\r\n    require(kittyId2 < nextId, 'kitty2 does not exist');\r\n\r\n    Kitty storage kitty1 = kitties[kittyId1];\r\n    Kitty storage kitty2 = kitties[kittyId2];\r\n\r\n    require(ownerOf(kittyId1) == msg.sender, 'sender must own kitty1');\r\n    require(ownerOf(kittyId2) == msg.sender, 'sender must own kitty2');\r\n\r\n    uint maxGen = kitty1.generation > kitty2.generation ? kitty1.generation : kitty2.generation;\r\n    uint geneA = _random(4) > 1 ? kitty1.geneA : kitty2.geneA;\r\n    uint geneB = _random(4) > 1 ? kitty1.geneB : kitty2.geneB;\r\n    kitties[nextId] = Kitty(nextId, maxGen + 1, geneA, geneB);\r\n    _mint(nextId, msg.sender);\r\n    nextId++;\r\n  }\r\n\r\n  function mint() external {\r\n    require(msg.sender == admin, 'only admin');\r\n    kitties[nextId] = Kitty(nextId, 1, _random(10), _random(10));\r\n    _mint(nextId, msg.sender);\r\n    nextId++;\r\n  }\r\n\r\n  function _random(uint max) internal view returns(uint) {\r\n    return uint(keccak256(abi.encodePacked(block.timestamp, block.difficulty))) % max;\r\n  }\r\n}",
  "sourcePath": "C:\\Development\\Products\\Blockchain\\Dapp30\\Dapp30\\23CryptoKitties\\contracts\\CryptoKitty.sol",
  "compiler": {
    "name": "solc",
    "version": "0.8.17+commit.8df45f5f.Emscripten.clang"
  },
  "schemaVersion": "3.4.10",
  "updatedAt": "2023-02-05T20:59:04.477Z",
  "networkType": "ethereum",
  "devdoc": {
    "kind": "dev",
    "methods": {
      "approve(address,uint256)": {
        "details": "The zero address indicates there is no approved address.  Throws unless `msg.sender` is the current NFT owner, or an authorized  operator of the current owner.",
        "params": {
          "_approved": "The new approved NFT controller",
          "_tokenId": "The NFT to approve"
        }
      },
      "balanceOf(address)": {
        "details": "NFTs assigned to the zero address are considered invalid, and this  function throws for queries about the zero address.",
        "params": {
          "_owner": "An address for whom to query the balance"
        },
        "returns": {
          "_0": "The number of NFTs owned by `_owner`, possibly zero"
        }
      },
      "getApproved(uint256)": {
        "details": "Throws if `_tokenId` is not a valid NFT.",
        "params": {
          "_tokenId": "The NFT to find the approved address for"
        },
        "returns": {
          "_0": "The approved address for this NFT, or the zero address if there is none"
        }
      },
      "isApprovedForAll(address,address)": {
        "params": {
          "_operator": "The address that acts on behalf of the owner",
          "_owner": "The address that owns the NFTs"
        },
        "returns": {
          "_0": "True if `_operator` is an approved operator for `_owner`, false otherwise"
        }
      },
      "ownerOf(uint256)": {
        "details": "NFTs assigned to zero address are considered invalid, and queries  about them do throw.",
        "params": {
          "_tokenId": "The identifier for an NFT"
        },
        "returns": {
          "_0": "The address of the owner of the NFT"
        }
      },
      "safeTransferFrom(address,address,uint256)": {
        "details": "This works identically to the other function with an extra data parameter,  except this function just sets data to \"\".",
        "params": {
          "_from": "The current owner of the NFT",
          "_to": "The new owner",
          "_tokenId": "The NFT to transfer"
        }
      },
      "safeTransferFrom(address,address,uint256,bytes)": {
        "details": "Throws unless `msg.sender` is the current owner, an authorized  operator, or the approved address for this NFT. Throws if `_from` is  not the current owner. Throws if `_to` is the zero address. Throws if  `_tokenId` is not a valid NFT. When transfer is complete, this function  checks if `_to` is a smart contract (code size > 0). If so, it calls  `onERC721Received` on `_to` and throws if the return value is not  `bytes4(keccak256(\"onERC721Received(address,address,uint256,bytes)\"))`.",
        "params": {
          "_from": "The current owner of the NFT",
          "_to": "The new owner",
          "_tokenId": "The NFT to transfer",
          "data": "Additional data with no specified format, sent in call to `_to`"
        }
      },
      "setApprovalForAll(address,bool)": {
        "details": "Emits the ApprovalForAll event. The contract MUST allow  multiple operators per owner.",
        "params": {
          "_approved": "True if the operator is approved, false to revoke approval",
          "_operator": "Address to add to the set of authorized operators"
        }
      },
      "transferFrom(address,address,uint256)": {
        "details": "Throws unless `msg.sender` is the current owner, an authorized  operator, or the approved address for this NFT. Throws if `_from` is  not the current owner. Throws if `_to` is the zero address. Throws if  `_tokenId` is not a valid NFT.",
        "params": {
          "_from": "The current owner of the NFT",
          "_to": "The new owner",
          "_tokenId": "The NFT to transfer"
        }
      }
    },
    "version": 1
  },
  "userdoc": {
    "kind": "user",
    "methods": {
      "approve(address,uint256)": {
        "notice": "Change or reaffirm the approved address for an NFT"
      },
      "balanceOf(address)": {
        "notice": "Count all NFTs assigned to an owner"
      },
      "getApproved(uint256)": {
        "notice": "Get the approved address for a single NFT"
      },
      "isApprovedForAll(address,address)": {
        "notice": "Query if an address is an authorized operator for another address"
      },
      "ownerOf(uint256)": {
        "notice": "Find the owner of an NFT"
      },
      "safeTransferFrom(address,address,uint256)": {
        "notice": "Transfers the ownership of an NFT from one address to another address"
      },
      "safeTransferFrom(address,address,uint256,bytes)": {
        "notice": "Transfers the ownership of an NFT from one address to another address"
      },
      "setApprovalForAll(address,bool)": {
        "notice": "Enable or disable approval for a third party (\"operator\") to manage  all of `msg.sender`'s assets"
      },
      "transferFrom(address,address,uint256)": {
        "notice": "Transfer ownership of an NFT -- THE CALLER IS RESPONSIBLE  TO CONFIRM THAT `_to` IS CAPABLE OF RECEIVING NFTS OR ELSE  THEY MAY BE PERMANENTLY LOST"
      }
    },
    "version": 1
  }
}