{
  "contractName": "CryptoKitty",
  "abi": [
    {
      "inputs": [
        {
          "internalType": "string",
          "name": "_name",
          "type": "string"
        },
        {
          "internalType": "string",
          "name": "_symbol",
          "type": "string"
        },
        {
          "internalType": "string",
          "name": "_tokenURIBase",
          "type": "string"
        }
      ],
      "stateMutability": "nonpayable",
      "type": "constructor"
    },
    {
      "anonymous": false,
      "inputs": [
        {
          "indexed": true,
          "internalType": "address",
          "name": "_owner",
          "type": "address"
        },
        {
          "indexed": true,
          "internalType": "address",
          "name": "_approved",
          "type": "address"
        },
        {
          "indexed": true,
          "internalType": "uint256",
          "name": "_tokenId",
          "type": "uint256"
        }
      ],
      "name": "Approval",
      "type": "event"
    },
    {
      "anonymous": false,
      "inputs": [
        {
          "indexed": true,
          "internalType": "address",
          "name": "_owner",
          "type": "address"
        },
        {
          "indexed": true,
          "internalType": "address",
          "name": "_operator",
          "type": "address"
        },
        {
          "indexed": false,
          "internalType": "bool",
          "name": "_approved",
          "type": "bool"
        }
      ],
      "name": "ApprovalForAll",
      "type": "event"
    },
    {
      "anonymous": false,
      "inputs": [
        {
          "indexed": true,
          "internalType": "address",
          "name": "_from",
          "type": "address"
        },
        {
          "indexed": true,
          "internalType": "address",
          "name": "_to",
          "type": "address"
        },
        {
          "indexed": true,
          "internalType": "uint256",
          "name": "_tokenId",
          "type": "uint256"
        }
      ],
      "name": "Transfer",
      "type": "event"
    },
    {
      "inputs": [],
      "name": "admin",
      "outputs": [
        {
          "internalType": "address",
          "name": "",
          "type": "address"
        }
      ],
      "stateMutability": "view",
      "type": "function",
      "constant": true
    },
    {
      "inputs": [
        {
          "internalType": "address",
          "name": "_approved",
          "type": "address"
        },
        {
          "internalType": "uint256",
          "name": "_tokenId",
          "type": "uint256"
        }
      ],
      "name": "approve",
      "outputs": [],
      "stateMutability": "payable",
      "type": "function",
      "payable": true
    },
    {
      "inputs": [
        {
          "internalType": "address",
          "name": "_owner",
          "type": "address"
        }
      ],
      "name": "balanceOf",
      "outputs": [
        {
          "internalType": "uint256",
          "name": "",
          "type": "uint256"
        }
      ],
      "stateMutability": "view",
      "type": "function",
      "constant": true
    },
    {
      "inputs": [
        {
          "internalType": "uint256",
          "name": "_tokenId",
          "type": "uint256"
        }
      ],
      "name": "getApproved",
      "outputs": [
        {
          "internalType": "address",
          "name": "",
          "type": "address"
        }
      ],
      "stateMutability": "view",
      "type": "function",
      "constant": true
    },
    {
      "inputs": [
        {
          "internalType": "address",
          "name": "_owner",
          "type": "address"
        },
        {
          "internalType": "address",
          "name": "_operator",
          "type": "address"
        }
      ],
      "name": "isApprovedForAll",
      "outputs": [
        {
          "internalType": "bool",
          "name": "",
          "type": "bool"
        }
      ],
      "stateMutability": "view",
      "type": "function",
      "constant": true
    },
    {
      "inputs": [
        {
          "internalType": "uint256",
          "name": "",
          "type": "uint256"
        }
      ],
      "name": "kitties",
      "outputs": [
        {
          "internalType": "uint256",
          "name": "id",
          "type": "uint256"
        },
        {
          "internalType": "uint256",
          "name": "generation",
          "type": "uint256"
        },
        {
          "internalType": "uint256",
          "name": "geneA",
          "type": "uint256"
        },
        {
          "internalType": "uint256",
          "name": "geneB",
          "type": "uint256"
        }
      ],
      "stateMutability": "view",
      "type": "function",
      "constant": true
    },
    {
      "inputs": [],
      "name": "name",
      "outputs": [
        {
          "internalType": "string",
          "name": "",
          "type": "string"
        }
      ],
      "stateMutability": "view",
      "type": "function",
      "constant": true
    },
    {
      "inputs": [],
      "name": "nextId",
      "outputs": [
        {
          "internalType": "uint256",
          "name": "",
          "type": "uint256"
        }
      ],
      "stateMutability": "view",
      "type": "function",
      "constant": true
    },
    {
      "inputs": [],
      "name": "nextTokenId",
      "outputs": [
        {
          "internalType": "uint256",
          "name": "",
          "type": "uint256"
        }
      ],
      "stateMutability": "view",
      "type": "function",
      "constant": true
    },
    {
      "inputs": [
        {
          "internalType": "uint256",
          "name": "_tokenId",
          "type": "uint256"
        }
      ],
      "name": "ownerOf",
      "outputs": [
        {
          "internalType": "address",
          "name": "",
          "type": "address"
        }
      ],
      "stateMutability": "view",
      "type": "function",
      "constant": true
    },
    {
      "inputs": [
        {
          "internalType": "address",
          "name": "_from",
          "type": "address"
        },
        {
          "internalType": "address",
          "name": "_to",
          "type": "address"
        },
        {
          "internalType": "uint256",
          "name": "_tokenId",
          "type": "uint256"
        }
      ],
      "name": "safeTransferFrom",
      "outputs": [],
      "stateMutability": "payable",
      "type": "function",
      "payable": true
    },
    {
      "inputs": [
        {
          "internalType": "address",
          "name": "_from",
          "type": "address"
        },
        {
          "internalType": "address",
          "name": "_to",
          "type": "address"
        },
        {
          "internalType": "uint256",
          "name": "_tokenId",
          "type": "uint256"
        },
        {
          "internalType": "bytes",
          "name": "data",
          "type": "bytes"
        }
      ],
      "name": "safeTransferFrom",
      "outputs": [],
      "stateMutability": "payable",
      "type": "function",
      "payable": true
    },
    {
      "inputs": [
        {
          "internalType": "address",
          "name": "_operator",
          "type": "address"
        },
        {
          "internalType": "bool",
          "name": "_approved",
          "type": "bool"
        }
      ],
      "name": "setApprovalForAll",
      "outputs": [],
      "stateMutability": "nonpayable",
      "type": "function"
    },
    {
      "inputs": [],
      "name": "symbol",
      "outputs": [
        {
          "internalType": "string",
          "name": "",
          "type": "string"
        }
      ],
      "stateMutability": "view",
      "type": "function",
      "constant": true
    },
    {
      "inputs": [
        {
          "internalType": "uint256",
          "name": "_tokenId",
          "type": "uint256"
        }
      ],
      "name": "tokenURI",
      "outputs": [
        {
          "internalType": "string",
          "name": "",
          "type": "string"
        }
      ],
      "stateMutability": "view",
      "type": "function",
      "constant": true
    },
    {
      "inputs": [],
      "name": "tokenURIBase",
      "outputs": [
        {
          "internalType": "string",
          "name": "",
          "type": "string"
        }
      ],
      "stateMutability": "view",
      "type": "function",
      "constant": true
    },
    {
      "inputs": [
        {
          "internalType": "address",
          "name": "_from",
          "type": "address"
        },
        {
          "internalType": "address",
          "name": "_to",
          "type": "address"
        },
        {
          "internalType": "uint256",
          "name": "_tokenId",
          "type": "uint256"
        }
      ],
      "name": "transferFrom",
      "outputs": [],
      "stateMutability": "payable",
      "type": "function",
      "payable": true
    },
    {
      "inputs": [],
      "name": "getAllKitties",
      "outputs": [
        {
          "components": [
            {
              "internalType": "uint256",
              "name": "id",
              "type": "uint256"
            },
            {
              "internalType": "uint256",
              "name": "generation",
              "type": "uint256"
            },
            {
              "internalType": "uint256",
              "name": "geneA",
              "type": "uint256"
            },
            {
              "internalType": "uint256",
              "name": "geneB",
              "type": "uint256"
            }
          ],
          "internalType": "struct CryptoKitty.Kitty[]",
          "name": "",
          "type": "tuple[]"
        }
      ],
      "stateMutability": "view",
      "type": "function",
      "constant": true
    },
    {
      "inputs": [
        {
          "internalType": "address",
          "name": "owner",
          "type": "address"
        }
      ],
      "name": "getAllKittiesOf",
      "outputs": [
        {
          "components": [
            {
              "internalType": "uint256",
              "name": "id",
              "type": "uint256"
            },
            {
              "internalType": "uint256",
              "name": "generation",
              "type": "uint256"
            },
            {
              "internalType": "uint256",
              "name": "geneA",
              "type": "uint256"
            },
            {
              "internalType": "uint256",
              "name": "geneB",
              "type": "uint256"
            }
          ],
          "internalType": "struct CryptoKitty.Kitty[]",
          "name": "",
          "type": "tuple[]"
        }
      ],
      "stateMutability": "view",
      "type": "function",
      "constant": true
    },
    {
      "inputs": [
        {
          "internalType": "uint256",
          "name": "kittyId1",
          "type": "uint256"
        },
        {
          "internalType": "uint256",
          "name": "kittyId2",
          "type": "uint256"
        }
      ],
      "name": "breed",
      "outputs": [],
      "stateMutability": "nonpayable",
      "type": "function"
    },
    {
      "inputs": [],
      "name": "mint",
      "outputs": [],
      "stateMutability": "nonpayable",
      "type": "function"
    }
  ],
  "bytecode": "0x60806040523480156200001157600080fd5b5060405162002e7a38038062002e7a833981810160405281019062000037919062000250565b82828282600490816200004b919062000554565b5081600590816200005d919062000554565b5080600690816200006f919062000554565b5050505033600a60006101000a81548173ffffffffffffffffffffffffffffffffffffffff021916908373ffffffffffffffffffffffffffffffffffffffff1602179055505050506200063b565b6000604051905090565b600080fd5b600080fd5b600080fd5b600080fd5b6000601f19601f8301169050919050565b7f4e487b7100000000000000000000000000000000000000000000000000000000600052604160045260246000fd5b6200012682620000db565b810181811067ffffffffffffffff82111715620001485762000147620000ec565b5b80604052505050565b60006200015d620000bd565b90506200016b82826200011b565b919050565b600067ffffffffffffffff8211156200018e576200018d620000ec565b5b6200019982620000db565b9050602081019050919050565b60005b83811015620001c6578082015181840152602081019050620001a9565b60008484015250505050565b6000620001e9620001e38462000170565b62000151565b905082815260208101848484011115620002085762000207620000d6565b5b62000215848285620001a6565b509392505050565b600082601f830112620002355762000234620000d1565b5b815162000247848260208601620001d2565b91505092915050565b6000806000606084860312156200026c576200026b620000c7565b5b600084015167ffffffffffffffff8111156200028d576200028c620000cc565b5b6200029b868287016200021d565b935050602084015167ffffffffffffffff811115620002bf57620002be620000cc565b5b620002cd868287016200021d565b925050604084015167ffffffffffffffff811115620002f157620002f0620000cc565b5b620002ff868287016200021d565b9150509250925092565b600081519050919050565b7f4e487b7100000000000000000000000000000000000000000000000000000000600052602260045260246000fd5b600060028204905060018216806200035c57607f821691505b60208210810362000372576200037162000314565b5b50919050565b60008190508160005260206000209050919050565b60006020601f8301049050919050565b600082821b905092915050565b600060088302620003dc7fffffffffffffffffffffffffffffffffffffffffffffffffffffffffffffffff826200039d565b620003e886836200039d565b95508019841693508086168417925050509392505050565b6000819050919050565b6000819050919050565b6000620004356200042f620004298462000400565b6200040a565b62000400565b9050919050565b6000819050919050565b620004518362000414565b6200046962000460826200043c565b848454620003aa565b825550505050565b600090565b6200048062000471565b6200048d81848462000446565b505050565b5b81811015620004b557620004a960008262000476565b60018101905062000493565b5050565b601f8211156200050457620004ce8162000378565b620004d9846200038d565b81016020851015620004e9578190505b62000501620004f8856200038d565b83018262000492565b50505b505050565b600082821c905092915050565b6000620005296000198460080262000509565b1980831691505092915050565b600062000544838362000516565b9150826002028217905092915050565b6200055f8262000309565b67ffffffffffffffff8111156200057b576200057a620000ec565b5b62000587825462000343565b62000594828285620004b9565b600060209050601f831160018114620005cc5760008415620005b7578287015190505b620005c3858262000536565b86555062000633565b601f198416620005dc8662000378565b60005b828110156200060657848901518255600182019150602085019450602081019050620005df565b8683101562000626578489015162000622601f89168262000516565b8355505b6001600288020188555050505b505050505050565b61282f806200064b6000396000f3fe60806040526004361061012a5760003560e01c806369491ed4116100ab578063a22cb4651161006f578063a22cb465146103d0578063b88d4fde146103f9578063c87b56dd14610415578063d9ecad7b14610452578063e985e9c51461047b578063f851a440146104b85761012a565b806369491ed4146102d257806370a08231146102fd57806375794a3c1461033a5780638cc51eda1461036557806395d89b41146103a55761012a565b806323b872dd116100f257806323b872dd14610207578063261220a31461022357806342842e0e1461024e57806361b8ce8c1461026a5780636352211e146102955761012a565b806306fdde031461012f578063081812fc1461015a578063095ea7b3146101975780630fb14c6f146101b35780631249c58b146101f0575b600080fd5b34801561013b57600080fd5b506101446104e3565b6040516101519190611959565b60405180910390f35b34801561016657600080fd5b50610181600480360381019061017c91906119bb565b610571565b60405161018e9190611a29565b60405180910390f35b6101b160048036038101906101ac9190611a70565b6105ae565b005b3480156101bf57600080fd5b506101da60048036038101906101d59190611ab0565b610706565b6040516101e79190611bf0565b60405180910390f35b3480156101fc57600080fd5b5061020561089b565b005b610221600480360381019061021c9190611c12565b6109c7565b005b34801561022f57600080fd5b506102386109d7565b6040516102459190611959565b60405180910390f35b61026860048036038101906102639190611c12565b610a65565b005b34801561027657600080fd5b5061027f610a85565b60405161028c9190611c74565b60405180910390f35b3480156102a157600080fd5b506102bc60048036038101906102b791906119bb565b610a8b565b6040516102c99190611a29565b60405180910390f35b3480156102de57600080fd5b506102e7610ac8565b6040516102f49190611bf0565b60405180910390f35b34801561030957600080fd5b50610324600480360381019061031f9190611ab0565b610baf565b6040516103319190611c74565b60405180910390f35b34801561034657600080fd5b5061034f610bf7565b60405161035c9190611c74565b60405180910390f35b34801561037157600080fd5b5061038c600480360381019061038791906119bb565b610bfd565b60405161039c9493929190611c8f565b60405180910390f35b3480156103b157600080fd5b506103ba610c2d565b6040516103c79190611959565b60405180910390f35b3480156103dc57600080fd5b506103f760048036038101906103f29190611d0c565b610cbb565b005b610413600480360381019061040e9190611db1565b610db8565b005b34801561042157600080fd5b5061043c600480360381019061043791906119bb565b610e0f565b6040516104499190611959565b60405180910390f35b34801561045e57600080fd5b5061047960048036038101906104749190611e39565b610e3b565b005b34801561048757600080fd5b506104a2600480360381019061049d9190611e79565b6110e6565b6040516104af9190611ec8565b60405180910390f35b3480156104c457600080fd5b506104cd61117a565b6040516104da9190611a29565b60405180910390f35b600480546104f090611f12565b80601f016020809104026020016040519081016040528092919081815260200182805461051c90611f12565b80156105695780601f1061053e57610100808354040283529160200191610569565b820191906000526020600020905b81548152906001019060200180831161054c57829003601f168201915b505050505081565b60006002600083815260200190815260200160002060009054906101000a900473ffffffffffffffffffffffffffffffffffffffff169050919050565b60006001600083815260200190815260200160002060009054906101000a900473ffffffffffffffffffffffffffffffffffffffff1690508073ffffffffffffffffffffffffffffffffffffffff163373ffffffffffffffffffffffffffffffffffffffff1614610654576040517f08c379a000000000000000000000000000000000000000000000000000000000815260040161064b90611f8f565b60405180910390fd5b826002600084815260200190815260200160002060006101000a81548173ffffffffffffffffffffffffffffffffffffffff021916908373ffffffffffffffffffffffffffffffffffffffff160217905550818373ffffffffffffffffffffffffffffffffffffffff168273ffffffffffffffffffffffffffffffffffffffff167f8c5be1e5ebec7d5bd14f71427d1e84f3dd0314c0f7b2291e5b200ac8c7c3b92560405160405180910390a4505050565b6060600080600090505b600954811015610777578373ffffffffffffffffffffffffffffffffffffffff1661073a82610a8b565b73ffffffffffffffffffffffffffffffffffffffff160361076457818061076090611fde565b9250505b808061076f90611fde565b915050610710565b5060008167ffffffffffffffff81111561079457610793612026565b5b6040519080825280602002602001820160405280156107cd57816020015b6107ba6118a1565b8152602001906001900390816107b25790505b50905060005b600954811015610890578473ffffffffffffffffffffffffffffffffffffffff166107fd82610a8b565b73ffffffffffffffffffffffffffffffffffffffff160361087d576008600082815260200190815260200160002060405180608001604052908160008201548152602001600182015481526020016002820154815260200160038201548152505082828151811061087157610870612055565b5b60200260200101819052505b808061088890611fde565b9150506107d3565b508092505050919050565b600a60009054906101000a900473ffffffffffffffffffffffffffffffffffffffff1673ffffffffffffffffffffffffffffffffffffffff163373ffffffffffffffffffffffffffffffffffffffff161461092b576040517f08c379a0000000000000000000000000000000000000000000000000000000008152600401610922906120d0565b60405180910390fd5b604051806080016040528060095481526020016001815260200161094f600a6111a0565b815260200161095e600a6111a0565b815250600860006009548152602001908152602001600020600082015181600001556020820151816001015560408201518160020155606082015181600301559050506109ad600954336111e0565b600960008154809291906109c090611fde565b9190505550565b6109d283838361138a565b505050565b600680546109e490611f12565b80601f0160208091040260200160405190810160405280929190818152602001828054610a1090611f12565b8015610a5d5780601f10610a3257610100808354040283529160200191610a5d565b820191906000526020600020905b815481529060010190602001808311610a4057829003601f168201915b505050505081565b610a8083838360405180602001604052806000815250611692565b505050565b60095481565b60006001600083815260200190815260200160002060009054906101000a900473ffffffffffffffffffffffffffffffffffffffff169050919050565b6060600060095467ffffffffffffffff811115610ae857610ae7612026565b5b604051908082528060200260200182016040528015610b2157816020015b610b0e6118a1565b815260200190600190039081610b065790505b50905060005b8151811015610ba75760086000828152602001908152602001600020604051806080016040529081600082015481526020016001820154815260200160028201548152602001600382015481525050828281518110610b8957610b88612055565b5b60200260200101819052508080610b9f90611fde565b915050610b27565b508091505090565b60008060008373ffffffffffffffffffffffffffffffffffffffff1673ffffffffffffffffffffffffffffffffffffffff168152602001908152602001600020549050919050565b60075481565b60086020528060005260406000206000915090508060000154908060010154908060020154908060030154905084565b60058054610c3a90611f12565b80601f0160208091040260200160405190810160405280929190818152602001828054610c6690611f12565b8015610cb35780601f10610c8857610100808354040283529160200191610cb3565b820191906000526020600020905b815481529060010190602001808311610c9657829003601f168201915b505050505081565b80600360003373ffffffffffffffffffffffffffffffffffffffff1673ffffffffffffffffffffffffffffffffffffffff16815260200190815260200160002060008473ffffffffffffffffffffffffffffffffffffffff1673ffffffffffffffffffffffffffffffffffffffff16815260200190815260200160002060006101000a81548160ff0219169083151502179055508173ffffffffffffffffffffffffffffffffffffffff163373ffffffffffffffffffffffffffffffffffffffff167f17307eab39ab6107e8899845ad3d59bd9653f200f220920489ca2b5937696c3183604051610dac9190611ec8565b60405180910390a35050565b610e0885858585858080601f016020809104026020016040519081016040528093929190818152602001838380828437600081840152601f19601f82011690508083019250505050505050611692565b5050505050565b6060600682604051602001610e25929190612200565b6040516020818303038152906040529050919050565b6009548210610e7f576040517f08c379a0000000000000000000000000000000000000000000000000000000008152600401610e769061227f565b60405180910390fd5b6009548110610ec3576040517f08c379a0000000000000000000000000000000000000000000000000000000008152600401610eba906122eb565b60405180910390fd5b600060086000848152602001908152602001600020905060006008600084815260200190815260200160002090503373ffffffffffffffffffffffffffffffffffffffff16610f1185610a8b565b73ffffffffffffffffffffffffffffffffffffffff1614610f67576040517f08c379a0000000000000000000000000000000000000000000000000000000008152600401610f5e90612357565b60405180910390fd5b3373ffffffffffffffffffffffffffffffffffffffff16610f8784610a8b565b73ffffffffffffffffffffffffffffffffffffffff1614610fdd576040517f08c379a0000000000000000000000000000000000000000000000000000000008152600401610fd4906123c3565b60405180910390fd5b60008160010154836001015411610ff8578160010154610ffe565b82600101545b90506000600161100e60046111a0565b1161101d578260020154611023565b83600201545b90506000600161103360046111a0565b11611042578360030154611048565b84600301545b90506040518060800160405280600954815260200160018561106a91906123e3565b815260200183815260200182815250600860006009548152602001908152602001600020600082015181600001556020820151816001015560408201518160020155606082015181600301559050506110c5600954336111e0565b600960008154809291906110d890611fde565b919050555050505050505050565b6000600360008473ffffffffffffffffffffffffffffffffffffffff1673ffffffffffffffffffffffffffffffffffffffff16815260200190815260200160002060008373ffffffffffffffffffffffffffffffffffffffff1673ffffffffffffffffffffffffffffffffffffffff16815260200190815260200160002060009054906101000a900460ff16905092915050565b600a60009054906101000a900473ffffffffffffffffffffffffffffffffffffffff1681565b60008142446040516020016111b6929190612417565b6040516020818303038152906040528051906020012060001c6111d99190612472565b9050919050565b600073ffffffffffffffffffffffffffffffffffffffff166001600084815260200190815260200160002060009054906101000a900473ffffffffffffffffffffffffffffffffffffffff1673ffffffffffffffffffffffffffffffffffffffff1614611282576040517f08c379a0000000000000000000000000000000000000000000000000000000008152600401611279906124ef565b60405180910390fd5b806001600084815260200190815260200160002060006101000a81548173ffffffffffffffffffffffffffffffffffffffff021916908373ffffffffffffffffffffffffffffffffffffffff16021790555060016000808373ffffffffffffffffffffffffffffffffffffffff1673ffffffffffffffffffffffffffffffffffffffff168152602001908152602001600020600082825461132391906123e3565b92505081905550818173ffffffffffffffffffffffffffffffffffffffff16600073ffffffffffffffffffffffffffffffffffffffff167fddf252ad1be2c89b69c2b068fc378daa952ba7f163c4a11628f55a4df523b3ef60405160405180910390a45050565b8060006001600083815260200190815260200160002060009054906101000a900473ffffffffffffffffffffffffffffffffffffffff1690508073ffffffffffffffffffffffffffffffffffffffff163373ffffffffffffffffffffffffffffffffffffffff16148061145b57506002600083815260200190815260200160002060009054906101000a900473ffffffffffffffffffffffffffffffffffffffff1673ffffffffffffffffffffffffffffffffffffffff163373ffffffffffffffffffffffffffffffffffffffff16145b806114f3575060011515600360008373ffffffffffffffffffffffffffffffffffffffff1673ffffffffffffffffffffffffffffffffffffffff16815260200190815260200160002060003373ffffffffffffffffffffffffffffffffffffffff1673ffffffffffffffffffffffffffffffffffffffff16815260200190815260200160002060009054906101000a900460ff161515145b611532576040517f08c379a00000000000000000000000000000000000000000000000000000000081526004016115299061255b565b60405180910390fd5b60016000808773ffffffffffffffffffffffffffffffffffffffff1673ffffffffffffffffffffffffffffffffffffffff1681526020019081526020016000206000828254611581919061257b565b9250508190555060016000808673ffffffffffffffffffffffffffffffffffffffff1673ffffffffffffffffffffffffffffffffffffffff16815260200190815260200160002060008282546115d791906123e3565b92505081905550836001600085815260200190815260200160002060006101000a81548173ffffffffffffffffffffffffffffffffffffffff021916908373ffffffffffffffffffffffffffffffffffffffff160217905550828473ffffffffffffffffffffffffffffffffffffffff168673ffffffffffffffffffffffffffffffffffffffff167fddf252ad1be2c89b69c2b068fc378daa952ba7f163c4a11628f55a4df523b3ef60405160405180910390a45050505050565b61169d84848461138a565b60006116ab858585856116fb565b905060011515811515146116f4576040517f08c379a00000000000000000000000000000000000000000000000000000000081526004016116eb90612621565b60405180910390fd5b5050505050565b600061171c8473ffffffffffffffffffffffffffffffffffffffff1661187b565b1561186e578373ffffffffffffffffffffffffffffffffffffffff1663150b7a02338786866040518563ffffffff1660e01b81526004016117609493929190612696565b6020604051808303816000875af192505050801561179c57506040513d601f19601f82011682018060405250810190611799919061273a565b60015b61181e573d80600081146117cc576040519150601f19603f3d011682016040523d82523d6000602084013e6117d1565b606091505b506000815103611816576040517f08c379a000000000000000000000000000000000000000000000000000000000815260040161180d906127d9565b60405180910390fd5b805181602001fd5b63150b7a0260e01b7bffffffffffffffffffffffffffffffffffffffffffffffffffffffff1916817bffffffffffffffffffffffffffffffffffffffffffffffffffffffff191614915050611873565b600190505b949350505050565b60008060008373ffffffffffffffffffffffffffffffffffffffff163b11915050919050565b6040518060800160405280600081526020016000815260200160008152602001600081525090565b600081519050919050565b600082825260208201905092915050565b60005b838110156119035780820151818401526020810190506118e8565b60008484015250505050565b6000601f19601f8301169050919050565b600061192b826118c9565b61193581856118d4565b93506119458185602086016118e5565b61194e8161190f565b840191505092915050565b600060208201905081810360008301526119738184611920565b905092915050565b600080fd5b600080fd5b6000819050919050565b61199881611985565b81146119a357600080fd5b50565b6000813590506119b58161198f565b92915050565b6000602082840312156119d1576119d061197b565b5b60006119df848285016119a6565b91505092915050565b600073ffffffffffffffffffffffffffffffffffffffff82169050919050565b6000611a13826119e8565b9050919050565b611a2381611a08565b82525050565b6000602082019050611a3e6000830184611a1a565b92915050565b611a4d81611a08565b8114611a5857600080fd5b50565b600081359050611a6a81611a44565b92915050565b60008060408385031215611a8757611a8661197b565b5b6000611a9585828601611a5b565b9250506020611aa6858286016119a6565b9150509250929050565b600060208284031215611ac657611ac561197b565b5b6000611ad484828501611a5b565b91505092915050565b600081519050919050565b600082825260208201905092915050565b6000819050602082019050919050565b611b1281611985565b82525050565b608082016000820151611b2e6000850182611b09565b506020820151611b416020850182611b09565b506040820151611b546040850182611b09565b506060820151611b676060850182611b09565b50505050565b6000611b798383611b18565b60808301905092915050565b6000602082019050919050565b6000611b9d82611add565b611ba78185611ae8565b9350611bb283611af9565b8060005b83811015611be3578151611bca8882611b6d565b9750611bd583611b85565b925050600181019050611bb6565b5085935050505092915050565b60006020820190508181036000830152611c0a8184611b92565b905092915050565b600080600060608486031215611c2b57611c2a61197b565b5b6000611c3986828701611a5b565b9350506020611c4a86828701611a5b565b9250506040611c5b868287016119a6565b9150509250925092565b611c6e81611985565b82525050565b6000602082019050611c896000830184611c65565b92915050565b6000608082019050611ca46000830187611c65565b611cb16020830186611c65565b611cbe6040830185611c65565b611ccb6060830184611c65565b95945050505050565b60008115159050919050565b611ce981611cd4565b8114611cf457600080fd5b50565b600081359050611d0681611ce0565b92915050565b60008060408385031215611d2357611d2261197b565b5b6000611d3185828601611a5b565b9250506020611d4285828601611cf7565b9150509250929050565b600080fd5b600080fd5b600080fd5b60008083601f840112611d7157611d70611d4c565b5b8235905067ffffffffffffffff811115611d8e57611d8d611d51565b5b602083019150836001820283011115611daa57611da9611d56565b5b9250929050565b600080600080600060808688031215611dcd57611dcc61197b565b5b6000611ddb88828901611a5b565b9550506020611dec88828901611a5b565b9450506040611dfd888289016119a6565b935050606086013567ffffffffffffffff811115611e1e57611e1d611980565b5b611e2a88828901611d5b565b92509250509295509295909350565b60008060408385031215611e5057611e4f61197b565b5b6000611e5e858286016119a6565b9250506020611e6f858286016119a6565b9150509250929050565b60008060408385031215611e9057611e8f61197b565b5b6000611e9e85828601611a5b565b9250506020611eaf85828601611a5b565b9150509250929050565b611ec281611cd4565b82525050565b6000602082019050611edd6000830184611eb9565b92915050565b7f4e487b7100000000000000000000000000000000000000000000000000000000600052602260045260246000fd5b60006002820490506001821680611f2a57607f821691505b602082108103611f3d57611f3c611ee3565b5b50919050565b7f4e6f7420617574686f7269736564000000000000000000000000000000000000600082015250565b6000611f79600e836118d4565b9150611f8482611f43565b602082019050919050565b60006020820190508181036000830152611fa881611f6c565b9050919050565b7f4e487b7100000000000000000000000000000000000000000000000000000000600052601160045260246000fd5b6000611fe982611985565b91507fffffffffffffffffffffffffffffffffffffffffffffffffffffffffffffffff820361201b5761201a611faf565b5b600182019050919050565b7f4e487b7100000000000000000000000000000000000000000000000000000000600052604160045260246000fd5b7f4e487b7100000000000000000000000000000000000000000000000000000000600052603260045260246000fd5b7f6f6e6c792061646d696e00000000000000000000000000000000000000000000600082015250565b60006120ba600a836118d4565b91506120c582612084565b602082019050919050565b600060208201905081810360008301526120e9816120ad565b9050919050565b600081905092915050565b60008190508160005260206000209050919050565b6000815461211d81611f12565b61212781866120f0565b9450600182166000811461214257600181146121575761218a565b60ff198316865281151582028601935061218a565b612160856120fb565b60005b8381101561218257815481890152600182019150602081019050612163565b838801955050505b50505092915050565b7f2f00000000000000000000000000000000000000000000000000000000000000600082015250565b60006121c96001836120f0565b91506121d482612193565b600182019050919050565b6000819050919050565b6121fa6121f582611985565b6121df565b82525050565b600061220c8285612110565b9150612217826121bc565b915061222382846121e9565b6020820191508190509392505050565b7f6b697474793120646f6573206e6f742065786973740000000000000000000000600082015250565b60006122696015836118d4565b915061227482612233565b602082019050919050565b600060208201905081810360008301526122988161225c565b9050919050565b7f6b697474793220646f6573206e6f742065786973740000000000000000000000600082015250565b60006122d56015836118d4565b91506122e08261229f565b602082019050919050565b60006020820190508181036000830152612304816122c8565b9050919050565b7f73656e646572206d757374206f776e206b697474793100000000000000000000600082015250565b60006123416016836118d4565b915061234c8261230b565b602082019050919050565b6000602082019050818103600083015261237081612334565b9050919050565b7f73656e646572206d757374206f776e206b697474793200000000000000000000600082015250565b60006123ad6016836118d4565b91506123b882612377565b602082019050919050565b600060208201905081810360008301526123dc816123a0565b9050919050565b60006123ee82611985565b91506123f983611985565b925082820190508082111561241157612410611faf565b5b92915050565b600061242382856121e9565b60208201915061243382846121e9565b6020820191508190509392505050565b7f4e487b7100000000000000000000000000000000000000000000000000000000600052601260045260246000fd5b600061247d82611985565b915061248883611985565b92508261249857612497612443565b5b828206905092915050565b7f7468697320746f6b656e20616c72656164792065786973740000000000000000600082015250565b60006124d96018836118d4565b91506124e4826124a3565b602082019050919050565b60006020820190508181036000830152612508816124cc565b9050919050565b7f5472616e73666572206e6f7420617574686f7269736564000000000000000000600082015250565b60006125456017836118d4565b91506125508261250f565b602082019050919050565b6000602082019050818103600083015261257481612538565b9050919050565b600061258682611985565b915061259183611985565b92508282039050818111156125a9576125a8611faf565b5b92915050565b7f726563697069656e7420736d61727420636f6e74726163742063616e6e6f742060008201527f68616e646c652045524337323120746f6b656e73000000000000000000000000602082015250565b600061260b6034836118d4565b9150612616826125af565b604082019050919050565b6000602082019050818103600083015261263a816125fe565b9050919050565b600081519050919050565b600082825260208201905092915050565b600061266882612641565b612672818561264c565b93506126828185602086016118e5565b61268b8161190f565b840191505092915050565b60006080820190506126ab6000830187611a1a565b6126b86020830186611a1a565b6126c56040830185611c65565b81810360608301526126d7818461265d565b905095945050505050565b60007fffffffff0000000000000000000000000000000000000000000000000000000082169050919050565b612717816126e2565b811461272257600080fd5b50565b6000815190506127348161270e565b92915050565b6000602082840312156127505761274f61197b565b5b600061275e84828501612725565b91505092915050565b7f4552433732313a207472616e7366657220746f206e6f6e20455243373231526560008201527f63656976657220696d706c656d656e7465720000000000000000000000000000602082015250565b60006127c36032836118d4565b91506127ce82612767565b604082019050919050565b600060208201905081810360008301526127f2816127b6565b905091905056fea2646970667358221220b3a46382e5c6fca274608bbd1adf71d36dc0da83efa09c7cacf31c3fa7c07e1864736f6c63430008110033",
  "immutableReferences": {},
  "source": "// SPDX-License-Identifier: MIT\r\npragma solidity 0.8.17;\r\n\r\nimport './ERC721Token.sol';\r\n\r\ncontract CryptoKitty is ERC721Token {\r\n\r\n  enum HairColor { White, Black }\r\n\r\n  struct Kitty {\r\n    uint id;\r\n    uint generation;\r\n    uint geneA;\r\n    uint geneB;\r\n  }\r\n\r\n  mapping (uint => Kitty) public kitties;\r\n  uint public nextId;\r\n\r\n  address public admin;\r\n  \r\n\r\n  constructor(\r\n    string memory _name,\r\n    string memory _symbol,\r\n    string memory _tokenURIBase\r\n  ) ERC721Token(_name, _symbol, _tokenURIBase) {\r\n    admin = msg.sender;\r\n    \r\n  }\r\n\r\n  function getAllKitties() external view returns(Kitty[] memory) {\r\n    Kitty[] memory _kitties = new Kitty[](nextId);\r\n    for(uint i = 0; i < _kitties.length; i++) {\r\n      _kitties[i] = kitties[i];\r\n    }\r\n    return _kitties;\r\n  }\r\n\r\n  function getAllKittiesOf(address owner) external view returns(Kitty[] memory) {\r\n    uint length;\r\n    for(uint i = 0; i < nextId; i++) {\r\n      if (ownerOf(i) == owner) {\r\n        length++;\r\n      }\r\n    }\r\n\r\n    Kitty[] memory _kitties = new Kitty[](length);\r\n    for(uint i = 0; i < nextId; i++) {\r\n      if (ownerOf(i) == owner) {\r\n        _kitties[i] = kitties[i];\r\n      }\r\n    }\r\n\r\n    return _kitties;\r\n  }\r\n\r\n  function breed(uint kittyId1, uint kittyId2) external {\r\n    require(kittyId1 < nextId, 'kitty1 does not exist');\r\n    require(kittyId2 < nextId, 'kitty2 does not exist');\r\n\r\n    Kitty storage kitty1 = kitties[kittyId1];\r\n    Kitty storage kitty2 = kitties[kittyId2];\r\n\r\n    require(ownerOf(kittyId1) == msg.sender, 'sender must own kitty1');\r\n    require(ownerOf(kittyId2) == msg.sender, 'sender must own kitty2');\r\n\r\n    uint maxGen = kitty1.generation > kitty2.generation ? kitty1.generation : kitty2.generation;\r\n    uint geneA = _random(4) > 1 ? kitty1.geneA : kitty2.geneA;\r\n    uint geneB = _random(4) > 1 ? kitty1.geneB : kitty2.geneB;\r\n    kitties[nextId] = Kitty(nextId, maxGen + 1, geneA, geneB);\r\n    _mint(nextId, msg.sender);\r\n    nextId++;\r\n  }\r\n\r\n  function mint() external {\r\n    require(msg.sender == admin, 'only admin');\r\n    kitties[nextId] = Kitty(nextId, 1, _random(10), _random(10));\r\n    _mint(nextId, msg.sender);\r\n    nextId++;\r\n  }\r\n\r\n  function _random(uint max) internal view returns(uint) {\r\n    return uint(keccak256(abi.encodePacked(block.timestamp, block.difficulty))) % max;\r\n  }\r\n}",
  "sourcePath": "C:\\Development\\Products\\Blockchain\\Dapp30\\Dapp30\\23CryptoKitties\\contracts\\CryptoKitty.sol",
  "compiler": {
    "name": "solc",
    "version": "0.8.17+commit.8df45f5f.Emscripten.clang"
  },
  "schemaVersion": "3.4.10",
  "updatedAt": "2023-02-06T20:04:49.889Z",
  "networkType": "ethereum",
  "devdoc": {
    "kind": "dev",
    "methods": {
      "approve(address,uint256)": {
        "details": "The zero address indicates there is no approved address.  Throws unless `msg.sender` is the current NFT owner, or an authorized  operator of the current owner.",
        "params": {
          "_approved": "The new approved NFT controller",
          "_tokenId": "The NFT to approve"
        }
      },
      "balanceOf(address)": {
        "details": "NFTs assigned to the zero address are considered invalid, and this  function throws for queries about the zero address.",
        "params": {
          "_owner": "An address for whom to query the balance"
        },
        "returns": {
          "_0": "The number of NFTs owned by `_owner`, possibly zero"
        }
      },
      "getApproved(uint256)": {
        "details": "Throws if `_tokenId` is not a valid NFT.",
        "params": {
          "_tokenId": "The NFT to find the approved address for"
        },
        "returns": {
          "_0": "The approved address for this NFT, or the zero address if there is none"
        }
      },
      "isApprovedForAll(address,address)": {
        "params": {
          "_operator": "The address that acts on behalf of the owner",
          "_owner": "The address that owns the NFTs"
        },
        "returns": {
          "_0": "True if `_operator` is an approved operator for `_owner`, false otherwise"
        }
      },
      "ownerOf(uint256)": {
        "details": "NFTs assigned to zero address are considered invalid, and queries  about them do throw.",
        "params": {
          "_tokenId": "The identifier for an NFT"
        },
        "returns": {
          "_0": "The address of the owner of the NFT"
        }
      },
      "safeTransferFrom(address,address,uint256)": {
        "details": "This works identically to the other function with an extra data parameter,  except this function just sets data to \"\".",
        "params": {
          "_from": "The current owner of the NFT",
          "_to": "The new owner",
          "_tokenId": "The NFT to transfer"
        }
      },
      "safeTransferFrom(address,address,uint256,bytes)": {
        "details": "Throws unless `msg.sender` is the current owner, an authorized  operator, or the approved address for this NFT. Throws if `_from` is  not the current owner. Throws if `_to` is the zero address. Throws if  `_tokenId` is not a valid NFT. When transfer is complete, this function  checks if `_to` is a smart contract (code size > 0). If so, it calls  `onERC721Received` on `_to` and throws if the return value is not  `bytes4(keccak256(\"onERC721Received(address,address,uint256,bytes)\"))`.",
        "params": {
          "_from": "The current owner of the NFT",
          "_to": "The new owner",
          "_tokenId": "The NFT to transfer",
          "data": "Additional data with no specified format, sent in call to `_to`"
        }
      },
      "setApprovalForAll(address,bool)": {
        "details": "Emits the ApprovalForAll event. The contract MUST allow  multiple operators per owner.",
        "params": {
          "_approved": "True if the operator is approved, false to revoke approval",
          "_operator": "Address to add to the set of authorized operators"
        }
      },
      "transferFrom(address,address,uint256)": {
        "details": "Throws unless `msg.sender` is the current owner, an authorized  operator, or the approved address for this NFT. Throws if `_from` is  not the current owner. Throws if `_to` is the zero address. Throws if  `_tokenId` is not a valid NFT.",
        "params": {
          "_from": "The current owner of the NFT",
          "_to": "The new owner",
          "_tokenId": "The NFT to transfer"
        }
      }
    },
    "version": 1
  },
  "userdoc": {
    "kind": "user",
    "methods": {
      "approve(address,uint256)": {
        "notice": "Change or reaffirm the approved address for an NFT"
      },
      "balanceOf(address)": {
        "notice": "Count all NFTs assigned to an owner"
      },
      "getApproved(uint256)": {
        "notice": "Get the approved address for a single NFT"
      },
      "isApprovedForAll(address,address)": {
        "notice": "Query if an address is an authorized operator for another address"
      },
      "ownerOf(uint256)": {
        "notice": "Find the owner of an NFT"
      },
      "safeTransferFrom(address,address,uint256)": {
        "notice": "Transfers the ownership of an NFT from one address to another address"
      },
      "safeTransferFrom(address,address,uint256,bytes)": {
        "notice": "Transfers the ownership of an NFT from one address to another address"
      },
      "setApprovalForAll(address,bool)": {
        "notice": "Enable or disable approval for a third party (\"operator\") to manage  all of `msg.sender`'s assets"
      },
      "transferFrom(address,address,uint256)": {
        "notice": "Transfer ownership of an NFT -- THE CALLER IS RESPONSIBLE  TO CONFIRM THAT `_to` IS CAPABLE OF RECEIVING NFTS OR ELSE  THEY MAY BE PERMANENTLY LOST"
      }
    },
    "version": 1
  }
}