{
  "contractName": "ERC721Token",
  "abi": [
    {
      "inputs": [
        {
          "internalType": "string",
          "name": "_name",
          "type": "string"
        },
        {
          "internalType": "string",
          "name": "_symbol",
          "type": "string"
        },
        {
          "internalType": "string",
          "name": "_tokenURIBase",
          "type": "string"
        }
      ],
      "stateMutability": "nonpayable",
      "type": "constructor"
    },
    {
      "anonymous": false,
      "inputs": [
        {
          "indexed": true,
          "internalType": "address",
          "name": "_owner",
          "type": "address"
        },
        {
          "indexed": true,
          "internalType": "address",
          "name": "_approved",
          "type": "address"
        },
        {
          "indexed": true,
          "internalType": "uint256",
          "name": "_tokenId",
          "type": "uint256"
        }
      ],
      "name": "Approval",
      "type": "event"
    },
    {
      "anonymous": false,
      "inputs": [
        {
          "indexed": true,
          "internalType": "address",
          "name": "_owner",
          "type": "address"
        },
        {
          "indexed": true,
          "internalType": "address",
          "name": "_operator",
          "type": "address"
        },
        {
          "indexed": false,
          "internalType": "bool",
          "name": "_approved",
          "type": "bool"
        }
      ],
      "name": "ApprovalForAll",
      "type": "event"
    },
    {
      "anonymous": false,
      "inputs": [
        {
          "indexed": true,
          "internalType": "address",
          "name": "_from",
          "type": "address"
        },
        {
          "indexed": true,
          "internalType": "address",
          "name": "_to",
          "type": "address"
        },
        {
          "indexed": true,
          "internalType": "uint256",
          "name": "_tokenId",
          "type": "uint256"
        }
      ],
      "name": "Transfer",
      "type": "event"
    },
    {
      "inputs": [],
      "name": "name",
      "outputs": [
        {
          "internalType": "string",
          "name": "",
          "type": "string"
        }
      ],
      "stateMutability": "view",
      "type": "function"
    },
    {
      "inputs": [],
      "name": "nextTokenId",
      "outputs": [
        {
          "internalType": "uint256",
          "name": "",
          "type": "uint256"
        }
      ],
      "stateMutability": "view",
      "type": "function"
    },
    {
      "inputs": [],
      "name": "symbol",
      "outputs": [
        {
          "internalType": "string",
          "name": "",
          "type": "string"
        }
      ],
      "stateMutability": "view",
      "type": "function"
    },
    {
      "inputs": [],
      "name": "tokenURIBase",
      "outputs": [
        {
          "internalType": "string",
          "name": "",
          "type": "string"
        }
      ],
      "stateMutability": "view",
      "type": "function"
    },
    {
      "inputs": [
        {
          "internalType": "uint256",
          "name": "_tokenId",
          "type": "uint256"
        }
      ],
      "name": "tokenURI",
      "outputs": [
        {
          "internalType": "string",
          "name": "",
          "type": "string"
        }
      ],
      "stateMutability": "view",
      "type": "function"
    },
    {
      "inputs": [
        {
          "internalType": "address",
          "name": "_owner",
          "type": "address"
        }
      ],
      "name": "balanceOf",
      "outputs": [
        {
          "internalType": "uint256",
          "name": "",
          "type": "uint256"
        }
      ],
      "stateMutability": "view",
      "type": "function"
    },
    {
      "inputs": [
        {
          "internalType": "uint256",
          "name": "_tokenId",
          "type": "uint256"
        }
      ],
      "name": "ownerOf",
      "outputs": [
        {
          "internalType": "address",
          "name": "",
          "type": "address"
        }
      ],
      "stateMutability": "view",
      "type": "function"
    },
    {
      "inputs": [
        {
          "internalType": "address",
          "name": "_from",
          "type": "address"
        },
        {
          "internalType": "address",
          "name": "_to",
          "type": "address"
        },
        {
          "internalType": "uint256",
          "name": "_tokenId",
          "type": "uint256"
        }
      ],
      "name": "safeTransferFrom",
      "outputs": [],
      "stateMutability": "payable",
      "type": "function"
    },
    {
      "inputs": [
        {
          "internalType": "address",
          "name": "_from",
          "type": "address"
        },
        {
          "internalType": "address",
          "name": "_to",
          "type": "address"
        },
        {
          "internalType": "uint256",
          "name": "_tokenId",
          "type": "uint256"
        },
        {
          "internalType": "bytes",
          "name": "data",
          "type": "bytes"
        }
      ],
      "name": "safeTransferFrom",
      "outputs": [],
      "stateMutability": "payable",
      "type": "function"
    },
    {
      "inputs": [
        {
          "internalType": "address",
          "name": "_from",
          "type": "address"
        },
        {
          "internalType": "address",
          "name": "_to",
          "type": "address"
        },
        {
          "internalType": "uint256",
          "name": "_tokenId",
          "type": "uint256"
        }
      ],
      "name": "transferFrom",
      "outputs": [],
      "stateMutability": "payable",
      "type": "function"
    },
    {
      "inputs": [
        {
          "internalType": "address",
          "name": "_approved",
          "type": "address"
        },
        {
          "internalType": "uint256",
          "name": "_tokenId",
          "type": "uint256"
        }
      ],
      "name": "approve",
      "outputs": [],
      "stateMutability": "payable",
      "type": "function"
    },
    {
      "inputs": [
        {
          "internalType": "address",
          "name": "_operator",
          "type": "address"
        },
        {
          "internalType": "bool",
          "name": "_approved",
          "type": "bool"
        }
      ],
      "name": "setApprovalForAll",
      "outputs": [],
      "stateMutability": "nonpayable",
      "type": "function"
    },
    {
      "inputs": [
        {
          "internalType": "uint256",
          "name": "_tokenId",
          "type": "uint256"
        }
      ],
      "name": "getApproved",
      "outputs": [
        {
          "internalType": "address",
          "name": "",
          "type": "address"
        }
      ],
      "stateMutability": "view",
      "type": "function"
    },
    {
      "inputs": [
        {
          "internalType": "address",
          "name": "_owner",
          "type": "address"
        },
        {
          "internalType": "address",
          "name": "_operator",
          "type": "address"
        }
      ],
      "name": "isApprovedForAll",
      "outputs": [
        {
          "internalType": "bool",
          "name": "",
          "type": "bool"
        }
      ],
      "stateMutability": "view",
      "type": "function"
    }
  ],
  "bytecode": "0x60806040523480156200001157600080fd5b5060405162001e7338038062001e73833981810160405281019062000037919062000209565b82600490816200004891906200050d565b5081600590816200005a91906200050d565b5080600690816200006c91906200050d565b50505050620005f4565b6000604051905090565b600080fd5b600080fd5b600080fd5b600080fd5b6000601f19601f8301169050919050565b7f4e487b7100000000000000000000000000000000000000000000000000000000600052604160045260246000fd5b620000df8262000094565b810181811067ffffffffffffffff82111715620001015762000100620000a5565b5b80604052505050565b60006200011662000076565b9050620001248282620000d4565b919050565b600067ffffffffffffffff821115620001475762000146620000a5565b5b620001528262000094565b9050602081019050919050565b60005b838110156200017f57808201518184015260208101905062000162565b60008484015250505050565b6000620001a26200019c8462000129565b6200010a565b905082815260208101848484011115620001c157620001c06200008f565b5b620001ce8482856200015f565b509392505050565b600082601f830112620001ee57620001ed6200008a565b5b8151620002008482602086016200018b565b91505092915050565b60008060006060848603121562000225576200022462000080565b5b600084015167ffffffffffffffff81111562000246576200024562000085565b5b6200025486828701620001d6565b935050602084015167ffffffffffffffff81111562000278576200027762000085565b5b6200028686828701620001d6565b925050604084015167ffffffffffffffff811115620002aa57620002a962000085565b5b620002b886828701620001d6565b9150509250925092565b600081519050919050565b7f4e487b7100000000000000000000000000000000000000000000000000000000600052602260045260246000fd5b600060028204905060018216806200031557607f821691505b6020821081036200032b576200032a620002cd565b5b50919050565b60008190508160005260206000209050919050565b60006020601f8301049050919050565b600082821b905092915050565b600060088302620003957fffffffffffffffffffffffffffffffffffffffffffffffffffffffffffffffff8262000356565b620003a1868362000356565b95508019841693508086168417925050509392505050565b6000819050919050565b6000819050919050565b6000620003ee620003e8620003e284620003b9565b620003c3565b620003b9565b9050919050565b6000819050919050565b6200040a83620003cd565b620004226200041982620003f5565b84845462000363565b825550505050565b600090565b620004396200042a565b62000446818484620003ff565b505050565b5b818110156200046e57620004626000826200042f565b6001810190506200044c565b5050565b601f821115620004bd57620004878162000331565b620004928462000346565b81016020851015620004a2578190505b620004ba620004b18562000346565b8301826200044b565b50505b505050565b600082821c905092915050565b6000620004e260001984600802620004c2565b1980831691505092915050565b6000620004fd8383620004cf565b9150826002028217905092915050565b6200051882620002c2565b67ffffffffffffffff811115620005345762000533620000a5565b5b620005408254620002fc565b6200054d82828562000472565b600060209050601f83116001811462000585576000841562000570578287015190505b6200057c8582620004ef565b865550620005ec565b601f198416620005958662000331565b60005b82811015620005bf5784890151825560018201915060208501945060208101905062000598565b86831015620005df5784890151620005db601f891682620004cf565b8355505b6001600288020188555050505b505050505050565b61186f80620006046000396000f3fe6080604052600436106100dd5760003560e01c806370a082311161007f578063a22cb46511610059578063a22cb46514610299578063b88d4fde146102c2578063c87b56dd146102de578063e985e9c51461031b576100dd565b806370a082311461020657806375794a3c1461024357806395d89b411461026e576100dd565b806323b872dd116100bb57806323b872dd14610166578063261220a31461018257806342842e0e146101ad5780636352211e146101c9576100dd565b806306fdde03146100e2578063081812fc1461010d578063095ea7b31461014a575b600080fd5b3480156100ee57600080fd5b506100f7610358565b6040516101049190610f0d565b60405180910390f35b34801561011957600080fd5b50610134600480360381019061012f9190610f6f565b6103e6565b6040516101419190610fdd565b60405180910390f35b610164600480360381019061015f9190611024565b610423565b005b610180600480360381019061017b9190611064565b61057b565b005b34801561018e57600080fd5b5061019761058b565b6040516101a49190610f0d565b60405180910390f35b6101c760048036038101906101c29190611064565b610619565b005b3480156101d557600080fd5b506101f060048036038101906101eb9190610f6f565b610639565b6040516101fd9190610fdd565b60405180910390f35b34801561021257600080fd5b5061022d600480360381019061022891906110b7565b610676565b60405161023a91906110f3565b60405180910390f35b34801561024f57600080fd5b506102586106be565b60405161026591906110f3565b60405180910390f35b34801561027a57600080fd5b506102836106c4565b6040516102909190610f0d565b60405180910390f35b3480156102a557600080fd5b506102c060048036038101906102bb9190611146565b610752565b005b6102dc60048036038101906102d791906111eb565b61084f565b005b3480156102ea57600080fd5b5061030560048036038101906103009190610f6f565b6108a6565b6040516103129190610f0d565b60405180910390f35b34801561032757600080fd5b50610342600480360381019061033d9190611273565b6108d2565b60405161034f91906112c2565b60405180910390f35b600480546103659061130c565b80601f01602080910402602001604051908101604052809291908181526020018280546103919061130c565b80156103de5780601f106103b3576101008083540402835291602001916103de565b820191906000526020600020905b8154815290600101906020018083116103c157829003601f168201915b505050505081565b60006002600083815260200190815260200160002060009054906101000a900473ffffffffffffffffffffffffffffffffffffffff169050919050565b60006001600083815260200190815260200160002060009054906101000a900473ffffffffffffffffffffffffffffffffffffffff1690508073ffffffffffffffffffffffffffffffffffffffff163373ffffffffffffffffffffffffffffffffffffffff16146104c9576040517f08c379a00000000000000000000000000000000000000000000000000000000081526004016104c090611389565b60405180910390fd5b826002600084815260200190815260200160002060006101000a81548173ffffffffffffffffffffffffffffffffffffffff021916908373ffffffffffffffffffffffffffffffffffffffff160217905550818373ffffffffffffffffffffffffffffffffffffffff168273ffffffffffffffffffffffffffffffffffffffff167f8c5be1e5ebec7d5bd14f71427d1e84f3dd0314c0f7b2291e5b200ac8c7c3b92560405160405180910390a4505050565b610586838383610966565b505050565b600680546105989061130c565b80601f01602080910402602001604051908101604052809291908181526020018280546105c49061130c565b80156106115780601f106105e657610100808354040283529160200191610611565b820191906000526020600020905b8154815290600101906020018083116105f457829003601f168201915b505050505081565b61063483838360405180602001604052806000815250610c6e565b505050565b60006001600083815260200190815260200160002060009054906101000a900473ffffffffffffffffffffffffffffffffffffffff169050919050565b60008060008373ffffffffffffffffffffffffffffffffffffffff1673ffffffffffffffffffffffffffffffffffffffff168152602001908152602001600020549050919050565b60075481565b600580546106d19061130c565b80601f01602080910402602001604051908101604052809291908181526020018280546106fd9061130c565b801561074a5780601f1061071f5761010080835404028352916020019161074a565b820191906000526020600020905b81548152906001019060200180831161072d57829003601f168201915b505050505081565b80600360003373ffffffffffffffffffffffffffffffffffffffff1673ffffffffffffffffffffffffffffffffffffffff16815260200190815260200160002060008473ffffffffffffffffffffffffffffffffffffffff1673ffffffffffffffffffffffffffffffffffffffff16815260200190815260200160002060006101000a81548160ff0219169083151502179055508173ffffffffffffffffffffffffffffffffffffffff163373ffffffffffffffffffffffffffffffffffffffff167f17307eab39ab6107e8899845ad3d59bd9653f200f220920489ca2b5937696c318360405161084391906112c2565b60405180910390a35050565b61089f85858585858080601f016020809104026020016040519081016040528093929190818152602001838380828437600081840152601f19601f82011690508083019250505050505050610c6e565b5050505050565b60606006826040516020016108bc9291906114b9565b6040516020818303038152906040529050919050565b6000600360008473ffffffffffffffffffffffffffffffffffffffff1673ffffffffffffffffffffffffffffffffffffffff16815260200190815260200160002060008373ffffffffffffffffffffffffffffffffffffffff1673ffffffffffffffffffffffffffffffffffffffff16815260200190815260200160002060009054906101000a900460ff16905092915050565b8060006001600083815260200190815260200160002060009054906101000a900473ffffffffffffffffffffffffffffffffffffffff1690508073ffffffffffffffffffffffffffffffffffffffff163373ffffffffffffffffffffffffffffffffffffffff161480610a3757506002600083815260200190815260200160002060009054906101000a900473ffffffffffffffffffffffffffffffffffffffff1673ffffffffffffffffffffffffffffffffffffffff163373ffffffffffffffffffffffffffffffffffffffff16145b80610acf575060011515600360008373ffffffffffffffffffffffffffffffffffffffff1673ffffffffffffffffffffffffffffffffffffffff16815260200190815260200160002060003373ffffffffffffffffffffffffffffffffffffffff1673ffffffffffffffffffffffffffffffffffffffff16815260200190815260200160002060009054906101000a900460ff161515145b610b0e576040517f08c379a0000000000000000000000000000000000000000000000000000000008152600401610b0590611538565b60405180910390fd5b60016000808773ffffffffffffffffffffffffffffffffffffffff1673ffffffffffffffffffffffffffffffffffffffff1681526020019081526020016000206000828254610b5d9190611587565b9250508190555060016000808673ffffffffffffffffffffffffffffffffffffffff1673ffffffffffffffffffffffffffffffffffffffff1681526020019081526020016000206000828254610bb391906115bb565b92505081905550836001600085815260200190815260200160002060006101000a81548173ffffffffffffffffffffffffffffffffffffffff021916908373ffffffffffffffffffffffffffffffffffffffff160217905550828473ffffffffffffffffffffffffffffffffffffffff168673ffffffffffffffffffffffffffffffffffffffff167fddf252ad1be2c89b69c2b068fc378daa952ba7f163c4a11628f55a4df523b3ef60405160405180910390a45050505050565b610c79848484610966565b6000610c8785858585610cd7565b90506001151581151514610cd0576040517f08c379a0000000000000000000000000000000000000000000000000000000008152600401610cc790611661565b60405180910390fd5b5050505050565b6000610cf88473ffffffffffffffffffffffffffffffffffffffff16610e57565b15610e4a578373ffffffffffffffffffffffffffffffffffffffff1663150b7a02338786866040518563ffffffff1660e01b8152600401610d3c94939291906116d6565b6020604051808303816000875af1925050508015610d7857506040513d601f19601f82011682018060405250810190610d75919061177a565b60015b610dfa573d8060008114610da8576040519150601f19603f3d011682016040523d82523d6000602084013e610dad565b606091505b506000815103610df2576040517f08c379a0000000000000000000000000000000000000000000000000000000008152600401610de990611819565b60405180910390fd5b805181602001fd5b63150b7a0260e01b7bffffffffffffffffffffffffffffffffffffffffffffffffffffffff1916817bffffffffffffffffffffffffffffffffffffffffffffffffffffffff191614915050610e4f565b600190505b949350505050565b60008060008373ffffffffffffffffffffffffffffffffffffffff163b11915050919050565b600081519050919050565b600082825260208201905092915050565b60005b83811015610eb7578082015181840152602081019050610e9c565b60008484015250505050565b6000601f19601f8301169050919050565b6000610edf82610e7d565b610ee98185610e88565b9350610ef9818560208601610e99565b610f0281610ec3565b840191505092915050565b60006020820190508181036000830152610f278184610ed4565b905092915050565b600080fd5b600080fd5b6000819050919050565b610f4c81610f39565b8114610f5757600080fd5b50565b600081359050610f6981610f43565b92915050565b600060208284031215610f8557610f84610f2f565b5b6000610f9384828501610f5a565b91505092915050565b600073ffffffffffffffffffffffffffffffffffffffff82169050919050565b6000610fc782610f9c565b9050919050565b610fd781610fbc565b82525050565b6000602082019050610ff26000830184610fce565b92915050565b61100181610fbc565b811461100c57600080fd5b50565b60008135905061101e81610ff8565b92915050565b6000806040838503121561103b5761103a610f2f565b5b60006110498582860161100f565b925050602061105a85828601610f5a565b9150509250929050565b60008060006060848603121561107d5761107c610f2f565b5b600061108b8682870161100f565b935050602061109c8682870161100f565b92505060406110ad86828701610f5a565b9150509250925092565b6000602082840312156110cd576110cc610f2f565b5b60006110db8482850161100f565b91505092915050565b6110ed81610f39565b82525050565b600060208201905061110860008301846110e4565b92915050565b60008115159050919050565b6111238161110e565b811461112e57600080fd5b50565b6000813590506111408161111a565b92915050565b6000806040838503121561115d5761115c610f2f565b5b600061116b8582860161100f565b925050602061117c85828601611131565b9150509250929050565b600080fd5b600080fd5b600080fd5b60008083601f8401126111ab576111aa611186565b5b8235905067ffffffffffffffff8111156111c8576111c761118b565b5b6020830191508360018202830111156111e4576111e3611190565b5b9250929050565b60008060008060006080868803121561120757611206610f2f565b5b60006112158882890161100f565b95505060206112268882890161100f565b945050604061123788828901610f5a565b935050606086013567ffffffffffffffff81111561125857611257610f34565b5b61126488828901611195565b92509250509295509295909350565b6000806040838503121561128a57611289610f2f565b5b60006112988582860161100f565b92505060206112a98582860161100f565b9150509250929050565b6112bc8161110e565b82525050565b60006020820190506112d760008301846112b3565b92915050565b7f4e487b7100000000000000000000000000000000000000000000000000000000600052602260045260246000fd5b6000600282049050600182168061132457607f821691505b602082108103611337576113366112dd565b5b50919050565b7f4e6f7420617574686f7269736564000000000000000000000000000000000000600082015250565b6000611373600e83610e88565b915061137e8261133d565b602082019050919050565b600060208201905081810360008301526113a281611366565b9050919050565b600081905092915050565b60008190508160005260206000209050919050565b600081546113d68161130c565b6113e081866113a9565b945060018216600081146113fb576001811461141057611443565b60ff1983168652811515820286019350611443565b611419856113b4565b60005b8381101561143b5781548189015260018201915060208101905061141c565b838801955050505b50505092915050565b7f2f00000000000000000000000000000000000000000000000000000000000000600082015250565b60006114826001836113a9565b915061148d8261144c565b600182019050919050565b6000819050919050565b6114b36114ae82610f39565b611498565b82525050565b60006114c582856113c9565b91506114d082611475565b91506114dc82846114a2565b6020820191508190509392505050565b7f5472616e73666572206e6f7420617574686f7269736564000000000000000000600082015250565b6000611522601783610e88565b915061152d826114ec565b602082019050919050565b6000602082019050818103600083015261155181611515565b9050919050565b7f4e487b7100000000000000000000000000000000000000000000000000000000600052601160045260246000fd5b600061159282610f39565b915061159d83610f39565b92508282039050818111156115b5576115b4611558565b5b92915050565b60006115c682610f39565b91506115d183610f39565b92508282019050808211156115e9576115e8611558565b5b92915050565b7f726563697069656e7420736d61727420636f6e74726163742063616e6e6f742060008201527f68616e646c652045524337323120746f6b656e73000000000000000000000000602082015250565b600061164b603483610e88565b9150611656826115ef565b604082019050919050565b6000602082019050818103600083015261167a8161163e565b9050919050565b600081519050919050565b600082825260208201905092915050565b60006116a882611681565b6116b2818561168c565b93506116c2818560208601610e99565b6116cb81610ec3565b840191505092915050565b60006080820190506116eb6000830187610fce565b6116f86020830186610fce565b61170560408301856110e4565b8181036060830152611717818461169d565b905095945050505050565b60007fffffffff0000000000000000000000000000000000000000000000000000000082169050919050565b61175781611722565b811461176257600080fd5b50565b6000815190506117748161174e565b92915050565b6000602082840312156117905761178f610f2f565b5b600061179e84828501611765565b91505092915050565b7f4552433732313a207472616e7366657220746f206e6f6e20455243373231526560008201527f63656976657220696d706c656d656e7465720000000000000000000000000000602082015250565b6000611803603283610e88565b915061180e826117a7565b604082019050919050565b60006020820190508181036000830152611832816117f6565b905091905056fea2646970667358221220725cd0e3bbf7efb612f8761f1b4c60e024a63dbb6938cba095c4e9d10348418d64736f6c63430008110033",
  "immutableReferences": {},
  "source": "// SPDX-License-Identifier: MIT\r\npragma solidity 0.8.17;\r\n\r\nlibrary AddressUtils\r\n{\r\n\r\n  /**\r\n   * @dev Returns whether the target address is a contract.\r\n   * @param _addr Address to check.\r\n   * @return addressCheck if _addr is a contract, false if not.\r\n   */\r\n  function isContract(\r\n    address _addr\r\n  )\r\n    internal\r\n    view\r\n    returns (bool)\r\n  {\r\n    uint256 size;\r\n\r\n    // /**\r\n    //  * XXX Currently there is no better way to check if there is a contract in an address than to\r\n    //  * check the size of the code at that address.\r\n    //  * See https://ethereum.stackexchange.com/a/14016/36603 for more details about how this works.\r\n    //  * TODO: Check this again before the Serenity release, because all addresses will be\r\n    //  * contracts then.\r\n    //  */\r\n    // assembly { size := extcodesize(_addr) } // solhint-disable-line\r\n    // addressCheck = size > 0;\r\n\r\n\r\n    // This method relies on extcodesize/address.code.length, which returns 0\r\n    // for contracts in construction, since the code is only stored at the end\r\n    // of the constructor execution.\r\n    return _addr.code.length > 0;\r\n  }\r\n\r\n}\r\n\r\ninterface ERC721TokenReceiver {\r\n    /// @notice Handle the receipt of an NFT\r\n    /// @dev The ERC721 smart contract calls this function on the recipient\r\n    ///  after a `transfer`. This function MAY throw to revert and reject the\r\n    ///  transfer. Return of other than the magic value MUST result in the\r\n    ///  transaction being reverted.\r\n    ///  Note: the contract address is always the message sender.\r\n    /// @param _operator The address which called `safeTransferFrom` function\r\n    /// @param _from The address which previously owned the token\r\n    /// @param _tokenId The NFT identifier which is being transferred\r\n    /// @param _data Additional data with no specified format\r\n    /// @return `bytes4(keccak256(\"onERC721Received(address,address,uint256,bytes)\"))`\r\n    ///  unless throwing\r\n    function onERC721Received(address _operator, address _from, uint256 _tokenId, bytes calldata _data) external returns(bytes4);\r\n}\r\n\r\ninterface ERC721 /* is ERC165 */ {\r\n    /// @dev This emits when ownership of any NFT changes by any mechanism.\r\n    ///  This event emits when NFTs are created (`from` == 0) and destroyed\r\n    ///  (`to` == 0). Exception: during contract creation, any number of NFTs\r\n    ///  may be created and assigned without emitting Transfer. At the time of\r\n    ///  any transfer, the approved address for that NFT (if any) is reset to none.\r\n    event Transfer(address indexed _from, address indexed _to, uint256 indexed _tokenId);\r\n\r\n    /// @dev This emits when the approved address for an NFT is changed or\r\n    ///  reaffirmed. The zero address indicates there is no approved address.\r\n    ///  When a Transfer event emits, this also indicates that the approved\r\n    ///  address for that NFT (if any) is reset to none.\r\n    event Approval(address indexed _owner, address indexed _approved, uint256 indexed _tokenId);\r\n\r\n    /// @dev This emits when an operator is enabled or disabled for an owner.\r\n    ///  The operator can manage all NFTs of the owner.\r\n    event ApprovalForAll(address indexed _owner, address indexed _operator, bool _approved);\r\n\r\n    /// @notice Count all NFTs assigned to an owner\r\n    /// @dev NFTs assigned to the zero address are considered invalid, and this\r\n    ///  function throws for queries about the zero address.\r\n    /// @param _owner An address for whom to query the balance\r\n    /// @return The number of NFTs owned by `_owner`, possibly zero\r\n    function balanceOf(address _owner) external view returns (uint256);\r\n\r\n    /// @notice Find the owner of an NFT\r\n    /// @dev NFTs assigned to zero address are considered invalid, and queries\r\n    ///  about them do throw.\r\n    /// @param _tokenId The identifier for an NFT\r\n    /// @return The address of the owner of the NFT\r\n    function ownerOf(uint256 _tokenId) external view returns (address);\r\n\r\n    /// @notice Transfers the ownership of an NFT from one address to another address\r\n    /// @dev Throws unless `msg.sender` is the current owner, an authorized\r\n    ///  operator, or the approved address for this NFT. Throws if `_from` is\r\n    ///  not the current owner. Throws if `_to` is the zero address. Throws if\r\n    ///  `_tokenId` is not a valid NFT. When transfer is complete, this function\r\n    ///  checks if `_to` is a smart contract (code size > 0). If so, it calls\r\n    ///  `onERC721Received` on `_to` and throws if the return value is not\r\n    ///  `bytes4(keccak256(\"onERC721Received(address,address,uint256,bytes)\"))`.\r\n    /// @param _from The current owner of the NFT\r\n    /// @param _to The new owner\r\n    /// @param _tokenId The NFT to transfer\r\n    /// @param data Additional data with no specified format, sent in call to `_to`\r\n    function safeTransferFrom(address _from, address _to, uint256 _tokenId, bytes calldata data) external payable;\r\n\r\n    /// @notice Transfers the ownership of an NFT from one address to another address\r\n    /// @dev This works identically to the other function with an extra data parameter,\r\n    ///  except this function just sets data to \"\".\r\n    /// @param _from The current owner of the NFT\r\n    /// @param _to The new owner\r\n    /// @param _tokenId The NFT to transfer\r\n    function safeTransferFrom(address _from, address _to, uint256 _tokenId) external payable;\r\n\r\n    /// @notice Transfer ownership of an NFT -- THE CALLER IS RESPONSIBLE\r\n    ///  TO CONFIRM THAT `_to` IS CAPABLE OF RECEIVING NFTS OR ELSE\r\n    ///  THEY MAY BE PERMANENTLY LOST\r\n    /// @dev Throws unless `msg.sender` is the current owner, an authorized\r\n    ///  operator, or the approved address for this NFT. Throws if `_from` is\r\n    ///  not the current owner. Throws if `_to` is the zero address. Throws if\r\n    ///  `_tokenId` is not a valid NFT.\r\n    /// @param _from The current owner of the NFT\r\n    /// @param _to The new owner\r\n    /// @param _tokenId The NFT to transfer\r\n    function transferFrom(address _from, address _to, uint256 _tokenId) external payable;\r\n\r\n    /// @notice Change or reaffirm the approved address for an NFT\r\n    /// @dev The zero address indicates there is no approved address.\r\n    ///  Throws unless `msg.sender` is the current NFT owner, or an authorized\r\n    ///  operator of the current owner.\r\n    /// @param _approved The new approved NFT controller\r\n    /// @param _tokenId The NFT to approve\r\n    function approve(address _approved, uint256 _tokenId) external payable;\r\n\r\n    /// @notice Enable or disable approval for a third party (\"operator\") to manage\r\n    ///  all of `msg.sender`'s assets\r\n    /// @dev Emits the ApprovalForAll event. The contract MUST allow\r\n    ///  multiple operators per owner.\r\n    /// @param _operator Address to add to the set of authorized operators\r\n    /// @param _approved True if the operator is approved, false to revoke approval\r\n    function setApprovalForAll(address _operator, bool _approved) external;\r\n\r\n    /// @notice Get the approved address for a single NFT\r\n    /// @dev Throws if `_tokenId` is not a valid NFT.\r\n    /// @param _tokenId The NFT to find the approved address for\r\n    /// @return The approved address for this NFT, or the zero address if there is none\r\n    function getApproved(uint256 _tokenId) external view returns (address);\r\n\r\n    /// @notice Query if an address is an authorized operator for another address\r\n    /// @param _owner The address that owns the NFTs\r\n    /// @param _operator The address that acts on behalf of the owner\r\n    /// @return True if `_operator` is an approved operator for `_owner`, false otherwise\r\n    function isApprovedForAll(address _owner, address _operator) external view returns (bool);\r\n}\r\n\r\ncontract ERC721Token is ERC721 {\r\n\r\n  using AddressUtils for address;\r\n\r\n  mapping(address => uint) private ownerToTokenCount;\r\n  mapping(uint => address) private idToOwner;\r\n  mapping(uint => address) private idToApproved;\r\n  mapping(address => mapping(address => bool)) private ownerToOperators;\r\n\r\n  bytes4 internal constant MAGIC_ON_ERC721_RECEIVED = 0x150b7a02;\r\n\r\n  string public name;\r\n  string public symbol;\r\n  string public tokenURIBase;\r\n\r\n  //address public admin;\r\n  uint public nextTokenId;\r\n\r\n  constructor(\r\n    string memory _name,\r\n    string memory _symbol,\r\n    string memory _tokenURIBase\r\n  ) {\r\n    //admin = msg.sender;\r\n    name = _name;\r\n    symbol = _symbol;\r\n    tokenURIBase = _tokenURIBase;\r\n  }\r\n\r\n  function tokenURI(uint _tokenId) external view returns(string memory) {\r\n    return string(abi.encodePacked(tokenURIBase, '/', _tokenId));\r\n  }\r\n\r\n  // function mint() external {\r\n  //   require(msg.sender == admin, 'only admin');\r\n  //   ownerToTokenCount[admin]++;\r\n  //   idToOwner[nextTokenId] = admin;\r\n  //   emit Transfer(address(0), admin, nextTokenId);\r\n  //   nextTokenId++;\r\n  // }\r\n\r\n  function _mint(uint _tokenId, address owner) internal {\r\n    require(idToOwner[_tokenId] == address(0), 'this token already exist');\r\n    idToOwner[_tokenId] = owner;\r\n    ownerToTokenCount[owner] += 1;\r\n    emit Transfer(address(0), owner, _tokenId);\r\n  }\r\n\r\n  function balanceOf(address _owner) external view returns (uint) {\r\n    return ownerToTokenCount[_owner];\r\n  }\r\n\r\n  function ownerOf(uint256 _tokenId) public view returns (address) {\r\n    return idToOwner[_tokenId];\r\n  }\r\n\r\n  function safeTransferFrom(address _from, address _to, uint _tokenId, bytes calldata data) external payable {\r\n    _safeTransferFrom(_from, _to, _tokenId, data);\r\n  }\r\n\r\n  function safeTransferFrom(address _from, address _to, uint _tokenId) external payable {\r\n    _safeTransferFrom(_from, _to, _tokenId, '');\r\n  }\r\n\r\n  function transferFrom(address _from, address _to, uint _tokenId) external payable {\r\n    _transfer(_from, _to, _tokenId);\r\n  }\r\n\r\n  function approve(address _approved, uint _tokenId) external payable {\r\n    address owner = idToOwner[_tokenId];\r\n    require(msg.sender == owner, 'Not authorised');\r\n    idToApproved[_tokenId] = _approved;\r\n    emit Approval(owner, _approved, _tokenId);\r\n  }\r\n\r\n  function setApprovalForAll(address _operator, bool _approved) external {\r\n    ownerToOperators[msg.sender][_operator] = _approved;\r\n    emit ApprovalForAll(msg.sender, _operator, _approved);\r\n  }\r\n\r\n  function getApproved(uint256 _tokenId) external view returns (address) {\r\n    return idToApproved[_tokenId];\r\n  }\r\n\r\n  function isApprovedForAll(address _owner, address _operator) external view returns (bool) {\r\n    return ownerToOperators[_owner][_operator];\r\n  }\r\n\r\n  function _safeTransferFrom(address _from, address _to, uint256 _tokenId, bytes memory data) internal {\r\n    _transfer(_from, _to, _tokenId);\r\n\r\n    /// from openzepellin\r\n    bool returnValue = _checkOnERC721Received(_from, _to, _tokenId, data);\r\n    require(returnValue == true, 'recipient smart contract cannot handle ERC721 tokens');\r\n\r\n    // /// test that address is smart contract\r\n    // if (address(_to).isContract()) {\r\n    //   /// call smart contract and execute predefined function\r\n    //   bytes4 returnValue = ERC721TokenReceiver(_to).onERC721Received(msg.sender, _from, _tokenId, data);\r\n\r\n    //   /// compare this vallue with predifined value\r\n    //   require(returnValue == MAGIC_ON_ERC721_RECEIVED, 'recipient smart contract cannot handle ERC721 tokens');\r\n    // }\r\n  }\r\n\r\n  function _transfer(address _from, address _to, uint256 _tokenId) internal canTransfer(_tokenId) {\r\n    ownerToTokenCount[_from] -= 1;\r\n    ownerToTokenCount[_to] += 1;\r\n    idToOwner[_tokenId] = _to;\r\n    emit Transfer(_from, _to, _tokenId);\r\n  }\r\n\r\n  function _checkOnERC721Received(\r\n        address from,\r\n        address to,\r\n        uint256 tokenId,\r\n        bytes memory data\r\n    ) private returns (bool) {\r\n        if (to.isContract()) {\r\n            try ERC721TokenReceiver(to).onERC721Received(msg.sender, from, tokenId, data) returns (bytes4 retval) {\r\n                return retval == ERC721TokenReceiver.onERC721Received.selector;\r\n            } catch (bytes memory reason) {\r\n                if (reason.length == 0) {\r\n                    revert(\"ERC721: transfer to non ERC721Receiver implementer\");\r\n                } else {\r\n                    /// @solidity memory-safe-assembly\r\n                    assembly {\r\n                        revert(add(32, reason), mload(reason))\r\n                    }\r\n                }\r\n            }\r\n        } else {\r\n            return true;\r\n        }\r\n    }\r\n\r\n  modifier canTransfer(uint _tokenId) {\r\n    address owner = idToOwner[_tokenId];\r\n    require(msg.sender == owner \r\n      || msg.sender == idToApproved[_tokenId]\r\n      || ownerToOperators[owner][msg.sender] == true, 'Transfer not authorised');\r\n    _;\r\n  }\r\n\r\n}",
  "sourcePath": "C:\\Development\\Products\\Blockchain\\Dapp30\\Dapp30\\23CryptoKitties\\contracts\\ERC721Token.sol",
  "compiler": {
    "name": "solc",
    "version": "0.8.17+commit.8df45f5f.Emscripten.clang"
  },
  "schemaVersion": "3.4.10",
  "updatedAt": "2023-02-05T20:58:55.620Z",
  "devdoc": {
    "kind": "dev",
    "methods": {
      "approve(address,uint256)": {
        "details": "The zero address indicates there is no approved address.  Throws unless `msg.sender` is the current NFT owner, or an authorized  operator of the current owner.",
        "params": {
          "_approved": "The new approved NFT controller",
          "_tokenId": "The NFT to approve"
        }
      },
      "balanceOf(address)": {
        "details": "NFTs assigned to the zero address are considered invalid, and this  function throws for queries about the zero address.",
        "params": {
          "_owner": "An address for whom to query the balance"
        },
        "returns": {
          "_0": "The number of NFTs owned by `_owner`, possibly zero"
        }
      },
      "getApproved(uint256)": {
        "details": "Throws if `_tokenId` is not a valid NFT.",
        "params": {
          "_tokenId": "The NFT to find the approved address for"
        },
        "returns": {
          "_0": "The approved address for this NFT, or the zero address if there is none"
        }
      },
      "isApprovedForAll(address,address)": {
        "params": {
          "_operator": "The address that acts on behalf of the owner",
          "_owner": "The address that owns the NFTs"
        },
        "returns": {
          "_0": "True if `_operator` is an approved operator for `_owner`, false otherwise"
        }
      },
      "ownerOf(uint256)": {
        "details": "NFTs assigned to zero address are considered invalid, and queries  about them do throw.",
        "params": {
          "_tokenId": "The identifier for an NFT"
        },
        "returns": {
          "_0": "The address of the owner of the NFT"
        }
      },
      "safeTransferFrom(address,address,uint256)": {
        "details": "This works identically to the other function with an extra data parameter,  except this function just sets data to \"\".",
        "params": {
          "_from": "The current owner of the NFT",
          "_to": "The new owner",
          "_tokenId": "The NFT to transfer"
        }
      },
      "safeTransferFrom(address,address,uint256,bytes)": {
        "details": "Throws unless `msg.sender` is the current owner, an authorized  operator, or the approved address for this NFT. Throws if `_from` is  not the current owner. Throws if `_to` is the zero address. Throws if  `_tokenId` is not a valid NFT. When transfer is complete, this function  checks if `_to` is a smart contract (code size > 0). If so, it calls  `onERC721Received` on `_to` and throws if the return value is not  `bytes4(keccak256(\"onERC721Received(address,address,uint256,bytes)\"))`.",
        "params": {
          "_from": "The current owner of the NFT",
          "_to": "The new owner",
          "_tokenId": "The NFT to transfer",
          "data": "Additional data with no specified format, sent in call to `_to`"
        }
      },
      "setApprovalForAll(address,bool)": {
        "details": "Emits the ApprovalForAll event. The contract MUST allow  multiple operators per owner.",
        "params": {
          "_approved": "True if the operator is approved, false to revoke approval",
          "_operator": "Address to add to the set of authorized operators"
        }
      },
      "transferFrom(address,address,uint256)": {
        "details": "Throws unless `msg.sender` is the current owner, an authorized  operator, or the approved address for this NFT. Throws if `_from` is  not the current owner. Throws if `_to` is the zero address. Throws if  `_tokenId` is not a valid NFT.",
        "params": {
          "_from": "The current owner of the NFT",
          "_to": "The new owner",
          "_tokenId": "The NFT to transfer"
        }
      }
    },
    "version": 1
  },
  "userdoc": {
    "kind": "user",
    "methods": {
      "approve(address,uint256)": {
        "notice": "Change or reaffirm the approved address for an NFT"
      },
      "balanceOf(address)": {
        "notice": "Count all NFTs assigned to an owner"
      },
      "getApproved(uint256)": {
        "notice": "Get the approved address for a single NFT"
      },
      "isApprovedForAll(address,address)": {
        "notice": "Query if an address is an authorized operator for another address"
      },
      "ownerOf(uint256)": {
        "notice": "Find the owner of an NFT"
      },
      "safeTransferFrom(address,address,uint256)": {
        "notice": "Transfers the ownership of an NFT from one address to another address"
      },
      "safeTransferFrom(address,address,uint256,bytes)": {
        "notice": "Transfers the ownership of an NFT from one address to another address"
      },
      "setApprovalForAll(address,bool)": {
        "notice": "Enable or disable approval for a third party (\"operator\") to manage  all of `msg.sender`'s assets"
      },
      "transferFrom(address,address,uint256)": {
        "notice": "Transfer ownership of an NFT -- THE CALLER IS RESPONSIBLE  TO CONFIRM THAT `_to` IS CAPABLE OF RECEIVING NFTS OR ELSE  THEY MAY BE PERMANENTLY LOST"
      }
    },
    "version": 1
  }
}