{
  "contractName": "SimpleStorage",
  "abi": [
    {
      "inputs": [],
      "name": "data",
      "outputs": [
        {
          "internalType": "string",
          "name": "",
          "type": "string"
        }
      ],
      "stateMutability": "view",
      "type": "function",
      "constant": true
    },
    {
      "inputs": [
        {
          "internalType": "string",
          "name": "_data",
          "type": "string"
        }
      ],
      "name": "setData",
      "outputs": [],
      "stateMutability": "nonpayable",
      "type": "function"
    },
    {
      "inputs": [],
      "name": "getData",
      "outputs": [
        {
          "internalType": "string",
          "name": "",
          "type": "string"
        }
      ],
      "stateMutability": "view",
      "type": "function",
      "constant": true
    }
  ],
  "bytecode": "0x60c060405260076080908152666d79206461746160c81b60a05260009061002690826100d8565b5034801561003357600080fd5b50610197565b634e487b7160e01b600052604160045260246000fd5b600181811c9082168061006357607f821691505b60208210810361008357634e487b7160e01b600052602260045260246000fd5b50919050565b601f8211156100d357600081815260208120601f850160051c810160208610156100b05750805b601f850160051c820191505b818110156100cf578281556001016100bc565b5050505b505050565b81516001600160401b038111156100f1576100f1610039565b610105816100ff845461004f565b84610089565b602080601f83116001811461013a57600084156101225750858301515b600019600386901b1c1916600185901b1785556100cf565b600085815260208120601f198616915b828110156101695788860151825594840194600190910190840161014a565b50858210156101875787850151600019600388901b60f8161c191681555b5050505050600190811b01905550565b610445806101a66000396000f3fe608060405234801561001057600080fd5b50600436106100415760003560e01c80633bc5de301461004657806347064d6a1461006457806373d4a13a14610079575b600080fd5b61004e610081565b60405161005b91906101b1565b60405180910390f35b610077610072366004610215565b610113565b005b61004e610123565b606060008054610090906102c6565b80601f01602080910402602001604051908101604052809291908181526020018280546100bc906102c6565b80156101095780601f106100de57610100808354040283529160200191610109565b820191906000526020600020905b8154815290600101906020018083116100ec57829003601f168201915b5050505050905090565b600061011f828261034f565b5050565b60008054610130906102c6565b80601f016020809104026020016040519081016040528092919081815260200182805461015c906102c6565b80156101a95780601f1061017e576101008083540402835291602001916101a9565b820191906000526020600020905b81548152906001019060200180831161018c57829003601f168201915b505050505081565b600060208083528351808285015260005b818110156101de578581018301518582016040015282016101c2565b506000604082860101526040601f19601f8301168501019250505092915050565b634e487b7160e01b600052604160045260246000fd5b60006020828403121561022757600080fd5b813567ffffffffffffffff8082111561023f57600080fd5b818401915084601f83011261025357600080fd5b813581811115610265576102656101ff565b604051601f8201601f19908116603f0116810190838211818310171561028d5761028d6101ff565b816040528281528760208487010111156102a657600080fd5b826020860160208301376000928101602001929092525095945050505050565b600181811c908216806102da57607f821691505b6020821081036102fa57634e487b7160e01b600052602260045260246000fd5b50919050565b601f82111561034a57600081815260208120601f850160051c810160208610156103275750805b601f850160051c820191505b8181101561034657828155600101610333565b5050505b505050565b815167ffffffffffffffff811115610369576103696101ff565b61037d8161037784546102c6565b84610300565b602080601f8311600181146103b2576000841561039a5750858301515b600019600386901b1c1916600185901b178555610346565b600085815260208120601f198616915b828110156103e1578886015182559484019460019091019084016103c2565b50858210156103ff5787850151600019600388901b60f8161c191681555b5050505050600190811b0190555056fea26469706673582212208360d97853f12b16f64d9d6b86105914a9f1091d475f5e1e5ec6f74bdb84e65d64736f6c63430008110033",
  "immutableReferences": {},
  "source": "// SPDX-License-Identifier: MIT\r\npragma solidity 0.8.17;\r\n\r\ncontract SimpleStorage {\r\n  string public data = 'my data';\r\n\r\n  function setData(string memory _data) public {\r\n    data = _data;\r\n  }\r\n\r\n  function getData() view public returns (string memory) {\r\n    return data;\r\n  }\r\n}",
  "sourcePath": "C:\\Development\\Products\\Blockchain\\Dapp30\\Dapp30\\3SimpleStorage\\contracts\\SimpleStorage.sol",
  "compiler": {
    "name": "solc",
    "version": "0.8.17+commit.8df45f5f.Emscripten.clang"
  },
  "schemaVersion": "3.4.10",
  "updatedAt": "2022-11-02T17:42:03.478Z",
  "networkType": "ethereum",
  "devdoc": {
    "kind": "dev",
    "methods": {},
    "version": 1
  },
  "userdoc": {
    "kind": "user",
    "methods": {},
    "version": 1
  }
}