{
  "contractName": "Fibonacii",
  "abi": [
    {
      "inputs": [
        {
          "internalType": "uint256",
          "name": "n",
          "type": "uint256"
        }
      ],
      "name": "fib",
      "outputs": [
        {
          "internalType": "uint256",
          "name": "",
          "type": "uint256"
        }
      ],
      "stateMutability": "pure",
      "type": "function",
      "constant": true
    }
  ],
  "bytecode": "0x608060405234801561001057600080fd5b50610276806100206000396000f3fe608060405234801561001057600080fd5b506004361061002b5760003560e01c8063c6c2ea1714610030575b600080fd5b61004a6004803603810190610045919061010a565b610060565b6040516100579190610146565b60405180910390f35b600080820361007257600090506100ca565b6000600190506000600190506000600290505b6002856100929190610190565b8110156100c357600082846100a791906101c4565b90508392508093505080806100bb906101f8565b915050610085565b5081925050505b919050565b600080fd5b6000819050919050565b6100e7816100d4565b81146100f257600080fd5b50565b600081359050610104816100de565b92915050565b6000602082840312156101205761011f6100cf565b5b600061012e848285016100f5565b91505092915050565b610140816100d4565b82525050565b600060208201905061015b6000830184610137565b92915050565b7f4e487b7100000000000000000000000000000000000000000000000000000000600052601160045260246000fd5b600061019b826100d4565b91506101a6836100d4565b92508282039050818111156101be576101bd610161565b5b92915050565b60006101cf826100d4565b91506101da836100d4565b92508282019050808211156101f2576101f1610161565b5b92915050565b6000610203826100d4565b91507fffffffffffffffffffffffffffffffffffffffffffffffffffffffffffffffff820361023557610234610161565b5b60018201905091905056fea26469706673582212205ea105e81bdf8a06f420157da3b9cc589211bf594c2073d9c225aad843045a4264736f6c63430008110033",
  "immutableReferences": {},
  "source": "// SPDX-License-Identifier: MIT\r\npragma solidity 0.8.17;\r\n\r\ncontract Fibonacii {\r\n  \r\n  function fib(uint n) pure external returns(uint) {\r\n    if (n == 0) {\r\n      return 0;\r\n    }\r\n\r\n    uint f1 = 1;\r\n    uint f2 = 1;\r\n\r\n    for(uint i = 2; i < n - 2; i++) {\r\n      uint fi = f1 + f2;\r\n      f2 = f1;\r\n      f1 = fi;\r\n    }\r\n\r\n    return f1;\r\n  }\r\n}",
  "sourcePath": "C:\\Development\\Products\\Blockchain\\Dapp30\\Dapp30\\12Fibonacci\\contracts\\Fibonacci.sol",
  "compiler": {
    "name": "solc",
    "version": "0.8.17+commit.8df45f5f.Emscripten.clang"
  },
  "schemaVersion": "3.4.10",
  "updatedAt": "2022-11-06T20:24:53.287Z",
  "networkType": "ethereum",
  "devdoc": {
    "kind": "dev",
    "methods": {},
    "version": 1
  },
  "userdoc": {
    "kind": "user",
    "methods": {},
    "version": 1
  }
}